:020000040800F2
:10000000309A00207D020008AF100008B9080008EF
:10001000AD100008FD030008ED1A00080000000004
:10002000000000000000000000000000C501000802
:10003000F10400080000000019020008C1180008BF
:10004000970200089702000897020008970200082C
:100050009702000897020008690600089702000846
:10006000970200089702000897020008970200080C
:1000700097020008970200089702000897020008FC
:1000800097020008970200089702000897020008EC
:1000900097020008970200089702000897020008DC
:1000A00097020008970200089702000897020008CC
:1000B00097020008970200089702000897020008BC
:1000C00097020008970200089702000897020008AC
:1000D00097020008311900089702000897020008EB
:1000E0006B060008970200089702000897020008B4
:1000F000970200089702000897020008970200087C
:10010000970200089702000897020008970200086B
:10011000970200089702000897020008970200085B
:10012000970200089702000897020008970200084B
:10013000970200089702000897020008970200083B
:10014000970200089702000897020008970200082B
:10015000970200089702000897020008970200081B
:10016000970200089702000897020008970200080B
:1001700097020008970200089702000897020008FB
:1001800097020008970200089702000897020008EB
:1001900097020008970200089702000897020008DB
:1001A000970200089702000897020008DFF810D0B5
:1001B00000F0BAF80048004709200008AFF30080BB
:1001C000309A00202A4B19680868B0E8F04F80F395
:1001D0000988BFF36F8F4FF0000080F311887047DC
:1001E0000000000006480068006880F3088862B6D6
:1001F00061B6BFF34F8FBFF36F8F00DF00BF00BF4B
:1002000008ED00E0DFF80C00016841F470010160C6
:10021000704700BF88ED00E0EFF30980BFF36F8FF8
:10022000134B1A681EF0100F08BF20ED108A20E94A
:10023000F04F106008B44FF0500080F31188BFF306
:100240004F8FBFF36F8F02F0F5FE4FF0000080F389
:10025000118808BC19680868B0E8F04F1EF0100F4C
:1002600008BFB0EC108A80F30988BFF36F8F704726
:100270005C000020EFF305807047000006488047CF
:1002800006480047FEE7FEE7FEE7FEE7FEE7FEE77B
:10029000FEE7FEE7FEE7FEE7D5180008AD0100081F
:1002A00040EA01039B0703D009E008C9121F08C0F8
:1002B000042AFAD203E011F8013B00F8013B521E78
:1002C000F9D270472DE9F05F0546002092469B4623
:1002D00088460646814640241BE02846414647465C
:1002E000224600F042F853465A46C01A914110D3B4
:1002F00011461846224600F029F82D1A67EB01082E
:100300004F4622460120002100F020F817EB00099B
:100310004E41201EA4F10104DFDC484631462A4646
:100320004346BDE8F09F0000064C074D06E0E0683C
:1003300040F0010394E8070098471034AC42F6D32C
:10034000FFF738FF6C5000088C500008202A04DBAF
:10035000203A00FA02F1002070479140C2F12003D8
:1003600020FA03F3194390407047202A04DB203A17
:1003700021FA02F00021704721FA02F3D040C2F1C5
:100380002002914008431946704700001CB502F056
:1003900081FB0E480224CDE90040002362020CA13B
:1003A000104803F0E3FA09480023001DCDE900409E
:1003B00022020DA1104803F0D9FA04480C388068D5
:1003C00002F0AEFCBDE81C4002F0A0BB30000020F3
:1003D00050726F746F636F6C5F416E616C7973699B
:1003E0007300000029110008526573706F6E736509
:1003F0005F5461736B00000001130008FEE710B545
:100400000121CC05204600F0D9FE2046BDE8104071
:10041000002100F0D3BE0000034A014600205268CC
:100420000A4200D00120704700B0024030B52A4B8C
:1004300000241968294A114019601968026811439B
:100440001960596B21F007015963596B42681143D8
:100450005963416841B301292DD0022930D00329C5
:10046000C16832D00A010169446909022403856820
:10047000214315430D43996B0D439D638169D963F6
:10048000196C6FF30D011964196CC2691143196479
:10049000818C5A6C02F040425A645A6C006A0243E2
:1004A00042EA01425A6430BDC168047D0A02018AF1
:1004B00009042406DBE7C1680A02018A0904D6E7B9
:1004C000C1684A010169C902D1E74A010169446969
:1004D0008902E403CBE7000000B00240FCE0FCFF2F
:1004E0000248016841F001010160704700B002401C
:1004F00070470000F0B5012187B0084600F052FEB9
:100500000121102000F072FE022500248DF8064023
:1005100001268DF807602802234F8DF805500090C2
:100520008DF804506946384600F078F9680200906A
:100530008DF804506946384600F070F907220A2108
:10054000384600F0A7F907220921384600F0A2F941
:100550004FF4E1300290ADF810400C20134DADF88F
:100560000C40ADF81200ADF80E40ADF8144002A9F1
:10057000284601F05DFA25208DF8180005208DF839
:1005800019008DF81A408DF81B6006A800F090FD48
:10059000012240F22551284601F032FA0121284675
:1005A00001F0FEF907B0F0BD00000240001001406C
:1005B0002DE9F043DFF88C8091B0234898F8016072
:1005C00000F05AFC214F38780A2804D3002000F0AC
:1005D00075F90020387000216FF07F4000F046FC74
:1005E00000F0ACFBC0883978484380B200F092F943
:1005F00017A24021684601F095FA04460025E94615
:100600000CE008EB0500C4F14001837809EB04001D
:1006100013A201F087FA6D1C0444EDB2B54202D278
:10062000601D4028EDDB00F089FBC0883978484325
:1006300080B2694600F09AF93878401C387011B0E1
:10064000BDE8F083D40000205400002024000020E6
:10065000526563656976656420446174613A20007F
:1006600030782530325820007047704700224FF014
:10067000204310280AD0B0F5807F09D0B0F5805F04
:1006800009D0D3F85801814309D107E0586EFAE741
:10069000D3F88400F7E7D3F8A400F4E7012210466A
:1006A0007047D0E90012114382686FF01F03C068E1
:1006B00003EB421242EA402001434FF02040C0F8D1
:1006C00050117047F0B50668B100A1F1C041D1F8F2
:1006D0004011CD0BD0E901121143D0E903231A4395
:1006E00011434269046A11438269436A1143C26932
:1006F000ED0311432143194329434FF02045EEB345
:10070000D5F8406122436FF30E0633431A43C5F810
:10071000402102689200A2F1C042C2F840116FF07D
:100720000F02130114030168160441B38900A1F1FB
:10073000C041D1F8481101F0704C816AD1E9007EC6
:1007400002EB0E127F1E17438A6803EB0222174347
:100750000A8A04EB02421743D5F8482147EA0C07FE
:1007600002F07043CA68898A120306EB0151A2F5B0
:1007700080520A431A43C5F8482101E007E009E026
:1007800000688000A0F1C040C0F84871F0BDC5F815
:100790004011C4E7D5F84811806A01F07047D0E9EC
:1007A000001C02EB0C12491E1143826803EB02226B
:1007B00011430B4BC26803EB02321143028A04EB74
:1007C00002421143828A007E06EB025211431A0351
:1007D00002EB006001433943C5F84811F0BD000049
:1007E00000F0FFFF4FF02041D1F8542142EA4000D1
:1007F000C1F854017047000008B54FF48070ADF89F
:10080000000005484188002905D000231A466946A2
:10081000406802F037FF08BD24000020F0B5002238
:1008200001274FF0030C0B6807FA02F52B40AB428F
:100830002CD1066853000CFA03F4A64306600E7927
:10084000D0F800E09E4046EA0E0606600E79012EC2
:1008500001D0022E12D18668A64386604E79D0F868
:1008600008E09E4046EA0E0686604668AE43466053
:1008700045688E799640B6B235434560C568A54354
:10088000C560CC799C40C3681C43C460521C102ACC
:10089000C9D3F0BD4B07DB0E9A40C90810B500EB79
:1008A0008100016A0F249C40A1430162016A114347
:1008B000016210BD01837047FEE7000070B58AB089
:1008C000C0F30745C0F30724C6B2FFF798FD4FF405
:1008D0004030009001200394CDE901060F20CDE9BE
:1008E00004500B4880680690002007904FF4F07089
:1008F00008904FF4487009906846FFF797FDFFF79E
:10090000EFFD0220FFF788FD0028FAD00AB070BD85
:1009100040000020F0B5074600240B4D4FF4487608
:100920000AE020222146384600F010F82869808825
:10093000204484B2B44205D228698088011989B262
:100940008142EED2F0BD000040000020203AD3B238
:10095000054A10B412691468D2885A4304EB420263
:1009600010BC00F025B80000400000202DE9F04147
:100970000D46804600240D4E4FF448770AE021468C
:100980004046FFF7E3FF30696D1C8088204484B245
:10099000BC4208D22A78002A05D030698088011923
:1009A00089B28142EBD2BDE8F08100004000002016
:1009B0002DE9F043DFF884C0914600234FF416621E
:1009C0005043DCF80860DCF8105031E0002227E0EA
:1009D0000C27B4FBF7F7FF004FF0800808FA07F880
:1009E00039F8137048FA02F818EA070F01D10C2CF5
:1009F00008D94FF0010808FA02F817EA080F04D1E5
:100A00000C2C02D9DCF8047001E0DCF8007001EB7A
:100A100041043444275204443F0CA770491C521C23
:100A2000AC889442D4D8A2B2C2F5487211445B1C7F
:100A3000EA889A42CAD8BDE8F0830000400000204E
:100A40002DE9FC5F012140F2FF1000F0ABFB02201A
:100A50008DF805008DF8040000208DF806004FF099
:100A600004088DF80700CDF800806946AA48FFF712
:100A7000D5FE0E220221A848FFF70CFF4FF0080A0E
:100A80006946A548CDF800A0FFF7C8FE0E22032155
:100A9000A148FFF7FFFE4FF48070009069469E4822
:100AA000FFF7BCFE0E2208219B48FFF7F3FE01244E
:100AB00069469A480094FFF7B1FE09220021974841
:100AC000FFF7E8FE4FF4006B69469548CDF800B09B
:100AD000FFF7A4FE0E220B219148FFF7DBFE4FF437
:100AE000805969468E48CDF80090FFF797FE0E2298
:100AF0000C218B48FFF7CEFE022000906946874804
:100B0000FFF78CFE092201218448FFF7C3FE402530
:100B1000694684480095FFF781FE0E220621814830
:100B2000FFF7B8FE2020009069467F48FFF776FE69
:100B30000E2205217C48FFF7ADFE69467A480095F4
:100B4000FFF76CFE0E2206217748FFF7A3FE600335
:100B5000009069467048FFF761FE0E220D216E4835
:100B6000FFF798FEA60269466E480096FFF756FE0C
:100B700009220A216B48FFF78DFEE00300906946C9
:100B80006548FFF74BFE0E220F216348FFF782FEF8
:100B9000694666480094FFF741FE0E220021634833
:100BA000FFF778FE8027694661480097FFF736FE19
:100BB0000E2207215E48FFF76DFE69465B48CDF8BF
:100BC0000080FFF72BFE0E2202215848FFF762FE3D
:100BD0004FF0100869465448CDF80080FFF71EFE1C
:100BE0000E2204215048FFF755FE69464D48CDF8C6
:100BF0000090FFF713FE0E220C214A48FFF74AFE31
:100C0000DFF83091694648460095FFF707FE0E224F
:100C100006214846FFF73EFE69464248CDF800B03F
:100C2000FFF7FCFD0E220B213E48FFF733FE69461D
:100C30003E48CDF80080FFF7F1FD0E2204213B482D
:100C4000FFF728FE69463648CDF800A0FFF7E6FD1D
:100C50000E2203213248FFF71DFE20020090694654
:100C60002E48FFF7DBFD0E2208212C48FFF712FE6D
:100C70006502694629480095FFF7D0FD0E2209213B
:100C80002648FFF707FE694626480097FFF7C6FD8E
:100C90000E2207212348FFF7FDFD694623480096F1
:100CA000FFF7BCFD0E220A212048FFF7F3FD69463D
:100CB0001E480095FFF7B2FD0E2209211B48FFF7E1
:100CC000E9FD1D4D694628460096FFF7A7FD0E2257
:100CD0000A212846FFF7DEFD02208DF805008DF879
:100CE000044000208DF80600CDF800808DF8074004
:100CF00069464846FFF792FD694648460097FFF768
:100D00008DFD10214846FFF7D5FD80214846FFF7AD
:100D1000D1FDBDE8FC9F0000001C02400004024021
:100D20000000024000180240001002400020024073
:100D300000080240000C0240001402400148006913
:100D4000704700004000002000B501218FB08806E8
:100D500000F04CFA0121C80500F024FAFFF770FEFC
:100D600000F0BEFC062207214FF4D27000F0BEFA5C
:100D70004FF4003000F0AAFA012000F0B1FA3D2053
:100D800000F08AFA0028FAD0002000900290039028
:100D90000E9001900C900D90049005902E200690DE
:100DA0001720079040F24E30089040F2F71009905B
:100DB00040F262300A9040F20D200B90684600F03D
:100DC000C3F8012000F0B2F80FB000BD30B591B00B
:100DD0002F20009040F24E3001901820029040F2F7
:100DE000F710039001200490FF20059006900790D3
:100DF000089009904FF480600724CDE90A0440F67A
:100E000063100D90C01E0E904FF4F0700F904FF0D5
:100E10005040124D0C906946284600F0F5F81049F4
:100E20004FF4C0600A90CDE90B410C4C6946803408
:100E3000204600F0E9F8012000F032F901212846AF
:100E400000F0D8F80121204600F0D4F8012000F08D
:100E500027F905490348086111B030BD8468014095
:100E6000009411D05400002040000020014AC2E943
:100E700000017047400000200149086170470000F0
:100E800040000020054920B1054888600120C86065
:100E900070474FF0504088600020F8E74000002085
:100EA000009411D0084910B5C9680029014607D03F
:100EB000064800F09DF8BDE81040012000F0F0B8B1
:100EC00002488038F5E70000400000200469014036
:100ED0002DE9FC410121802000F064F901208DF80A
:100EE000040000218DF806108DF807000E4F4FF416
:100EF00080648DF80510009469463846FFF78EFC33
:100F00006500694638460095FFF788FCA6006946EB
:100F100038460096FFF782FC0348183004800580AD
:100F20000680BDE8FC810000001C02400549002845
:100F3000086802D040F0010001E020F001000860E4
:100F4000704700001868014030B5264A13682649EA
:100F50000B401360038A146845692C4344EA034438
:100F60001460121D13680B401360038B1468C5696D
:100F70002C4344EA03441460121D13680B401360B1
:100F8000038C1468456A2C4344EA03441460121D20
:100F900013680B401360018D1368C46A234343EA4E
:100FA00001431360111D0A68104B1A400A60D0E912
:100FB00000231A43D0E9023423431A430B681A432F
:100FC0000A60416B0A02018E0B04064924310C6849
:100FD00004F07F440C600C68806B134304431C4393
:100FE0000C6030BD0868014000F800F08F88FE0FEB
:100FF000416170470029016802D041F0010101E020
:1010000021F001010160704770B58A88436803F4DC
:10101000704343600B6843EA024343608A898368F4
:1010200003F4704383608B6843EA02438360026980
:1010300022F0070202610A690261CA6991F824304C
:1010400014020A8C85691204002686618D6942EAC1
:101050000362254315438561426922F0FF02426124
:101060004A694261C26940F207739A43C261D1E999
:101070000A231A43C261826A86620A6B82620A8FFD
:10108000C36A03F0E023C3624B6B43EA0243C362CB
:10109000026B6FF30A020263C96B016370BD00004B
:1010A000014908607047000024680140FEE770476E
:1010B00030B50F23C27801780125FAB1144A1268BD
:1010C00001F1E02102F4E062C2F5E062C2F307221E
:1010D000C2F10404D3404278A24084781C401443F7
:1010E000220181F80024007800F01F018D404009A2
:1010F000800000F1E020C0F8005130BD01F01F0079
:1011000085404809800000F1E020C0F8805130BDE2
:101110000CED00E0024908430249086070470000F6
:101120000000FA050CED00E01CB51C4C1C4E4FF005
:10113000FF37002500233A4601A9606802F092F9C2
:101140000128F7D1BDF80410B1F5807F07D0608881
:10115000B0F5007FEED23154401C6080EAE70023F6
:1011600000951A460321606902F04EFE608803284C
:1011700011D33178AA290ED1311811F8011C552943
:1011800009D17178C91C814205D1FFF711FA0121FB
:10119000A06901F09FFF6580CCE7000024000020DB
:1011A000D4000020044A0029116801D0014300E066
:1011B000814311607047000030380240044A002922
:1011C000116801D0014300E08143116070470000C5
:1011D00010380240044A0029116801D0014300E0A0
:1011E000814311607047000038380240044A0029EA
:1011F000116801D0014300E0814311607047000095
:101200004438024070B5204B1968204C11F00C0195
:1012100004D01F4E042903D0082903D004601BE02A
:10122000066019E0184A121F1168C1F38055116851
:1012300001F03F0115B1B6FBF1F101E0B4FBF1F1B2
:1012400014681268C4F388146143C2F30142521C4B
:101250005200B1FBF2F1016019680F2202EA11118C
:101260000C4A545C0168E14041601C68072505EAAE
:101270009424145D21FA04F484601B6805EA533356
:10128000D25CD140C16070BD083802400024F40037
:1012900040787D01140000200246002051090129F8
:1012A0000BD002290CD00849096802F01F02012363
:1012B00093400B4200D00120704703497439F3E793
:1012C0000149091FF0E7000074380240034A116821
:1012D00021F4403101431160704700008C38024016
:1012E000014908677047000000004742800140EA5A
:1012F0000160024940EA0270086070478838024085
:101300001CB511A0DFF844900068114E114F4FF04A
:10131000FF3801AD01900122CDF800800023114675
:10132000D9F8180001F032FFC007F4D0002430468D
:10133000295D00F0DCFB641CE4B2042CF7D33868B0
:1013400080F480603860E6E7AA010155240000209F
:1013500000100140141C02402DE9FC5F0121FC201B
:10136000FFF720FF02208DF804008DF80500002013
:101370008DF806008DF80700012000906946D248DC
:10138000FFF74CFA0C220021CF48FFF783FA022026
:1013900000906946CC48FFF741FA0C220121CA4867
:1013A000FFF778FA042000906946C748FFF736FA3D
:1013B0000C220221C448FFF76DFA0820009069460C
:1013C000C148FFF72BFA0C220321BF48FFF762FA4E
:1013D0004FF010086946BC48CDF80080FFF71EFAB0
:1013E0000C220421B848FFF755FA202000906946E6
:1013F000B548FFF713FA0C220521B348FFF74AFA64
:101400004FF480596946B048CDF80090FFF706FACE
:101410000C221146AC48FFF73DFA4FF40050009003
:101420006946A948FFF7FAF90C220D21A648FFF7F3
:1014300031FA4FF480456946A3480095FFF7EEF96D
:101440000C220E21A048FFF725FA6C0069469E4841
:101450000094FFF7E3F90C220F219B48FFF71AFADB
:101460000120009069469948FFF7D8F90C22002125
:101470009648FFF70FFA0220009069469348FFF75D
:10148000CDF90C2201219148FFF704FA69469048F2
:101490000095FFF7C3F90C220E218D48FFF7FAF9EA
:1014A00069468B480094FFF7B9F90C220F21884850
:1014B000FFF7F0F90120009069468548FFF7AEF983
:1014C0000C2200218248FFF7E5F9022000906946CE
:1014D0007F48FFF7A3F90C2201217D48FFF7DAF9D5
:1014E0008020009069467B48FFF798F90C2207217D
:1014F0007848FFF7CFF9E611694676480096FFF77E
:101500008DF90C2208217348FFF7C4F9A711694629
:1015100070480097FFF782F90C2209216D48FFF708
:10152000B9F94FF4806A69466A48CDF800A0FFF720
:1015300075F90C220A216748FFF7ACF94FF4006BEC
:1015400069466448CDF800B0FFF768F90C220B211A
:101550006048FFF79FF969465E48CDF80090FFF7B5
:101560005DF90C2211465B48FFF794F9A01000903A
:1015700069465848FFF752F90C220D215548FFF7EC
:1015800089F9694653480095FFF748F90C220E2166
:101590005048FFF77FF969464E480094FFF73EF93F
:1015A0000C220F214B48FFF775F969464848009611
:1015B000FFF734F90C2208214548FFF76BF969461B
:1015C00043480097FFF72AF90C2209214048FFF70A
:1015D00061F969463E48CDF800A0FFF71FF90C22DB
:1015E0000A213B48FFF756F940203B4D00906946E1
:1015F0002846FFF713F90C2206212846FFF74AF97F
:1016000069463248CDF80080FFF708F90C22042122
:101610002E48FFF73FF92020009069462B48FFF73E
:10162000FDF80C2205212948FFF734F901202B4F42
:10163000009069463846FFF7F1F80C220021384641
:10164000FFF728F969462048CDF800B0FFF7E6F823
:101650000C220B211C48FFF71DF969461B4800941A
:10166000FFF7DCF80C220F211848FFF713F9694641
:1016700016480096FFF7D2F80C2208211348FFF70E
:1016800009F98020009069462846FFF7C7F80C2228
:1016900007212846FFF7FEF80220009069460D4812
:1016A000FFF7BCF80C2201210A48FFF7F3F80120EC
:1016B000009069460748FFF7B1F80C220021054861
:1016C000FFF7E8F8BDE8FC9F001402400018024054
:1016D000000C024000100240001C024000080240C2
:1016E00000B593B0FFF738FE01210846FFF772FD01
:1016F0000421022007220D91CDE90B02CDE90E2035
:1017000010901190012000900020CDE901011021DE
:101710000391402104914FF4C071CDE905104FF4BD
:101720000061CDE90710880009900BA80A9068466F
:10173000FEF7C8FF00F002F813B000BDF0B585B0A9
:10174000012408250026CDE90246CDE900452021E7
:101750000120FEF78BFF0028F9D16846FEF7A1FFB4
:101760000A2022480490401E0490FCD10220CDE9BA
:101770000005CDE9024620210120FEF777FF002871
:10178000F9D16846FEF78DFF0320042703968DE804
:10179000A10020210120FEF769FF0028F9D1684649
:1017A000FEF77FFF20210120FEF760FF0028F9D11E
:1017B0006846FEF776FF40F23120CDE90240CDE9E0
:1017C000007520210120FEF751FF0028F9D168465D
:1017D000FEF767FF40F26A50FFF704F8202101206E
:1017E000FEF744FF0028F9D105B0F0BD40420F00DC
:1017F0001CB500212E4A00910191106840F4803000
:1018000010604FF4A043106800F40030019000987D
:10181000401C0090019810B900989842F3D11068CC
:10182000800342D50120019021484030016841F0F9
:10183000805101601F49086840F4404008601C481E
:10184000083003680360036843F4004303600368DF
:1018500043F4A0530360041F174B2360136843F045
:101860008073136013689B01FCD50A6842F48032D0
:101870000A604A68D203FCD50A6842F400320A6062
:101880004A689203FCD50D4A40F205711160016867
:1018900021F003010160016841F00201016001686B
:1018A000C1F381010229FAD11CBD01911CBD0000C8
:1018B0000038024000700040195A4007003C0240C6
:1018C00010B502F07FF8012803D0BDE8104001F008
:1018D0007BBD10BD124810B5016841F47001016074
:1018E0001048016841F0010101600E4A00210832F0
:1018F000116002680C4B1A400260031D0B4A1A600B
:10190000026822F48022026006480C300160FFF772
:101910006FFF03494FF000608039086010BD000080
:1019200088ED00E000380240FFFFF6FE1030002492
:101930003EB5174D40F22551284600F042F80028E8
:1019400025D000242846019400F0C8F8C0B2ADF8B4
:1019500008001048002301AA02A9006801F050FF06
:101960000D4D286840B102F041F80246009401ABE9
:101970000721286802F048FA0198002807D0074993
:101980004FF080500860BFF34F8FBFF36F8F3EBDA5
:1019900000100140280000203800002004ED00E085
:1019A0000029818902D041F4005101E021F4005165
:1019B000818170470246002012880A4200D001202F
:1019C000704770B501F01F0501260024C1F34213D2
:1019D00006FA05F2012B0FD0022B0FD0838A4FEAB3
:1019E00011210088134206FA01F600EA060001D030
:1019F00000B10124204670BD8389F0E7038AEEE739
:101A000010B5C1F3421301F01F040121A140012BC5
:101A100007D0022B07D01430002A026805D00A43F1
:101A200004E00C30F8E71030F6E78A43026010BD9E
:101A30007FB50446008A0D46C98820F44050014312
:101A40002182A08941F20C618843A9882A89114327
:101A50006A8902431143A181A08A20F44071A889B8
:101A60000843A0826846FFF7CDFB1A48844202D0A3
:101A70001948844201D1039800E00298A189090421
:101A800000EBC00101EB0010296801D5490000E01E
:101A90008900B0FBF1F06422B0FBF2F109010B09FF
:101AA0006FF018056B4300EB8300A3891D044FF012
:101AB000320306D503EBC000B0FBF2F000F00700E4
:101AC00005E003EB0010B0FBF2F000F00F0008435C
:101AD00020817FBD00100140001401408088C0F3C8
:101AE00008007047C1F3080181807047FEE710B518
:101AF0000446FFF7F7FF80212046FFF75BFF002831
:101B0000F9D010BD0FB4054B10B503A9044A0298D3
:101B100000F032F810BC5DF814FB0000E51F00086F
:101B2000D00000200FB47CB50C0009AD01D0611EBF
:101B300000E00021CDE90001064B6A4629460898DD
:101B400000F01AF8002C02D0009A002111707CBC21
:101B50005DF814FBCF1F000802E008C8121F08C17F
:101B6000002AFAD170477047002001E001C1121F1E
:101B7000002AFBD1704700002DE9FF4F8DB00F46C2
:101B80000546002606E025280BD0DDE90F12904718
:101B90006D1C761C28780028F5D111B03046BDE8C0
:101BA000F08F0024A246A1460122E94900E0044347
:101BB00015F8013F203B02FA03F00842F7D12878DC
:101BC0002A2810D06FF02F022878A0F130010929BF
:101BD00014D80AEB8A0102EB410144F0020400EB45
:101BE000010A6D1CF0E701CF5FEA000A03D544F457
:101BF0000054CAF1000A44F002046D1C28782E2813
:101C000017D115F8010F44F004042A280ED06FF004
:101C10002F022878A0F1300109290AD809EB89019F
:101C200002EB410100EB01096D1CF2E757F8049B40
:101C30006D1C28786C280FD006DC4C2817D068283B
:101C40000DD06A2814D104E0742810D07A280FD15E
:101C50000DE044F400140AE044F4801401E044F47C
:101C600040146978814202D104F580146D1C6D1C0A
:101C700028786E281ED00CDC632830D004DC0028C5
:101C80008BD0582811D19FE0642867D069280CD1E7
:101C900064E073282DD004DC6F2872D0702804D142
:101CA00094E075286ED078286DD0DDE90F1290474A
:101CB000761C4BE1C4F30250022806D0032809D059
:101CC000042801CF09D0066040E101CFF117C0E937
:101CD00000613BE101CF068038E1067036E117F87C
:101CE000040B8DF8000000208DF80100EB46012068
:101CF00003E057F804BB4FF0FF3061074FF00001DD
:101D000002D40DE008F10101884649450FDA80450B
:101D1000F8DB1BF808100029F4D108E008F10101F4
:101D200088468142FADB1BF808100029F6D1DDE96C
:101D30000F23AAEB08008146214600F031F9304418
:101D400000EB080604E0DDE90F121BF8010B9047D9
:101D5000B8F10108F7D221464846F2E00A21C4F35F
:101D600002524FF0000B0891022A04D001CFC11794
:101D7000032A09D00AE0FF1D27F00707F7E8020150
:101D800008E02CE01EE01FE000B2C117042A01D1D8
:101D900040B2C117021E71F1000206DA0023D0EB37
:101DA000030063EB01012D2202E0220504D52B2262
:101DB0008DF82420012203E0E20701D02022F7E77A
:101DC000904653E00A210BE0102109E010214FF06A
:101DD000000B44F004044FF00809089103E00821C7
:101DE0004FF0000B0891C4F30252022A04D001CF35
:101DF0000021032A06D006E0FF1D27F00707F7E8B9
:101E0000020103E080B2042A00D1C0B24FF0000802
:101E100022072BD52A78702A07D0DDF820C08CF055
:101E2000100C5CEA0B0C05D00EE040228DF824204B
:101E3000012208E050EA010306D030238DF8243057
:101E40008DF8252002229046089B83F0080353EA70
:101E50000B030BD150EA010201D1620706D53022F3
:101E60008DF824204FF00108A9F101092A78582A99
:101E700004D038A20B9208AA0A920BE03AA2F9E722
:101E80005B46089AFEF71EFA0B9B9B5C0A9A521E51
:101E90000A92137050EA0102F2D10A98ADEB0000E9
:101EA00000F1200B600702D524F4803401E04FF0EC
:101EB0000109D94502DDA9EB0B0000E0002000EB91
:101EC0000B0141440890AAEB010AE00306D4DDE9C6
:101ED0000F232146504600F063F806444FF00009F6
:101EE00008E009A911F80900DDE90F12904709F18E
:101EF0000109761CC145F4DBE0030CD5DDE90F23B5
:101F00002146504600F04CF8064404E0DDE90F128B
:101F100030209047761C0899481E08900029F5DC6F
:101F200008E00A980A990078491C0A91DDE90F1225
:101F30009047761CBBF10001ABF1010BF1DC2146AF
:101F40005046DDE90F2300F019F806446D1C21E628
:101F5000092801003031323334353637383961627F
:101F60006364656600000000303132333435363743
:101F70003839414243444546000000002DE9F04114
:101F8000044600251E461746880404D405E0394659
:101F90002020B0476D1C641EF9D52846BDE8F081AD
:101FA0002DE9F041044600251E469046C80301D5A0
:101FB000302700E02027880404D505E04146384654
:101FC000B0476D1C641EF9D52846BDE8F0814A680B
:101FD000002A06D00A68531C0B6010704868401E27
:101FE0004860704770B5074D0446C1B22846FFF7F8
:101FF00079FD80212846FFF7DDFC0028F9D0204636
:1020000070BD0000001001407CB54FF440763046B2
:10201000FFF780F8FEF75CFFFEF76CFAFEF794FE20
:10202000FEF7D4FE0120FEF781FF0020FEF72AFF15
:102030000020FEF743FC0120FEF724FFFF20FEF7FF
:1020400031FF0020FEF73AFC002202214FF4077016
:1020500001F0D0F91A4C4FF0FF35606058B301F031
:102060002BF8A06138B31748002300901A46C82106
:1020700015A001F051FE6061E8B101F0B1FC02462B
:102080000020034600900121606901F0BDFE30464A
:10209000FFF740F81049502081F80004012004F1B6
:1020A0000801CDE90001420200230CA10F4801F014
:1020B0005DFC012801D028467CBD00F065FFFEE7ED
:1020C00024000020F90700084672616D6554696DAF
:1020D000656F75740000000025E000E041707054E9
:1020E00061736B4372656174650000008D030008C5
:1020F0002DE9F041184E0F460446F5683068001D82
:1021000000F078FC38B9306890F82C100120884035
:10211000316981433161601C07D137B13168BDE855
:10212000F0410E48091D00F0A9BC30682C44AC42B7
:102130004460316805D2B06BBDE8F041091D00F084
:1021400085BC706B091D00F081FCB06A844200D22E
:10215000B462BDE8F08100005C000020F4050020BE
:102160002DE9F041054600F095FC2D4EB068401C6D
:10217000B06030682B4F10B1706930B32BE0356020
:10218000B068012827D1002404EB840007EB80000D
:1021900000F04EFC641C202CF6D3234800F048FCD1
:1021A0002148143000F044FC1F48283000F040FC67
:1021B0001D483C3000F03CFC1B48503000F038FC1F
:1021C000194870631430B06305E03068E96AC06A8A
:1021D000884200D83560706A0121401C7062E86A4C
:1021E000326981401143316100EB800007EB8000D0
:1021F000291D00F043FC00F089FC706900280CD018
:102200003068E96AC06A884207D208494FF08050B6
:102210000860BFF34F8FBFF36F8FBDE8F081000000
:102220005C00002024030020A405002004ED00E051
:1022300010B500F02FFC0E4C2068A0B90D4800F03E
:10224000F7FB0C48143000F0F3FB0A48E060143050
:102250002061002210210A2001F0CCF8206010B18A
:1022600005A100F029FDBDE8104000F04FBC0000C2
:102270009800002008060020546D725100000000F4
:1022800070B5124E124D1CE000F0CCFE306820B14B
:10229000002401F0CBFCA4B901E00124F9E700F02F
:1022A000F9FBF068C468201D00F0A4FBA868401E7C
:1022B000A8606868401E686000F028FC204600F0B6
:1022C00049F868680028DFD170BD0000E0050020F3
:1022D0005C00002030B4026C0B46002A0BD0C168B1
:1022E0001144C1604468A14201D30168C16030BC9F
:1022F0001846FDF7D5BF30BC70472DE9F041856B1E
:10230000164604460027026CFAB17EB1E068FDF77C
:10231000C7FFE168206C091AE1602268914202D28D
:102320006168081AE060022E0DD00EE0A068FDF78B
:10233000B7FF216CA0680844A0606168884204D39C
:102340002068A06001E005B16D1E6D1CA5633846D4
:10235000BDE8F08110B50446006B00F009FC204692
:10236000BDE8104000F004BC10484FF41041420793
:1023700006D0C01D0D4920F00700411AC1F51041DB
:102380000B4A00230144C2E900030839103A21F046
:10239000070111604B600B600B1AC0E900139360DA
:1023A0004FF000405360D0607047000030060020BE
:1023B000BC000020074E4FF08054074DFFF760FF30
:1023C00030680128FAD92C60BFF34F8FBFF36F8FAD
:1023D000F4E700002403002004ED00E02DE9F047BD
:1023E000DDE909840E4682466FF00301206B01EBA4
:1023F00082010844089D20F007079946780705D018
:1024000040F22B3218A11FA0FFF77CFB00202218FE
:10241000315C82F83410315C11B1401C1028F6D3C5
:10242000002684F84360202D00D31F25201DE5627F
:1024300000F009FB04F1180000F005FB2461C5F170
:1024400020006462A061666484F848604A46514690
:10245000384600F0B9FA2060B8F1000F01D0C8F892
:102460000040BDE8F08700002E2E5C2E2E5C4672E8
:10247000656552544F535C7372635C7461736B7324
:102480002E6300004572726F723A25732C25640D1D
:102490000A00000030B5114900E011460A68824286
:1024A000FBD34B685C18844203D1406818444860F1
:1024B000084643681C18944209D1084C103C246813
:1024C000A24209D052681A4442600A681268026047
:1024D000814200D0086030BD0460F9E7BC000020F4
:1024E00070B5002441600B4D0061914206D8D11AAD
:1024F0008269914206D2011D286907E09A4203D2FF
:10250000994201D3012403E0011DE86800F09EFA1E
:10251000204670BD9800002010B5044600F0BAFABD
:10252000A06B20B1002400F0F1FA204610BD012478
:10253000F9E70000F8B5054614480E46C068C068C3
:10254000C468201D00F056FAE069012817D1A0697F
:102550002B46411932462046FFF7C2FF78B10020D2
:102560000346014600902A46204601F04DFC30B952
:1025700007494FF4027201F11C00FFF7C3FA616AC8
:1025800001B02046BDE8F040084700009800002058
:10259000643D000870B586B02F4E53E001980028C6
:1025A00006DADDE90301029A90470198002849DB29
:1025B000039C606910B1201D00F01CFA05A800F012
:1025C000A9F8054601980A283CD2DFE800F0050585
:1025D000053B273805053B270298A16903460144BE
:1025E0002A462046FFF77CFF00282BD0616A204650
:1025F0008847E069012825D1002000900298A16950
:10260000002342181946204601F0FEFBD0B940F2E3
:10261000213212A118A0FFF775FA13E00298A06109
:1026200028B94FF44E720DA113A0FFF76BFAA06901
:102630002B4641191A462046FFF752FF02E020467A
:1026400000F096FA00231A4601A9306800F00AFF4C
:102650000028A3D106B070BD980000202E2E5C2E5D
:102660002E5C4672656552544F535C7372635C74A2
:10267000696D6572732E63004572726F723A2573CD
:102680002C25640D0A000000F8B50D46064600F042
:10269000C9FC684600F03EF80446009810B101F00D
:1026A000C5FAF8BD1148ADB101690968D9B1002575
:1026B000311B2A46006800F011FB01F0B7FA002830
:1026C000EFD10B494FF080500860BFF34F8FBFF33D
:1026D0006F8FF8BDA642EBD801F0A8FA214630462C
:1026E000FFF728FFF8BD0125E2E700009800002071
:1026F00004ED00E00648416B096829B1416BC968E7
:10270000C9684968816270474FF0FF31FAE70000FD
:102710005C00002070B5054601F062F9064E0446E3
:10272000B068844203D200F009F8012000E00020E4
:1027300028602046B46070BD98000020F8B5184E9F
:1027400026E0C068C4680568201D00F053F9616A7E
:1027500020468847E06901281AD1A0692844A84288
:1027600006D924616060211DF06800F06FF90FE068
:1027700000200346014600902A46204601F044FB13
:1027800030B9084940F2923201F11C00FFF7BAF962
:10279000F06801680029D4D13169C6E90310F8BD99
:1027A00098000020643D000808484068401C05D09F
:1027B00040F20F1206A111A0FFF7A4F9502080F3F8
:1027C0001188BFF34F8FBFF36F8FFEE7C400002067
:1027D0002E2E5C2E2E5C4672656552544F535C70F3
:1027E0006F72745C525644535C41524D5F434D349A
:1027F000465C706F72742E63000000004572726F49
:10280000723A25732C25640D0A000000034600204F
:1028100012B1994302D070470B42FCD0012070479F
:10282000084CE068016839B1002139B10020FFF798
:102830002BFFFFF7AFFEF4E70121F6E7C068006861
:10284000F5E70000980000202DE9F041044600F073
:1028500021F994F9455004F1240609E0606A48B171
:10286000304601F043F908B100F0C4FA6D1E6DB2B4
:10287000002DF3DC4FF0FF3684F8456000F046F998
:1028800000F008F994F9445004F1100709E02069B8
:1028900048B1384601F02AF908B100F0ABFA6D1ED4
:1028A0006DB2002DF3DC84F84460BDE8F04100F027
:1028B0002DB900002DE9F0410546002600F0B2FBDD
:1028C000324F386808B9FFF74FFDF86805424FD11D
:1028D000002D4DD0083568070BD005F00700C0F17A
:1028E00008000544680704D0BF2229A132A0FFF7E1
:1028F00009F9002D3CD07868854239D82349103138
:102900000846046801E0214604466068A84202D2F5
:1029100020680028F7D13868B846844228D00E686D
:102920002068086060680836401B10280ED96719B7
:10293000780704D0EC2216A11FA0FFF7E3F8606827
:10294000401B786038466560FFF7A4FD6168D8F8E1
:1029500004004246401AC8F80400D8F808309842EB
:1029600000D29060D8F80C0001430020C4E90001B7
:1029700001F05CF9700705D04FF4967204A10EA027
:10298000FFF7C0F83046BDE8F0810000AC00002041
:102990002E2E5C2E2E5C4672656552544F535C7031
:1029A0006F72745C4D656D4D616E675C68656170DA
:1029B0005F342E63000000004572726F723A257317
:1029C0002C25640D0A00000010B5031F4FF0807421
:1029D0001C601B1F21F001011960191F044B0B60C3
:1029E00014390A60091F6FF0020244380A6010BDF2
:1029F000A9270008D0E9013201699A60D0E90123D2
:102A00005A604A68824201D182684A6000220261AB
:102A10000868401E08607047044908680A688069B1
:102A2000D26A0968C2F120028A6170475C00002006
:102A300000F108014FF0FF32C0E90112C1600161ED
:102A400000210160704700210161704730B50C68BA
:102A5000621C02D000F1080202E0026904E01A469A
:102A600053681D68A542FAD953684B6099608A6023
:102A7000516008610168491C016030BD42684A60CC
:102A800093688B6093685960916008610168491C84
:102A900001607047502080F31188BFF34F8FBFF360
:102AA0006F8F09494868401C486001280AD10748CF
:102AB000006810F0FF0F05D040F2B91204A10FA07A
:102AC000FFF720B870470000C400002004ED00E0CC
:102AD0002E2E5C2E2E5C4672656552544F535C70F0
:102AE0006F72745C525644535C41524D5F434D3497
:102AF000465C706F72742E63000000004572726F46
:102B0000723A25732C25640D0A00000010B5084C9C
:102B1000606828B94FF4E07206A111A0FEF7F2FF39
:102B20006068401E606001D180F3118810BD000014
:102B3000C40000202E2E5C2E2E5C46726565525419
:102B40004F535C706F72745C525644535C41524DEB
:102B50005F434D34465C706F72742E63000000005A
:102B60004572726F723A25732C25640D0A000000BD
:102B700070B500282AD0164DA0F108046068E968F5
:102B8000084205D14FF4A07212A11CA0FEF7BAFFB3
:102B9000206828B140F241120EA118A0FEF7B2FF42
:102BA0006068E968084211D02268002A0ED1884383
:102BB000606000F037FA6068696808446860204621
:102BC000FFF768FCBDE8704001F030B870BD000050
:102BD000AC0000202E2E5C2E2E5C46726565525491
:102BE0004F535C706F72745C4D656D4D616E675CC8
:102BF000686561705F342E63000000004572726F7B
:102C0000723A25732C25640D0A00000006484FF423
:102C10007A710068B0FBF1F14FF0E020491E41618C
:102C200007210161704700000000002010B5FDF78A
:102C300021FB104C10280CD300F1E02090F8F00399
:102C40002178884205D24FF440720BA115A0FEF7FF
:102C500059FF18480068A16800F4E060884207D96D
:102C6000BDE810404FF4447203A10EA0FEF74ABF26
:102C700010BD0000C40000202E2E5C2E2E5C46727B
:102C8000656552544F535C706F72745C5256445376
:102C90005C41524D5F434D34465C706F72742E63DD
:102CA000000000004572726F723A25732C25640D86
:102CB0000A0000000CED00E010B5074B002253F8AD
:102CC00032401CB1521C0A2AF9D310BD43F832100D
:102CD00003EBC201486010BDD402002070B5154658
:102CE0000E460446FFF7D6FE94F944100020491C16
:102CF00001D184F8440094F94510491C01D184F8AD
:102D00004500FFF703FFA06B28B92A46314604F1BE
:102D1000240000F0A3F82046BDE87040FFF794BD02
:102D200070B50446FFF7B6FE234D04B92C68201D8C
:102D3000FFF760FE58B9E06A204A00EB800152F8C4
:102D4000211021B901218140286988432861A06AA6
:102D500018B104F11800FFF74DFE686A401C686264
:102D60002868844207D1211D1548FFF787FE68684F
:102D7000401C686007E0A868401EA8602046FFF776
:102D8000E9FAFFF7B7FCFFF7C1FE6869002812D027
:102D9000286884420FD1286B28B140F2654209A10E
:102DA0000FA0FEF7AFFE12494FF080500860BFF34E
:102DB0004F8FBFF36F8F70BD5C0000202403002095
:102DC000E00500202E2E5C2E2E5C46726565525466
:102DD0004F535C7372635C7461736B732E6300009A
:102DE0004572726F723A25732C25640D0A0000003B
:102DF00004ED00E001490120C86170475C0000203B
:102E000070B50D46040005D140F6063207A10EA0AC
:102E1000FEF778FE1048016820461831FFF716FECD
:102E20002846BDE870400121FFF762B92E2E5C2EC6
:102E30002E5C4672656552544F535C7372635C74CA
:102E400061736B732E6300004572726F723A257363
:102E50002C25640D0A0000005C00002070B51446AB
:102E60000E46050005D140F6313209A10FA0FEF74C
:102E700049FE1248016828461831FFF7FFFD0CB1E2
:102E80004FF0FF3621463046BDE87040FFF730B9BD
:102E90002E2E5C2E2E5C4672656552544F535C7329
:102EA00072635C7461736B732E6300004572726FA2
:102EB000723A25732C25640D0A0000005C00002086
:102EC0002DE9F04117460E46050005D140F61732B0
:102ED0000DA114A0FEF716FE164C206B28B940F683
:102EE0001B3209A10FA0FEF70DFE216846F000403D
:102EF0008861216828461831FFF7C0FD3846BDE8D3
:102F0000F0410121FFF7F4B82E2E5C2E2E5C4672A4
:102F1000656552544F535C7372635C7461736B7379
:102F20002E6300004572726F723A25732C25640D72
:102F30000A0000005C00002010B5040005D140F636
:102F4000C13205A10BA0FEF7DDFD0E48016A21602C
:102F5000C068606010BD00002E2E5C2E2E5C467294
:102F6000656552544F535C7372635C7461736B7329
:102F70002E6300004572726F723A25732C25640D22
:102F80000A0000005C0000201CB517480024CDE9B1
:102F900000402346802215A1164800F0E7FC0128D6
:102FA00003D100F0F5FE01280AD0401C1BD102B06D
:102FB00040F28472BDE810400FA116A0FEF7A2BD3A
:102FC000502080F31188BFF34F8FBFF36F8F0648F7
:102FD0004FF0FF312C38816201214161C460BDE8AE
:102FE0001C4000F067B91CBD8800002049444C45D6
:102FF00000000000B52300082E2E5C2E2E5C4672C9
:10300000656552544F535C7372635C7461736B7388
:103010002E6300004572726F723A25732C25640D81
:103020000A0000000248016B491C01637047000060
:103030005C00002070B5134D286B10B10120E861D1
:1030400070BD0020E86128690F4EB0FA80F0C0F131
:103050001F0000EB800456F8240028B940F6F62241
:103060000AA111A0FEF74EFD06EB840000F1080254
:10307000416849684160914201D149684160C8682E
:10308000286070BD5C000020240300202E2E5C2EE2
:103090002E5C4672656552544F535C7372635C7468
:1030A00061736B732E6300004572726F723A257301
:1030B0002C25640D0A00000010B51820FFF7FAFB5C
:1030C000040004D000202060201DFFF7B1FC204642
:1030D00010BD00002DE9F04100258846040005D10F
:1030E00040F21D221CA125A0FEF70CFD5FEA18602E
:1030F00005D040F21E2218A120A0FEF703FD261DD8
:1031000004F10C07FFF78EFF2168F06841EA08011F
:10311000216017E0D0E9001601F07F4253012368D7
:1031200021F07F4102D40B4203D10AE031EA0303CC
:1031300007D1D20100D50D43216841F0007100F0A4
:1031400025FD3046B842E5D12068A843206000F054
:103150006DFD2068BDE8F0812E2E5C2E2E5C46723F
:10316000656552544F535C7372635C6576656E742B
:103170005F67726F7570732E630000004572726F27
:10318000723A25732C25640D0A0000002DE9F047E2
:10319000089F9A4691460D4604004FF0000605D15F
:1031A00040F24D1235A13EA0FEF7ACFC280E05D032
:1031B0004FF4A77231A13AA0FEF7A4FC2DB940F25A
:1031C0004F122EA136A0FEF79DFC00F0FBFB30B99C
:1031D0002FB14FF4A97229A131A0FEF793FCFFF79C
:1031E00021FFD4F80080524629464046FFF70EFBE7
:1031F00040B100274646B9F1000F15D02068A8431A
:10320000206011E0AFB1B9F1000F01D04FF080762E
:10321000BAF1000F01D046F0806645EA06013A4651
:10322000201DFFF74DFE002600F000FD1FB310B17A
:1032300009E04646F8E71E494FF080500860BFF3AA
:103240004F8FBFF36F8FFFF7E7FB0646800110D467
:10325000FFF720FC2668524629463046FFF7D6FA8B
:1032600028B1B9F1000F02D02068A8432060FFF711
:103270004DFC26F07F463046BDE8F0872E2E5C2EB2
:103280002E5C4672656552544F535C7372635C6585
:1032900076656E745F67726F7570732E63000000E1
:1032A0004572726F723A25732C25640D0A00000076
:1032B00004ED00E01CB5304C20683049884205D14F
:1032C00040F259122EA139A0FEF71CFC20682B49B0
:1032D000491E884205D14FF4AD7229A133A0FEF7F3
:1032E00011FC364C20780190FF20207020788DF85A
:1032F00000009DF800009DF8001000F0F0008842EA
:1033000005D040F273121EA128A0FEF7FBFB9DF82A
:1033100000002B4A00F0500010700720906007E07A
:103320009068401E90609DF8000040008DF80000FD
:103330009DF800000006F3D4107A000200F4E0606B
:103340009060019820700C482030016841F47001B1
:103350000160016841F070410160FFF757FC0020F7
:103360005060FCF74FFF1748016841F04041016091
:10337000FCF738FF00201CBD00ED00E071C20F41DA
:103380002E2E5C2E2E5C4672656552544F535C7037
:103390006F72745C525644535C41524D5F434D34DE
:1033A000465C706F72742E63000000004572726F8D
:1033B000723A25732C25640D0A00000000E400E039
:1033C000C400002034EF00E010B5502080F31188D5
:1033D000BFF34F8FBFF36F8F00F010FB18B104499C
:1033E0004FF080500860002080F3118810BD00006D
:1033F00004ED00E070B50E46050005D14FF4C4722F
:103400000DA114A0FEF77EFB96B105FB06F0483037
:10341000FFF750FA040009D004F1480120464EB1EC
:103420000160C0E90F56012100F0D4F8204670BDBC
:103430000020ECE70060F4E72E2E5C2E2E5C467236
:10344000656552544F535C7372635C717565756545
:103450002E6300004572726F723A25732C25640D3D
:103460000A0000002DE9FF4F83B09B468A46040006
:103470004FF0000605D140F2DC424AA150A0FEF711
:1034800041FBBAF1000F07D1206C28B140F2DD42B8
:1034900044A14BA0FEF736FB00F094FA38B905982A
:1034A00028B14FF49C623FA145A0FEF72BFB4FF0E3
:1034B00000094FF08057DFF81881FFF7EBFAA56B92
:1034C0001DB351462046E668FEF704FFBBF1000F2E
:1034D00013D0E660606A50B104F1240000F006FBEE
:1034E00028B1C8F80070BFF34F8FBFF36F8FFFF79D
:1034F0000DFB012007B0BDE8F08F6D1EA5632069AC
:103500000028F4D004F11000E8E7059808B11EB1D6
:1035100006E0FFF7FBFA27E06846FFF70DFD0126FE
:10352000FFF7F4FAFFF77EFDFFF7B4FA94F94400D1
:10353000401C01D184F8449094F94500401C01D10D
:1035400084F84590FFF7E2FA05A9684600F0C6F94D
:10355000002820460AD0FFF777F900F067FB2046E5
:10356000FEF7DAFF0028A8D00020C3E7FEF7D4FF5B
:1035700090B104F124000599FFF742FC2046FFF7C3
:1035800063F900F053FB002897D1C8F80070BFF32F
:103590004F8FBFF36F8F90E72046FFF755F900F08C
:1035A00045FB8AE72E2E5C2E2E5C467265655254D2
:1035B0004F535C7372635C71756575652E630000B3
:1035C0004572726F723A25732C25640D0A00000053
:1035D00004ED00E070B50D46040005D140F21B1269
:1035E0001CA123A0FEF78EFAFFF754FAD4E90F20AE
:1035F000216802FB001161600021A1632168A160C4
:103600000A46D4E90F01401E00FB0121E16021467A
:103610004FF0FF3001F8440F487004F110004DB135
:10362000FFF706FA04F12400FFF702FAFFF76EFA3B
:10363000012070BD21690029F8D000F057FA002858
:10364000F4D00F494FF080500860BFF34F8FBFF3A5
:103650006F8FEBE72E2E5C2E2E5C46726565525402
:103660004F535C7372635C71756575652E63000002
:103670004572726F723A25732C25640D0A000000A2
:1036800004ED00E02DE9FF4F83B01F468B46040098
:103690004FF0000605D140F2D9224DA153A0FEF70C
:1036A00031FABBF1000F07D1206C28B140F2DA22C9
:1036B00047A14EA0FEF726FA022F08D1E06B0128A1
:1036C00005D040F2DB2242A148A0FEF71BFA00F031
:1036D00079F938B9059828B140F2DE223CA143A01F
:1036E000FEF710FA4FF0000A4FF08058DFF80C9107
:1036F000FFF7D0F9A06BE16B884205D3022F03D00E
:103700000598C8B1DEB11EE03A4659462046FEF79C
:10371000F4FD616A19B104F1240000F0E7F928B161
:10372000C9F80080BFF34F8FBFF36F8FFFF7EEF93B
:10373000012007B0BDE8F08FFFF7E8F921E0684607
:10374000FFF7FAFB0126FFF7E1F9FFF76BFCFFF744
:10375000A1F994F94400401C01D184F844A094F9E3
:103760004500401C01D184F845A0FFF7CFF905A919
:10377000684600F0B3F830B12046FFF765F800F076
:1037800055FA0020D5E7FFF785F9A06BE16B884279
:1037900001D1012500E00025FFF7B8F995B104F14A
:1037A00010000599FFF72CFB2046FFF74DF800F0BD
:1037B0003DFA00289CD1C9F80080BFF34F8FBFF3BA
:1037C0006F8F95E72046FFF73FF800F02FFA8FE75D
:1037D0002E2E5C2E2E5C4672656552544F535C73E0
:1037E00072635C71756575652E6300004572726F5A
:1037F000723A25732C25640D0A00000004ED00E0E8
:103800002DE9F0471F4690468946040005D140F255
:103810009F3227A12DA0FEF775F9B9F1000F07D14E
:10382000206C28B14FF4687221A128A0FEF76AF934
:10383000022F08D1E06B012805D040F2A1321CA173
:1038400022A0FEF75FF9FFF7F1F95020EFF31186A0
:1038500080F31188BFF34F8FBFF36F8FA06BE16BC5
:10386000884206D3022F04D0002086F31188BDE8D9
:10387000F08794F945503A4649462046FEF73DFD0B
:10388000681C04D06D1C84F845500120EDE7606A87
:103890000028FAD004F1240000F028F90028F4D020
:1038A000B8F1000FF1D00121C8F80010EDE70000D9
:1038B0002E2E5C2E2E5C4672656552544F535C73FF
:1038C00072635C71756575652E6300004572726F79
:1038D000723A25732C25640D0A00000070B50D4660
:1038E000040005D140F6CB3214A11BA0FEF70AF963
:1038F0002DB940F6CC3211A117A0FEF703F9FFF75E
:10390000C9F8194AD06829684B1C0FD02368126A7D
:10391000934202D0626882420AD96268801A884261
:1039200006D2081A28602046FFF706FB002400E0B4
:103930000124FFF7EBF8204670BD00002E2E5C2E10
:103940002E5C4672656552544F535C7372635C74AF
:1039500061736B732E6300004572726F723A257348
:103960002C25640D0A0000005C0000202DE9FF5F9B
:103970008346DDE90E87994616468A469000FEF793
:1039800099FF05001AD04C20FEF794FF040012D0D6
:1039900025630021CDE90241CDE900874B4632463F
:1039A00051465846FEF71AFD2046FEF7D9FB012086
:1039B00004B0BDE8F09F2846FFF7DAF84FF0FF307B
:1039C000F6E700000548416919B1006B18B1002005
:1039D0007047012070470220704700005C00002003
:1039E0000148C068704700005C00002010B5FFF778
:1039F0001DF90148C06810BD5C0000202DE9F041B0
:103A00002D4F0026386B40B1B869401CB861F86989
:103A100000B101263046BDE8F081FD686D1CFD60F7
:103A200011D1786B006828B140F6D91223A12AA0E1
:103A3000FEF768F8786BB96B7963B863386A401C35
:103A40003862FEF757FEB86ADFF89C80854209D3DA
:103A5000786B006880B1786BC068C4686068854224
:103A60000DD2B8623868C06A00EB800158F82100B6
:103A70000128CCD90126CAE74FF0FF30F1E7201D1D
:103A8000FEF7B8FFA06A18B104F11800FEF7B2FF04
:103A9000E06A01213A6981401143396100EB8001FC
:103AA00008EB8100211DFEF7E9FFE06A3968C96A69
:103AB0008842CDD30126CBE75C0000202E2E5C2E61
:103AC0002E5C4672656552544F535C7372635C742E
:103AD00061736B732E6300004572726F723A2573C7
:103AE0002C25640D0A000000240300202DE9F0417C
:103AF000C068C4682CB940F6613216A11CA0FEF75C
:103B000001F804F118000746FEF774FF1C4D286BFE
:103B1000012660B139461B48FEF7B0FFE06A29680C
:103B2000C96A884213D90120EE61BDE8F081201DE9
:103B3000FEF760FFE06A2A6906FA00F11143296185
:103B4000114900EB800001EB8000211DE4E700201B
:103B5000EBE700002E2E5C2E2E5C467265655254FB
:103B60004F535C7372635C7461736B732E630000FC
:103B70004572726F723A25732C25640D0A0000009D
:103B80005C000020CC0500202403002070B51A4DF5
:103B900006460C46286B28B940F6993217A11EA09C
:103BA000FDF7B0FF44F000403060F4682CB940F6F7
:103BB000A13212A118A0FDF7A5FF3046FEF71AFFAB
:103BC000201DFEF717FFE06A01262A6906FA00F1B8
:103BD00011432961144900EB800001EB8000211D95
:103BE000FEF74CFFE06A2968C96A884202D90120C1
:103BF000EE6170BD002070BD5C0000202E2E5C2E9A
:103C00002E5C4672656552544F535C7372635C74EC
:103C100061736B732E6300004572726F723A257385
:103C20002C25640D0A000000240300202DE9F04734
:103C30002B4D00242746286B28B94FF4FD6229A19B
:103C40002FA0FDF75FFFFEF725FF286B401E2863BE
:103C5000286BE8BBA8682E490126C8B3A1F52A79CC
:103C60008846D8F80010E9B1D8F80C00C46804F10F
:103C70001800FEF7BFFE201DFEF7BCFEE06A2A69B1
:103C800006FA00F11143296100EB800109EB810084
:103C9000211DFEF7F3FEE06A2968C96A8842E0D375
:103CA000EE61DEE70CB1FEF725FDAC693CB1FFF734
:103CB000A5FE00B1EE61641EF9D10020A861E8699B
:103CC00030B11449012738070860BFF34F8F00E077
:103CD00001E0BFF36F8FFEF719FF3846BDE8F087AC
:103CE0005C0000202E2E5C2E2E5C467265655254C0
:103CF0004F535C7372635C7461736B732E6300006B
:103D00004572726F723A25732C25640D0A0000000B
:103D1000CC05002004ED00E02DE9F0470746994668
:103D200016460D462820DDF820A0FEF7C3FD04004E
:103D300014D0B8464F46D1462DB94FF4C67209A1EA
:103D40000FA0FDF7DFFEFEF773FA04F11801C4F8C7
:103D5000008081E8E002201DFEF775FE2046BDE8E8
:103D6000F08700002E2E5C2E2E5C46726565525444
:103D70004F535C7372635C74696D6572732E63007C
:103D80004572726F723A25732C25640D0A0000008B
:103D90001CB50024FEF74CFA0C48006868B10B49CA
:103DA0001F20091DCDE9000100234FF4807208A1F6
:103DB0000948FFF7DBFD040005D140F2331207A1EB
:103DC0000DA0FDF79FFE20461CBD000098000020BE
:103DD000546D722053766300212800082E2E5C2E2D
:103DE0002E5C4672656552544F535C7372635C740B
:103DF000696D6572732E63004572726F723A257336
:103E00002C25640D0A0000002DE9FF47DDF830A0E5
:103E1000994690460D4606004FF0000705D14FF435
:103E2000D37212A118A0FDF76DFE1B4C206880B163
:103E3000CDE900580296062D11DAFFF7C3FD0228DE
:103E40004FF0000309D0002269462068FFF71AFCF2
:103E5000074604B03846BDE8F0875246F4E7002331
:103E60004A466946FFF7CCFCF2E700002E2E5C2E96
:103E70002E5C4672656552544F535C7372635C747A
:103E8000696D6572732E63004572726F723A2573A5
:103E90002C25640D0A00000098000020000000009E
:103EA0000000000000000000000000000000000012
:103EB0000000000000000000000000000000000002
:103EC0000000000000000000000000000000800171
:103ED00080018001800180018001800180018001DA
:103EE00080018001800180010000000080018001CC
:103EF00000000000000000000000000000000000C2
:103F0000CC00CC00CC00CC00CC00CC0000000000E9
:103F100000000000000000000000000000000000A1
:103F20000000000000000000000000000000000091
:103F30000000000000000000600C600C600C300607
:103F40003006FE1FFE1F300638071803FE1FFE1F37
:103F5000180318038C018C018C0100000000800004
:103F6000E003F80F9C0E8C1C8C188C009800F80154
:103F7000E007800E801C8C188C189C18B80CF00F71
:103F8000E00380008000000000000000000000004E
:103F900000000E181B0C110C110611061103110361
:103FA0009B018E01C038C06C604460443044304492
:103FB0001844186C0C380000000000000000E001FC
:103FC000F0033807180618063003F001F000F80077
:103FD0009C310E33061E061C061C063FFC73F021A6
:103FE00000000000000000000000000000000000D1
:103FF0000C000C000C000C000C000C000000000079
:1040000000000000000000000000000000000000B0
:10401000000000000000000000000000000000029E
:1040200000038001C000C00060006000300030006C
:1040300030003000300030003000300060006000A0
:10404000C000C0008001000300020000000020004A
:104050006000C0008001800100030003000600062C
:104060000006000600060006000600060003000326
:1040700080018001C00060002000000000000000FE
:104080000000000000000000C000C000D806F807D3
:10409000E0013003380700000000000000000000CD
:1040A0000000000000000000000000000000000010
:1040B00000000000000000008001800180018001FC
:1040C0008001FC3FFC3F8001800180018001800174
:1040D00000000000000000000000000000000000E0
:1040E00000000000000000000000000000000000D0
:1040F000000000000000000000000000000080013F
:1041000080010001000180000000000000000000AC
:10411000000000000000000000000000000000009F
:1041200000000000E007E0070000000000000000C1
:10413000000000000000000000000000000000007F
:10414000000000000000000000000000000000006F
:104150000000000000000000000000000000C0009F
:10416000C000000000000000000000000000000C83
:10417000000C000600060006000300030003800395
:10418000800180018001C000C000C00060006000AC
:104190000000000000000000000000000000E0033C
:1041A000F007380E180C0C180C180C180C180C18FA
:1041B0000C180C180C180C18180C380EF007E0032B
:1041C00000000000000000000000000000000001EE
:1041D0008001C001F0019801880180018001800107
:1041E00080018001800180018001800180018001C7
:1041F0000000000000000000000000000000E003DC
:10420000F80F180C0C180C1800180018000C0006F9
:1042100000038001C000600030001800FC1FFC1F7C
:104220000000000000000000000000000000E001AD
:10423000F807180E0C0C0C0C000C0006C003C0078D
:10424000000C001800180C180C18180CF807E003E4
:104250000000000000000000000000000000000C52
:10426000000E000F000F800DC00C600C600C300CB5
:10427000180C0C0CFC3FFC3F000C000C000C000C5C
:104280000000000000000000000000000000F80F27
:10429000F80F180018000C00EC03FC071C0E001CA3
:1042A0000018001800180C181C0C180EF807E00372
:1042B0000000000000000000000000000000C00737
:1042C000F00F381C181818000C00CC03EC0F3C0E33
:1042D0001C1C0C180C180C18181C380EF007E003E6
:1042E0000000000000000000000000000000FC1FB3
:1042F000FC1F000C00060006000380038001C001C3
:10430000C000E0006000600070003000300030004D
:104310000000000000000000000000000000E003BA
:10432000F007380E180C180C180C3806F007F007B8
:10433000180C0C180C180C180C18380CF80FE0039B
:104340000000000000000000000000000000E0038A
:10435000F007380E1C0C0C180C180C181C1C381EFE
:10436000F81BE0190018000C000C1C0EF807F001F7
:10437000000000000000000000000000000000003D
:10438000000000000000000080018001000000002B
:10439000000000000000000000000000800180011B
:1043A000000000000000000000000000000000000D
:1043B00000000000000000008001800100000000FB
:1043C00000000000000000000000000080018001EB
:1043D000000100018000000000000000000000005B
:1043E0000000000000000000000000000010001CA1
:1043F000800FE003F8001800F800E003800F001CB5
:10440000001000000000000000000000000000009C
:10441000000000000000000000000000F81F000085
:1044200000000000F81F0000000000000000000075
:10443000000000000000000000000000000000007C
:10444000000000000000000000000000080038002C
:10445000F001C007001F0018001FC007F00138005E
:104460000800000000000000000000000000E00361
:10447000F80F180C0C180C180018000C000600039C
:104480008001C000C000C00000000000C000C000EB
:10449000000000000000000000000000000000001C
:1044A000E00718180420C229224A1144094409448B
:1044B000094409221113E20C024004201818E007F5
:1044C0000000000000000000000000000000800369
:1044D0008003C006C006C006600C600C301830189F
:1044E0003018F83FF83F1C700C600C6006C006C026
:1044F0000000000000000000000000000000FC03BD
:10450000FC0F0C0C0C180C180C180C0CFC07FC0FF6
:104510000C180C300C300C300C300C18FC1FFC0745
:104520000000000000000000000000000000C007C4
:10453000F01F38381C300C700660060006000600BC
:1045400006000600060006600C701C30F01FE00735
:104550000000000000000000000000000000FE035A
:10456000FE0F060E06180618063006300630063016
:1045700006300630063006180618060EFE0FFE033B
:104580000000000000000000000000000000FC3FF0
:10459000FC3F0C000C000C000C000C00FC1FFC1F6E
:1045A0000C000C000C000C000C000C00FC3FFC3F4D
:1045B0000000000000000000000000000000F83FC4
:1045C000F83F18001800180018001800F81FF81F0E
:1045D000180018001800180018001800180018001B
:1045E0000000000000000000000000000000E00FDC
:1045F000F83F3C780E6006E007C00300030003FEAE
:1046000003FE03C007C006C00EC03CF0F83FE00F39
:1046100000000000000000000000000000000C305E
:104620000C300C300C300C300C300C30FC3FFC3FAC
:104630000C300C300C300C300C300C300C300C309A
:1046400000000000000000000000000000008001E9
:104650008001800180018001800180018001800152
:104660008001800180018001800180018001800142
:104670000000000000000000000000000000000634
:1046800000060006000600060006000600060006FA
:10469000000600060006180618063807F003E001B9
:1046A00000000000000000000000000000000630D4
:1046B0000618060C060606038601C600660076008C
:1046C000DE008E0106030606060C0618063006609C
:1046D00000000000000000000000000000001800C2
:1046E000180018001800180018001800180018000A
:1046F000180018001800180018001800F81FF81FFC
:1047000000000000000000000000000000000EE0BB
:104710001EF01EF01EF036D836D836D836D866CC05
:1047200066CC66CCC6C6C6C6C6C6C6C686C386C363
:1047300000000000000000000000000000000C303D
:104740001C303C303C306C306C30CC30CC308C3158
:104750000C330C330C360C360C3C0C3C0C380C3047
:104760000000000000000000000000000000E00762
:10477000F81F1C380E70066003C003C003C003C0DE
:1047800003C003C003C006600E701C38F81FE007AA
:104790000000000000000000000000000000FC0F0E
:1047A000FC1F0C380C300C300C300C300C18FC1F7B
:1047B000FC070C000C000C000C000C000C000C00A2
:1047C0000000000000000000000000000000E00702
:1047D000F81F1C380E70066003E003C003C003C05E
:1047E00003C003C007E006630E3F1C3CF83FE0F740
:1047F00000C0000000000000000000000000FE0FEC
:10480000FE1F06380630063006300638FE1FFE074B
:1048100006030606060C0618061806300630066063
:104820000000000000000000000000000000E003A5
:10483000F80F1C0C0C180C180C001C00F803E00FEF
:10484000001E0038063006300E301C1CF80FE00742
:104850000000000000000000000000000000FE7FDB
:10486000FE7F800180018001800180018001800144
:104870008001800180018001800180018001800130
:1048800000000000000000000000000000000C30EC
:104890000C300C300C300C300C300C300C300C3038
:1048A0000C300C300C300C300C301818F81FE007AE
:1048B0000000000000000000000000000000036095
:1048C0000630063006300C180C180C18180C180C92
:1048D000380E30063006700760036003C001C00167
:1048E0000000000000000000000000000000036065
:1048F000C361C361C361663366336633663366334F
:1049000066336C1B6C1B6C1B2C1A3C1E380E380E4D
:1049100000000000000000000000000000000FE0A8
:104920000C7018303018700C600EC00780038003C4
:10493000C003E006700C301C18180C300E6007E045
:10494000000000000000000000000000000003C0A4
:1049500006600C301C383818300C6006E007C003C5
:10496000800180018001800180018001800180013F
:104970000000000000000000000000000000FC7FBC
:10498000FC7F006000300018000C0006000380016E
:10499000C0006000300018000C000600FE7FFE7FA3
:1049A0000000000000000000000000000000E00324
:1049B000E003600060006000600060006000600074
:1049C00060006000600060006000600060006000E7
:1049D000600060006000E003E003000000003000C1
:1049E0003000600060006000C000C000C000C00176
:1049F000800180018001000300030003000600061F
:104A00000000000000000000000000000000E003C3
:104A1000E00300030003000300030003000300039E
:104A2000000300030003000300030003000300036E
:104A3000000300030003E003E003000000000000A7
:104A4000C001C00160036003600330063006180C2B
:104A5000180C000000000000000000000000000032
:104A60000000000000000000000000000000000046
:104A70000000000000000000000000000000000036
:104A80000000000000000000000000000000FFFF28
:104A9000FFFF0000000000000000000000000C000C
:104AA0000C000C000C000C000C00000000000000CA
:104AB00000000000000000000000000000000000F6
:104AC00000000000000000000000000000000000E6
:104AD0000000000000000000F003F8071C0C0C0CA4
:104AE000000FF00FF80C0C0C0C0C1C0FF80FF0184A
:104AF000000000000000000000000000000018009E
:104B00001800180018001800D803F80F380C1818EF
:104B100018181818181818181818380CF80FD8037F
:104B20000000000000000000000000000000000085
:104B30000000000000000000C003F007300E180C59
:104B40001800180018001800180C300EF007C003E9
:104B5000000000000000000000000000000000183D
:104B60000018001800180018C01BF01F301C18187F
:104B700018181818181818181818301CF01FC01B0F
:104B80000000000000000000000000000000000025
:104B90000000000000000000C003F00F300C1818E7
:104BA000F81FF81F180018003818301CF00FC00745
:104BB0000000000000000000000000000000800F66
:104BC000C00FC000C000C000F007F007C000C00068
:104BD000C000C000C000C000C000C000C000C000D5
:104BE00000000000000000000000000000000000C5
:104BF0000000000000000000E00DF80F180E0C0C83
:104C00000C0C0C0C0C0C0C0C0C0C180EF80FE00D12
:104C1000000C0C0C1C06F807F00100000000180046
:104C20001800180018001800D807F80F381C1818BA
:104C300018181818181818181818181818181818F4
:104C40000000000000000000000000000000C000A4
:104C5000C000000000000000C000C000C000C00094
:104C6000C000C000C000C000C000C000C000C00044
:104C70000000000000000000000000000000C00074
:104C8000C000000000000000C000C000C000C00064
:104C9000C000C000C000C000C000C000C000C00014
:104CA000C000C000C000F8007800000000000C0048
:104CB0000C000C000C000C000C0C0C060C038C01FE
:104CC000CC006C00FC009C018C030C030C060C0C4B
:104CD0000000000000000000000000000000C00014
:104CE000C000C000C000C000C000C000C000C000C4
:104CF000C000C000C000C000C000C000C000C000B4
:104D000000000000000000000000000000000000A3
:104D100000000000000000007C3CFF7EC7E383C170
:104D200083C183C183C183C183C183C183C183C163
:104D30000000000000000000000000000000000073
:104D400000000000000000009807F80F381C181839
:104D500018181818181818181818181818181818D3
:104D60000000000000000000000000000000000043
:104D70000000000000000000C003F00F300C181805
:104D800018181818181818181818300CF00FC00335
:104D90000000000000000000000000000000000013
:104DA0000000000000000000D803F80F380C1818AD
:104DB00018181818181818181818380CF80FD803DD
:104DC000180018001800180018000000000000006B
:104DD0000000000000000000C01BF01F301C18186D
:104DE00018181818181818181818301CF01FC01B9D
:104DF000001800180018001800180000000000003B
:104E00000000000000000000B007F0037000300058
:104E10003000300030003000300030003000300012
:104E20000000000000000000000000000000000082
:104E30000000000000000000E003F003380E180C32
:104E40003800F003C007000C180C380EF007E00320
:104E50000000000000000000000000000000000052
:104E60008000C000C000C000F007F007C000C00014
:104E7000C000C000C000C000C000C000C007800764
:104E80000000000000000000000000000000000022
:104E90000000000000000000181818181818181852
:104EA00018181818181818181818381CF01FE019B6
:104EB00000000000000000000000000000000000F2
:104EC00000000000000000000C18180C180C180C52
:104ED000300630063006600360036003C001C00185
:104EE00000000000000000000000000000000000C2
:104EF0000000000000000000C141C141C3616363C4
:104F0000636363633636363636361C1C1C1C1C1C29
:104F10000000000000000000000000000000000091
:104F200000000000000000001C38381C300C600637
:104F300060036003600360036006300C381C1C389B
:104F40000000000000000000000000000000000061
:104F500000000000000000001830301830187018F1
:104F6000600C600CE00CC006C00680038003800368
:104F700080018001C001F00070000000000000000E
:104F80000000000000000000FC1FFC1F000C0006D9
:104F900000038001C000600030001800FC1FFC1FEF
:104FA00000000000000000000000000000000003FE
:104FB0008001C000C000C000C000C000C000600090
:104FC0006000300060004000C000C000C000C000B1
:104FD000C000C0008001000300000000000080014C
:104FE00080018001800180018001800180018001B9
:104FF00080018001800180018001800180018001A9
:1050000080018001800180018001000000006000BB
:10501000C000C00180018001800180018001000387
:10502000000300060003000180018001800180016F
:1050300080018001C000600000000000000000004E
:10504000000000000000000000000000F010F81F49
:10505000080F000000000000000000000000000039
:105060000000000000000000000000008C5000085C
:1050700000000020D4000000581B00086051000808
:10508000D40000205C990000681B00080095BA0A53
:1050900000000000000000000102030406070809E8
:1050A00000000000010203040102030406070809CE
:1050B00000000000000000000000000000000000F0
:1050C00000000000000000000000000000000000E0
:1050D000FFFFFF00000000D0000000000000000003
:1050E0009C3E0008100018000000000000000000B6
:1050F00000000000000000000000000000000000B0
:10510000000000000000000000000000000000009F
:10511000000000000000000000000000000000008F
:10512000000000000000000000000000000000007F
:10513000000000000000000000000000000000006F
:10514000000000000000000000000000000000005F
:1051500000000000AAAAAAAA0000000000000000A7
:04000005080001AD41
:00000001FF
