:020000040800F2
:10000000689A00207D0200081F230008A112000842
:100010001D230008610500087D2D00080000000078
:10002000000000000000000000000000C501000802
:100030005906000800000000190200083D2B0008C6
:10004000970200089702000897020008970200082C
:10005000970200089702000897020008970200081C
:10006000970200089702000897020008970200080C
:1000700097020008970200089702000897020008FC
:1000800097020008970200089702000897020008EC
:1000900097020008970200089702000897020008DC
:1000A00097020008970200089702000897020008CC
:1000B00097020008970200089702000897020008BC
:1000C00097020008970200089702000897020008AC
:1000D000970200089702000897020008970200089C
:1000E0000509000897020008970200089702000817
:1000F000970200089702000897020008970200087C
:10010000970200089702000897020008970200086B
:10011000970200089702000897020008970200085B
:10012000970200089702000897020008970200084B
:10013000970200089702000897020008970200083B
:10014000970200089702000897020008970200082B
:10015000970200089702000897020008970200081B
:10016000970200089702000897020008970200080B
:1001700097020008970200089702000897020008FB
:1001800097020008970200089702000897020008EB
:1001900097020008970200089702000897020008DB
:1001A000970200089702000897020008DFF810D0B5
:1001B00000F0CCF800480047ED330008AFF30080B2
:1001C000689A00202A4B19680868B0E8F04F80F35D
:1001D0000988BFF36F8F4FF0000080F311887047DC
:1001E0000000000006480068006880F3088862B6D6
:1001F00061B6BFF34F8FBFF36F8F00DF00BF00BF4B
:1002000008ED00E0DFF80C00016841F470010160C6
:10021000704700BF88ED00E0EFF30980BFF36F8FF8
:10022000134B1A681EF0100F08BF20ED108A20E94A
:10023000F04F106008B44FF0500080F31188BFF306
:100240004F8FBFF36F8F03F02FFE4FF0000080F34E
:10025000118808BC19680868B0E8F04F1EF0100F4C
:1002600008BFB0EC108A80F30988BFF36F8F704726
:100270006C010020EFF305807047000006488047BE
:1002800006480047FEE7FEE7FEE7FEE7FEE7FEE77B
:10029000FEE7FEE7FEE7FEE7512B0008AD01000890
:1002A00040EA01039B0703D009E008C9121F08C0F8
:1002B000042AFAD203E011F8013B00F8013B521E78
:1002C000F9D27047D2B201E000F8012B491EFBD2EF
:1002D00070470022F6E710B513460A460446194651
:1002E000FFF7F0FF204610BD2DE9F05F0546002026
:1002F00092469B4688460646814640241BE0284697
:1003000041464746224600F042F853465A46C01A34
:10031000914110D311461846224600F029F82D1AB3
:1003200067EB01084F4622460120002100F020F82B
:1003300017EB00094E41201EA4F10104DFDC484602
:1003400031462A464346BDE8F09F0000064C074D63
:1003500006E0E06840F0010394E807009847103495
:10036000AC42F6D3FFF726FF80590008A0590008D9
:10037000202A04DB203A00FA02F100207047914065
:10038000C2F1200320FA03F3194390407047202A5A
:1003900004DB203A21FA02F00021704721FA02F32F
:1003A000D040C2F12002914008431946704770B511
:1003B0008C1810F8015B15F0070301D110F8013B10
:1003C0002A1106D110F8012B03E010F8016B01F897
:1003D000016B5B1EF9D12B0705D40023521E0DD4EF
:1003E00001F8013BFAE710F8013BCB1A921C03E03D
:1003F00013F8015B01F8015B521EF9D5A142D8D375
:10040000002070BD7CB503F04BFB03F091FD184C50
:10041000606170B1022104F10C00CDE900100D0201
:1004200000232A4613A1184803F028FF012805D00D
:1004300007E0BDE87C4015A002F0A2BC1BA002F0C2
:100440009FFC0B4803211030CDE9001000232A4601
:100450001FA1224803F012FF012802D120A002F0C0
:100460008FFCA06803F026FCBDE87C4003F054BB81
:10047000240000204C43445F446973706C61795FD1
:100480005461736B000000004917000843726561F6
:100490007465206576656E742067726F757020666E
:1004A00061696C6564210D0A00000000437265619A
:1004B0007465204C43445F446973706C61795F5488
:1004C00061736B2073756363657373210D0A00009C
:1004D0004B45595F5461736B000000001115000813
:1004E000437265617465204B45595F5461736B209D
:1004F00073756363657373210D0A000010B54FF4C3
:10050000407001F055FF01F007FE00F0A7F801F080
:1005100089F800F05FFC01F031FD01F06DFD012074
:1005200001F028FE002001F0C7FD4FF400442046F2
:1005300001F0A8F8012001F0BFFDFF2001F0D4FD7B
:10054000204601F09FF8054801F0B0FD4FF6FF701E
:1005500001F0C4FDBDE8104000F0E6B83C0000200A
:10056000FEE710B50121CC05204601F051FF2046E1
:10057000BDE81040002101F04BBF00000146002003
:10058000024A52680A4200D00120704700B002407F
:1005900030B500242A4B19682A4A1140196019689D
:1005A000026811431960596B21F007015963596BB7
:1005B0004268114359634168002928D001292DD090
:1005C000022930D0032933D0C1680A010169090228
:1005D000446924038568214315430D43996B0D43FA
:1005E0009D638169D963196C6FF30D011964196CEE
:1005F000C26911431964818C09045A6C02F04042AB
:100600005A645A6C006A02430A435A6430BDC16896
:100610000A02018A0904047D2406DBE7C1680A0294
:10062000018A0904D6E7C1684A010169C902D1E714
:10063000C1684A01016989024469E403CAE700000C
:1006400000B00240FCE0FCFF0248016841F00101FB
:100650000160704700B002407047000070B586B07E
:100660000121084601F0C6FE0121102001F0FAFE2A
:1006700000248DF8164001208DF8170002258DF812
:1006800015508DF81450400204901C4E04A93046B9
:1006900000F05AFA8DF814506902049104A930460A
:1006A00000F052FA07220A21304600F08BFA0722A6
:1006B0000921304600F086FA4FF4E1300090ADF8A1
:1006C0000440ADF80640ADF80840ADF80C400C20F1
:1006D000ADF80A000A4C6946204602F0EDFA01F036
:1006E0001FFE012240F22551204602F0CAFA0121E4
:1006F000204602F0B3FA06B070BD000000000240D0
:100700000010014001B502E00098401E00900098E2
:100710000028F9D108BD01B502E00098401E009004
:1007200000980028F9D108BD2DE9F041C0244FF40C
:10073000E478482518264FF6FE374FF40041384636
:1007400001F0AEFC33462A464146204601F028F926
:10075000394648F21F0001F0A3FC33462A464146C1
:10076000204601F09DF94FF6FF7001F0B7FC01F053
:10077000FFFBC088BDE8F04100EB400101EB001039
:1007800080B201A100F0BEBF436C65617200000041
:10079000F8B51446069A1D46B52C2CDDB5282ADD81
:1007A0001679E21EC31E092E25D2DFE806F00516D3
:1007B0002534415061728B00002905DA2946204614
:1007C000BDE8F84001F0FEBD01B0ABB2A2B2BDE899
:1007D000F04089B280B201F085B9621EB52A0ADB09
:1007E000421EB52A07DB01220092ABB2A2B289B247
:1007F00080B201F0CFF9F8BDA21EB52AFBDB821E44
:10080000B52AF8DB02220092ABB2A2B289B280B262
:1008100001F0C0F9F8BDB52AFCDBB52BFADB0322E9
:100820000092ABB2A2B289B280B201F0B3F9F8BDC6
:10083000221FB52AFBDB021FB52AF8DB0422009237
:10084000ABB2A2B289B280B201F0A4F9F8BDA4F1B2
:100850000802B52AFADBA0F10802B52AF6DB082265
:100860000092ABB2A2B289B280B201F093F9F8BDA6
:10087000A4F10A02B52AFADBA0F10A02B52AF6DBD6
:100880000A220092ABB2A2B289B280B201F082F920
:10089000F8BDB52AFCDBB52BFADB002905DA2946C1
:1008A0002046BDE8F84001F08DBDABB2A2B289B2DE
:1008B00080B201F017F9A9B2A0B2BDE8F840032256
:1008C00001F020B8A4F114000646B528E0DB14348A
:1008D000B4F5487FDCDC05F11400B0F5F07FD7DC1F
:1008E000142DD5D44FF6FF70014601F0D9FB143D0D
:1008F00001B0A9B2B0B2BDE8F04028231A4601F019
:100900004FB8000070B55020EFF3118480F31188C8
:10091000BFF34F8FBFF36F8F4FF40055284600F0A1
:1009200017F848B10648016881F40061016000F0E1
:1009300061FB284600F006F884F3118870BD0000C2
:10094000141C02400149086070470000143C01403B
:1009500001460020024A12680A4200D00120704776
:10096000143C014030B51B4A83790168002B2AD022
:1009700013688B431360111D0B680468A3430B605D
:10098000017911440B68046823430B60114C08344F
:100990002168036899432160231D19680568A943EC
:1009A00019604179102905D011440A680068024392
:1009B0000A6030BD2168026811432160196800682F
:1009C0000143196030BD0079104402688A43026017
:1009D00030BD0000003C014000224FF020431028B1
:1009E0000AD0B0F5807F09D0B0F5805F09D0D3F888
:1009F0005801814309D107E0586EFAE7D3F8840023
:100A0000F7E7D3F8A400F4E701221046704700008E
:100A1000D0E9001211438268C068521E520142EAB6
:100A2000402001430148016070470000500100A0D0
:100A300070B50468A100A1F1C041D1F84011CE0BFE
:100A4000F603D0E901121143D0E903231A431143FD
:100A50004269C36911438269056A11431943426AB5
:100A60002943114331434FF02046002C3CD0D6F8A7
:100A700040416FF30E042B4322431343C6F8403129
:100A800002689200A2F1C042C2F84011016871B33D
:100A90008900A1F1C041D1F8481101F07043816A89
:100AA0000A684C68521E641E42EA04148A68521E88
:100AB00044EA02240A8A521E44EA02421A43D6F841
:100AC000483103F07043CC68898A641E2403491EB0
:100AD00044EA01511943C6F8481100688000A0F1AA
:100AE000C040C0F8482170BDC6F84011CEE7FFE70E
:100AF000D6F8481101F07041806A02684368521EBE
:100B00005B1E42EA03138268521E43EA0223C26854
:100B1000521E43EA0233028A521E43EA0243828A89
:100B2000007E521E43EA0252401E42EA0060084321
:100B3000C6F8480170BD000002490A6842EA400058
:100B400008607047540100A02DE9F0410022012700
:100B50004FF0030C07FA02F50B682B40AB422CD187
:100B6000066853000CFA03F4A64306600E79D0F829
:100B700000809E4046EA080606600E79012E01D0EC
:100B8000022E12D18668A64386604E79D0F808807E
:100B90009E4046EA080686604668AE434660456861
:100BA0008E799640B6B235434560C568A543C560A9
:100BB000CC799C40C3681C43C460521C102AC9D322
:100BC000BDE8F08110B54B07DB0E9A40C90800EB79
:100BD0008100016A0F249C40A1430162016A114314
:100BE000016210BD0246002012690A4200D00120B5
:100BF0007047418370470183704700007CB5002037
:100C00000090019080258DF8005048208DF801005B
:100C100006226946BA2000F049F8002801DA0020CF
:100C20007CBD9DF802009DF8031000EB012086B208
:100C30009DF804009DF8051000EB012084B28DF8AA
:100C400000504D208DF8010003226946BA2000F0C3
:100C50002DF8002801DA00207CBD9DF8020000F08C
:100C600003032246314602A002F08AF801207CBD2F
:100C70003C3C2D4754502D494E464F2D3E3E20586A
:100C80005F4D4158203D2025642C20595F4D41582F
:100C9000203D2025642C2054524947474552203D91
:100CA000203078253032780A00000000F0B587B097
:100CB0000E4617464FF0FF3500240021ADF8061010
:100CC0008DF804000221ADF8081003960121ADF85B
:100CD00012108DF81000B81EADF81400B01C06906C
:100CE00007E0022101A800F0C4FB0546022D02D056
:100CF000641C052CF5DB052C08DB707831782B465D
:100D000040EA0121BA1E034802F03AF807B028462B
:100D1000F0BD0000DC58000838B50D4800680090B0
:100D20000024651E0DE003226946BA20FFF7BEFFCE
:100D300045B2002D01DD284638BD214605A002F050
:100D40001FF82046641CE4B20528ECD3284638BDC1
:100D5000545700083C3C2D4754502D4552524F5299
:100D60002D3E3E20475450206932632074657374D1
:100D7000206661696C65642074696D652025642E48
:100D80000A000000FEB50E4617464FF0FF3500245E
:100D90000021ADF802108DF80000ADF80470029645
:100DA00007E00121684600F064FB0546012D02D0F2
:100DB000641C052CF5DB052C08DB707831782B469C
:100DC00040EA0121BA1E024801F0DAFF2846FEBDC2
:100DD0002C5900082DE9F0410024B82500F040FB13
:100DE000FFF79AFF0646002E05DA21A001F0C8FFA2
:100DF0003046BDE8F08100F057F82848007880B10F
:100E0000DFF89C80BA27254EF0210936B01CFFF789
:100E100060FA3A464146B01CFFF742FA0221AA1C8A
:100E200009E0DFF87C80A8F1BA08BA27EBE7705C2C
:100E30002044C4B2491C9142F9DBE143491C7019BA
:100E400081700121C170002414492A1D0931BA2082
:100E5000FFF798FF002802DC641C052CF4DB114826
:100E6000FFF759FC00F068FAFFF7C8FE0020C0E762
:100E70003C3C2D4754502D4552524F522D3E3E2062
:100E800049324320636F6D6D756E69636174696F7C
:100E90006E204552524F52210A000000540000209B
:100EA00022580008FFFF0F0030B585B02C480169BB
:100EB000C068CDE90301082203A9BA20FFF7F6FEB6
:100EC0000446200005D527A001F05AFF204605B0B2
:100ED00030BD9DF811002E4DA0B19DF812109DF867
:100EE0001320CDE9012100909DF810309DF80F20CE
:100EF0009DF80E1027A001F043FF9DF80E00392841
:100F00001ED02BE09DF812009DF81310CDE90010C3
:100F10009DF810309DF80F209DF80E1029A001F0CB
:100F20002FFF9DF80E00392818D19DF80F003128A9
:100F300014D19DF81000312810D1012028700DE047
:100F40009DF80F00312809D19DF81000352805D1F2
:100F50009DF81100372801D1002028702046B6E7FF
:100F6000545700083C3C2D4754502D4552524F5287
:100F70002D3E3E2047545020726561642076657294
:100F800073696F6E206661696C65640A0000000019
:100F9000540000203C3C2D4754502D494E464F2DC7
:100FA0003E3E204943322056657273696F6E3A2087
:100FB00025632563256325635F253032782530322C
:100FC000780A00003C3C2D4754502D494E464F2D89
:100FD0003E3E204943312056657273696F6E3A2058
:100FE0002563256325635F25303278253032780A02
:100FF0000000000000F084B82DE9FC41044688465A
:101000001546CDE900534346224640F2231112A073
:1010100001F0B6FE1C480FFA88F707801B482EB275
:1010200006801B4901200870A9B21FFA88F001F060
:10103000BDFD194D17480090A5F10A0835F91410A7
:1010400038F9140033463A46FFF7A2FB28F814702B
:1010500025F81460BDE8FC813C3C2D4754502D44DC
:10106000454255472D3E3E205B25645D49443A2567
:10107000642C20583A25642C20593A25642C20579A
:101080003A25640A00000000260000202800002005
:1010900025000020640100205A01002070B504469C
:1010A0000B4EA6F10A0536F8141035F8140001F0BD
:1010B000ABFD4FF0FF3025F8140026F8140022464F
:1010C000BDE8704040F2571102A001F059BE000087
:1010D0005A0100203C3C2D4754502D444542554771
:1010E0002D3E3E205B25645D546F75636820696406
:1010F0005B2532645D2072656C65617365210A0051
:101100002DE9F04F97B04CA00068169028210DF102
:101110002C090CA8FFF7DDF8484C60680B904FF0E5
:10112000BA0B00260C220BA95846FFF7BFFD01465B
:10113000002905DA42A001F023FE17B0BDE8F08FC8
:101140009DF82E000028F8D0010669D500F00F05A3
:10115000052D65D8012D14D9242101AF381DFFF7C5
:10116000B8F8A0680190681E022101EBC002044695
:1011700001A95846FFF79AFDE200B91C0EA8FFF737
:101180008FF8DFF8ECA00AF10408BAF80200A842D0
:1011900015D818E000246F1E0EE009EBC400C078DB
:1011A00000F00F0118F80600884207D0BC4201DBAE
:1011B000FFF774FF641CE4B2AC42EED3761CBAF8BD
:1011C00002008642E6DBDDB1002416E009EBC40034
:1011D000C17801F00F0608F804600179427941EA0C
:1011E00002218279C37942EA0322037A407A43EAF0
:1011F00000233046FFF700FF641CAC42E6DB0DE045
:10120000BAF8020050B1002404E018F80400FFF717
:1012100045FF641CBAF802008442F6DBAAF80250CB
:10122000032216A95846FFF7ADFD002885DA11A064
:1012300001F0A6FD81E70000814E00005457000830
:101240003C3C2D4754502D4552524F522D3E3E208E
:10125000493243207472616E7366657220657272E2
:101260006F722E206572726E6F3A25640A200A0032
:10127000540000203C3C2D4754502D494E464F2DE4
:101280003E3E2049324320777269746520656E6462
:101290005F636D64206572726F72210A0000000046
:1012A000FEE700002DE9FC410121880501F0CCF8A2
:1012B0000121882001F09EF80121880301F0D2F875
:1012C0001020009001258DF8045002248DF805406F
:1012D0008DF8065000268DF80760154F6946384690
:1012E000FFF732FC2021009169463846FFF72CFCBD
:1012F000A00200908DF804508DF805408DF806602E
:101300008DF807400B4F69463846FFF71DFC200358
:1013100000908DF804508DF805408DF806608DF82A
:10132000074069463846FFF70FFCBDE8FC81000026
:10133000001C0240000C024030B585B04FF400554F
:10134000009500248DF8044002208DF805008DF8EA
:10135000074069461248FFF7F7FB0D21032001F013
:101360006DFB03958DF8104008208DF811000125C4
:101370008DF8125003A8FFF7F5FA4FF4407001F012
:1013800017F828208DF8080006208DF809008DF840
:101390000A408DF80B5002A800F0D6FF05B030BD12
:1013A000000C024070B506460D46144601F0CEFF13
:1013B00046F0010001F09EFF01F0F8FF88B101F056
:1013C000E1FF012070BD012C03D101F059FF01F0B4
:1013D000D9FF01F06DFF05F8010B641EA4B201F006
:1013E0002DFF002CEFD101F0CDFF002070BD0000DB
:1013F0002DE9FC474FF40056009601208DF80400BB
:1014000002248DF8054000258DF806508DF8074020
:10141000114F69463846FFF797FB4FF40068414685
:101420003846FFF7E6FBDFF834904846FFF76AF9E5
:1014300041463846FFF7DFFB4846FFF763F9009661
:101440008DF804508DF805408DF8075069463846F0
:10145000FFF77AFBBDE8FC87000C0240FFFF0F009E
:1014600010B5FFF71FFFFFF7C3FFBDE81040FFF700
:1014700063BF70B505460E460024002014E004EB5F
:10148000440005EB80039978C90706D09A8815F8BF
:1014900020009968FFF786FF05E01A7915F820000B
:1014A000996800F008F8641C08B9B442E7D1002834
:1014B00000D1204670BD2DE9F04180460E4615460C
:1014C00001F060FF00244FF47A7701F03FFF4046BF
:1014D00001F010FF01F06AFF18B1641CA4B2BC4215
:1014E000F3D3BC4206D00BE0307801F003FF01F0EB
:1014F0005DFF20B101F046FF0120BDE8F081761CC0
:101500006D1EEDB2F0D201F03DFF0020F5E70000C6
:10151000C0244FF4E47548274FF01808DFF8849092
:10152000DFF884B0214E4FF4005A0121484600F004
:1015300095F8012806D10121706902F007FD1CA071
:1015400001F01EFC5146584600F088F8012806D1EB
:101550000221706902F0FAFC1EA001F011FC707803
:1015600001281BD1B6F90200A04215DBB6F9021022
:10157000E019884210DBB6F90400A8420CDBB6F98A
:10158000041005EB0800884206DB0421706902F0B4
:10159000DDFC19A001F0F4FB00207070142002F0B3
:1015A0004DFBC2E70000024000080240240000207A
:1015B0004B45593120707265737365642C207365D7
:1015C0006E64204249545F4B455931206576656E03
:1015D000740D0A004B45593220707265737365644F
:1015E0002C2073656E64204249545F4B455932206C
:1015F0006576656E740D0A00546F75636820436CE0
:1016000065617220627574746F6E2C2073656E64F0
:10161000204249545F434C454152206576656E74C3
:101620000D0A00001CB50121052000F0E3FE012099
:10163000009000208DF804008DF80700064C6946E4
:101640002046FFF781FA4FF4005100916946204689
:10165000FFF77AFA1CBD00000008024070B504468E
:101660000D4629462046FFF7BDFA012801D000208B
:1016700070BD29462046FFF7B5FA0128F9D00120B0
:1016800070BD000070B58AB0C40A00F01F05C0F339
:101690004516FEF766FF4FF440300090022001909F
:1016A0000396029504940F2005900D4C60680690F7
:1016B000002007904FF4F07008904FF448700990A4
:1016C0006846FEF765FFFEF7BFFF0220FEF756FFF4
:1016D0000028FAD0208800F001FD0AB070BD00009B
:1016E0004400002010B4203AD3B2054AD2681468EE
:1016F000D2885A4304EB420210BC00F07DB80000CF
:10170000440000202DE9F04180460D4600240D4E96
:101710004FF4487708E021464046FFF7E3FFF068C2
:101720008088204484B26D1CBC4208D22A78002AEA
:1017300005D0F0688188081980B28842EBD2BDE8F4
:10174000F08100004400002008B54FF6FF771F4DE0
:101750004FF0FF362FE04FF40040FFF793FF0020DB
:101760002870FEF7E1FFE00711D0287813280ED289
:10177000384600F0B3FC00F0FBFBC08829784843F2
:1017800080B213A1FFF7BEFF2878401C2870A00785
:1017900011D5287813280ED2384600F09FFC00F0AF
:1017A000E7FBC0882978484380B20EA1FFF7AAFF63
:1017B0002878401C2870012300961A460721686982
:1017C00002F02AFC04466007CDD5C4E724000020BF
:1017D0004B45593120697320707265737365642EAF
:1017E000000000004B455932206973207072657308
:1017F0007365642E000000002DE9F04300254FF4CE
:10180000C8635843DFF87890D9F804C0D9F80C7051
:1018100030E0002326E00C26B4FBF6F6F6004FF08D
:10182000800808FA06F832F8156048FA03F818EA52
:10183000060F01D10C2C08D94FF0010808FA03F863
:1018400016EA080F07D10C2C05D90CEB4106B9F8A4
:101850000240345204E00CEB4106B9F80040345227
:10186000491C5B1CBC889C42D5D8BB88C3F5487317
:1018700019446D1CFB88AB42CBD8BDE8F083000057
:10188000440000202DE9F04352420023022404EBDF
:1018900042041B4D2F886E68CD1805EBC508A0EBE0
:1018A000020C08EB05150CEB451826F8187000EB38
:1018B000020808EB451526F81570CD1A05EBC50989
:1018C00009EB051508EB451826F818700CEB4515C3
:1018D00026F8157025469D4208DC5B1C04EB43048A
:1018E000641CDA4202D1954200DC0025954203DDFA
:1018F000521C04EB4204641C002ACDDDBDE8F083D9
:10190000440000202DE9F74F07468846029803213E
:10191000A1EB40060024029D4FF6FF7935E09DB112
:1019200009EA4502A8EB050A381B93461FFA8AF11B
:1019300080B2012300F074F838195A461FFA8AF170
:1019400080B2012300F06CF89CB109EA4402A8EBD4
:10195000040A781B93461FFA8AF180B2012300F033
:101960005FF878195A461FFA8AF180B2012300F015
:1019700057F8002E03DA06EB8406B61D04E0601B60
:1019800006EB80060A366D1E641CAC42C7D9029A6B
:1019900003B041463846BDE8F04FFFF773BF000083
:1019A0002DE9F0478AB015469946DFF87080B8F8FF
:1019B0000040E60A04F01F07C4F3451401EBC1021E
:1019C00002EB011100EB4110D8F8041001EB400AC2
:1019D000FEF7C7FD4FF440300090022001900394C1
:1019E000029704960F200590CDF818A0C5F5487011
:1019F0000790CDF8209009956846FEF7C9FDFEF7DF
:101A000023FE0220FEF7BAFD0028FAD0B8F8000045
:101A100000F064FB0AB0BDE8F0870000440000203D
:101A20002DE9F0438BB01446984601EBC10202EB5E
:101A3000011100EB41111948426802EB4105008891
:101A4000C60A00F01F07C0F34519FEF78AFD4FF4E0
:101A50004030019002200290CDF810900397059637
:101A60000F20069007950120B8F1000F11D040F229
:101A70001F31089109940A9001A8FEF789FDFEF72D
:101A8000E3FD0220FEF77AFD0028FAD00BB0BDE896
:101A9000F0830021089109900A94EDE744000020AA
:101AA0002DE9F04106460D4617461C4600233A46EE
:101AB00029463046FFF7B4FF281981B200233A4681
:101AC0003046FFF7ADFF0123224629463046FFF797
:101AD000A7FFF01922462946BDE8F04180B2012354
:101AE000FFF79EBF2DE9F84F84460F460026A2EB74
:101AF0000C00002801DCACEB020000B2D91B00296D
:101B000000DCF91A09B20FFA8CF43DB24FF0FF3A3B
:101B1000624503D34FF00108C14601E0D046D146EB
:101B2000BB4203D34FF0010AD34600E0D3468842BC
:101B300009DB4FF00008C34600EBD072521013B21D
:101B40000091074622E04FF00009CA4601EBD1722E
:101B5000521013B200900F4618E02946204600F0BC
:101B600031FC0098184403B2BB4207DBD81B03B218
:101B700004EB080004B205EB0A0005B204EB09000F
:101B800004B205EB0B0005B2761C36B2BE42E4DDB2
:101B9000BDE8F88F2DE9FE4F84460C9F0E464FF0AE
:101BA0000008A2EB0C00002801DCACEB020000B244
:101BB000991B002900DCF11A09B20FFA8CF435B236
:101BC0004FF0FF39624504D34FF0010A4FF0010B8B
:101BD00001E0CA46CB46B34203D3012202920192EE
:101BE00003E0CDF80890CDF8049088420ADB4FF06E
:101BF000000A0022019200EBD072521016B200913E
:101C0000814633E04FF0000B0022029201EBD172CB
:101C1000521016B20090894628E0E019B0F5487FCE
:101C200020DCE01B1ED4E819B0F5F07F1ADCE81BBD
:101C300018D4A9B2A0B23A46FFF764FE0098304427
:101C400006B24E4508DBA6EB090006B204EB0A001B
:101C500004B20298284405B204EB0B0004B20198C8
:101C6000284405B208F101080FFA88F8C845D4DD08
:101C7000BDE8FE8F2DE9FC5F012140F2FF1000F06E
:101C8000B9FB4FF00408CDF8008002208DF8050064
:101C90008DF8040000208DF806008DF807006946D5
:101CA000AA48FEF751FF0E220221A848FEF78AFF3C
:101CB0004FF00809CDF800906946A448FEF744FFAC
:101CC0000E220321A148FEF77DFF4FF4807ACDF864
:101CD00000A069469D48FEF737FF0E2208219B4869
:101CE000FEF770FF0124009469469948FEF72CFF27
:101CF000092200219648FEF765FF4FF4006BCDF8EE
:101D000000B069469348FEF71FFF0E220B21914851
:101D1000FEF758FF2003009069468E48FEF714FF37
:101D20000E220C218B48FEF74DFF022000906946E1
:101D30008748FEF709FF092201218548FEF742FF87
:101D40004025009569468448FEF7FEFE0E220621D6
:101D50008148FEF737FF2020009069467F48FEF754
:101D6000F3FE0E2205217D48FEF72CFF0095694603
:101D70007A48FEF7E9FE0E2206217848FEF722FF98
:101D80006003009069467148FEF7DEFE0E220D21C9
:101D90006E48FEF717FFA602009669466E48FEF7EA
:101DA000D3FE09220A216C48FEF70CFFE0030090E5
:101DB00069466648FEF7C8FE0E220F216348FEF70B
:101DC00001FF009469466648FEF7BEFE0E22002120
:101DD0006348FEF7F7FE8027009769466148FEF7E3
:101DE000B3FE0E2207215F48FEF7ECFECDF800801F
:101DF00069465B48FEF7A8FE0E2202215848FEF70E
:101E0000E1FE4FF01008CDF8008069465348FEF718
:101E10009BFE0E2204215148FEF7D4FE20030090C1
:101E200069464D48FEF790FE0E220C214A48FEF707
:101E3000C9FE00954C4D69462846FEF785FE0E22E8
:101E400006212846FEF7BEFECDF800B0694642489E
:101E5000FEF77AFE0E220B213F48FEF7B3FECDF8C7
:101E6000008069463E48FEF76FFE0E2204213C4882
:101E7000FEF7A8FECDF8009069463648FEF764FEEE
:101E80000E2203213348FEF79DFECDF800A06946DF
:101E90002F48FEF759FE0E2208212D48FEF792FE2C
:101EA0004FF40079CDF8009069462948FEF74CFEC2
:101EB0000E2209212648FEF785FE0097694626482E
:101EC000FEF742FE0E2207212348FEF77BFE009616
:101ED00069462348FEF738FE0E220A212048FEF705
:101EE00071FECDF8009069461D48FEF72DFE0E22CA
:101EF00009211B48FEF766FE00961C4E69463046D7
:101F0000FEF722FE0E220A213046FEF75BFECDF8D8
:101F1000008002208DF805008DF8044000208DF827
:101F200006008DF8074069462846FEF70DFE00972B
:101F300069462846FEF708FE10212846FEF75BFE9C
:101F400080212846FEF757FEBDE8FC9F001C02409A
:101F5000000402400000024000180240001002404D
:101F60000020024000080240000C02400014024021
:101F70000148C068704700004400002010B590B0D0
:101F80000121880600F06EFA0121C80500F032FA3E
:101F9000FFF770FE00F0BEFC00240194029403944D
:101FA00004940D940E940F9405220721FA2000F05A
:101FB000E5FA002000F0D2FA012000F0D9FA3D2025
:101FC00000F0B0FA0028FAD0059406942E2007906D
:101FD0001720089040F24E30099040F2F7100A9016
:101FE0004FF459700B9040F20D200C9001A800F0B6
:101FF000E1F810B010BD000030B591B02F20019075
:1020000040F24E3002901820039040F2F7100490F6
:1020100002240594FF200690002007900890099064
:102020000A9060020B9005200C9040F243600E90E5
:10203000C01E0F904FF4F07010904FF050400D9074
:10204000144D01A9284600F017F9059412490D9185
:102050004FF4C0610B9107210C910E4C01A9803403
:10206000204600F009F9012000F052F9012128462C
:1020700000F0F6F80121204600F0F2F8012000F00F
:1020800047F9064800F012F8012000F083F811B07B
:1020900030BD00008468014000B80BD03C00002037
:1020A000014A108051807047440000200149C860F7
:1020B00070470000440000200649002804D006486C
:1020C00048600120886070474FF050404860002011
:1020D000886070474400002000B80BD00149088098
:1020E000704700004400002010B5094989680029A4
:1020F00008D00146074800F0B1F8BDE810400120C3
:1021000000F006B901460348803800F0A7F8F4E76C
:1021100044000020046901402DE9FC410121802098
:1021200000F068F94FF48064009401208DF80400F9
:1021300000218DF806108DF807008DF805100C4F62
:1021400069463846FEF700FD660000966946384647
:10215000FEF7FAFCA500009569463846FEF7F4FC48
:1021600003481830048006800580BDE8FC8100002B
:10217000001C02400649002804D0086840F0010015
:1021800008607047086820F0010008607047000090
:10219000186801400649002804D0086840F48030DF
:1021A00008607047086820F48030086070470000BD
:1021B0001868014030B5264A136826490B40136061
:1021C000038A1B04146845692C431C431460121DC8
:1021D00013680B401360038B1B041468C5692C4300
:1021E0001C431460121D13680B401360038C1B0406
:1021F0001468456A2C431C431460121D13680B407D
:102200001360018D09041368C46A23430B431360F0
:10221000111D0A68104B1A400A60D0E900231A43C6
:10222000D0E9023423431A430B681A430A60416B16
:102230000A02018E0B04064924310C6804F07F4425
:102240000C600C68806B134304431C430C6030BD6E
:102250000868014000F800F08F88FE0F4161704768
:10226000002904D0016841F0010101607047016854
:1022700021F001010160704770B58A88120443683B
:1022800003F4704343600B68134343608A8912046C
:10229000836803F4704383608B681343836002692F
:1022A00022F0070202610A690261CA6913020A8CFC
:1022B000120491F8244024068569002585618E6901
:1022C00022431E4316438661426922F0FF024261A7
:1022D0004A694261C26940F207739A43C261D1E917
:1022E0000A231A43C261826A85620A6B82620A8F7C
:1022F0001204C36A03F0E023C3624B6B1343C3624F
:10230000026B6FF30A020263C96B016370BD0000C8
:10231000014908607047000024680140FEE77047EB
:1023200008B54FF4A06000F043F825208DF80000B8
:1023300001208DF801008DF802008DF80300684639
:1023400000F002F808BD000030B50F23C278012567
:102350000178002A1FD0154A126802F4E062C2F523
:10236000E062C2F30722C2F10404D3404278A240E3
:1023700084781C401443220101F1E02181F80024FB
:10238000007800F01F018D404009800000F1E0203E
:10239000C0F8005130BD01F01F00854048098000A1
:1023A00000F1E020C0F8805130BD00000CED00E0ED
:1023B0000249084302490860704700000000FA051E
:1023C0000CED00E0B0F5487F10D800290EDBB1F528
:1023D000F07F0BDC01EBC10202EB011100EB4110BD
:1023E00003494A6802EB40000988018070470000F9
:1023F00044000020054A002903D011680143116000
:102400007047116881431160704700003038024006
:10241000054A002903D01168014311607047116813
:10242000814311607047000010380240054A0029BE
:1024300003D0116801431160704711688143116036
:102440007047000038380240054A002903D011685F
:1024500001431160704711688143116070470000AB
:1024600040380240054A002903D011680143116039
:102470007047116881431160704700004438024082
:1024800070B5244B196801F00C01234C00291ED0B3
:10249000224E04291DD008291DD00460196801F0BE
:1024A000F00109091E4A545C0168E14041601C6862
:1024B00004F4E054A40A145D21FA04F484601B6857
:1024C00003F460435B0BD25CD140C16070BD04601B
:1024D000E4E70660E2E70F4A121F1168C1F3805576
:1024E000116801F03F0135B1B6FBF1F11468C4F396
:1024F0008814614305E0B4FBF1F11468C4F3881457
:1025000061431268C2F30142521C5200B1FBF2F166
:102510000160C3E7083802400024F40040787D01E0
:102520001400002002460020510901290BD0022985
:102530000DD00949096802F01F02012393400B42A4
:1025400000D001207047044974390968F3E7024953
:10255000091F0968EFE7000074380240034A116858
:1025600021F4403101431160704700008C38024073
:10257000014908677047000000004742800140EAB7
:102580000160024940EA02700860704788380240E2
:102590002DE9FC5F0121FC20FFF72CFF02208DF8C4
:1025A00004008DF8050000208DF806008DF8070066
:1025B000012000906946D148FEF7C6FA0C2200219E
:1025C000CE48FEF7FFFA022000906946CB48FEF79E
:1025D000BBFA0C220121C948FEF7F4FA042000904E
:1025E0006946C648FEF7B0FA0C220221C348FEF73E
:1025F000E9FA082000906946C048FEF7A5FA0C22C7
:102600000321BE48FEF7DEFA102700976946BB4853
:10261000FEF79AFA0C220421B848FEF7D3FA4FF0DD
:102620002008CDF800806946B448FEF78DFA0C22E8
:102630000521B248FEF7C6FA4FF48059CDF8009054
:102640006946AE48FEF780FA0C221146AB48FEF709
:10265000B9FA4FF4005ACDF800A06946A748FEF732
:1026600073FA0C220D21A548FEF7ACFABD020095C5
:102670006946A248FEF768FA0C220E219F48FEF731
:10268000A1FA6C00009469469C48FEF75DFA0C22A2
:102690000F219A48FEF796FA012000906946984863
:1026A000FEF752FA0C2200219548FEF78BFA022021
:1026B000009069469248FEF747FA0C2201219048A3
:1026C000FEF780FA009569468E48FEF73DFA0C2227
:1026D0000E218C48FEF776FA009469468948FEF789
:1026E00033FA0C220F218748FEF76CFA0120009084
:1026F00069468448FEF728FA0C2200218148FEF73B
:1027000061FA0220009069467E48FEF71DFA0C220D
:1027100001217C48FEF756FA4FF0800BCDF800B04F
:1027200069467948FEF710FA0C2207217648FEF731
:1027300049FAE611009669467348FEF705FA0C223D
:1027400008217148FEF73EFAA011009069466E48D4
:10275000FEF7FAF90C2209216B48FEF733FA6011F3
:10276000009069466848FEF7EFF90C220A21664896
:10277000FEF728FA2011009069466348FEF7E4F955
:102780000C220B216048FEF71DFACDF80090694637
:102790005D48FEF7D9F90C2211465B48FEF712FAA4
:1027A000CDF800A069465848FEF7CEF90C220D215D
:1027B0005548FEF707FA009569465348FEF7C4F9F5
:1027C0000C220E215048FEF7FDF9009469464E4850
:1027D000FEF7BAF90C220F214B48FEF7F3F90096E9
:1027E00069464848FEF7B0F90C2208214548FEF733
:1027F000E9F9A011009069464248FEF7A5F90C22BC
:1028000009214048FEF7DEF96011009069463D4815
:10281000FEF79AF90C220A213A48FEF7D3F9402034
:1028200000903A4D69462846FEF78EF90C220621A3
:102830002846FEF7C7F9009769463148FEF784F944
:102840000C2204212E48FEF7BDF9CDF80080694620
:102850002B48FEF779F90C2205212948FEF7B2F939
:10286000012000902A4F69463846FEF76DF90C2288
:1028700000213846FEF7A6F92011009069461F484E
:10288000FEF762F90C220B211C48FEF79BF900941D
:1028900069461B48FEF758F90C220F211848FEF72D
:1028A00091F9009669461648FEF74EF90C22082168
:1028B0001348FEF787F9CDF800B069462846FEF7C1
:1028C00043F90C2207212846FEF77CF902200090EC
:1028D00069460D48FEF738F90C2201210A48FEF737
:1028E00071F90120009069460748FEF72DF90C2286
:1028F00000210548FEF766F9BDE8FC9F0014024080
:1029000000180240000C024000100240001C02406F
:102910000008024000B593B0FFF73AFE01210846D7
:10292000FFF784FD02200190072202920421039107
:1029300004920590069007900120089000200990CD
:102940000A9110210B9140210C914FF4C0710D910F
:102950000E904FF400610F9110908800119001A823
:10296000129008A8FEF764F800F002F813B000BD5A
:102970002DE9FF41012500950826019602950024C6
:10298000039420210120FEF727F80028F9D168469A
:10299000FEF73EF80A2000F041F802200090019670
:1029A0000295039420210120FEF716F80028F9D1A2
:1029B0006846FEF72DF80320009001960427029741
:1029C000039420210120FEF707F80028F9D168467A
:1029D000FEF71EF820210120FDF7FEFF0028F9D1A7
:1029E0006846FEF715F840F23120009701960295EF
:1029F000039020210120FDF7EFFF0028F9D1684660
:102A0000FEF706F840F26A50FEF796F82021012002
:102A1000FDF7E2FF0028F9D1BDE8FF8101B581B0E3
:102A2000054901984843009002E00098401E00903C
:102A300000980028F9D10CBDA086010010B58A07C6
:102A4000120F0F23934021F003040649214401F69D
:102A500008010C689C430C600B68904003430B60BA
:102A600010BD0000003001401CB500210191009113
:102A70002E4A106840F4803010604FF4A043106874
:102A800000F4003000900198401C0190009810B9AB
:102A900001989842F3D11068800302D5012000907C
:102AA00000E00091009801283FD1204840300168A3
:102AB00041F0805101601E49086840F440400860C0
:102AC0001A48083003680360036843F40043036056
:102AD000036843F4A0530360041F164B236013687C
:102AE00043F08073136013689B01FCD50A6842F4BD
:102AF00080320A604A68D203FCD50A6842F4003288
:102B00000A604A689203FCD50B4A40F205711160D5
:102B1000016821F003010160016841F002010160D8
:102B20000168C1F381010229FAD11CBD00380240BD
:102B300000700040195A4007003C024010B501F0F7
:102B4000CDFB012803D0BDE8104001F081BB10BDD2
:102B500010B51248016841F4700101601048016825
:102B600041F0010101600E4A002108321160026843
:102B70000C4B1A400260031D0B4A1A60026822F4D3
:102B80008022026006480C300160FFF76DFF0349A8
:102B90004FF000608039086010BD000088ED00E053
:102BA00000380240FFFFF6FE103000242DE9F0410E
:102BB00005460E460024134F04EB440207EBC20007
:102BC0008188A94210D3C188B1420DD34188B14256
:102BD0000AD837F83210A94206D8017B59B9012129
:102BE00001730169884706E0017B012903D10021B7
:102BF000017301698847641CE4B2122CDCD3BDE880
:102C0000F0810000D001002070B503460020124D75
:102C100000EB400205EBC204A6889E4217D935F8A6
:102C200032209A4213D2E2888A4210D962888A42BC
:102C30000DD200EB400005EBC000002101732169BB
:102C40002046884720466169BDE870400847401C1F
:102C5000C0B21228DCD370BDD0010020002904D0FE
:102C6000818941F4005181817047818921F40051AB
:102C7000818170470246002012880A4200D001205C
:102C8000704710B540F66A13C1F3421301F01F04F8
:102C90000121A140012B07D0022B07D014303AB1FB
:102CA00002680A43026010BD0C30F8E71030F6E706
:102CB00002688A43026010BD7FB504460D46208A33
:102CC00020F44051E88808432082A08941F20C6139
:102CD0008843A9882A8911436A8902431143A18143
:102CE000A08A20F44071A8890843A0826846FFF7B3
:102CF000C7FB1E48844202D01D48844201D103987C
:102D000000E00298A189090408D500EBC00101EB9D
:102D1000001029684900B0FBF1F007E000EBC001AA
:102D200001EB001029688900B0FBF1F06422B0FBD0
:102D3000F2F109010B096FF018056B4300EB8300FA
:102D4000A3891D044FF0320307D503EBC000B0FB8D
:102D5000F2F000F00700084306E003EB0010B0FBC0
:102D6000F2F000F00F00084320817FBD0010014009
:102D700000140140C1F3080181807047FEE70000A4
:102D80000FB4054B10B503A9044A029800F018F8D7
:102D900010BC5DF814FB000019320008CC010020C3
:102DA00002E008C8121F08C1002AFAD17047704714
:102DB000002001E001C1121F002AFBD17047000072
:102DC0002DE9FF4F8DB00F460546002606E0252869
:102DD0000BD0DDE90F1290476D1C761C2878002877
:102DE000F5D111B03046BDE8F08F0024A246A146CF
:102DF0000122E94900E0044315F8013F203B02FAB3
:102E000003F00842F7D128782A2810D06FF02F025B
:102E10002878A0F13001092914D80AEB8A0102EBC5
:102E2000410144F0020400EB010A6D1CF0E701CF00
:102E30005FEA000A03D544F40054CAF1000A44F0E2
:102E400002046D1C28782E2817D115F8010F44F0C4
:102E500004042A280ED06FF02F022878A0F1300148
:102E600009290AD809EB890102EB410100EB0109AC
:102E70006D1CF2E757F8049B6D1C28786C280FD066
:102E800006DC4C2817D068280DD06A2814D104E03D
:102E9000742810D07A280FD10DE044F400140AE011
:102EA00044F4801401E044F440146978814202D172
:102EB00004F580146D1C6D1C28786E281ED00CDC67
:102EC000632830D004DC00288BD0582811D19FE033
:102ED000642867D069280CD164E073282DD004DC05
:102EE0006F2872D0702804D194E075286ED07828AD
:102EF0006DD0DDE90F129047761C4BE1C4F3025010
:102F0000022806D0032809D0042801CF09D0066082
:102F100040E101CFF117C0E900613BE101CF06803C
:102F200038E1067036E117F8040B8DF80000002038
:102F30008DF80100EB46012003E057F804BB4FF089
:102F4000FF3061074FF0000102D40DE008F10101EC
:102F5000884649450FDA8045F8DB1BF80810002940
:102F6000F4D108E008F1010188468142FADB1BF840
:102F700008100029F6D1DDE90F23AAEB08008146ED
:102F8000214600F031F9304400EB080604E0DDE9A9
:102F90000F121BF8010B9047B8F10108F7D2214638
:102FA0004846F2E00A21C4F302524FF0000B0891A8
:102FB000022A04D001CFC117032A09D00AE0FF1D5D
:102FC00027F00707F7E8020108E02CE01EE01FE009
:102FD00000B2C117042A01D140B2C117021E71F11B
:102FE000000206DA0023D0EB030063EB01012D227F
:102FF00002E0220504D52B228DF82420012203E0D3
:10300000E20701D02022F7E7904653E00A210BE0C7
:10301000102109E010214FF0000B44F004044FF0A0
:103020000809089103E008214FF0000B0891C4F350
:103030000252022A04D001CF0021032A06D006E062
:10304000FF1D27F00707F7E8020103E080B2042A1A
:1030500000D1C0B24FF0000822072BD52A78702A81
:1030600007D0DDF820C08CF0100C5CEA0B0C05D00A
:103070000EE040228DF82420012208E050EA0103EE
:1030800006D030238DF824308DF82520022290467A
:10309000089B83F0080353EA0B030BD150EA0102AB
:1030A00001D1620706D530228DF824204FF00108A7
:1030B000A9F101092A78582A04D038A20B9208AA4B
:1030C0000A920BE03AA2F9E75B46089AFDF70CF981
:1030D0000B9B9B5C0A9A521E0A92137050EA0102E3
:1030E000F2D10A98ADEB000000F1200B600702D589
:1030F00024F4803401E04FF00109D94502DDA9EB49
:103100000B0000E0002000EB0B0141440890AAEB0B
:10311000010AE00306D4DDE90F232146504600F002
:1031200063F806444FF0000908E009A911F8090006
:10313000DDE90F12904709F10109761CC145F4DB66
:10314000E0030CD5DDE90F232146504600F04CF892
:10315000064404E0DDE90F1230209047761C089900
:10316000481E08900029F5DC08E00A980A990078C2
:10317000491C0A91DDE90F129047761CBBF1000152
:10318000ABF1010BF1DC21465046DDE90F2300F0E5
:1031900019F806446D1C21E609280100303132334C
:1031A0003435363738396162636465660000000083
:1031B000303132333435363738394142434445466D
:1031C000000000002DE9F041044600251E46174688
:1031D000880404D405E039462020B0476D1C641EE5
:1031E000F9D52846BDE8F0812DE9F04104460025D7
:1031F0001E469046C80301D5302700E020278804EA
:1032000004D505E041463846B0476D1C641EF9D52B
:103210002846BDE8F081000070B50446064DE1B2D5
:103220002846FFF7A7FD80212846FFF723FD002849
:10323000F9D0204670BD00000010014010B50C4CC4
:1032400020212046FDF7D5FC00F014F8102120467F
:10325000FDF7D1FC00F00EF810212046FDF7C9FC67
:1032600000F008F82046BDE810402021FDF7C3BC5F
:10327000001C02400020401CC0B23228FBD3704723
:1032800010B50A4C20212046FDF7B5FCFFF7F2FFF0
:1032900010212046FDF7AFFCFFF7ECFF1021204680
:1032A000FDF7A7FCBDE81040FFF7E4BF001C02409B
:1032B00070B5002400250E4E6006040E1021304625
:1032C000FDF799FCFFF7D6FF20213046FDF78AFC79
:1032D00008B1641CE4B210213046FDF78AFCFFF708
:1032E000C9FF6D1CEDB2082DE6D3204670BD00006D
:1032F000001C024070B505460024134E280604D574
:1033000020213046FDF777FC03E020213046FDF711
:1033100070FCFFF7AFFF10213046FDF76CFCFFF7A4
:10332000A9FF10213046FDF764FC072C03D12021B2
:103330003046FDF760FC6806050EFFF79BFF641C36
:10334000E4B2082CDAD370BD001C024010B50C4C5E
:1033500020212046FDF74FFC10212046FDF74BFCB5
:10336000FFF788FF20212046FDF743FCFFF782FF8F
:1033700010212046FDF73DFCBDE81040FFF77ABF65
:10338000001C024010B5084C20212046FDF731FCFE
:1033900010212046FDF72FFCFFF76CFF2046BDE80B
:1033A00010402021FDF727BC001C024070B50E4DD7
:1033B00020212846FDF71FFCFFF75CFF102128465F
:1033C000FDF719FCFFF756FF20212846FDF70AFC00
:1033D00008B1012400E0002410212846FDF709FC73
:1033E000FFF748FF204670BD001C02401CB5FDF7EA
:1033F00085F80FA0FFF7C4FC1AA0FFF7C1FC24A0BA
:10340000FFF7BEFC2DA0FFF7BBFC36480121CDE93C
:1034100000104A02002334A1374800F02FFF012892
:1034200002D04FF0FF301CBD00F0ECFCFEE70000C6
:103430004672656552544F53204C4344206469736F
:10344000706C617920616E6420746F7563682063AD
:103450006F6E74726F6C206578706572696D656EE1
:10346000740D0A005072657373204B4559312074F6
:103470006F20646973706C617920274B4559312046
:10348000697320707265737365642E270D0A0000DE
:103490005072657373204B45593220746F206469F4
:1034A00073706C617920274B455932206973207005
:1034B0007265737365642E270D0A0000546F75637F
:1034C0006820436C65617220627574746F6E20743D
:1034D0006F20636C6561722073637265656E0D0A9F
:1034E000000000002C0000204170705461736B4399
:1034F0007265617465000000050400082DE9F04163
:1035000004460F46174EF5683068001D00F078FA43
:1035100038B9306890F82C10012088403169814317
:103520003161601C07D137B13168BDE8F041091D38
:103530000D4800F0A9BA2C4430684460AC4206D271
:103540003168B06B091DBDE8F04100F085BA316803
:10355000706B091D00F080FAB06A844200D2B46238
:10356000BDE8F0816C0100205006002070B50446D3
:1035700000F096FA1C4DA868401CA860286810B19D
:10358000686938B10CE02C60A868012808D100F007
:10359000F9F805E02868E16AC06A884200D82C6022
:1035A000686A401C6862E06A01212A69814011430F
:1035B00029610E4900EB800001EB8000211D00F025
:1035C00063FA00F0A9FA686900280CD02868E16A5B
:1035D000C06A884207D206494FF080500860BFF3A6
:1035E0004F8FBFF36F8F70BD6C01002080030020F0
:1035F00004ED00E070B5124E124D1CE000F04CFCE2
:10360000306820B1002400F043FFA4B901E0012498
:10361000F9E700F045FAF068C468201D00F0F0F901
:10362000A868401EA8606868401E686000F074FAD0
:10363000204600F009F868680028DFD170BD00005E
:103640003C0600206C01002010B50446206B00F001
:1036500097FA2046BDE8104000F092BA4FF41041AE
:103660000F48420706D0C01D20F007000C49411A40
:10367000C1F510410B4A1060002353600144083922
:1036800021F00701103A11604B600B600B1A436088
:1036900001604068906050604FF00040D06070471B
:1036A00064060020B8010020074E4FF08054074DFB
:1036B000FFF7A0FF30680128FAD92C60BFF34F8FC5
:1036C000BFF36F8FF4E700008003002004ED00E0FB
:1036D0002DE9F047DDE908580A9C81460E469A46D6
:1036E000206B521E00EB820020F00707780705D000
:1036F00040F22B3218A11FA0FFF742FB0020221836
:10370000315C82F83410315C11B1401C1028F6D3C2
:10371000002684F84360202D00D31F25E562201D7C
:1037200000F097F904F1180000F093F92461C5F155
:103730002000A0616462666484F84860524649468D
:10374000384600F04BF92060B8F1000F01D0C8F8FE
:103750000040BDE8F08700002E2E5C2E2E5C4672E5
:10376000656552544F535C7372635C7461736B7321
:103770002E6300004572726F723A25732C25640D1A
:103780000A00000070B50024114D04EB840005EB25
:10379000800000F053F9641C202CF6D30D4800F093
:1037A0004DF90C48143000F049F90A48283000F06F
:1037B00045F908483C3000F041F90648503000F027
:1037C0003DF90548034941631431816370BD000030
:1037D00080030020000600206C01002030B5134952
:1037E00000E011460A688242FBD34B685C188442B1
:1037F00003D140681844486008460D68446823189F
:10380000AB420DD1094B103B1B689A4206D052685F
:10381000224442600A681268026002E0036000E02D
:103820000260814200D0086030BD0000B801002075
:103830000748416B0968002905D0416BC968C96810
:103840004968816270474FF0FF3181627047000024
:103850006C01002008484068401C05D040F20F125F
:1038600006A111A0FFF78CFA502080F31188BFF356
:103870004F8FBFF36F8FFEE7C00100202E2E5C2E0E
:103880002E5C4672656552544F535C706F72745C67
:10389000525644535C41524D5F434D34465C706F09
:1038A00072742E63000000004572726F723A2573C5
:1038B0002C25640D0A00000003460020002A03D0D6
:1038C000994300D1012070470B42FCD00120704782
:1038D0002DE9F0410546002600F0DEFA304F386849
:1038E00008B9FFF7BBFEF86805424BD175B1083542
:1038F00068070BD005F00700C0F108000544680711
:1039000004D0BF2227A131A0FFF73AFA002D39D009
:103910007868854236D8224910310846046801E0AB
:10392000214604466068A84202D220680028F7D1E8
:103930003868844226D00E680836206808606068BF
:10394000401B102811D904EB05085FEA487004D029
:10395000EC2214A11DA0FFF713FA6068401BC8F801
:10396000040065604046FFF739FF61687868401AD7
:103970007860BA68904200D2B860F868014361602C
:103980000020206000F084FD700705D04FF496728F
:1039900004A10EA0FFF7F4F93046BDE8F081000065
:1039A000A80100202E2E5C2E2E5C467265655254B6
:1039B0004F535C706F72745C4D656D4D616E675CEA
:1039C000686561705F342E63000000004572726F9D
:1039D000723A25732C25640D0A00000024384FF03C
:1039E0008073036221F00101C16104498161426079
:1039F0006FF0020140F820197047000055380008A8
:103A00000169D0E901329A60D0E901235A604A681D
:103A1000824201D182684A60002202610868401E29
:103A2000086070470449086880690A680968D26AB2
:103A3000C2F120028A6170476C01002000F1080188
:103A400041604FF0FF328260C1600161002101607E
:103A5000704700210161704730B50C68621C02D0CC
:103A600000F1080202E0026904E01A4653681D688A
:103A7000A542FAD953684B6099608A605160086129
:103A80000168491C016030BD42684A6093688B60E0
:103A900093685960916008610168491C0160704732
:103AA000502080F31188BFF34F8FBFF36F8F094908
:103AB0004868401C486001280AD10748006810F097
:103AC000FF0F05D040F2B91204A10FA0FFF758B9BB
:103AD00070470000C001002004ED00E02E2E5C2E97
:103AE0002E5C4672656552544F535C706F72745C05
:103AF000525644535C41524D5F434D34465C706FA7
:103B000072742E63000000004572726F723A257362
:103B10002C25640D0A00000010B5094C60680028CF
:103B200005D14FF4E07207A111A0FFF729F96068F1
:103B3000401E6060002801D180F3118810BD000094
:103B4000C00100202E2E5C2E2E5C467265655254FC
:103B50004F535C706F72745C525644535C41524DCB
:103B60005F434D34465C706F72742E63000000003A
:103B70004572726F723A25732C25640D0A0000009D
:103B800070B500282AD008380446154D6068E968E9
:103B9000084205D14FF4A07212A11CA0FFF7F0F863
:103BA000206828B140F241120EA118A0FFF7E8F8F2
:103BB0006068E968084211D02268002A0ED1884363
:103BC000606000F069F960686968084468602046D0
:103BD000FFF704FEBDE8704000F05ABC70BD000065
:103BE000A80100202E2E5C2E2E5C46726565525474
:103BF0004F535C706F72745C4D656D4D616E675CA8
:103C0000686561705F342E63000000004572726F5A
:103C1000723A25732C25640D0A00000006484FF403
:103C20007A710068B0FBF1F14FF0E020491E41616C
:103C300007210161704700000000002010B5044614
:103C40000020002C10D00E48006B28B140F2CF426B
:103C50000CA113A0FFF794F800F01EF900212046F4
:103C6000FFF74CFC00F014FC002807D110494FF07E
:103C700080500860BFF34F8FBFF36F8F10BD0000FF
:103C80006C0100202E2E5C2E2E5C4672656552540F
:103C90004F535C7372635C7461736B732E630000CB
:103CA0004572726F723A25732C25640D0A0000006C
:103CB00004ED00E070B50446FFF7F2FE234D04B9B1
:103CC0002C68201DFFF79CFE58B9E06A204A00EBE3
:103CD000800152F8211021B90121814028698843CF
:103CE0002861A06A18B104F11800FFF789FE686A1C
:103CF000401C68622868844207D1211D1548FFF7DF
:103D0000C3FE6868401C686007E0A868401EA860A1
:103D10002046FFF799FCFFF78BFDFFF7FDFE686972
:103D2000002812D0286884420FD1286B28B140F2B5
:103D3000654209A10FA0FFF723F812494FF0805008
:103D40000860BFF34F8FBFF36F8F70BD6C01002011
:103D5000800300203C0600202E2E5C2E2E5C467236
:103D6000656552544F535C7372635C7461736B731B
:103D70002E6300004572726F723A25732C25640D14
:103D80000A00000004ED00E02DE9F04105460E4672
:103D90001746002D05D140F617320EA114A0FEF7EC
:103DA000EFFF174C206B28B940F61B3209A110A079
:103DB000FEF7E6FF216846F000408861216828464A
:103DC0001831FFF761FE3846BDE8F0410121FFF7E9
:103DD00095BB00002E2E5C2E2E5C467265655254FB
:103DE0004F535C7372635C7461736B732E6300007A
:103DF0004572726F723A25732C25640D0A0000001B
:103E00006C0100201CB515480024CDE90040234674
:103E1000802213A1144800F031FA01280AD0401C76
:103E20001BD102B040F28472BDE810400FA116A071
:103E3000FEF7A6BF502080F31188BFF34F8FBFF36A
:103E40006F8F06484FF0FF312C38816201214161AC
:103E5000C460BDE81C4000F073B91CBD980100208F
:103E600049444C4500000000A93600082E2E5C2E67
:103E70002E5C4672656552544F535C7372635C747A
:103E800061736B732E6300004572726F723A257313
:103E90002C25640D0A0000000248016B491C0163D7
:103EA000704700006C01002070B5144D286B00288D
:103EB00002D00120E86170BD0020E8612869B0FAF5
:103EC00080F0C0F11F000E4E00EB800456F8240075
:103ED00028B940F6F6220BA111A0FEF751FF06EB20
:103EE000840041684968416000F10802914201D1B3
:103EF000496841604068C068286070BD6C0100205E
:103F0000800300202E2E5C2E2E5C46726565525476
:103F10004F535C7372635C7461736B732E63000048
:103F20004572726F723A25732C25640D0A000000E9
:103F300010B51820FFF7CCFC044624B10020206007
:103F4000201DFFF77BFD204610BD00002DE9F0414C
:103F5000884600250446002805D140F21D2221A1F3
:103F600029A0FEF70DFF5FEA186005D040F21E227F
:103F70001CA125A0FEF704FF261D06F10807FFF788
:103F80008BFFF068216841EA0801216020E0466863
:103F90000168002201F07F4321F07F415FEA431C6A
:103FA00006D4D4F800C01CEA010F07D0012205E0B6
:103FB000D4F800C031EA0C0C00D101223AB1DA0188
:103FC00000D50D43216841F0007100F00FFA304632
:103FD000B842DCD12068A843206000F059FA20687C
:103FE000BDE8F0812E2E5C2E2E5C46726565525423
:103FF0004F535C7372635C6576656E745F67726F56
:104000007570732E630000004572726F723A2573EB
:104010002C25640D0A0000002DE9F047089F0D468D
:104020009046994604460026002805D140F24D12DC
:1040300035A13EA0FEF7A4FE280E05D04FF4A772CE
:1040400031A13AA0FEF79CFE2DB940F24F122EA1ED
:1040500036A0FEF795FE00F041F930B92FB14FF4CC
:10406000A97229A131A0FEF78BFEFFF715FFD4F846
:1040700000A04A4629465046FFF71EFC40B156466E
:104080000027B8F1000F15D02068A843206011E088
:10409000AFB1B8F1000F01D04FF08076B9F1000F49
:1040A00001D046F0806645EA06013A46201DFFF73A
:1040B0006BFE002600F0ECF91FB310B109E0564684
:1040C000F8E71E494FF080500860BFF34F8FBFF3F1
:1040D0006F8FFFF7A7FC0646B00110D4FFF7E0FC96
:1040E00026684A4629463046FFF7E6FB28B1B8F174
:1040F000000F02D02068A8432060FFF70DFD26F0D6
:104100007F463046BDE8F0872E2E5C2E2E5C467230
:10411000656552544F535C7372635C6576656E746B
:104120005F67726F7570732E630000004572726F67
:10413000723A25732C25640D0A00000004ED00E09E
:104140001CB52F4C20682F49884205D140F25912E6
:104150002DA138A0FEF714FE20682A49491E884286
:1041600005D14FF4AD7228A132A0FEF709FE354CFF
:1041700020780190FF202070207800909DF80000AA
:104180009DF8001000F0F000884205D040F2731254
:104190001DA128A0FEF7F4FD9DF800002A4A00F0BA
:1041A000500010700720906006E09068401E9060FC
:1041B0009DF80000400000909DF800000006F4D437
:1041C000107A000200F4E0609060019820700C48C2
:1041D0002030016841F470010160016841F07041D4
:1041E0000160FFF71BFD00205060FCF70BF817483B
:1041F000016841F040410160FBF7F4FF00201CBD65
:1042000000ED00E071C20F412E2E5C2E2E5C467236
:10421000656552544F535C706F72745C52564453D0
:104220005C41524D5F434D34465C706F72742E6337
:10423000000000004572726F723A25732C25640DE0
:104240000A00000000E400E0C001002034EF00E0BC
:1042500010B5502080F31188BFF34F8FBFF36F8FDD
:1042600000F04AF818B104494FF08050086000206F
:1042700080F3118810BD000004ED00E02DE9FF5F20
:104280008146DDE90E788A4616469B46B000FFF768
:104290001FFB054628000AD04C20FFF719FB0446F7
:1042A0000CB1256304E02846FFF76AFC00E0002417
:1042B0008CB10020CDE90240CDE900785B46324662
:1042C00051464846FFF704FA2046FFF74FF9012010
:1042D00004B0BDE8F09F4FF0FF30F9E705484169B1
:1042E000002903D0006B18B10020704701207047EF
:1042F000022070476C0100202DE9F04100262E4F6E
:10430000386B002808D0B869401CB861F86900B162
:1043100001263046BDE8F081FD686D1CFD608DB959
:10432000786B006828B140F6D91224A12AA0FEF7C4
:1043300027FD786BB96B7963B863386A401C3862C3
:10434000FFF776FAB86ADFF8A08085420DD3786B64
:10435000006838B1786BC068C468606885420ED266
:10436000B86202E04FF0FF30B8623868C06A00EB14
:10437000800058F820000128C8D90126C6E7201D72
:10438000FFF73EFBA06A18B104F11800FFF738FBF5
:10439000E06A01213A6981401143396100EB8000F4
:1043A00008EB8000211DFFF76FFBE06A3968C96ADE
:1043B0008842CCD30126CAE76C0100202E2E5C2E49
:1043C0002E5C4672656552544F535C7372635C7425
:1043D00061736B732E6300004572726F723A2573BE
:1043E0002C25640D0A0000008003002070B50646ED
:1043F0000C461A4D286B002805D140F6993218A1B9
:104400001EA0FEF7BDFC44F000403060F4682CB9FB
:1044100040F6A13212A119A0FEF7B2FC3046FFF718
:10442000EFFA201DFFF7ECFAE06A01262A6906FA86
:1044300000F111432961154900EB800001EB800078
:10444000211DFFF721FBE06A2968C96A884202D969
:104450000120EE6170BD002070BD00006C010020E5
:104460002E2E5C2E2E5C4672656552544F535C7343
:1044700072635C7461736B732E6300004572726FBC
:10448000723A25732C25640D0A0000008003002079
:104490002DE9F041002400272B4D286B002805D181
:1044A0004FF4FD6229A130A0FEF76AFCFFF7F8FA8D
:1044B000286B401E2863286BF0BBA868E0B3DFF8C8
:1044C000B88001261DE0D8F80C00C46804F118007B
:1044D000FFF796FA201DFFF793FAE06A2A6906FAB9
:1044E00000F111432961254900EB800001EB8000B8
:1044F000211DFFF7C9FAE06A2968C96A884200D31A
:10450000EE61D8F800000028DDD10CB1FFF790F97A
:10451000AC6944B1FFF7F0FE00B1EE61641E002CFF
:10452000F8D10020A861E86930B1012714493807A3
:104530000860BFF34F8F00E001E0BFF36F8FFFF71C
:10454000EBFA3846BDE8F0816C0100202E2E5C2E7F
:104550002E5C4672656552544F535C7372635C7493
:1045600061736B732E6300004572726F723A25732C
:104570002C25640D0A00000028060020800300207E
:1045800004ED00E00000000000000000000000005A
:10459000000000000000000000000000000000001B
:1045A000000000000000000000000000000000000B
:1045B0000000000000008001800180018001800176
:1045C00080018001800180018001800180018001E3
:1045D00000000000800180010000000000000000D9
:1045E0000000000000000000CC00CC00CC00CC009B
:1045F000CC00CC0000000000000000000000000023
:1046000000000000000000000000000000000000AA
:10461000000000000000000000000000000000009A
:10462000600C600C600C30063006FE1FFE1F30066A
:1046300038071803FE1FFE1F180318038C018C0196
:104640008C01000000008000E003F80F9C0E8C1C21
:104650008C188C009800F801E007800E801C8C18E4
:104660008C189C18B80CF00FE0038000800000004C
:10467000000000000000000000000E181B0C110CD0
:1046800011061106110311039B018E01C038C06C85
:1046900060446044304430441844186C0C380000C6
:1046A000000000000000E001F003380718061806BB
:1046B0003003F001F000F8009C310E33061E061C9A
:1046C000061C063FFC73F021000000000000000003
:1046D00000000000000000000C000C000C000C00AA
:1046E0000C000C00000000000000000000000000B2
:1046F00000000000000000000000000000000000BA
:10470000000000000000000200038001C000C000A3
:1047100060006000300030003000300030003000B9
:104720003000300060006000C000C0008001000365
:1047300000020000000020006000C0008001800135
:10474000000300030006000600060006000600063F
:10475000000600060003000380018001C000600025
:104760002000000000000000000000000000000029
:10477000C000C000D806F807E00130033807000089
:104780000000000000000000000000000000000029
:104790000000000000000000000000000000000019
:1047A00080018001800180018001FC3FFC3F80018D
:1047B00080018001800180010000000000000000F5
:1047C00000000000000000000000000000000000E9
:1047D00000000000000000000000000000000000D9
:1047E0000000000000008001800100010001800045
:1047F00000000000000000000000000000000000B9
:10480000000000000000000000000000E007E007DA
:104810000000000000000000000000000000000098
:104820000000000000000000000000000000000088
:104830000000000000000000000000000000000078
:10484000000000000000C000C000000000000000E8
:10485000000000000000000C000C0006000600062E
:104860000003000300038003800180018001C00079
:10487000C000C000600060000000000000000000F8
:10488000000000000000E003F007380E180C0C18C0
:104890000C180C180C180C180C180C180C180C18F8
:1048A000180C380EF007E0030000000000000000C4
:1048B00000000000000000018001C001F00198012B
:1048C00088018001800180018001800180018001D8
:1048D00080018001800180010000000000000000D4
:1048E000000000000000E003F80F180C0C180C1872
:1048F00000180018000C000600038001C0006000D2
:1049000030001800FC1FFC1F000000000000000029
:10491000000000000000E001F807180E0C0C0C0C61
:10492000000C0006C003C007000C001800180C188B
:104930000C18180CF807E00300000000000000004D
:10494000000000000000000C000E000F000F800DA2
:10495000C00C600C600C300C180C0C0CFC3FFC3FC5
:10496000000C000C000C000C000000000000000017
:10497000000000000000F80FF80F180018000C00ED
:10498000EC03FC071C0E001C0018001800180C1883
:104990001C0C180EF807E0030000000000000000E7
:1049A000000000000000C007F00F381C18181800A5
:1049B0000C00CC03EC0F3C0E1C1C0C180C180C1833
:1049C000181C380EF007E003000000000000000093
:1049D000000000000000FC1FFC1F000C0006000689
:1049E000000380038001C001C000E000600060009F
:1049F00070003000300030000000000000000000B7
:104A0000000000000000E003F007380E180C180C3E
:104A1000180C3806F007F007180C0C180C180C18B6
:104A20000C18380CF80FE003000000000000000034
:104A3000000000000000E003F007380E1C0C0C180A
:104A40000C180C181C1C381EF81BE0190018000C60
:104A5000000C1C0EF807F001000000000000000030
:104A60000000000000000000000000000000000046
:104A70008001800100000000000000000000000034
:104A80000000000080018001000000000000000024
:104A90000000000000000000000000000000000016
:104AA0008001800100000000000000000000000004
:104AB0000000000080018001000100018000000072
:104AC00000000000000000000000000000000000E6
:104AD000000000000010001C800FE003F800180028
:104AE000F800E003800F001C001000000000000030
:104AF00000000000000000000000000000000000B6
:104B000000000000F81F000000000000F81F000077
:104B10000000000000000000000000000000000095
:104B20000000000000000000000000000000000085
:104B30000000000008003800F001C007001F001846
:104B4000001FC007F001380008000000000000004E
:104B5000000000000000E003F80F180C0C180C18FF
:104B60000018000C000600038001C000C000C00057
:104B700000000000C000C0000000000000000000B5
:104B80000000000000000000E00718180420C229FF
:104B9000224A114409440944094409221113E20C30
:104BA000024004201818E007000000000000000088
:104BB00000000000000080038003C006C006C0069D
:104BC000600C600C301830183018F83FF83F1C703B
:104BD0000C600C6006C006C0000000000000000071
:104BE000000000000000FC03FC0F0C0C0C180C185B
:104BF0000C180C0CFC07FC0F0C180C300C300C3093
:104C00000C300C18FC1FFC07000000000000000026
:104C1000000000000000C007F01F38381C300C7086
:104C20000660060006000600060006000600066094
:104C30000C701C30F01FE0070000000000000000B6
:104C4000000000000000FE03FE0F060E0618061806
:104C500006300630063006300630063006300618BC
:104C60000618060EFE0FFE03000000000000000004
:104C7000000000000000FC3FFC3F0C000C000C009A
:104C80000C000C00FC1FFC1F0C000C000C000C00A6
:104C90000C000C00FC3FFC3F000000000000000086
:104CA000000000000000F83FF83F1800180018004E
:104CB00018001800F81FF81F180018001800180036
:104CC0001800180018001800000000000000000084
:104CD000000000000000E00FF83F3C780E6006E0A6
:104CE00007C00300030003FE03FE03C007C006C0A5
:104CF0000EC03CF0F83FE00F000000000000000094
:104D00000000000000000C300C300C300C300C3077
:104D10000C300C30FC3FFC3F0C300C300C300C30B5
:104D20000C300C300C300C30000000000000000093
:104D300000000000000080018001800180018001EE
:104D4000800180018001800180018001800180015B
:104D5000800180018001800100000000000000004F
:104D60000000000000000006000600060006000625
:104D700000060006000600060006000600061806EB
:104D800018063807F003E0010000000000000000F2
:104D900000000000000006300618060C0606060398
:104DA0008601C60066007600DE008E010603060658
:104DB000060C061806300660000000000000000027
:104DC000000000000000180018001800180018006B
:104DD0001800180018001800180018001800180013
:104DE00018001800F81FF81F000000000000000065
:104DF0000000000000000EE01EF01EF01EF036D88D
:104E000036D836D836D866CC66CC66CCC6C6C6C6CA
:104E1000C6C6C6C686C386C30000000000000000E8
:104E20000000000000000C301C303C303C306C3086
:104E30006C30CC30CC308C310C330C330C360C361F
:104E40000C3C0C3C0C380C30000000000000000052
:104E5000000000000000E007F81F1C380E7006601C
:104E600003C003C003C003C003C003C003C0066087
:104E70000E701C38F81FE007000000000000000062
:104E8000000000000000FC0FFC1F0C380C300C3040
:104E90000C300C300C18FC1FFC070C000C000C0034
:104EA0000C000C000C000C000000000000000000D2
:104EB000000000000000E007F81F1C380E700660BC
:104EC00003E003C003C003C003C003C007E00663E0
:104ED0000E3F1C3CF83FE0F700C00000000000005F
:104EE000000000000000FE0FFE1F063806300630EE
:104EF00006300638FE1FFE0706030606060C0618D7
:104F000006180630063006600000000000000000B1
:104F1000000000000000E003F80F1C0C0C180C1837
:104F20000C001C00F803E00F001E003806300630AD
:104F30000E301C1CF80FE00700000000000000000D
:104F4000000000000000FE7FFE7F800180018001E4
:104F50008001800180018001800180018001800149
:104F6000800180018001800100000000000000003D
:104F70000000000000000C300C300C300C300C3005
:104F80000C300C300C300C300C300C300C300C3041
:104F90000C301818F81FE0070000000000000000A7
:104FA00000000000000003600630063006300C18D8
:104FB0000C180C18180C180C380E30063006700738
:104FC00060036003C001C001000000000000000099
:104FD0000000000000000360C361C361C361663369
:104FE000663366336633663366336C1B6C1B6C1B2F
:104FF0002C1A3C1E380E380E000000000000000085
:105000000000000000000FE00C7018303018700C29
:10501000600EC00780038003C003E006700C301CE4
:1050200018180C300E6007E00000000000000000BF
:1050300000000000000003C006600C301C38381867
:10504000300C6006E007C003800180018001800110
:10505000800180018001800100000000000000004C
:10506000000000000000FC7FFC7F006000300018A2
:10507000000C000600038001C00060003000180032
:105080000C000600FE7FFE7F000000000000000014
:10509000000000000000E003E0036000600060002A
:1050A0006000600060006000600060006000600000
:1050B0006000600060006000600060006000E0036D
:1050C000E00300000000300030006000600060007D
:1050D000C000C000C000C001800180018001000349
:1050E00000030003000600060000000000000000AE
:1050F000000000000000E003E003000300030003E1
:105100000003000300030003000300030003000387
:105110000003000300030003000300030003E00397
:10512000E003000000000000C001C0016003600354
:10513000600330063006180C180C00000000000058
:10514000000000000000000000000000000000005F
:10515000000000000000000000000000000000004F
:10516000000000000000000000000000000000003F
:10517000000000000000FFFFFFFF00000000000033
:105180000000000000000C000C000C000C000C00E3
:105190000C00000000000000000000000000000003
:1051A00000000000000000000000000000000000FF
:1051B00000000000000000000000000000000000EF
:1051C000F003F8071C0C0C0C000FF00FF80C0C0C83
:1051D0000C0C1C0FF80FF01800000000000000007D
:1051E0000000000000001800180018001800180047
:1051F000D803F80F380C1818181818181818181899
:105200001818380CF80FD803000000000000000048
:10521000000000000000000000000000000000008E
:10522000C003F007300E180C180018001800180002
:10523000180C300EF007C003000000000000000052
:1052400000000000000000180018001800180018E6
:10525000C01BF01F301C1818181818181818181828
:105260001818301CF01FC01B0000000000000000D8
:10527000000000000000000000000000000000002E
:10528000C003F00F300C1818F81FF81F1800180092
:105290003818301CF00FC0070000000000000000AC
:1052A000000000000000800FC00FC000C000C00060
:1052B000F007F007C000C000C000C000C000C00080
:1052C000C000C000C000C0000000000000000000DE
:1052D00000000000000000000000000000000000CE
:1052E000E00DF80F180E0C0C0C0C0C0C0C0C0C0C2C
:1052F0000C0C180EF80FE00D000C0C0C1C06F80737
:10530000F001000000001800180018001800180034
:10531000D807F80F381C1818181818181818181863
:1053200018181818181818180000000000000000BD
:10533000000000000000C000C000000000000000ED
:10534000C000C000C000C000C000C000C000C0005D
:10535000C000C000C000C00000000000000000004D
:10536000000000000000C000C000000000000000BD
:10537000C000C000C000C000C000C000C000C0002D
:10538000C000C000C000C000C000C000C000F800E5
:105390007800000000000C000C000C000C000C0059
:1053A0000C0C0C060C038C01CC006C00FC009C0166
:1053B0008C030C030C060C0C000000000000000025
:1053C000000000000000C000C000C000C000C0001D
:1053D000C000C000C000C000C000C000C000C000CD
:1053E000C000C000C000C0000000000000000000BD
:1053F00000000000000000000000000000000000AD
:105400007C3CFF7EC7E383C183C183C183C183C169
:1054100083C183C183C183C100000000000000007C
:10542000000000000000000000000000000000007C
:105430009807F80F381C1818181818181818181882
:10544000181818181818181800000000000000009C
:10545000000000000000000000000000000000004C
:10546000C003F00F300C181818181818181818184E
:105470001818300CF00FC0030000000000000000FE
:10548000000000000000000000000000000000001C
:10549000D803F80F380C18181818181818181818F6
:1054A0001818380CF80FD803180018001800180046
:1054B00018000000000000000000000000000000D4
:1054C000C01BF01F301C18181818181818181818B6
:1054D0001818301CF01FC01B001800180018001806
:1054E00000180000000000000000000000000000A4
:1054F000B007F003700030003000300030003000A2
:1055000030003000300030000000000000000000DB
:10551000000000000000000000000000000000008B
:10552000E003F003380E180C3800F003C007000C3D
:10553000180C380EF007E003000000000000000027
:1055400000000000000000008000C000C000C0009B
:10555000F007F007C000C000C000C000C000C000DD
:10556000C000C000C007800700000000000000006D
:10557000000000000000000000000000000000002B
:10558000181818181818181818181818181818189B
:105590001818381CF01FE01900000000000000007F
:1055A00000000000000000000000000000000000FB
:1055B0000C18180C180C180C300630063006600356
:1055C00060036003C001C001000000000000000093
:1055D00000000000000000000000000000000000CB
:1055E000C141C141C3616363636363633636363669
:1055F00036361C1C1C1C1C1C000000000000000097
:10560000000000000000000000000000000000009A
:105610001C38381C300C60066003600360036003B4
:105620006006300C381C1C38000000000000000030
:10563000000000000000000000000000000000006A
:105640001830301830187018600C600CE00CC00670
:10565000C00680038003800380018001C001F00048
:1056600070000000000000000000000000000000CA
:10567000FC1FFC1F000C000600038001C00060003E
:1056800030001800FC1FFC1F00000000000000009C
:1056900000000000000000038001C000C000C00046
:1056A000C000C000C000600060003000600040002A
:1056B000C000C000C000C000C000C00080010003E6
:1056C0000000000000008001800180018001800155
:1056D00080018001800180018001800180018001C2
:1056E00080018001800180018001800180018001B2
:1056F0008001000000006000C000C0018001800146
:105700008001800180010003000300060003000106
:10571000800180018001800180018001C000600063
:105720000000000000000000000000000000000079
:1057300000000000F010F81F080F0000000000003B
:105740000000000000000000000000000000000059
:105750000000000080470000814E000081580000DA
:105760008140000000000000002003E001053C0033
:105770000108280C5032030500000000000000174B
:10578000191E148B2B0D33350C080000009A0311E1
:105790000001000000000032000000205894C50203
:1057A00000000004B02300932B007B35006941000A
:1057B0005B4F005B000000000000000000000000E4
:1057C00000000000000000000000000000000000D9
:1057D0000000000000000000020406080A0C0E1081
:1057E000121416181AFF000000000000000000004C
:1057F00000000000000000020406080A0C0F10124E
:105800001316181C1D1E1F2021222426FFFFFFFF38
:10581000000000FFFFFFFFFFFFFFFFFFFFFFFFFF95
:105820004801002003E001050D000108280F503257
:10583000030500000000000000000000008A2A0CA0
:1058400045470C0800000002022D00000000000384
:105850006432000000286494C502070000049C2CF8
:10586000008F3400843F007C4C00775B00770000A1
:105870000000000000000000000000000000000028
:105880000000000000000000000000000000000018
:10589000000018161412100E0C0A08060402FFFF6E
:1058A00000000000000000000000000000000000F8
:1058B00016181C1D1E1F202122241312100F0A0867
:1058C00006040200FFFFFFFFFFFF000000000000D2
:1058D0000000000000000000000024013C3C2D47B7
:1058E00054502D4552524F522D3E3E2049324320B6
:1058F000526561643A203078253034582C20256474
:10590000206279746573206661696C65642C20651A
:105910007272636F64653A202564212050726F6350
:105920006573732072657365742E0A003C3C2D47C5
:1059300054502D4552524F522D3E3E204932432065
:1059400057726974653A203078253034582C2025F8
:1059500064206279746573206661696C65642C20CB
:10596000657272636F64653A202564212050726FFE
:10597000636573732072657365742E0A00000000FE
:10598000A059000800000020D0010000AE0300086C
:10599000D4590008D001002098980000B02D0008CC
:1059A000118495BA0A680901020304060708090C64
:1059B00089101AFF01011213844513081032183997
:1059C0001E0211D003F180470A11FF0101601AAADB
:0459D0000181000051
:04000005080001AD41
:00000001FF
