:020000040800F2
:10000000A09700207D0200082B1B0008C30F0008EA
:10001000291B0008790B00081D27000800000000BC
:10002000000000000000000000000000C501000802
:10003000D50C000800000000190200086D2300081C
:10004000970200089702000897020008970200082C
:10005000970200089702000897020008970200081C
:10006000970200089702000897020008970200080C
:1000700097020008970200089702000897020008FC
:1000800097020008970200089702000897020008EC
:1000900097020008970200089702000897020008DC
:1000A00097020008970200089702000897020008CC
:1000B00097020008970200089702000897020008BC
:1000C00097020008970200089702000897020008AC
:1000D000970200089702000897020008970200089C
:1000E000970200089702000897020008970200088C
:1000F000970200089702000897020008970200087C
:10010000970200089702000897020008970200086B
:10011000970200089702000897020008970200085B
:10012000970200089702000897020008970200084B
:10013000970200089702000897020008970200083B
:10014000970200089702000897020008970200082B
:10015000970200089702000897020008970200081B
:10016000970200089702000897020008970200080B
:1001700097020008970200089702000897020008FB
:1001800097020008970200089702000897020008EB
:1001900097020008970200089702000897020008DB
:1001A000970200089702000897020008DFF810D0B5
:1001B00000F088FA0048004741300008AFF30080A3
:1001C000A09700202A4B19680868B0E8F04F80F328
:1001D0000988BFF36F8F4FF0000080F311887047DC
:1001E0000000000006480068006880F3088862B6D6
:1001F00061B6BFF34F8FBFF36F8F00DF00BF00BF4B
:1002000008ED00E0DFF80C00016841F470010160C6
:10021000704700BF88ED00E0EFF30980BFF36F8FF8
:10022000134B1A681EF0100F08BF20ED108A20E94A
:10023000F04F106008B44FF0500080F31188BFF306
:100240004F8FBFF36F8F03F0A9FB4FF0000080F3D7
:10025000118808BC19680868B0E8F04F1EF0100F4C
:1002600008BFB0EC108A80F30988BFF36F8F704726
:1002700058000020EFF305807047000006488047D3
:1002800006480047FEE7FEE7FEE7FEE7FEE7FEE77B
:10029000FEE7FEE7FEE7FEE781230008AD01000868
:1002A00000F0004230F000400AD0C10D01F560714D
:1002B000C0F3160042EA0151C208400711437047DB
:1002C00000200146704730B50B4601460020202231
:1002D000012409E021FA02F59D4205D303FA02F553
:1002E000491B04FA02F52844151EA2F10102F1DCB3
:1002F00030BD2DE9F05F0546002092469B468846BA
:100300000646814640241BE0284641464746224691
:1003100000F0F9F953465A46C01A914110D31146DC
:100320001846224600F0E0F92D1A67EB01084F4607
:1003300022460120002100F0D7F917EB00094E41B9
:10034000201EA4F10104DFDC484631462A4643461C
:10035000BDE8F09F2DE9FE4F804681EA0300C00F03
:100360000C46009021F0004123F00045B8EB02005C
:10037000A94105D24046214690461C460B460246FE
:1003800023F00040104347D0270DC7F30A00C3F302
:100390000A510290401A019040286BDAC3F313000F
:1003A00040F4801B0098924620B10023D2EB030A50
:1003B00063EB0B0B01985946C0F14002504600F028
:1003C00093F906460D4650465946019A00F0ABF99E
:1003D00010EB08006141002487EA115284EAE773B8
:1003E0001A4340D0009A62B3019A012A4FEA075299
:1003F00015DC001B61EB02014FF0004202EA0752DC
:10040000CDE90042001C41F5801132462B4600F038
:10041000ABF903B0BDE8F08F40462146F9E7001B79
:1004200061EB0201001C41F5801300185B412018AC
:10043000A2F5001747EB030140EAD570B6196D41EC
:1004400011E06D084FEA360645EAC0754FEA0752DB
:10045000001B61EB0201001C41F5801149084FEAC5
:1004600030000019514132462B4603B0BDE8F04F31
:1004700000F06BB90098012240000023D0EB02028B
:1004800063EBE073009821464FEAE074B8EB00009C
:1004900061EB0401E9E783F000435BE781F0004191
:1004A00058E72DE9FE4F81EA030404F0004421F0EF
:1004B000004100944FF0000B23F0004350EA010488
:1004C0005ED052EA03045BD0C3F30A54C1F30A5569
:1004D0002C44A4F2F3340194A0FB0254C1F31301A1
:1004E00041F48011C3F3130343F4801301FB02446E
:1004F00000FB034E840A970A44EA815447EA835773
:10050000A4FB076802958D0A05FB07854FEA932C2B
:1005100004FB0C542705029D4FEA065847EA16379C
:10052000B5EB08056EEB070C870E920E47EA8117B4
:1005300042EA8312A7FB0201B6EB0B0164EB000455
:100540002B0D43EA0C335E1844EB1C50DA4651463F
:10055000E7FB0201C5F313044FEA0B3343EA1453DC
:100560004FEA0432019C43EA0603A4F10C0402940E
:10057000009CCDE900B400F0F7F803B0BDE8F08FBF
:1005800000200146F9E72DE9F04D81EA030404F06B
:10059000004B21F0004514464FF0000A23F00041C3
:1005A00050EA050220D054EA01021DD0C5F30A57D3
:1005B0000246C5F31303C1F31300C1F30A5640F416
:1005C000801543F48013A7EB0608101BD64608F2EB
:1005D000FD3873EB050002D308F1010801E0921821
:1005E0005B41B8F1000F03DA00200146BDE8F08D51
:1005F00000204FF48011064684460EE0171B73EB73
:10060000050705D3121B63EB050306434CEA010CF7
:1006100049084FEA300092185B4150EA0107EDD1DA
:1006200052EA030012D082EA040083EA050108437B
:1006300005D0101BAB4106D20122002306E00022A8
:100640004FF0004302E06FF0010253101AEB060076
:100650004CEB085110EB0A0041EB0B01BDE8F04DEB
:1006600000F073B8C1F30A52C1F3130140F2FF3333
:1006700041F480119A4202DA00200146704740F2AC
:1006800033439A42A2F2334202DC524200F03BB8BA
:1006900000F02AB830B5041E71F1000404DB4FF0FD
:1006A0000044404264EB0101141E73F1000405DBB9
:1006B0001C464FF00043524263EB0403994208BFCB
:1006C000904230BD064C074D06E0E06840F0010363
:1006D00094E8070098471034AC42F6D3FFF76AFD60
:1006E000FC5000081C510008202A04DB203A00FAC4
:1006F00002F1002070479140C2F1200320FA03F379
:10070000194390407047202A04DB203A21FA02F076
:100710000021704721FA02F3D040C2F1200291403B
:10072000084319467047202A06DBCB17203A41FAC6
:1007300002F043EAE07306E041FA02F3D040C2F16E
:100740002002914008431946704710B5141E73F1FA
:10075000000408DA401C41F1000192185B411A4381
:1007600001D120F0010010BD2DE9F04D92469B46CD
:1007700011B1B1FA81F202E0B0FA80F22032904673
:10078000FFF7B2FF04460F4640EA0A0041EA0B01B8
:1007900053465A46084313D0114653EA010019D074
:1007A000C8F140025046FFF7AEFF05460E465046E0
:1007B00059464246FFF798FF084305D0012004E060
:1007C00020463946BDE8F08D0020054346EAE07634
:1007D0002C4337430A986305E40AA0EB0800002283
:1007E000FD0A44EA47540A3002D500200146E9E7F1
:1007F000010510196941DDE9084500196941BDE8A5
:10080000F04DA2E70029816802D041F0010101E02A
:1008100021F0010181607047084B10B5D3F8042323
:1008200007490A40D0E900142143D0E902400443BB
:1008300021431143C3F8041310BD00000020014000
:10084000E030FCFF0029816802D041F4807101E0B2
:1008500021F48071816070470029816802D041F4E1
:10086000007101E021F400718160704730B5426889
:100870000F4B0C791A400B6842EA04221343436081
:1008800082680C4B4D791A40D1E9034323438C68AD
:1008900044EA4504234313438360C26A097D22F47A
:1008A0007002491EC9B242EA0151C16230BD000066
:1008B000FFFEFFFCFDF7FFC070B5072609290AD926
:1008C000C568A1F10A0404EB4404A640B543A34063
:1008D0001D43C56007E0056901EB4104A640B5432F
:1008E000A3401D4305611F23072A09D2446B521EF2
:1008F00002EB820293409C4391400C43446370BDE1
:100900000D2A09D2046BD21F02EB820293409C4352
:1009100091400C43046370BDC46A0D3A02EB82023D
:1009200093409C4391400C43C46270BD816841F088
:1009300080418160704700001AA001F0F1FE264E50
:1009400000252C46642002F033FF3088641C0544E7
:10095000032CF7DB0320B5FBF0F000EE100ADFED0F
:100960001F0A214CB8EE400A01220023114620EE56
:10097000200ADFED1B0A20EE200ADFED1A0A84EDC3
:10098000050A60EE200A2069FCEEE00A10EE905A9B
:1009900003F012F9002303222946E06803F00CF962
:1009A000CEE700000D0A2D2D2D2D2041444320546B
:1009B00061736B2053746172742028444D412C2064
:1009C000332D73616D706C652061766729202D2D44
:1009D0002D2D0D0A000000003C0000200000803991
:1009E0003333534000007A44240000207CB502F0E9
:1009F00013FE1C480324CDE900404FF4807500230A
:100A00002A4619A11B4803F0ABF8012802D11AA00D
:100A100001F086FE13480023001DCDE900402A4660
:100A20001AA11D4803F09CF8012802D11BA001F077
:100A300077FE0C4902200831CDE9000102020023B3
:100A40001BA11E4803F08CF8012802D11CA001F064
:100A500067FE04480838406802F0E4FEBDE87C40C8
:100A600002F016BE2C0000204144435F5461736BBA
:100A70000000000039090008414443205461736BB1
:100A80002063726561746564210D0A004C45445F02
:100A90005461736B00000000C91800084C454420E5
:100AA0005461736B2063726561746564210D0A0083
:100AB0004C43445F5461736B00000000D91500087B
:100AC0004C4344205461736B2063726561746564A8
:100AD000210D0A0070B54FF4407001F059F800F094
:100AE00043FE00F06FFE00F0F7F801F073F900F03C
:100AF000ADFC00F0E9FC012000F048FF002000F010
:100B00003FFD4FF40045284600F05CFA012000F05C
:100B100037FDFF2000F04AFD284600F053FA4FF65B
:100B2000FF74204600F03CFD284600F023FD00F055
:100B300087FC07A1002000F09FFA00F081FCC0882C
:100B400008A104EA4000BDE8704000F095BA00003A
:100B5000414443202B2050574D20436F6E74726FD9
:100B60006C0000002D2D2D2D2D2D2D2D2D2D2D2DFD
:100B70002D2D2D2D00000000FEE710B50121CC0524
:100B8000204601F01BF82046BDE81040002101F08E
:100B900015B80000034A0146002052680A4200D0FE
:100BA0000120704700B0024030B52A4B002419687C
:100BB000294A114019601968026811431960596B7C
:100BC00021F007015963596B426811435963416829
:100BD00041B301292DD0022930D00329C16832D078
:100BE0000A01016944690902240385682143154308
:100BF0000D43996B0D439D638169D963196C6FF344
:100C00000D011964196CC26911431964818C5A6C05
:100C100002F040425A645A6C006A024342EA0142BE
:100C20005A6430BDC168047D0A02018A09042406A1
:100C3000DBE7C1680A02018A0904D6E7C1684A01F4
:100C40000169C902D1E74A01016944698902E403E3
:100C5000CBE7000000B00240FCE0FCFF0248016866
:100C600041F001010160704700B0024000290168B5
:100C700002D041F0010101E021F001010160704763
:100C800030B50368124ACC6813400A682243D1E9A0
:100C900005452C432243CC6922430C6A22434C6A0B
:100CA00022438C6A22434C6B22438C6B22431A43AF
:100CB0000260426922F00703D1E90B2422431A4360
:100CC00042610A6942604A6882608968C16030BDD9
:100CD0003F801CF070470000F0B5012187B0084646
:100CE00000F060FF0121102000F08CFF012500249E
:100CF0008DF806408DF8075002266802254F8DF8C2
:100D0000056000908DF804606946384600F00BF9E4
:100D1000A80200908DF804606946384600F003F997
:100D200007220A21384600F03AF9072209213846FD
:100D300000F035F94FF4E130ADF80C400290ADF819
:100D40000E40ADF81040ADF814400C20124CADF838
:100D5000120002A9204601F087FC4FF4A06000F0C9
:100D600017FF25208DF818008DF819508DF81A50AE
:100D70008DF81B5006A800F0D9FE012240F2255143
:100D8000204601F058FC0121204601F043FC07B049
:100D9000F0BD0000000002400010014000224FF0B2
:100DA000204310280AD0B0F5807F09D0B0F5805FCD
:100DB00009D0D3F85801814309D107E0586EFAE70A
:100DC000D3F88400F7E7D3F8A400F4E70122104633
:100DD0007047D0E90012114382686FF01F03C068AA
:100DE00003EB421242EA402001434FF02040C0F89A
:100DF00050117047F0B50668B100A1F1C041D1F8BB
:100E00004011CD0BD0E901121143D0E903231A435D
:100E100011434269046A11438269436A1143C269FA
:100E2000ED0311432143194329434FF02045EEB30D
:100E3000D5F8406122436FF30E0633431A43C5F8D9
:100E4000402102689200A2F1C042C2F840116FF046
:100E50000F02130114030168160441B38900A1F1C4
:100E6000C041D1F8481101F0704C816AD1E9007E8F
:100E700002EB0E127F1E17438A6803EB0222174310
:100E80000A8A04EB02421743D5F8482147EA0C07C7
:100E900002F07043CA68898A120306EB0151A2F579
:100EA00080520A431A43C5F8482101E007E009E0EF
:100EB00000688000A0F1C040C0F84871F0BDC5F8DE
:100EC0004011C4E7D5F84811806A01F07047D0E9B5
:100ED000001C02EB0C12491E1143826803EB022234
:100EE00011430B4BC26803EB02321143028A04EB3D
:100EF00002421143828A007E06EB025211431A031A
:100F000002EB006001433943C5F84811F0BD000011
:100F100000F0FFFF4FF02041D1F8542142EA400099
:100F2000C1F854017047F0B5002201274FF0030CBF
:100F30000B6807FA02F52B40AB422CD10668530030
:100F40000CFA03F4A64306600E79D0F800E09E4048
:100F500046EA0E0606600E79012E01D0022E12D14D
:100F60008668A64386604E79D0F808E09E4046EA3F
:100F70000E0686604668AE43466045688E799640A8
:100F8000B6B235434560C568A543C560CC799C4081
:100F9000C3681C43C460521C102AC9D3F0BD4B0760
:100FA000DB0E9A40C90810B500EB8100016A0F24DE
:100FB0009C40A1430162016A1143016210BD01839B
:100FC0007047FEE770B58AB0C50A00F01F04C0F391
:100FD0004516FFF7D2FD4FF44030009001A90220E2
:100FE00081E851000F200D4CCDE904506068069057
:100FF000002007904FF4F07008904FF4487009906B
:101000006846FFF7D1FDFFF729FE0220FFF7C2FD7A
:101010000028FAD0208820800AB070BD400000204F
:10102000F0B5074600240B4D4FF448760AE0202225
:101030002146384600F010F8E8688088204484B2E1
:10104000B44205D2E8688088011989B28142EED2A3
:10105000F0BD000040000020203AD3B2054A10B491
:10106000D2681468D2885A4304EB420210BC00F0E4
:1010700025B80000400000202DE9F0410D468046D3
:1010800000240D4E4FF448770AE021464046FFF712
:10109000E3FFF0686D1C8088204484B2BC4208D213
:1010A0002A78002A05D0F0688088011989B2814227
:1010B000EBD2BDE8F0810000400000202DE9F043B4
:1010C000DFF87C80914600244FF4C8625043D8F882
:1010D0000470D8F80C602DE0002223E00C25B3FB4F
:1010E000F5F5ED004FF0800C0CFA05FC39F81450C2
:1010F0004CFA02FC1CEA050F01D10C2B08D94FF069
:10110000010C0CFA02FC15EA0C0F04D10C2B02D9CD
:10111000B8F8023001E0B8F8003007EB41052B5277
:10112000491C521CB3889342D8D89AB2C2F548726F
:101130001144641CF288A242CED8BDE8F0830000BE
:10114000400000202DE9FC5F012140F2FF1000F07B
:1011500029FD02208DF805008DF8040000208DF88F
:1011600006004FF004088DF80700CDF800806946AE
:10117000AA48FFF7D8FE0E220221A848FFF70FFF6A
:101180004FF0080A6946A548CDF800A0FFF7CBFE4E
:101190000E220321A148FFF702FF4FF48070009058
:1011A00069469E48FFF7BFFE0E2208219B48FFF7C5
:1011B000F6FE012469469A480094FFF7B4FE09221E
:1011C00000219748FFF7EBFE4FF4006B6946954806
:1011D000CDF800B0FFF7A7FE0E220B219148FFF7D4
:1011E000DEFE4FF4805969468E48CDF80090FFF737
:1011F0009AFE0E220C218B48FFF7D1FE02200090B0
:1012000069468748FFF78FFE092201218448FFF7CE
:10121000C6FE4025694684480095FFF784FE0E22ED
:1012200006218148FFF7BBFE2020009069467F48D9
:10123000FFF779FE0E2205217C48FFF7B0FE6946D4
:101240007A480095FFF76FFE0E2206217748FFF7D8
:10125000A6FE6003009069467048FFF764FE0E2208
:101260000D216E48FFF79BFEA60269466E48009668
:10127000FFF759FE09220A216B48FFF790FEE003B1
:10128000009069466548FFF74EFE0E220F21634825
:10129000FFF785FE694666480094FFF744FE0E227C
:1012A00000216348FFF77BFE80276946614800976D
:1012B000FFF739FE0E2207215E48FFF770FE6946F0
:1012C0005B48CDF80080FFF72EFE0E220221584821
:1012D000FFF765FE4FF0100869465448CDF80080CE
:1012E000FFF721FE0E2204215048FFF758FE694601
:1012F0004D48CDF80090FFF716FE0E220C214A480B
:10130000FFF74DFEDFF83091694648460095FFF73C
:101310000AFE0E2206214846FFF741FE6946424872
:10132000CDF800B0FFF7FFFD0E220B213E48FFF77E
:1013300036FE69463E48CDF80080FFF7F4FD0E22E8
:1013400004213B48FFF72BFE69463648CDF800A044
:10135000FFF7E9FD0E2203213248FFF720FE2002AD
:10136000009069462E48FFF7DEFD0E2208212C482A
:10137000FFF715FE6502694629480095FFF7D3FD82
:101380000E2209212648FFF70AFE694626480097E3
:10139000FFF7C9FD0E2207212348FFF700FE69462B
:1013A00023480096FFF7BFFD0E220A212048FFF7D1
:1013B000F6FD69461E480095FFF7B5FD0E2209218E
:1013C0001B48FFF7ECFD1D4D694628460096FFF7C8
:1013D000AAFD0E220A212846FFF7E1FD02208DF822
:1013E00005008DF8044000208DF80600CDF800803F
:1013F0008DF8074069464846FFF795FD694648461F
:101400000097FFF790FD10214846FFF7D8FD802197
:101410004846FFF7D4FDBDE8FC9F0000001C0240D9
:101420000004024000000240001802400010024088
:101430000020024000080240000C0240001402405C
:101440000148C068704700004000002010B501212D
:1014500090B0880600F0D6FB0121C80500F0A2FB81
:10146000FFF770FE00F092FE0024029403940094B3
:1014700001940C940D9405220721FA200E9400F09B
:1014800041FC002000F02EFC012000F035FC3D2046
:1014900000F00EFC0028FAD02E200494CDE905407F
:1014A0001720079040F24E30089040F2F710099054
:1014B0004FF459700A9040F20D200B90684600F0EE
:1014C00081FA10B010BD000030B591B02F2000900F
:1014D00040F24E3001901820029040F2F7100224A2
:1014E000CDE90304FF2005900020069007900890A6
:1014F000099060020A9005200B9040F243600D9025
:10150000C01E0E904FF4F0700F904FF05040154DEC
:101510000C906946284600F0B5FA4FF4C060049478
:1015200011490A9007200F4CCDE90B018034694620
:10153000204600F0A7FA012000F0F0FA0121284629
:1015400000F096FA0121204600F092FA012000F006
:10155000E5FA07490548C860012000F025FA11B0F6
:1015600030BD00008468014000B80BD0500000205E
:1015700040000020014948807047000040000020E2
:10158000054920B1054848600120886070474FF048
:10159000504048600020F8E74000002000B80BD021
:1015A000014908807047000040000020084910B53C
:1015B00089680029014607D0064800F057FABDE8BF
:1015C0001040012000F0AABA02488038F5E7000078
:1015D00040000020046901408CB02EA001F0A0F86A
:1015E0004FF0FF36334C350C33460AAA0321002056
:1015F00002F0E0FBFFF724FFC08800EB800080B220
:10160000FFF70EFDFFF71CFFC08800EB400005EA66
:101610004000FFF705FDFFF713FFC088C0EBC000D7
:1016200080B2FFF7FDFC6069FEF73AFE41EC100B5B
:1016300021A153EC102B684601F082F8FFF700FF60
:10164000C088694600EB800080B2FFF715FD227864
:101650001EA1684601F074F8FFF7F2FEC0886946E3
:10166000C0EBC00080B2FFF707FD1DA001F058F8E5
:101670006069FEF715FE41EC100B24A053EC102B13
:1016800001F04EF8217827A001F04AF82BA001F0D4
:1016900047F8A9E70D0A2D2D2D2D204C4344205449
:1016A00061736B205374617274202D2D2D2D0D0AE2
:1016B0000000000024000020566F6C7461676520F4
:1016C0003A20252E326620560000000042726967DB
:1016D00068746E657373203A202564202525000008
:1016E0002D2D2D2D2D2D2D2D2D2D2D2D2D2D2D2D2A
:1016F0002D2D2D2D2D2D2D2D2D2D2D2D2D2D2D2D1A
:101700002D2D2D2D2D2D0D0A000000002020566FAF
:101710006C74616765203A20252E326620560D0ACA
:101720000000000020204272696768746E65737360
:10173000203A2025642025250D0A00002D2D2D2D71
:101740002D2D2D2D2D2D2D2D2D2D2D2D2D2D2D2DC9
:101750002D2D2D2D2D2D2D2D2D2D2D2D2D2D2D2DB9
:101760002D2D0D0A0D0A00002DE9FC4101218020DC
:1017700000F018FA01208DF8040000218DF8061001
:101780008DF807000E4F4FF480648DF8051000941B
:1017900069463846FFF7C7FB65006946384600953D
:1017A000FFF7C1FBA600694638460096FFF7BBFB72
:1017B00003481830048005800680BDE8FC810000E5
:1017C000001C024070B58AB00121802000F0EAF9C7
:1017D0000121082000F00AFA4FF4E05005900220A1
:1017E0008DF8180000248DF81A4001258DF81B5043
:1017F0000320274E8DF8190005A93046FFF793FB0B
:1018000002220A213046FFF7CAFB02220B21304692
:10181000FFF7C5FB02220C213046FFF7C0FB532027
:10182000ADF81C0040F2E7301A4E0890ADF82440A5
:10183000ADF81E4007A9304600F0AEFE6020ADF8BE
:101840000000ADF80C40ADF80250694630460294F5
:1018500000F0D8FD0821304600F004FE694630460D
:1018600000F006FE0821304600F042FE6946304690
:1018700000F048FE0821304600F082FE012130468B
:1018800000F0ACFD0121304600F0B2FD0AB070BDA1
:10189000001C0240000C004070B5642800D9642090
:1018A00000EB80004400074D2146284600F06EFE04
:1018B0002146284600F06CFE21462846BDE87040CF
:1018C00000F068BE000C00402DED048B82B01EA01D
:1018D00000F026FF9FED288A284FDFED298A9FED33
:1018E000299A294E4FF0FF3529462B466A4600209B
:1018F00002F060FA9DED000AF8EE400A80EE880AD8
:1019000010EE100AB84201DB64240FE0B5EEC00A05
:10191000F1EE10FA01D8002408E0C0EE280A20EE0B
:10192000890ABCEEC00A10EE100AC4B2C4F1640009
:10193000C0B2FFF7B1FF34700023012202213069E9
:1019400002F03AF9D0E700000D0A2D2D2D2D204C84
:101950004544205461736B20537461727420285085
:10196000574D206272696768746E65737329202D04
:101970002D2D2D0D0A00000000007A443333534012
:10198000333353400000C84224000020054900289A
:10199000086802D040F0010001E020F0010008607A
:1019A000704700001868014005490028086802D007
:1019B00040F4803001E020F480300860704700007F
:1019C0001868014030B5264A136826490B40136059
:1019D000038A146845692C4344EA03441460121DC9
:1019E00013680B401360038B1468C5692C4344EAE9
:1019F00003441460121D13680B401360038C1468B9
:101A0000456A2C4344EA03441460121D13680B40DA
:101A10001360018D1368C46A234343EA01431360D2
:101A2000111D0A68104B1A400A60D0E900231A43BE
:101A3000D0E9023423431A430B681A430A60416B0E
:101A40000A02018E0B04064924310C6804F07F441D
:101A50000C600C68806B134304431C430C6030BD66
:101A60000868014000F800F08F88FE0F4161704760
:101A70000029016802D041F0010101E021F00101DB
:101A80000160704770B58A88436803F4704343600F
:101A90000B6843EA024343608A89836803F4704316
:101AA00083608B6843EA02438360026922F0070285
:101AB00002610A690261CA6991F8243014020A8C31
:101AC00085691204002686618D6942EA0362254316
:101AD00015438561426922F0FF0242614A69426111
:101AE000C26940F207739A43C261D1E90A231A43DB
:101AF000C261826A86620A6B82620A8FC36A03F0DD
:101B0000E023C3624B6B43EA0243C362026B6FF391
:101B10000A020263C96B016370BD000001490860DD
:101B20007047000024680140FEE7704730B50F237E
:101B3000C27801780125FAB1144A126801F1E02156
:101B400002F4E062C2F5E062C2F30722C2F10404CB
:101B5000D3404278A24084781C401443220181F88B
:101B60000024007800F01F018D404009800000F142
:101B7000E020C0F8005130BD01F01F008540480949
:101B8000800000F1E020C0F8805130BD0CED00E095
:101B90000249084302490860704700000000FA0546
:101BA0000CED00E0044A0029116801D0014300E077
:101BB000814311607047000030380240044A002918
:101BC000116801D0014300E08143116070470000BB
:101BD00010380240044A0029116801D0014300E096
:101BE000814311607047000038380240044A0029E0
:101BF000116801D0014300E081431160704700008B
:101C000040380240044A0029116801D0014300E035
:101C100081431160704700004438024070B5204B8A
:101C20001968204C11F00C0104D01F4E042903D078
:101C3000082903D004601BE0066019E0184A121F4F
:101C40001168C1F38055116801F03F0115B1B6FB71
:101C5000F1F101E0B4FBF1F114681268C4F38814E7
:101C60006143C2F30142521C5200B1FBF2F1016028
:101C700019680F2202EA11110C4A545C0168E14014
:101C800041601C68072505EA9424145D21FA04F4D8
:101C900084601B6805EA5333D25CD140C16070BDDB
:101CA000083802400024F40040787D011400002030
:101CB00002460020510901290BD002290CD0084905
:101CC000096802F01F02012393400B4200D001205B
:101CD000704703497439F3E70149091FF0E7000031
:101CE00074380240034A116821F440310143116005
:101CF000704700008C3802400149086770470000B7
:101D000000004742800140EA0160024940EA027057
:101D1000086070478838024070B501210E029AB001
:101D20003046FFF76FFF01218805FFF73BFF26488C
:101D30000190264802A90024012581E83100E8022B
:101D4000CDE906408000CDE908060AA90594000106
:101D500081E831001E4E0D940E9469463046009481
:101D6000FEF78EFF01213046FEF780FF1594169492
:101D7000179415A81894FEF74FFD0F948DF8404066
:101D800011941394104C8DF841504C3C8DF85050E8
:101D90000FA92046FEF76AFD002301220D212046EF
:101DA000FEF78AFD01212046FEF756FD012120465F
:101DB000FEF748FD01212046FEF724FD2046FEF7F0
:101DC000B5FD1AB070BD00004C2001403C00002061
:101DD000106402401CB501210420FFF7E3FE082037
:101DE000009003208DF8040000208DF8070069465C
:101DF0000348FFF798F8BDE81C40FFF78DBF0000CF
:101E0000000802402DE9FC5F0121FC20FFF7CAFE1B
:101E100002208DF804008DF8050000208DF80600E2
:101E20008DF80700012000906946D248FFF77BF843
:101E30000C220021CF48FFF7B2F80220009069463B
:101E4000CC48FFF770F80C220121CA48FFF7A7F829
:101E5000042000906946C748FFF765F80C2202216C
:101E6000C448FFF79CF8082000906946C148FFF776
:101E70005AF80C220321BF48FFF791F84FF01008E1
:101E80006946BC48CDF80080FFF74DF80C220421CC
:101E9000B848FFF784F8202000906946B548FFF75E
:101EA00042F80C220521B348FFF779F84FF4805926
:101EB0006946B048CDF80090FFF735F80C2211467E
:101EC000AC48FFF76CF84FF4005000906946A94801
:101ED000FFF729F80C220D21A648FFF760F84FF410
:101EE00080456946A3480095FFF71DF80C220E2196
:101EF000A048FFF754F86C0069469E480094FFF72D
:101F000012F80C220F219B48FFF749F8012000909E
:101F100069469948FFF707F80C2200219648FFF719
:101F20003EF80220009069469348FEF7FCFF0C2221
:101F300001219148FFF733F8694690480095FEF774
:101F4000F2FF0C220E218D48FFF729F869468B48D5
:101F50000094FEF7E8FF0C220F218848FFF71FF8D6
:101F60000120009069468548FEF7DDFF0C22002124
:101F70008248FFF714F80220009069467F48FEF778
:101F8000D2FF0C2201217D48FFF709F88020009044
:101F900069467B48FEF7C7FF0C2207217848FEF709
:101FA000FEFFE611694676480096FEF7BCFF0C225C
:101FB00008217348FEF7F3FFA711694670480097A0
:101FC000FEF7B1FF0C2209216D48FEF7E8FF4FF440
:101FD000806A69466A48CDF800A0FEF7A4FF0C228B
:101FE0000A216748FEF7DBFF4FF4006B694664483F
:101FF000CDF800B0FEF797FF0C220B216048FEF7EA
:10200000CEFF69465E48CDF80090FEF78CFF0C22AB
:1020100011465B48FEF7C3FFA01000906946584880
:10202000FEF781FF0C220D215548FEF7B8FF6946E7
:1020300053480095FEF777FF0C220E215048FEF71B
:10204000AEFF69464E480094FEF76DFF0C220F214B
:102050004B48FEF7A4FF694648480096FEF763FF29
:102060000C2208214548FEF79AFF6946434800972D
:10207000FEF759FF0C2209214048FEF790FF694600
:102080003E48CDF800A0FEF74EFF0C220A213B4847
:10209000FEF785FF40203B4D009069462846FEF73D
:1020A00042FF0C2206212846FEF779FF6946324896
:1020B000CDF80080FEF737FF0C2204212E48FEF7F2
:1020C0006EFF2020009069462B48FEF72CFF0C2263
:1020D00005212948FEF763FF01202B4F0090694638
:1020E0003846FEF720FF0C2200213846FEF757FF46
:1020F00069462048CDF800B0FEF715FF0C220B21F1
:102100001C48FEF74CFF69461B480094FEF70BFF86
:102110000C220F211848FEF742FF69461648009628
:10212000FEF701FF0C2208211348FEF738FF80203C
:10213000009069462846FEF7F6FE0C220721284645
:10214000FEF72DFF0220009069460D48FEF7EBFEDA
:102150000C2201210A48FEF722FF01200090694667
:102160000748FEF7E0FE0C2200210548FEF717FFA6
:10217000BDE8FC9F0014024000180240000C024021
:1021800000100240001C02400008024000B593B05D
:10219000FFF738FE01210846FFF71CFD042102204D
:1021A00007220D91CDE90B02CDE90E201090119080
:1021B000012000900020CDE9010110210391402170
:1021C00004914FF4C071CDE905104FF40061CDE9E1
:1021D0000710880009900BA80A906846FEF70AFECF
:1021E00000F002F813B000BDF0B585B00124082559
:1021F0000026CDE90246CDE9004520210120FEF769
:10220000CDFD0028F9D16846FEF7E3FD0A202248FB
:102210000490401E0490FCD10220CDE90005CDE9D8
:10222000024620210120FEF7B9FD0028F9D16846B9
:10223000FEF7CFFD0320042703968DE8A10020219F
:102240000120FEF7ABFD0028F9D16846FEF7C1FD7D
:1022500020210120FEF7A2FD0028F9D16846FEF7F3
:10226000B8FD40F23120CDE90240CDE900752021D2
:102270000120FEF793FD0028F9D16846FEF7A9FD7D
:1022800040F26A50FEF746FE20210120FEF786FD4F
:102290000028F9D105B0F0BD40420F001CB5002167
:1022A0002E4A00910191106840F4803010604FF484
:1022B000A043106800F4003001900098401C00908A
:1022C000019810B900989842F3D11068800342D564
:1022D0000120019021484030016841F080510160A7
:1022E0001F49086840F4404008601C4808300368F3
:1022F0000360036843F400430360036843F4A0539E
:102300000360041F174B2360136843F0807313604E
:1023100013689B01FCD50A6842F480320A604A685F
:10232000D203FCD50A6842F400320A604A6892037C
:10233000FCD50D4A40F205711160016821F00301DE
:102340000160016841F0020101600168C1F381018F
:102350000229FAD11CBD01911CBD000000380240C9
:1023600000700040195A4007003C024010B501F0CF
:102370009BFC012803D0BDE8104001F0DBBB10BD81
:10238000124810B5016841F47001016010480168FD
:1023900041F0010101600E4A00210832116002681B
:1023A0000C4B1A400260031D0B4A1A60026822F4AB
:1023B0008022026006480C300160FFF76FFF03497E
:1023C0004FF000608039086010BD000088ED00E02B
:1023D00000380240FFFFF6FE10300024002901887B
:1023E00002D041F0800101E021F0800101807047BE
:1023F0000029018802D041F0010101E021F0010132
:102400000180704730B5028C22F001020284028CF8
:102410008388048B22F0020224F073050C882C437D
:102420008D8915434A882A430C4DA84202D00C4D91
:10243000A8420DD122F00805CA8923F440732A432B
:1024400022F004058A882A430D8A1D434B8A2B43B8
:102450008380048389684163028430BD00000140A9
:1024600000040140028B22F008020A4302837047F5
:1024700070B5028C22F010020284028C8388048BD7
:102480000D8824F4E6464FF6FF7404EA052535432B
:102490008E8922F0200204EA061616434A8804EACE
:1024A00002123243104EB04202D0104EB04215D14B
:1024B00022F08006CA8923F4406304EA0212324300
:1024C00022F040068A8804EA021232430E8A04EAA5
:1024D00086061E434B8A04EA8303334383800583C5
:1024E00089688163028470BD0000014000040140DE
:1024F000028B4FF6FF7322F4006203EA01211143BD
:102500000183704770B5028C22F480720284028CC1
:102510008388848B0D8824F0730425438E894FF6BD
:10252000FF7422F4007204EA062616434A8804EA7D
:1025300002223243104EB04202D0104EB04215D1AA
:1025400022F40066CA8923F4405304EA022232438B
:1025500022F480668A8804EA022232430E8A04EA60
:1025600006161E434B8A04EA031333438380858394
:102570008968C163028470BD00000140000401400D
:10258000828B22F008020A438283704741637047BE
:1025900081637047C163704730B50288164C174D90
:1025A000A0420DD0A8420BD0B0F1804F08D0144B00
:1025B000984205D0134B984202D0134B984203D156
:1025C00022F070034A881A43104B984206D0104BF1
:1025D000984203D022F440730A891A4302804A6861
:1025E000C2620A880285A04201D0A84201D1897A3C
:1025F00001860121818230BD0000014000040140BC
:102600000004004000080040000C004000100040A2
:10261000001400400029818902D041F4005101E0FA
:1026200021F40051818170470246002012880A423D
:1026300000D00120704710B5C1F3421301F01F0410
:102640000121A140012B07D0022B07D01430002A12
:10265000026805D00A4304E00C30F8E71030F6E7D2
:102660008A43026010BD00007FB50446008A0D4613
:10267000C98820F4405001432182A08941F20C61B5
:102680008843A9882A8911436A8902431143A18199
:10269000A08A20F44071A8890843A0826846FFF709
:1026A000BDFA1A48844202D01948844201D10398E5
:1026B00000E00298A189090400EBC00101EB0010C1
:1026C000296801D5490000E08900B0FBF1F06422DF
:1026D000B0FBF2F109010B096FF018056B4300EB39
:1026E0008300A3891D044FF0320306D503EBC0001D
:1026F000B0FBF2F000F0070005E003EB0010B0FBC8
:10270000F2F000F00F00084320817FBD001001406F
:1027100000140140C1F3080181807047FEE700000A
:102720000FB4054B10B503A9044A029800F0EEF867
:1027300010BC5DF814FB00001D300008B80000203C
:102740000FB4084B10B504A902AA039800F0DEF8F4
:10275000044602A9002000F05CFC204610BC5DF895
:1027600014FB00001330000802E008C8121F08C163
:10277000002AFAD170477047002001E001C1121F02
:10278000002AFBD1704700002DE9FF5F82B00021D5
:10279000DDE90430020DDDF840B0034318D044F603
:1027A0001050A2F2FF3242431514119801281FD095
:1027B000A5EB0B00401C5FEA000A4FF000064E4FED
:1027C000DFF83891B046504615D5CAF1000413E041
:1027D000119801244AA3012801D16FEA0B01029844
:1027E000119AC0E90031C0E9024206B0BDE8F09F8D
:1027F000CBF10000DFE704460021404A491842EBD4
:102800000450CDE9001012E0E00707D032463B4605
:1028100040464946FDF745FE8046894632463B46DE
:1028200010461946FDF73DFE06460F466410002C83
:10283000EAD1DDE90401DDE90023BAF1000F06DA8F
:10284000FDF72FFE42464B46FDF72BFE05E0FDF758
:102850009AFE42464B46FDF796FE04460E4600227F
:10286000284BFDF717FF03D84FF0FF30014607E074
:102870000022254B20463146FDF76CFDFDF7F2FEA8
:10288000102409E0002C0ADB0A220023FDF731FDA9
:10289000039B30321A55641E50EA0102F2D1641CC7
:1028A000039AC4F111031444119A012A03D001229E
:1028B00008430DD10AE0084304D000204FF0110B6B
:1028C000119072E7A3EB0B056D1E0DE05B4504DD77
:1028D0004FF0000205F1010504E003DA4FF00002B9
:1028E000A5F10105002AECD002981199C0E9023146
:1028F000C0E9004579E70000000014400000F03F07
:10290000300000000000F0430000E03F2DE9FF4FE1
:1029100095B09A46884606460025EEE1252877D1EF
:1029200000242746F94A0121039400E0044316F8E5
:10293000013F203B01FA03F01042F7D130782A28FA
:1029400011D06FF02F033078A0F13002092A16D889
:10295000039A44F0020402EB820203EB42021044A9
:10296000761C0390EFE758F8042B0392002A03DA51
:10297000504244F40054039044F00204761C307832
:102980002E2816D116F8010F44F004042A280DD081
:102990006FF02F023078A0F13003092B09D807EB34
:1029A000870302EB4303C718761CF3E758F8047B50
:1029B000761C30786C280FD006DC4C2817D068289D
:1029C0000DD06A2814D104E0742810D07A280FD1D1
:1029D0000DE044F400140AE044F4801401E044F4EF
:1029E00040147278824202D104F58014761C761C61
:1029F000307866280BD013DC582877D009DC002803
:102A000075D04528F6D04628F4D047281AD193E14E
:102A100018E0632835D0642879D0652812D18BE17D
:102A2000702873D008DC6728F1D069286FD06E2831
:102A30000DD06F2806D1ACE073282CD0752874D047
:102A4000782853D05246179990476D1C54E1C4F32F
:102A50000250022809D003280DD0D8F8001004280D
:102A60000DD00D6008F1040846E1D8F80010EA170F
:102A7000C1E90052F6E7D8F800100D80F2E70D70BA
:102A8000F0E718F8041B8DF8001000208DF8010005
:102A9000EB46012003E058F804BB4FF0FF3061071C
:102AA0004FF0000102D40DE009F101018946B9425D
:102AB0000FDA8145F8DB1BF809100029F4D108E092
:102AC00009F1010189468142FADB1BF8091000294E
:102AD000F6D103985346A0EB090721463846179ACA
:102AE00000F080FA284400EB090507E044E008E123
:102AF0000DE01BF8010B524617999047B9F10109F7
:102B0000F7D2534621463846179AF2E039E00A21B7
:102B1000C4F302524FF0000B0091022A06D058F87D
:102B2000040BC117032A09D00AE023E008F10700CB
:102B300020F00702F2E80201904605E000B2C1175A
:102B4000042A01D140B2C117002906DA0A46002141
:102B5000404261EB02012D2202E0220504D52B2226
:102B60008DF80420012203E0E20701D02022F7E7DC
:102B7000914657E00A2100E010214FF0000B009130
:102B80000BE010214FF0000B44F0040408270091E3
:102B900003E008204FF0000B0090C4F30252022A19
:102BA00005D058F8040B0021032A08D008E008F1EA
:102BB000070020F00702F2E80201904603E080B22D
:102BC000042A00D1C0B24FF0000922072AD532787A
:102BD000702A07D0DDF800C08CF0100C5CEA0B0CFA
:102BE00005D00EE040228DF80420012208E050EAD2
:102BF000010306D030238DF804308DF80520022221
:102C00009146009B83F0080353EA0B030AD150EA74
:102C1000010201D1620705D530228DF804204FF062
:102C200001097F1E3278582A04D039A20C920CAACE
:102C300002920BE03BA2F9E75B46009AFDF759FBD5
:102C40000C9B9B5C029A521E0292137050EA010286
:102C5000F2D1029804A9081A00F1200B600702D5EE
:102C600024F4803400E001275F4502DDA7EB0B0070
:102C700000E0002000EB0B01009003984944401A4B
:102C80000390E00306D453462146179A039800F0B8
:102C9000A9F90544002706E001A85246C05D17992E
:102CA00090476D1C7F1C4F45F6DBE0030CD5534667
:102CB0002146179A039800F095F9054404E0302066
:102CC0005246179990476D1C0099481E00900029A4
:102CD000F5DC08E00298029952460078491C0291FE
:102CE000179990476D1CBBF10001ABF1010BF1DCB2
:102CF0005BE100F065F90544761C307800287FF42C
:102D00000DAE19B02846BDE8F08F0000092801007B
:102D10003031323334353637383961626364656651
:102D20000000000030313233343536373839414213
:102D30004344454600000000600700D4062708F120
:102D4000070020F00700F0E80223804603F0004C63
:102D50005FEA0C0001D097A009E0200501D596A0FC
:102D600005E0E00701D095A001E0AFF24C00139020
:102D7000307823F0004365280CD006DC452809D0C4
:102D800046281DD047287FD13BE0662818D0672809
:102D90007AD136E00021112F01DB112000E0781CF0
:102DA000CDE9000104A90CA8FFF7EEFCDDE90D0157
:102DB0000C9A4FF0000B07F10109109200914EE0C0
:102DC0004FF000400097CDE9011004A90CA8FFF7CF
:102DD000DBFCDDE90D020C9B0F994FF0000B9146D7
:102DE0001093009211B9791C00EB0109B7EB0900AF
:102DF00003D4C0F1FF3B07F10109A9EB07000190E3
:102E000042E0012F00DA01270021112F01DD1120FE
:102E100000E03846CDE9000104A90CA8FFF7B4FC96
:102E2000DDE90D010C9A00914FF0000BB9461092AC
:102E300021070FD4009A4A4503DA914601E0A9F12F
:102E40000109B9F1010F05DD109AA9F10101515CE9
:102E50003029F4D0B84202DA10F1040F03DA01216C
:102E6000CDE9011010E0002803DC8344A9EB000148
:102E700002E0411C494500DD8946A0EB0B00401CE7
:102E800001904FF000400290200705D4019848457A
:102E900002DB4FF0FF30019000208DF84B000298CC
:102EA0000DF14B07B0F1004F25D002200C902B20E4
:102EB0000D90029800280CDA404202902D200D90CF
:102EC00007E00A210298FDF7FEF93031029007F879
:102ED000011D0C99481E0C900029F2DC0298002874
:102EE000EFD1791E0D980870307800F0200040F086
:102EF000450007F8020D11A8C01BC01D02901398D1
:102F0000007800B1012000EB0901019801EBE071AC
:102F1000029801440398401A401E0390E00306D42F
:102F200053462146179A039800F05CF8054413981D
:102F3000007818B15246179990476D1CE00323D5CD
:102F400053462146179A039800F04CF805441BE0BD
:102F5000BBF1000F07DB0098584504DD1098179966
:102F600010F80B0001E01799302052469047019865
:102F70000BF1010B401E05F10105019004D12E203B
:102F80005246179990476D1CB9F10001A9F101094A
:102F9000DEDC05E017F8010B5246179990476D1CCF
:102FA0000299481E02900029F4DC53462146179AE4
:102FB00003989EE62D0000002B000000200000007A
:102FC0002DE9F041044600251E461746880404D426
:102FD00005E039462020B0476D1C641EF9D528460F
:102FE000BDE8F0812DE9F041044600251E469046DB
:102FF000C80301D5302700E02027880404D505E068
:1030000041463846B0476D1C641EF9D52846BDE8D8
:10301000F0810A68531C0B601070704770B5074D43
:103020000446C1B22846FFF775FB80212846FFF70A
:10303000FBFA0028F9D0204670BD000000100140C6
:103040001CB5FDF747FD0AA0FFF76AFB11490120F7
:10305000CDE90001420200230FA1134800F080FDDA
:10306000012802D04FF0FF301CBD00F045FCFEE708
:103070004672656552544F5320414443202B2050E3
:10308000574D204C454420436F6E74726F6C0D0A8F
:103090000D0A0000280000204170705461736B43DA
:1030A0007265617465000000ED0900082DE9F041CA
:1030B000184E0F460446F5683068001D00F068FAA7
:1030C00038B9306890F82C1001208840316981436C
:1030D0003161601C07D137B13168BDE8F0410E485D
:1030E000091D00F08DBA30682C44AC424460316850
:1030F00005D2B06BBDE8F041091D00F069BA706BF4
:10310000091D00F065FAB06A844200D2B462BDE8DD
:10311000F0810000580000208C0300202DE9F041D0
:10312000054600F079FA2D4EB068401CB06030685A
:103130002B4F10B1706930B32BE03560B0680128B7
:1031400027D1002404EB840007EB800000F032FA62
:10315000641C202CF6D3234800F02CFA21481430AC
:1031600000F028FA1F48283000F024FA1D483C30AF
:1031700000F020FA1B48503000F01CFA1948706328
:103180001430B06305E03068E96AC06A884200D84C
:103190003560706A0121401C7062E86A32698140C2
:1031A0001143316100EB800007EB8000291D00F026
:1031B00027FA00F06DFA706900280CD03068E96ACF
:1031C000C06A884207D208494FF080500860BFF3B8
:1031D0004F8FBFF36F8FBDE8F081000058000020D3
:1031E000BC0000203C03002004ED00E070B5124E4E
:1031F000124D1CE000F0CAFB306820B1002400F042
:103200001FFEA4B901E00124F9E700F005FAF06817
:10321000C468201D00F0BCF9A868401EA86068685A
:10322000401E686000F034FA204600F009F8686833
:103230000028DFD170BD0000780300205800002076
:1032400010B50446006B00F055FA2046BDE810406A
:1032500000F050BA10484FF41041420706D0C01D8C
:103260000D4920F00700411AC1F510410B4A002317
:103270000144C2E900030839103A21F00701116046
:103280004B600B600B1AC0E9001393604FF00040D5
:103290005360D06070470000A0030020A40000200D
:1032A000074E4FF08054074DFFF7A0FF306801280C
:1032B000FAD92C60BFF34F8FBFF36F8FF4E7000094
:1032C000BC00002004ED00E02DE9F047DDE90984B1
:1032D0000E4682466FF00301206B01EB8201084429
:1032E000089D20F007079946780705D040F22B3259
:1032F00018A11FA0FFF714FA00202218315C82F8F1
:103300003410315C11B1401C1028F6D3002684F82B
:103310004360202D00D31F25201DE56200F055F9E4
:1033200004F1180000F051F92461C5F12000646235
:10333000A061666484F848604A465146384600F009
:1033400011F92060B8F1000F01D0C8F80040BDE8C5
:10335000F08700002E2E5C2E2E5C4672656552545E
:103360004F535C7372635C7461736B732E63000004
:103370004572726F723A25732C25640D0A000000A5
:1033800030B5114900E011460A688242FBD34B6810
:103390005C18844203D1406818444860084643687A
:1033A0001C18944209D1084C103C2468A24209D050
:1033B00052681A4442600A6812680260814200D072
:1033C000086030BD0460F9E7A40000200648416BA6
:1033D000096829B1416BC968C96849688162704749
:1033E0004FF0FF31FAE7000058000020084840681D
:1033F000401C05D040F20F1206A111A0FFF790F972
:10340000502080F31188BFF34F8FBFF36F8FFEE71B
:10341000AC0000202E2E5C2E2E5C46726565525448
:103420004F535C706F72745C525644535C41524D02
:103430005F434D34465C706F72742E630000000071
:103440004572726F723A25732C25640D0A000000D4
:103450002DE9F0410546002600F098FA324F386811
:1034600008B9FFF7F7FEF86805424FD1002D4DD09F
:10347000083568070BD005F00700C0F108000544C7
:10348000680704D0BF2229A132A0FFF749F9002D17
:103490003CD07868854239D8234910310846046801
:1034A00001E0214604466068A84202D22068002854
:1034B000F7D13868B846844228D00E682068086082
:1034C00060680836401B10280ED96719780704D0A9
:1034D000EC2216A11FA0FFF723F96068401B78605B
:1034E00038466560FFF74CFF6168D8F80400424633
:1034F000401AC8F80400D8F80830984200D290600A
:10350000D8F80C0001430020C4E9000100F098FC49
:10351000700705D04FF4967204A10EA0FFF700F9D2
:103520003046BDE8F0810000940000202E2E5C2E75
:103530002E5C4672656552544F535C706F72745CBA
:103540004D656D4D616E675C686561705F342E63BB
:10355000000000004572726F723A25732C25640DCD
:103560000A00000010B5031F4FF080741C601B1F81
:1035700021F001011960191F044B0B6014390A6016
:10358000091F6FF0020244380A6010BDED330008D5
:10359000D0E9013201699A60D0E901235A604A6892
:1035A000824201D182684A60002202610868401E9E
:1035B0000860704700F108014FF0FF32C0E90112C6
:1035C000C160016100210160704700210161704705
:1035D00030B50C68621C02D000F1080202E00269FA
:1035E00004E01A4653681D68A542FAD953684B6037
:1035F00099608A60516008610168491C016030BDB2
:1036000042684A6093688B60936859609160086172
:103610000168491C01607047502080F31188BFF396
:103620004F8FBFF36F8F09494868401C48600128DD
:103630000AD10748006810F0FF0F05D040F2B91218
:1036400004A10FA0FFF76CB870470000AC00002089
:1036500004ED00E02E2E5C2E2E5C46726565525401
:103660004F535C706F72745C525644535C41524DC0
:103670005F434D34465C706F72742E63000000002F
:103680004572726F723A25732C25640D0A00000092
:1036900010B5084C606828B94FF4E07206A111A07B
:1036A000FFF73EF86068401E606001D180F311882A
:1036B00010BD0000AC0000202E2E5C2E2E5C467249
:1036C000656552544F535C706F72745C525644532C
:1036D0005C41524D5F434D34465C706F72742E6393
:1036E000000000004572726F723A25732C25640D3C
:1036F0000A00000070B500282AD0164DA0F1080479
:103700006068E968084205D14FF4A07212A11CA0BC
:10371000FFF706F8206828B140F241120EA118A068
:10372000FEF7FEFF6068E968084211D02268002AAF
:103730000ED18843606000F029F960686968084428
:1037400068602046FFF71CFEBDE8704000F078BBC3
:1037500070BD0000940000202E2E5C2E2E5C467260
:10376000656552544F535C706F72745C4D656D4D5E
:10377000616E675C686561705F342E6300000000F5
:103780004572726F723A25732C25640D0A00000091
:1037900006484FF47A710068B0FBF1F14FF0E02079
:1037A000491E4161072101617047000000000020AF
:1037B00010B5040012D00E49096B29B140F2CF4276
:1037C0000CA113A0FEF7ACFF00F0E0F800212046AA
:1037D000FFF76CFC00F034FB002807D110494FF0D4
:1037E00080500860BFF34F8FBFF36F8F10BD000094
:1037F000580000202E2E5C2E2E5C467265655254B9
:103800004F535C7372635C7461736B732E6300005F
:103810004572726F723A25732C25640D0A00000000
:1038200004ED00E070B50446FFF7F6FE234D04B941
:103830002C68201DFFF7ACFE58B9E06A204A00EB67
:10384000800152F8211021B9012181402869884363
:103850002861A06A18B104F11800FFF799FE686AA0
:10386000401C68622868844207D1211D1548FFF773
:10387000C7FE6868401C686007E0A868401EA86032
:103880002046FFF7DDFCFFF7A1FDFFF701FF6869A8
:10389000002812D0286884420FD1286B28B140F24A
:1038A000654209A10FA0FEF73BFF12494FF080507F
:1038B0000860BFF34F8FBFF36F8F70BD58000020BB
:1038C000BC000020780300202E2E5C2E2E5C467259
:1038D000656552544F535C7372635C7461736B73B0
:1038E0002E6300004572726F723A25732C25640DA9
:1038F0000A00000004ED00E01CB515480024CDE9E5
:1039000000402346802213A1144800F029F9012821
:103910000AD0401C1BD102B040F28472BDE81040B6
:103920000FA116A0FEF7FCBE502080F31188BFF354
:103930004F8FBFF36F8F06484FF0FF312C388162F5
:1039400001214161C460BDE81C4000F069B81CBDA4
:103950008400002049444C4500000000A1320008CA
:103960002E2E5C2E2E5C4672656552544F535C734E
:1039700072635C7461736B732E6300004572726FC7
:10398000723A25732C25640D0A0000000248016B71
:10399000491C0163704700005800002070B5134DAA
:1039A000286B10B10120E86170BD0020E861286932
:1039B0000F4EB0FA80F0C0F11F0000EB800456F803
:1039C000240028B940F6F6220AA111A0FEF7A8FEAD
:1039D00006EB840000F108024168496841609142A9
:1039E00001D149684160C868286070BD5800002056
:1039F000BC0000202E2E5C2E2E5C46726565525453
:103A00004F535C7372635C7461736B732E6300005D
:103A10004572726F723A25732C25640D0A000000FE
:103A20001CB5304C20683049884205D140F259120B
:103A30002EA139A0FEF774FE20682B49491E88424A
:103A400005D14FF4AD7229A133A0FEF769FE364CC3
:103A500020780190FF20207020788DF800009DF8DC
:103A600000009DF8001000F0F000884205D040F200
:103A700073121EA128A0FEF753FE9DF800002B4AEA
:103A800000F0500010700720906007E09068401E22
:103A900090609DF8000040008DF800009DF8000047
:103AA0000006F3D4107A000200F4E0609060019800
:103AB00020700C482030016841F4700101600168F9
:103AC00041F070410160FFF763FE00205060FCF799
:103AD00099FB1748016841F040410160FCF782FB07
:103AE00000201CBD00ED00E071C20F412E2E5C2EA7
:103AF0002E5C4672656552544F535C706F72745CF5
:103B0000525644535C41524D5F434D34465C706F96
:103B100072742E63000000004572726F723A257352
:103B20002C25640D0A00000000E400E0AC00002039
:103B300034EF00E010B5502080F31188BFF34F8FB1
:103B4000BFF36F8F00F0BEF818B104494FF08050FA
:103B50000860002080F3118810BD000004ED00E033
:103B60002DE9FF5F8346DDE90E87994616468A46B2
:103B70009000FFF76DFC05001AD04C20FFF768FCA1
:103B8000040012D025630021CDE90241CDE9008770
:103B90004B46324651465846FFF796FB2046FFF704
:103BA000BDFA012004B0BDE8F09F2846FFF7A2FD52
:103BB0004FF0FF30F6E700002DE9F0411F46904638
:103BC0000D4604004FF0010605D141F2FD0228A187
:103BD0002EA0FEF7A5FDFFF71FFD0FB1606C38604A
:103BE00094F84800022184F84810B8F1050F0ED26D
:103BF000DFE808F00D03060C0A00616C294301E0C0
:103C0000616C491C616402E0022803D065640128EC
:103C100002D028E0002626E0201DFFF7B9FC1F4D4A
:103C2000E06A01212A698140114329611C4900EBA6
:103C3000800001EB8000211DFFF7E2FCA06A28B1A3
:103C400041F235120AA111A0FEF76AFDE06A296867
:103C5000C96A884207D913494FF080500860BFF302
:103C60004F8FBFF36F8FFFF713FD3046BDE8F08134
:103C70002E2E5C2E2E5C4672656552544F535C733B
:103C800072635C7461736B732E6300004572726FB4
:103C9000723A25732C25640D0A000000580000209C
:103CA000BC00002004ED00E00548416919B1006B3B
:103CB00018B10020704701207047022070470000B3
:103CC000580000202DE9F0412D4F0026386B40B1FF
:103CD000B869401CB861F86900B101263046BDE8FA
:103CE000F081FD686D1CFD6011D1786B006828B112
:103CF00040F6D91223A12AA0FEF712FD786BB96B0A
:103D00007963B863386A401C3862FFF75FFBB86AB2
:103D1000DFF89C80854209D3786B006880B1786BAE
:103D2000C068C468606885420DD2B8623868C06AED
:103D300000EB800158F821000128CCD90126CAE700
:103D40004FF0FF30F1E7201DFFF722FCA06A18B109
:103D500004F11800FFF71CFCE06A01213A69814078
:103D60001143396100EB800108EB8100211DFFF751
:103D700047FCE06A3968C96A8842CDD30126CBE79F
:103D8000580000202E2E5C2E2E5C46726565525423
:103D90004F535C7372635C7461736B732E630000CA
:103DA0004572726F723A25732C25640D0A0000006B
:103DB000BC0000202DE9F0411E4615468846074606
:103DC000FFF72AFC1C4C206890F84800022814D009
:103DD0002068416CB94341642168012081F84800A2
:103DE0005EB101213046FFF761F914494FF0805070
:103DF0000860BFF34F8FBFF36F8FFFF749FCFFF7EA
:103E00000BFC15B12068406C2860206890F84800D1
:103E100001280ED02068416C21EA08014164012587
:103E20002168002081F84800FFF732FC2846BDE8F1
:103E3000F0810025F4E700005800002004ED00E0C8
:103E40002DE9F0472B4D00242746286B28B94FF465
:103E5000FD6229A12FA0FEF763FCFFF7DDFB286BB5
:103E6000401E2863286BE8BBA8682E490126C8B30A
:103E7000A1F52A798846D8F80010E9B1D8F80C00E5
:103E8000C46804F11800FFF783FB201DFFF780FBD7
:103E9000E06A2A6906FA00F11143296100EB80010A
:103EA00009EB8100211DFFF7ABFBE06A2968C96AB5
:103EB0008842E0D3EE61DEE70CB1FFF787FAAC6928
:103EC0003CB1FFF7FFFE00B1EE61641EF9D10020A6
:103ED000A861E86930B11449012738070860BFF3C9
:103EE0004F8F00E001E0BFF36F8FFFF7D1FB384643
:103EF000BDE8F087580000202E2E5C2E2E5C467206
:103F0000656552544F535C7372635C7461736B7379
:103F10002E6300004572726F723A25732C25640D72
:103F20000A0000006403002004ED00E0000000002F
:103F30000000000000000000000000000000000081
:103F40000000000000000000000000000000000071
:103F500000000000000000000000000000008001E0
:103F60008001800180018001800180018001800149
:103F7000800180018001800100000000800180013B
:103F80000000000000000000000000000000000031
:103F9000CC00CC00CC00CC00CC00CC000000000059
:103FA0000000000000000000000000000000000011
:103FB0000000000000000000000000000000000001
:103FC0000000000000000000600C600C600C300677
:103FD0003006FE1FFE1F300638071803FE1FFE1FA7
:103FE000180318038C018C018C0100000000800074
:103FF000E003F80F9C0E8C1C8C188C009800F801C4
:10400000E007800E801C8C188C189C18B80CF00FE0
:10401000E0038000800000000000000000000000BD
:1040200000000E181B0C110C1106110611031103D0
:104030009B018E01C038C06C604460443044304401
:104040001844186C0C380000000000000000E0016B
:10405000F0033807180618063003F001F000F800E6
:104060009C310E33061E061C061C063FFC73F02115
:104070000000000000000000000000000000000040
:104080000C000C000C000C000C000C0000000000E8
:104090000000000000000000000000000000000020
:1040A000000000000000000000000000000000020E
:1040B00000038001C000C0006000600030003000DC
:1040C0003000300030003000300030006000600010
:1040D000C000C000800100030002000000002000BA
:1040E0006000C0008001800100030003000600069C
:1040F0000006000600060006000600060003000396
:1041000080018001C000600020000000000000006D
:104110000000000000000000C000C000D806F80742
:10412000E00130033807000000000000000000003C
:10413000000000000000000000000000000000007F
:10414000000000000000000080018001800180016B
:104150008001FC3FFC3F80018001800180018001E3
:10416000000000000000000000000000000000004F
:10417000000000000000000000000000000000003F
:1041800000000000000000000000000000008001AE
:10419000800100010001800000000000000000001C
:1041A000000000000000000000000000000000000F
:1041B00000000000E007E007000000000000000031
:1041C00000000000000000000000000000000000EF
:1041D00000000000000000000000000000000000DF
:1041E0000000000000000000000000000000C0000F
:1041F000C000000000000000000000000000000CF3
:10420000000C000600060006000300030003800304
:10421000800180018001C000C000C000600060001B
:104220000000000000000000000000000000E003AB
:10423000F007380E180C0C180C180C180C180C1869
:104240000C180C180C180C18180C380EF007E0039A
:10425000000000000000000000000000000000015D
:104260008001C001F0019801880180018001800176
:104270008001800180018001800180018001800136
:104280000000000000000000000000000000E0034B
:10429000F80F180C0C180C1800180018000C000669
:1042A00000038001C000600030001800FC1FFC1FEC
:1042B0000000000000000000000000000000E0011D
:1042C000F807180E0C0C0C0C000C0006C003C007FD
:1042D000000C001800180C180C18180CF807E00354
:1042E0000000000000000000000000000000000CC2
:1042F000000E000F000F800DC00C600C600C300C25
:10430000180C0C0CFC3FFC3F000C000C000C000CCB
:104310000000000000000000000000000000F80F96
:10432000F80F180018000C00EC03FC071C0E001C12
:104330000018001800180C181C0C180EF807E003E1
:104340000000000000000000000000000000C007A6
:10435000F00F381C181818000C00CC03EC0F3C0EA2
:104360001C1C0C180C180C18181C380EF007E00355
:104370000000000000000000000000000000FC1F22
:10438000FC1F000C00060006000380038001C00132
:10439000C000E000600060007000300030003000BD
:1043A0000000000000000000000000000000E0032A
:1043B000F007380E180C180C180C3806F007F00728
:1043C000180C0C180C180C180C18380CF80FE0030B
:1043D0000000000000000000000000000000E003FA
:1043E000F007380E1C0C0C180C180C181C1C381E6E
:1043F000F81BE0190018000C000C1C0EF807F00167
:1044000000000000000000000000000000000000AC
:10441000000000000000000080018001000000009A
:10442000000000000000000000000000800180018A
:10443000000000000000000000000000000000007C
:10444000000000000000000080018001000000006A
:10445000000000000000000000000000800180015A
:1044600000010001800000000000000000000000CA
:104470000000000000000000000000000010001C10
:10448000800FE003F8001800F800E003800F001C24
:10449000001000000000000000000000000000000C
:1044A000000000000000000000000000F81F0000F5
:1044B00000000000F81F00000000000000000000E5
:1044C00000000000000000000000000000000000EC
:1044D000000000000000000000000000080038009C
:1044E000F001C007001F0018001FC007F0013800CE
:1044F0000800000000000000000000000000E003D1
:10450000F80F180C0C180C180018000C000600030B
:104510008001C000C000C00000000000C000C0005A
:10452000000000000000000000000000000000008B
:10453000E00718180420C229224A114409440944FA
:10454000094409221113E20C024004201818E00764
:1045500000000000000000000000000000008003D8
:104560008003C006C006C006600C600C301830180E
:104570003018F83FF83F1C700C600C6006C006C095
:104580000000000000000000000000000000FC032C
:10459000FC0F0C0C0C180C180C180C0CFC07FC0F66
:1045A0000C180C300C300C300C300C18FC1FFC07B5
:1045B0000000000000000000000000000000C00734
:1045C000F01F38381C300C7006600600060006002C
:1045D00006000600060006600C701C30F01FE007A5
:1045E0000000000000000000000000000000FE03CA
:1045F000FE0F060E06180618063006300630063086
:1046000006300630063006180618060EFE0FFE03AA
:104610000000000000000000000000000000FC3F5F
:10462000FC3F0C000C000C000C000C00FC1FFC1FDD
:104630000C000C000C000C000C000C00FC3FFC3FBC
:104640000000000000000000000000000000F83F33
:10465000F83F18001800180018001800F81FF81F7D
:10466000180018001800180018001800180018008A
:104670000000000000000000000000000000E00F4B
:10468000F83F3C780E6006E007C00300030003FE1D
:1046900003FE03C007C006C00EC03CF0F83FE00FA9
:1046A00000000000000000000000000000000C30CE
:1046B0000C300C300C300C300C300C30FC3FFC3F1C
:1046C0000C300C300C300C300C300C300C300C300A
:1046D0000000000000000000000000000000800159
:1046E00080018001800180018001800180018001C2
:1046F00080018001800180018001800180018001B2
:1047000000000000000000000000000000000006A3
:104710000006000600060006000600060006000669
:10472000000600060006180618063807F003E00128
:104730000000000000000000000000000000063043
:104740000618060C060606038601C60066007600FB
:10475000DE008E0106030606060C0618063006600B
:104760000000000000000000000000000000180031
:104770001800180018001800180018001800180079
:10478000180018001800180018001800F81FF81F6B
:1047900000000000000000000000000000000EE02B
:1047A0001EF01EF01EF036D836D836D836D866CC75
:1047B00066CC66CCC6C6C6C6C6C6C6C686C386C3D3
:1047C00000000000000000000000000000000C30AD
:1047D0001C303C303C306C306C30CC30CC308C31C8
:1047E0000C330C330C360C360C3C0C3C0C380C30B7
:1047F0000000000000000000000000000000E007D2
:10480000F81F1C380E70066003C003C003C003C04D
:1048100003C003C003C006600E701C38F81FE00719
:104820000000000000000000000000000000FC0F7D
:10483000FC1F0C380C300C300C300C300C18FC1FEA
:10484000FC070C000C000C000C000C000C000C0011
:104850000000000000000000000000000000E00771
:10486000F81F1C380E70066003E003C003C003C0CD
:1048700003C003C007E006630E3F1C3CF83FE0F7AF
:1048800000C0000000000000000000000000FE0F5B
:10489000FE1F06380630063006300638FE1FFE07BB
:1048A00006030606060C06180618063006300660D3
:1048B0000000000000000000000000000000E00315
:1048C000F80F1C0C0C180C180C001C00F803E00F5F
:1048D000001E0038063006300E301C1CF80FE007B2
:1048E0000000000000000000000000000000FE7F4B
:1048F000FE7F8001800180018001800180018001B4
:10490000800180018001800180018001800180019F
:1049100000000000000000000000000000000C305B
:104920000C300C300C300C300C300C300C300C30A7
:104930000C300C300C300C300C301818F81FE0071D
:104940000000000000000000000000000000036004
:104950000630063006300C180C180C18180C180C01
:10496000380E30063006700760036003C001C001D6
:1049700000000000000000000000000000000360D4
:10498000C361C361C36166336633663366336633BE
:1049900066336C1B6C1B6C1B2C1A3C1E380E380EBD
:1049A00000000000000000000000000000000FE018
:1049B0000C7018303018700C600EC0078003800334
:1049C000C003E006700C301C18180C300E6007E0B5
:1049D000000000000000000000000000000003C014
:1049E00006600C301C383818300C6006E007C00335
:1049F00080018001800180018001800180018001AF
:104A00000000000000000000000000000000FC7F2B
:104A1000FC7F006000300018000C000600038001DD
:104A2000C0006000300018000C000600FE7FFE7F12
:104A30000000000000000000000000000000E00393
:104A4000E0036000600060006000600060006000E3
:104A50006000600060006000600060006000600056
:104A6000600060006000E003E00300000000300030
:104A70003000600060006000C000C000C000C001E5
:104A8000800180018001000300030003000600068E
:104A90000000000000000000000000000000E00333
:104AA000E00300030003000300030003000300030E
:104AB00000030003000300030003000300030003DE
:104AC000000300030003E003E00300000000000017
:104AD000C001C00160036003600330063006180C9B
:104AE000180C0000000000000000000000000000A2
:104AF00000000000000000000000000000000000B6
:104B000000000000000000000000000000000000A5
:104B10000000000000000000000000000000FFFF97
:104B2000FFFF0000000000000000000000000C007B
:104B30000C000C000C000C000C0000000000000039
:104B40000000000000000000000000000000000065
:104B50000000000000000000000000000000000055
:104B60000000000000000000F003F8071C0C0C0C13
:104B7000000FF00FF80C0C0C0C0C1C0FF80FF018B9
:104B8000000000000000000000000000000018000D
:104B90001800180018001800D803F80F380C18185F
:104BA00018181818181818181818380CF80FD803EF
:104BB00000000000000000000000000000000000F5
:104BC0000000000000000000C003F007300E180CC9
:104BD0001800180018001800180C300EF007C00359
:104BE00000000000000000000000000000000018AD
:104BF0000018001800180018C01BF01F301C1818EF
:104C000018181818181818181818301CF01FC01B7E
:104C10000000000000000000000000000000000094
:104C20000000000000000000C003F00F300C181856
:104C3000F81FF81F180018003818301CF00FC007B4
:104C40000000000000000000000000000000800FD5
:104C5000C00FC000C000C000F007F007C000C000D7
:104C6000C000C000C000C000C000C000C000C00044
:104C70000000000000000000000000000000000034
:104C80000000000000000000E00DF80F180E0C0CF2
:104C90000C0C0C0C0C0C0C0C0C0C180EF80FE00D82
:104CA000000C0C0C1C06F807F001000000001800B6
:104CB0001800180018001800D807F80F381C18182A
:104CC0001818181818181818181818181818181864
:104CD0000000000000000000000000000000C00014
:104CE000C000000000000000C000C000C000C00004
:104CF000C000C000C000C000C000C000C000C000B4
:104D00000000000000000000000000000000C000E3
:104D1000C000000000000000C000C000C000C000D3
:104D2000C000C000C000C000C000C000C000C00083
:104D3000C000C000C000F8007800000000000C00B7
:104D40000C000C000C000C000C0C0C060C038C016D
:104D5000CC006C00FC009C018C030C030C060C0CBA
:104D60000000000000000000000000000000C00083
:104D7000C000C000C000C000C000C000C000C00033
:104D8000C000C000C000C000C000C000C000C00023
:104D90000000000000000000000000000000000013
:104DA00000000000000000007C3CFF7EC7E383C1E0
:104DB00083C183C183C183C183C183C183C183C1D3
:104DC00000000000000000000000000000000000E3
:104DD00000000000000000009807F80F381C1818A9
:104DE0001818181818181818181818181818181843
:104DF00000000000000000000000000000000000B3
:104E00000000000000000000C003F00F300C181874
:104E100018181818181818181818300CF00FC003A4
:104E20000000000000000000000000000000000082
:104E30000000000000000000D803F80F380C18181C
:104E400018181818181818181818380CF80FD8034C
:104E500018001800180018001800000000000000DA
:104E60000000000000000000C01BF01F301C1818DC
:104E700018181818181818181818301CF01FC01B0C
:104E800000180018001800180018000000000000AA
:104E90000000000000000000B007F00370003000C8
:104EA0003000300030003000300030003000300082
:104EB00000000000000000000000000000000000F2
:104EC0000000000000000000E003F003380E180CA2
:104ED0003800F003C007000C180C380EF007E00390
:104EE00000000000000000000000000000000000C2
:104EF0008000C000C000C000F007F007C000C00084
:104F0000C000C000C000C000C000C000C0078007D3
:104F10000000000000000000000000000000000091
:104F200000000000000000001818181818181818C1
:104F300018181818181818181818381CF01FE01925
:104F40000000000000000000000000000000000061
:104F500000000000000000000C18180C180C180CC1
:104F6000300630063006600360036003C001C001F4
:104F70000000000000000000000000000000000031
:104F80000000000000000000C141C141C361636333
:104F9000636363633636363636361C1C1C1C1C1C99
:104FA0000000000000000000000000000000000001
:104FB00000000000000000001C38381C300C6006A7
:104FC00060036003600360036006300C381C1C380B
:104FD00000000000000000000000000000000000D1
:104FE0000000000000000000183030183018701861
:104FF000600C600CE00CC006C006800380038003D8
:1050000080018001C001F00070000000000000007D
:105010000000000000000000FC1FFC1F000C000648
:1050200000038001C000600030001800FC1FFC1F5E
:10503000000000000000000000000000000000036D
:105040008001C000C000C000C000C000C0006000FF
:105050006000300060004000C000C000C000C00020
:10506000C000C000800100030000000000008001BB
:105070008001800180018001800180018001800128
:105080008001800180018001800180018001800118
:10509000800180018001800180010000000060002B
:1050A000C000C001800180018001800180010003F7
:1050B00000030006000300018001800180018001DF
:1050C00080018001C00060000000000000000000BE
:1050D000000000000000000000000000F010F81FB9
:1050E000080F0000000000000000000000000000A9
:1050F0000000000000000000000000001C5100083B
:1051000000000020BC00000068270008D8510008FB
:10511000BC000020E4960000782700080095BA0A39
:105120000000000000000000010203040607080957
:10513000000000000102030401020304060708093D
:10514000000000000000000000000000000000005F
:105150000000000000000000000000000000FFFF51
:10516000000000D000000000000000002C3F0008FC
:105170001000180000000000000000000000000007
:10518000000000000000000000000000000000001F
:10519000000000000000000000000000000000000F
:1051A00000000000000000000000000000000000FF
:1051B00000000000000000000000000000000000EF
:1051C000000000000000000000000000AAAAAAAA37
:0851D0000000000000000000D7
:04000005080001AD41
:00000001FF
