:020000040800F2
:10000000989700207D020008FB070008970600086B
:10001000F907000811040008190D0008000000008D
:10002000000000000000000000000000C501000802
:10003000290500080000000019020008210A000834
:10004000970200089702000897020008970200082C
:10005000970200089702000897020008970200081C
:10006000970200089702000897020008970200080C
:1000700097020008970200089702000897020008FC
:1000800097020008970200089702000897020008EC
:1000900097020008970200089702000897020008DC
:1000A00097020008970200089702000897020008CC
:1000B00097020008970200089702000897020008BC
:1000C00097020008970200089702000897020008AC
:1000D000970200089702000897020008970200089C
:1000E000970200089702000897020008970200088C
:1000F000970200089702000897020008970200087C
:10010000970200089702000897020008970200086B
:100110009702000897020008910A00089702000859
:10012000970200089702000897020008970200084B
:10013000970200089702000897020008970200083B
:10014000970200089702000897020008970200082B
:10015000970200089702000897020008970200081B
:10016000970200089702000897020008970200080B
:1001700097020008970200089702000897020008FB
:1001800097020008970200089702000897020008EB
:1001900097020008970200089702000897020008DB
:1001A000970200089702000897020008DFF810D0B5
:1001B00000F0AEF800480047FD0F0008AFF30080E4
:1001C000989700202A4B19680868B0E8F04F80F330
:1001D0000988BFF36F8F4FF0000080F311887047DC
:1001E0000000000006480068006880F3088862B6D6
:1001F00061B6BFF34F8FBFF36F8F00DF00BF00BF4B
:1002000008ED00E0DFF80C00016841F470010160C6
:10021000704700BF88ED00E0EFF30980BFF36F8FF8
:10022000134B1A681EF0100F08BF20ED108A20E94A
:10023000F04F106008B44FF0500080F31188BFF306
:100240004F8FBFF36F8F01F0D7FD4FF0000080F3A9
:10025000118808BC19680868B0E8F04F1EF0100F4C
:1002600008BFB0EC108A80F30988BFF36F8F704726
:1002700044000020EFF305807047000006488047E7
:1002800006480047FEE7FEE7FEE7FEE7FEE7FEE77B
:10029000FEE7FEE7FEE7FEE7350A0008AD010008CD
:1002A000D2B201E000F8012B491EFBD270470022B8
:1002B000F6E710B513460A4604461946FFF7F0FF65
:1002C000204610BD421C10F8011B0029FBD1801AEA
:1002D0007047034611F8012B00F8012B002AF9D1D1
:1002E0001846704730B50B460146002020220124F5
:1002F00009E021FA02F59D4205D303FA02F5491BF4
:1003000004FA02F52844151EA2F10102F1DC30BD09
:10031000064C074D06E0E06840F0010394E8070052
:1003200098471034AC42F6D3FFF744FF3C25000851
:100330005C2500082DE9FC4101F00AFA01F0E2FD1C
:100340001E4D02263702A861281DCDE9006000235A
:100350003A461BA11D4801F073FF05F10C00032470
:10036000CDE9004000233A4619A11C4801F068FF7E
:1003700005F11000CDE9004000233A4618A11B48C2
:1003800001F05EFF05F11400CDE9006000233A465C
:1003900017A11A4801F054FF05F108010420CDE926
:1003A000000100233A4616A1184801F049FF2868C9
:1003B00001F02EFBBDE8FC4101F006BA240000204C
:1003C0004C45445F5461736B00000000C507000892
:1003D0004B65795F5461736B0000000021070008D2
:1003E00054696D65725F5461736B0000ED0B00081A
:1003F0004A756467655F5461736B00009906000875
:100400004350555F5461736B0000000015040008F1
:10041000FEE70000E4B04FF4C8744FF47A7521464B
:100420006846FFF744FF684601F0F8FB10A000F0B3
:1004300075FC1BA000F072FC694624A000F06EFC65
:100440000BA000F06BFC21466846FFF730FF6846C2
:1004500001F08CFB1EA000F061FC69461BA000F0BF
:100460005DFC24A000F05AFC284601F03DFAD6E7D6
:100470002D2D2D2D2D2D2D2D2D2D2D2D2D2D2D2DAC
:100480002D2D2D2D2D2D2D2D2D2D2D2D2D2D2D2D9C
:100490002D2D2D2D2D2D2D2D2D2D2D2D2D0D0A00FC
:1004A0005461736B4E616D65202020202053746170
:1004B0007465205072696F2020537461636B202033
:1004C0005461736B4E756D0D0A00000025730000BA
:1004D0005461736B4E616D65202020202052756E33
:1004E000436F756E7420202020202055736167654E
:1004F0000D0A00002D2D2D2D2D2D2D2D2D2D2D2DC9
:100500002D2D2D2D2D2D2D2D2D2D2D2D2D2D2D2D1B
:100510002D2D2D2D2D2D2D2D2D2D2D2D2D2D2D2D0B
:100520002D0D0A0A0000000070470000F0B50121FF
:1005300087B0084600F09EF90121102000F0B2F9C2
:10054000012500248DF806408DF807500226680228
:10055000254F8DF8056000908DF804606946384697
:1005600000F046F8A80200908DF80460694638460D
:1005700000F03EF807220A21384600F075F80722FD
:100580000921384600F070F84FF4E130ADF80C4026
:100590000290ADF80E40ADF81040ADF814400C20BC
:1005A000124CADF8120002A9204600F05BFB4FF49C
:1005B000A06000F055F925208DF818008DF819502D
:1005C0008DF81A508DF81B5006A800F017F901227B
:1005D00040F22551204600F02CFB0121204600F07E
:1005E00017FB07B0F0BD0000000002400010014002
:1005F000F0B5002201274FF0030C0B6807FA02F553
:100600002B40AB422CD1066853000CFA03F4A643EE
:1006100006600E79D0F800E09E4046EA0E060660BD
:100620000E79012E01D0022E12D18668A643866073
:100630004E79D0F808E09E4046EA0E06866046688D
:10064000AE43466045688E799640B6B23543456004
:10065000C568A543C560CC799C40C3681C43C46091
:10066000521C102AC9D3F0BD4B07DB0E9A40C908B3
:1006700010B500EB8100016A0F249C40A143016288
:10068000016A1143016210BD0246002012690A424C
:1006900000D001207047FEE708B5094C4FF0FF3548
:1006A0000095012300220321A06901F095FC082197
:1006B000A06901F035FC0321A06901F0EDFBEFE733
:1006C000240000201CB50121052000F0D3F80120F2
:1006D000009000208DF80400074C8DF80700694653
:1006E0002046FFF785FF4FF40051009169462046F0
:1006F000FFF77EFF1CBD00000008024070B50C46ED
:100700000546FFF7C1FF012801D0002070BD21463A
:100710002846FFF7B9FF0128F9D0012070BD00007D
:100720000E4D0F4F0F4C4FF4005601212846FFF796
:10073000E5FF012803D10121A06901F0F1FB314659
:100740003846FFF7DBFF012803D10221A06901F041
:10075000E7FB642001F0C8F8E7E700000000024072
:1007600000080240240000202DE9FC4101218020E6
:1007700000F080F801208DF8040000218DF80610AB
:100780008DF807000E4F4FF480648DF8051000942B
:1007900069463846FFF72CFF6500694638460095E4
:1007A000FFF726FFA600694638460096FFF720FFB0
:1007B00003481830048005800680BDE8FC810000F5
:1007C000001C024008B50A4D0A4C4FF0FF36009657
:1007D000002301220C21A86901F0FEFB206880F4AF
:1007E00080602060206880F400602060EFE70000F7
:1007F00024000020141C0240FEE7704730B50F2390
:10080000C27801780125FAB1144A126801F1E02199
:1008100002F4E062C2F5E062C2F30722C2F104040E
:10082000D3404278A24084781C401443220181F8CE
:100830000024007800F01F018D404009800000F185
:10084000E020C0F8005130BD01F01F00854048098C
:10085000800000F1E020C0F8805130BD0CED00E0D8
:100860000249084302490860704700000000FA0589
:100870000CED00E0044A0029116801D0014300E0BA
:10088000814311607047000030380240044A00295B
:10089000116801D0014300E08143116070470000FE
:1008A00040380240044A0029116801D0014300E0A9
:1008B00081431160704700004438024070B5204BFE
:1008C0001968204C11F00C0104D01F4E042903D0EC
:1008D000082903D004601BE0066019E0184A121FC3
:1008E0001168C1F38055116801F03F0115B1B6FBE5
:1008F000F1F101E0B4FBF1F114681268C4F388145B
:100900006143C2F30142521C5200B1FBF2F101609B
:1009100019680F2202EA11110C4A545C0168E14087
:1009200041601C68072505EA9424145D21FA04F44B
:1009300084601B6805EA5333D25CD140C16070BD4E
:10094000083802400024F40040787D0114000020A3
:100950001CB500212E4A00910191106840F48030AE
:1009600010604FF4A043106800F40030019000982C
:10097000401C0090019810B900989842F3D110687B
:10098000800342D50120019021484030016841F0A8
:10099000805101601F49086840F4404008601C48CD
:1009A000083003680360036843F40043036003688E
:1009B00043F4A0530360041F174B2360136843F0F4
:1009C0008073136013689B01FCD50A6842F480327F
:1009D0000A604A68D203FCD50A6842F400320A6011
:1009E0004A689203FCD50D4A40F205711160016816
:1009F00021F003010160016841F00201016001681A
:100A0000C1F381010229FAD11CBD01911CBD000076
:100A10000038024000700040195A4007003C024074
:100A200010B501F039FC012803D0BDE8104001F0F9
:100A3000F1BB10BD124810B5016841F470010160AE
:100A40001048016841F0010101600E4A002108329E
:100A5000116002680C4B1A400260031D0B4A1A60B9
:100A6000026822F48022026006480C300160FFF721
:100A70006FFF03494FF000608039086010BD00002F
:100A800088ED00E000380240FFFFF6FE1030002441
:100A900010B5094C0121204600F022F8002809D0A9
:100AA00006490A68521C0A602046BDE81040012130
:100AB00000F009B810BD0000001000404000002008
:100AC000C94301827047C9430182704700290188E8
:100AD00002D041F0010101E021F0010101807047E5
:100AE00002460020138A92890B4202EA010202D0D8
:100AF000002A00D001207047002A828901D00A43D1
:100B000000E08A438281704730B50288164C174D49
:100B1000A0420DD0A8420BD0B0F1804F08D0144BAA
:100B2000984205D0134B984202D0134B984203D100
:100B300022F070034A881A43104B984206D0104B9B
:100B4000984203D022F440730A891A4302804A680B
:100B5000C2620A880285A04201D0A84201D1897AE6
:100B600001860121818230BD000001400004014066
:100B70000004004000080040000C0040001000404D
:100B8000001400403EB54FF44070FFF769FE362078
:100B90008DF8000002208DF8010000208DF8020081
:100BA00001208DF803006846FFF728FE0121102080
:100BB000FFF76CFE40F2E7300190B3200A4CADF82D
:100BC000000069462046FFF79FFF01212046FFF7FE
:100BD00077FF012211462046FFF78EFF01212046B4
:100BE000FFF774FF3EBD00000010004008B542F260
:100BF000107501F05FFB054C00902946684600F037
:100C0000ADFE0421A06901F08BF9F6E72400002075
:100C10000029818902D041F4005101E021F4005102
:100C2000818170470246002012880A4200D00120CC
:100C3000704710B5C1F3421301F01F040121A14018
:100C4000012B07D0022B07D01430002A026805D0F0
:100C50000A4304E00C30F8E71030F6E78A430260FC
:100C600010BD00007FB50446008A0D46C98820F4F7
:100C7000405001432182A08941F20C618843A98838
:100C80002A8911436A8902431143A181A08A20F471
:100C90004071A8890843A0826846FFF70FFE1A48F2
:100CA000844202D01948844201D1039800E002989E
:100CB000A189090400EBC00101EB0010296801D5EE
:100CC000490000E08900B0FBF1F06422B0FBF2F1D2
:100CD00009010B096FF018056B4300EB8300A38932
:100CE0001D044FF0320306D503EBC000B0FBF2F059
:100CF00000F0070005E003EB0010B0FBF2F000F09D
:100D00000F00084320817FBD001001400014014006
:100D1000C1F3080181807047FEE700000FB4054B66
:100D200010B503A9044A029800F02CF810BC5DF835
:100D300014FB0000D90F0008AC0000200FB4084BD2
:100D400010B504A902AA039800F01CF8044602A9F1
:100D5000002000F0F3F8204610BC5DF814FB000002
:100D60003D0F000802E008C8121F08C1002AFAD18E
:100D700070477047002001E001C1121F002AFBD11B
:100D8000704700002DE9FF4F8BB09A460F4605468D
:100D9000002606E025280BD052460D9990476D1C81
:100DA000761C28780028F5D10FB03046BDE8F08FCA
:100DB0000024A0460122604900E0044315F8013FE9
:100DC000203B02FA03F00842F7D128782E2817D1E9
:100DD00015F8010F44F004042A280ED06FF02F02FA
:100DE0002878A0F1300109290AD808EB880102EB24
:100DF000410100EB01086D1CF2E757F8048B6D1CF4
:100E0000287869283ED006DC0028CDD063280BD096
:100E1000642804D136E0732810D075284BD0524690
:100E20000D999047761C85E017F8040B8DF80000AB
:100E300000208DF80100E946012003E057F8049BEB
:100E40004FF0FF3061074FF0000401D40AE0641C4A
:100E500044450DDA8442FADB19F804100029F6D172
:100E600006E0641C8442FCDB19F804100029F8D168
:100E7000264404E019F8010B52460D999047641E70
:100E8000F8D257E001CF4FF00A0B002802DA4042B7
:100E90002D2102E0210504D52B218DF824100121FC
:100EA00003E0E10705D02021F7E70DF120090891C3
:100EB0000CE00021F9E701CF4FF00A0BF9E75946A2
:100EC000FFF710FA01F1300209F8012D0028F6D1E0
:100ED000ADEB090000F1200B600701D44FF00108D1
:100EE000D84502DDA8EB0B0000E00020804600247E
:100EF00006E009A85246005D0D999047641C761CD7
:100F000008988442F5DB04E0302052460D99904762
:100F1000761CB8F10001A8F10108F5DC05E019F82C
:100F2000010B52460D999047761CBBF10001ABF1C5
:100F3000010BF4DC6D1C34E7092801000A68531C1E
:100F40000B6010707047000070B5050005D140F2CD
:100F5000FB4214A11AA0FFF7E1FE1D4E3068854246
:100F600001D1002070BD00F0F3FB6C6900F02CFC97
:100F7000F06B844202D0306C844201D1022070BDFB
:100F80001448844204D1A86A0028F7D1032070BD18
:100F900010481438844202D00CB1012070BD0420E6
:100FA00070BD00002E2E5C2E2E5C4672656552547C
:100FB0004F535C7372635C7461736B732E630000D8
:100FC0004572726F723A25732C25640D0A00000079
:100FD000440000208003002070B5074D0446C1B2D4
:100FE0002846FFF795FE80212846FFF71BFE0028C4
:100FF000F9D0204670BD0000001001401CB54FF430
:101000004070FFF72DFCFFF7AFFBFFF78FFAFFF7FC
:10101000B9FDFFF757FB0AA0FFF780FE1249012038
:10102000CDE900014202002310A1144801F008F9A3
:10103000012802D04FF0FF301CBD00F087FEFEE714
:101040004672656552544F53204576656E7420474D
:10105000726F757020426C6F636B696E67204465B8
:101060006D6F0D0A000000002400002041707054D4
:1010700061736B437265617465000000350300089D
:101080002DE9F041184E0F460446F5683068001D02
:1010900000F0B6FA38B9306890F82C10012088407A
:1010A000316981433161601C07D137B13168BDE8D6
:1010B000F0410E48091D00F03FBB30682C44AC42A3
:1010C0004460316805D2306CBDE8F041091D00F084
:1010D0001BBBF06B091D00F017FBB06A844200D205
:1010E000B462BDE8F08100004400002080030020CD
:1010F0002DE9F041054600F02BFB2D4EB068401C59
:10110000B06030682B4F10B1706930B32BE03560A0
:10111000B068012827D1002404EB840007EB80008D
:1011200000F0E4FA641C202CF6D3234800F0DEFA29
:101130002148143000F0DAFA1F48283000F0D6FABF
:101140001D483C3000F0D2FA1B48503000F0CEFA77
:101150001948F0631430306405E03068E96AC06A09
:10116000884200D83560706A0121401C7062686452
:10117000E86A326981401143316100EB800007EB7E
:101180008000291D00F0D8FA00F01EFB70690028CD
:101190000CD03068E96AC06A884207D207494FF02C
:1011A00080500860BFF34F8FBFF36F8FBDE8F081B1
:1011B00044000020B00000203003002004ED00E0D7
:1011C00070B5124E124D1CE000F00EFE306820B1DA
:1011D000002401F03DF9A4B901E00124F9E700F091
:1011E000B7FAF068C468201D00F00AFAA868401E2B
:1011F000A8606868401E686000F0E6FA204600F0CB
:1012000009F868680028DFD170BD00006C03002079
:101210004400002010B50446006B00F007FB204698
:10122000BDE8104000F002BB10484FF410414207E7
:1012300006D0C01D0D4920F00700411AC1F510412C
:101240000B4A00230144C2E900030839103A21F097
:10125000070111604B600B600B1AC0E9001393602B
:101260004FF000405360D0607047000094030020AE
:1012700098000020074E4FF08054074DFFF7A0FF65
:1012800030680128FAD92C60BFF34F8FBFF36F8FFE
:10129000F4E70000B000002004ED00E02DE9F04785
:1012A000DDE909840E461746824691009946089D5D
:1012B000A522206BFEF7F4FF6FF00301206B01EB1A
:1012C0008701084420F00707780705D040F22B3249
:1012D00018A11FA0FFF722FD00202218315C82F820
:1012E0003410315C11B1401C1028F6D3002684F86C
:1012F0004360202D00D31F25201DE56200F001FA78
:1013000004F1180000F0FDF92461C5F120006462C9
:10131000A061E664266584F854604A465146384622
:1013200000F058F92060B8F1000F01D0C8F8004073
:10133000BDE8F0872E2E5C2E2E5C467265655254F9
:101340004F535C7372635C7461736B732E63000044
:101350004572726F723A25732C25640D0A000000E5
:1013600030B5114900E011460A688242FBD34B6850
:101370005C18844203D140681844486008464368BA
:101380001C18944209D1084C103C2468A24209D090
:1013900052681A4442600A6812680260814200D0B2
:1013A000086030BD0460F9E7980000202DE9F0479F
:1013B0008146086892460C460025F8B1486801F15C
:1013C000080640684860B04201D140684860D0F8E3
:1013D0000C80606842686260B24201D1516861600D
:1013E000606805EBC50109EB8101C768534601221E
:1013F000384600F077FB6D1C4745EAD12846BDE82A
:10140000F08700000648C16B096829B1C16BC96843
:10141000C9684968816270474FF0FF31FAE7000000
:101420004400002008484068401C05D040F20F12DC
:1014300006A111A0FFF772FC502080F31188BFF3C2
:101440004F8FBFF36F8FFEE7A00000202E2E5C2E83
:101450002E5C4672656552544F535C706F72745CBB
:10146000525644535C41524D5F434D34465C706F5D
:1014700072742E63000000004572726F723A257319
:101480002C25640D0A0000000346002012B1994388
:1014900002D070470B42FCD00120704710B50446C3
:1014A000FEF717FF2046FEF70DFF202101E0215433
:1014B000401C0F28FBD300212154204410BD000004
:1014C0002DE9F0410546002600F08EFC324F3868C9
:1014D00008B9FFF7A9FEF86805424FD1002D4DD09D
:1014E000083568070BD005F00700C0F10800054477
:1014F000680704D0BF2229A132A0FFF70FFC002DFE
:101500003CD07868854239D82349103108460468B0
:1015100001E0214604466068A84202D22068002803
:10152000F7D13868B846844228D00E682068086031
:1015300060680836401B10280ED96719780704D058
:10154000EC2216A11FA0FFF7E9FB6068401B786042
:1015500038466560FFF704FF6168D8F8040042462A
:10156000401AC8F80400D8F80830984200D29060B9
:10157000D8F80C0001430020C4E9000100F068FF26
:10158000700705D04FF4967204A10EA0FFF7C6FBBA
:101590003046BDE8F0810000880000202E2E5C2E31
:1015A0002E5C4672656552544F535C706F72745C6A
:1015B0004D656D4D616E675C686561705F342E636B
:1015C000000000004572726F723A25732C25640D7D
:1015D0000A00000010B5031F4FF080741C601B1F31
:1015E00021F001011960191F044B0B6014390A60C6
:1015F000091F6FF0020244380A6010BD251400086C
:10160000D0E9013201699A60D0E901235A604A6841
:10161000824201D182684A60002202610868401E4D
:10162000086070472DE9F04717460A460646002431
:10163000202500F0D9FBDFF88C80D8F80800824222
:101640003BD3DFF884906D1E05EB850104EBC400ED
:1016500009EB810106EB80000122FFF7A7FE04449D
:10166000002DF0D104EBC40006EB800002224546B9
:10167000D8F83C10FFF79AFE044404EBC40006EBD4
:1016800080000222296CFFF791FE044404EBC400A1
:1016900006EB800004220D49FFF788FE04440B4945
:1016A00004EBC40006EB800003221431FFF77EFE3A
:1016B000044417B106480068386000F0C9FE2046AF
:1016C000BDE8F08744000020B00000206C0300203B
:1016D00040000020044908680A688069D26A0968E5
:1016E000C2F120028A6170474400002000F1080125
:1016F0004FF0FF32C0E90112C160016100210160B9
:10170000704700210161704730B50C68621C02D03F
:1017100000F1080202E0026904E01A4653681D68FD
:10172000A542FAD953684B6099608A60516008619C
:101730000168491C016030BD42684A6093688B6053
:1017400093685960916008610168491C01607047A5
:10175000502080F31188BFF34F8FBFF36F8F09497B
:101760004868401C486001280AD10748006810F00A
:10177000FF0F05D040F2B91204A10FA0FFF7CEBAB7
:1017800070470000A000002004ED00E02E2E5C2E2B
:101790002E5C4672656552544F535C706F72745C78
:1017A000525644535C41524D5F434D34465C706F1A
:1017B00072742E63000000004572726F723A2573D6
:1017C0002C25640D0A00000010B5084C606828B98B
:1017D0004FF4E07206A111A0FFF7A0FA6068401E66
:1017E000606001D180F3118810BD0000A0000020CE
:1017F0002E2E5C2E2E5C4672656552544F535C70E3
:101800006F72745C525644535C41524D5F434D3489
:10181000465C706F72742E63000000004572726F38
:10182000723A25732C25640D0A00000070B500285B
:101830002AD0164DA0F108046068E968084205D175
:101840004FF4A07212A11CA0FFF768FA206828B11B
:1018500040F241120EA118A0FFF760FA6068E96833
:10186000084211D02268002A0ED18843606000F03F
:10187000BBFA60686968084468602046FFF770FD3D
:10188000BDE8704000F0E4BD70BD0000880000209D
:101890002E2E5C2E2E5C4672656552544F535C7042
:1018A0006F72745C4D656D4D616E675C68656170EB
:1018B0005F342E63000000004572726F723A257328
:1018C0002C25640D0A00000006484FF47A71006868
:1018D000B0FBF1F14FF0E020491E416107210161A9
:1018E000704700000000002010B5040012D00E491F
:1018F000096B29B140F2CF420CA113A0FFF70EFAF9
:1019000000F072FA00212046FFF7BAFB00F0A0FDBC
:10191000002807D110494FF080500860BFF34F8F67
:10192000BFF36F8F10BD0000440000202E2E5C2EF0
:101930002E5C4672656552544F535C7372635C74DF
:1019400061736B732E6300004572726F723A257378
:101950002C25640D0A00000004ED00E02DE9F041A3
:101960000E4605004FF0000405D140F279421BA15C
:1019700021A0FFF7D3F92EB940F27A4217A11EA099
:10198000FFF7CCF9204F386B28B140F27B4213A10E
:1019900019A0FFF7C3F900F027FAFA68286881193F
:1019A000904202D9884202D804E0884201D891428C
:1019B00000D9012429601CB1881A0021FFF760FBBF
:1019C00000F046FD002807D110494FF08050086014
:1019D000BFF34F8FBFF36F8FBDE8F0812E2E5C2ECB
:1019E0002E5C4672656552544F535C7372635C742F
:1019F00061736B732E6300004572726F723A2573C8
:101A00002C25640D0A0000004400002004ED00E0D5
:101A100070B50446FFF79CFE234D04B92C68201DC9
:101A2000FFF7EEFD58B9E06A204A00EB800152F85A
:101A3000211021B901218140286988432861A06AC9
:101A400018B104F11800FFF7DBFD686A401C6862FA
:101A50002868844207D1211D1548FFF76DFE68688C
:101A6000401C686007E0A868401EA8602046FFF799
:101A7000D1FBFFF7C7FCFFF7A7FE6869002812D06B
:101A8000286884420FD1286B28B140F2654209A131
:101A90000FA0FFF743F912494FF080500860BFF3E1
:101AA0004F8FBFF36F8F70BD44000020B000002047
:101AB0006C0300202E2E5C2E2E5C467265655254FF
:101AC0004F535C7372635C7461736B732E630000BD
:101AD0004572726F723A25732C25640D0A0000005E
:101AE00004ED00E02DE9F0471E4691460C46070044
:101AF0000ED0054605F13400C4E90050E86A2061C3
:101B0000286BE061686CA060207B032803D00AE0AA
:101B100015480568EEE700F067F9A86A08B10220E9
:101B2000207300F095FC4FF00008C4F81480E86CB6
:101B3000A061052E01D0267303E03846FFF704FAB2
:101B40002073B9F1000F0BD00021286B01E0401C7D
:101B5000491C0278A52AFAD088082084BDE8F087BD
:101B6000A4F82080FAE7000044000020FEB500251C
:101B700006460570224881680191806800EBC0002C
:101B80008000FFF79DFC040038D002AA0199FFF7FE
:101B900049FD019002986421B0FBF1F0029050B32E
:101BA0002846009524E000EBC00004EB8000029A78
:101BB0008169B1FBF2F541683046FFF76FFC0646DC
:101BC000009800EBC00004EB800082692DB12B4629
:101BD0000CA13046FFF7B2F803E00DA13046FFF745
:101BE000ADF83046FEF76EFB06440098401C0090AE
:101BF00001998842D7D32046FFF718FEFEBD0000AA
:101C0000440000200925750909257525250D0A00C0
:101C100009257509093C3125250D0A007FB50024E9
:101C200006460470264881680291806800EBC00077
:101C30008000FFF745FC050041D000220299FFF724
:101C4000F1FCCDE90204204628E000EBC00005EBE2
:101C50008000017B01292AD002292AD003292AD019
:101C600004292AD0002441683046FFF717FC0646B5
:101C7000039800EBC00005EB80008268018CCDE981
:101C80000012036922460FA13046FFF757F830468D
:101C9000FEF718FB06440398401C03900299884203
:101CA000D3D304B02846BDE87040FFF7BFBD52242F
:101CB000D9E74224D7E75324D5E74424D3E77FBDAF
:101CC0004400002009256309257509257509257536
:101CD0000D0A00002DE9F04117460E46050005D11A
:101CE00040F617320DA114A0FFF718F8164C206B20
:101CF00028B940F61B3209A10FA0FFF70FF82168A1
:101D000046F000408861216828461831FFF714FD2D
:101D10003846BDE8F0410121FFF7B2B92E2E5C2E06
:101D20002E5C4672656552544F535C7372635C74EB
:101D300061736B732E6300004572726F723A257384
:101D40002C25640D0A000000440000201CB5164834
:101D50000024CDE900402346802214A1154800F05C
:101D60006FFA01280AD0401C1DD102B040F28472E3
:101D7000BDE8104010A117A0FEF7D0BF502080F39F
:101D80001188BFF34F8FBFF36F8F07484FF0FF31BC
:101D90002C38816201214161C46012480460BDE8B1
:101DA0001C4000F0ADB91CBD7000002049444C45FA
:101DB00000000000751200082E2E5C2E2E5C46726C
:101DC000656552544F535C7372635C7461736B73DB
:101DD0002E6300004572726F723A25732C25640DD4
:101DE0000A000000400000200248016B491C01630A
:101DF000704700004400002070B5194C206B10B1F2
:101E00000120E06170BD0020E06116480068A06319
:101E1000626B904204D92168821ACB6C1A44CA645E
:101E200060632069104EB0FA80F0C0F11F0000EB33
:101E3000800556F8250028B940F6F6220BA112A01D
:101E4000FEF76CFF06EB850000F108024168496867
:101E50004160914201D149684160C868206070BD0D
:101E60004400002040000020B00000202E2E5C2EF8
:101E70002E5C4672656552544F535C7372635C749A
:101E800061736B732E6300004572726F723A257333
:101E90002C25640D0A00000070B50E46040005D123
:101EA00040F2DF120AA113A0FEF738FF300E05D072
:101EB0004FF4F07206A10FA0FEF730FFFFF748FCC9
:101EC000256825EA06002060FFF77EFC284670BDE5
:101ED0002E2E5C2E2E5C4672656552544F535C73F9
:101EE00072635C6576656E745F67726F7570732E72
:101EF000630000004572726F723A25732C25640DE1
:101F00000A00000010B51C20FFF7DAFA040004D024
:101F100000202060201DFFF7E9FB204610BD0000D7
:101F20002DE9F04100258846040005D140F21D222C
:101F30001CA125A0FEF7F2FE5FEA186005D040F272
:101F40001E2218A120A0FEF7E9FE261D04F10C07B1
:101F5000FFF74AFF2168F06841EA0801216017E0B5
:101F6000D0E9001601F07F425301236821F07F4140
:101F700002D40B4203D10AE031EA030307D1D201B4
:101F800000D50D43216841F0007100F011FA304690
:101F9000B842E5D12068A843206000F059FA2068D3
:101FA000BDE8F0812E2E5C2E2E5C46726565525483
:101FB0004F535C7372635C6576656E745F67726FB6
:101FC0007570732E630000004572726F723A25734C
:101FD0002C25640D0A0000002DE9F047089F9A4661
:101FE00091460D4604004FF0000605D140F24D1217
:101FF00035A13EA0FEF792FE280E05D04FF4A77241
:1020000031A13AA0FEF78AFE2DB940F24F122EA15F
:1020100036A0FEF783FE00F03FF930B92FB14FF440
:10202000A97229A131A0FEF779FEFFF7DDFED4F8F1
:102030000080524629464046FFF726FA40B1002765
:102040004646B9F1000F15D02068A843206011E082
:10205000AFB1B9F1000F01D04FF08076BAF1000FA7
:1020600001D046F0806645EA06013A46201DFFF79A
:1020700031FE002600F0ECF91FB310B109E046462E
:10208000F8E71E494FF080500860BFF34F8FBFF351
:102090006F8FFFF71FFB0646800110D4FFF758FB38
:1020A0002668524629463046FFF7EEF928B1B9F1C5
:1020B000000F02D02068A8432060FFF785FB26F0C0
:1020C0007F463046BDE8F0872E2E5C2E2E5C467291
:1020D000656552544F535C7372635C6576656E74CC
:1020E0005F67726F7570732E630000004572726FC8
:1020F000723A25732C25640D0A00000004ED00E0FF
:102100001CB5304C20683049884205D140F2591244
:102110002EA139A0FEF702FE20682B49491E8842F5
:1021200005D14FF4AD7229A133A0FEF7F7FD364C6F
:1021300020780190FF20207020788DF800009DF815
:1021400000009DF8001000F0F000884205D040F239
:1021500073121EA128A0FEF7E1FD9DF800002B4A96
:1021600000F0500010700720906007E09068401E5B
:1021700090609DF8000040008DF800009DF8000080
:102180000006F3D4107A000200F4E0609060019839
:1021900020700C482030016841F470010160016832
:1021A00041F070410160FFF78FFB00205060FEF7A7
:1021B00029F81748016841F040410160FEF712F824
:1021C00000201CBD00ED00E071C20F412E2E5C2EE0
:1021D0002E5C4672656552544F535C706F72745C2E
:1021E000525644535C41524D5F434D34465C706FD0
:1021F00072742E63000000004572726F723A25738C
:102200002C25640D0A00000000E400E0A00000207E
:1022100034EF00E010B5502080F31188BFF34F8FEA
:10222000BFF36F8F00F04CF818B104494FF08050A5
:102230000860002080F3118810BD000004ED00E06C
:102240002DE9FF5F8346DDE90E87994616468A46EB
:102250009000FFF735F905001AD05820FFF730F944
:10226000040012D025630021CDE90241CDE90087A9
:102270004B46324651465846FFF710F82046FEF7C7
:1022800037FF012004B0BDE8F09F2846FFF7CEFAE3
:102290004FF0FF30F6E700000548416919B1006BC7
:1022A00018B10020704701207047022070470000DD
:1022B000440000200148C06870470000440000202E
:1022C0002DE9F0412D4F0026386B40B1B869401C14
:1022D000B861F86900B101263046BDE8F081FD68BB
:1022E0006D1CFD6011D1F86B006828B140F6D91261
:1022F00023A12AA0FEF712FDF86B396CF96338644C
:10230000386A401C3862FFF77DF8B86ADFF89C80B5
:10231000854209D3F86B006880B1F86BC068C46867
:10232000606885420DD2B8623868C06A00EB8001EF
:1023300058F821000128CCD90126CAE74FF0FF3018
:10234000F1E7201DFFF75CF9A06A18B104F118004D
:10235000FFF756F9E06A01213A698140114339617A
:1023600000EB800108EB8100211DFFF7E5F9E06A31
:102370003968C96A8842CDD30126CBE744000020E2
:102380002E2E5C2E2E5C4672656552544F535C7344
:1023900072635C7461736B732E6300004572726FBD
:1023A000723A25732C25640D0A000000B00000204D
:1023B00070B51A4D06460C46286B28B940F699327E
:1023C00017A11EA0FEF7AAFC44F000403060F4689C
:1023D0002CB940F6A13212A118A0FEF79FFC30469E
:1023E000FFF70EF9201DFFF70BF9E06A01262A69B5
:1023F00006FA00F111432961144900EB800001EB5A
:102400008000211DFFF798F9E06A2968C96A8842AF
:1024100002D90120EE6170BD002070BD4400002093
:102420002E2E5C2E2E5C4672656552544F535C73A3
:1024300072635C7461736B732E6300004572726F1C
:10244000723A25732C25640D0A000000B0000020AC
:102450002DE9F0472B4D00242746286B28B94FF46F
:10246000FD6229A12FA0FEF759FCFFF771F9286B37
:10247000401E2863286BE8BBA8682E490126C8B314
:10248000A1F52A798846D8F80010E9B1D8F80C00EF
:10249000C46804F11800FFF7B3F8201DFFF7B0F887
:1024A000E06A2A6906FA00F11143296100EB800114
:1024B00009EB8100211DFFF73FF9E06A2968C96A2D
:1024C0008842E0D3EE61DEE70CB1FEF79BFFAC691A
:1024D0003CB1FFF7F5FE00B1EE61641EF9D10020BA
:1024E000A861E86930B11449012738070860BFF3D3
:1024F0004F8F00E001E0BFF36F8FFFF765F93846BB
:10250000BDE8F087440000202E2E5C2E2E5C467223
:10251000656552544F535C7372635C7461736B7383
:102520002E6300004572726F723A25732C25640D7C
:102530000A0000005803002004ED00E05C250008BC
:1025400000000020B0000000640D00080C26000808
:10255000B0000020E8960000740D00080095BA0A4B
:102560000000000000000000010203040607080943
:102570000000000001020304010203040607080929
:10258000000000000000000000000000000000004B
:10259000000000000000000000000000000000003B
:1025A000000000000000000000000000000000002B
:1025B000000000000000000000000000000000001B
:1025C000000000000000000000000000000000000B
:1025D00000000000000000000000000000000000FB
:1025E00000000000000000000000000000000000EB
:1025F00000000000000000000000000000000000DB
:0C260000AAAAAAAA000000000000000026
:04000005080001AD41
:00000001FF
