:020000040800F2
:1000000040A800207D020008FB1B0008C90D000865
:10001000F91B0008BD0500081D2C000800000000A9
:10002000000000000000000000000000C501000802
:10003000B10600080000000019020008A52A000807
:10004000970200089702000897020008970200082C
:100050009702000897020008AD09000897020008FF
:10006000970200089702000897020008970200080C
:1000700097020008970200089702000897020008FC
:1000800097020008970200089702000897020008EC
:1000900097020008970200089702000897020008DC
:1000A00097020008970200089702000897020008CC
:1000B00097020008970200089702000897020008BC
:1000C00097020008970200089702000897020008AC
:1000D000970200089702000897020008970200089C
:1000E000050A000897020008970200089702000816
:1000F000970200089702000897020008970200087C
:10010000970200089702000897020008970200086B
:10011000970200089702000897020008970200085B
:10012000970200089702000897020008970200084B
:10013000970200089702000897020008970200083B
:10014000970200089702000897020008970200082B
:10015000970200089702000897020008970200081B
:10016000970200089702000897020008970200080B
:1001700097020008970200089702000897020008FB
:1001800097020008970200089702000897020008EB
:1001900097020008970200089702000897020008DB
:1001A000970200089702000897020008DFF810D0B5
:1001B00000F0CCF80048004705330008AFF300809A
:1001C00040A800202A4B19680868B0E8F04F80F377
:1001D0000988BFF36F8F4FF0000080F311887047DC
:1001E0000000000006480068006880F3088862B6D6
:1001F00061B6BFF34F8FBFF36F8F00DF00BF00BF4B
:1002000008ED00E0DFF80C00016841F470010160C6
:10021000704700BF88ED00E0EFF30980BFF36F8FF8
:10022000134B1A681EF0100F08BF20ED108A20E94A
:10023000F04F106008B44FF0500080F31188BFF306
:100240004F8FBFF36F8F04F09BF84FF0000080F3E7
:10025000118808BC19680868B0E8F04F1EF0100F4C
:1002600008BFB0EC108A80F30988BFF36F8F704726
:1002700068000020EFF305807047000006488047C3
:1002800006480047FEE7FEE7FEE7FEE7FEE7FEE77B
:10029000FEE7FEE7FEE7FEE7B92A0008AD01000829
:1002A00040EA01039B0703D009E008C9121F08C0F8
:1002B000042AFAD203E011F8013B00F8013B521E78
:1002C000F9D27047D2B201E000F8012B491EFBD2EF
:1002D00070470022F6E710B513460A460446194651
:1002E000FFF7F0FF204610BD2DE9F05F0546002026
:1002F00092469B4688460646814640241BE0284697
:1003000041464746224600F042F853465A46C01A34
:10031000914110D311461846224600F029F82D1AB3
:1003200067EB01084F4622460120002100F020F82B
:1003300017EB00094E41201EA4F10104DFDC484602
:1003400031462A464346BDE8F09F0000064C074D63
:1003500006E0E06840F0010394E807009847103495
:10036000AC42F6D3FFF726FF80640008A0640008C3
:10037000202A04DB203A00FA02F100207047914065
:10038000C2F1200320FA03F3194390407047202A5A
:1003900004DB203A21FA02F00021704721FA02F32F
:1003A000D040C2F120029140084319467047000036
:1003B0007CB503F0DBFC02251B482C02CDE9005084
:1003C0000023224619A11C4804F0ACFC012802D1EC
:1003D0001AA002F015FD14480023001DCDE90050BD
:1003E0004FF480621BA11E4804F09CFC012802D13E
:1003F0001CA002F005FD0C4903200831CDE90001E5
:10040000002322461DA1204804F08CFC012802D1C3
:100410001EA002F0F5FC0448001F006803F026FE51
:10042000BDE87C4003F0DEBC2800002057726974F0
:10043000655F5461736B00002D2D0008577269745D
:10044000655F5461736B2063726561746564210D2F
:100450000A000000526561645F5461736B00000024
:10046000091E0008526561645F5461736B206372FA
:100470006561746564210D0A0000000052657365B2
:10048000745F5461736B0000B51F0008526573659B
:10049000745F5461736B2063726561746564210DD0
:1004A0000A00000010B54FF4407001F0D9FB01F0D4
:1004B000B5FA00F0FFF800F08BFF00F017FB02F038
:1004C000D7F800F0B9FD01F0E5F901F025FA0120B7
:1004D00001F0D2FA002001F07BFA002000F094FF36
:1004E000012001F075FAFF2001F082FA002000F0EF
:1004F0008BFF174801F066FAFF216FF07F4001F093
:100500005BFA01F0C1F913A1002000F0D5FF002132
:10051000154801F051FA01F0B7F9C0884FF6FF74A1
:1005200004EA400011A100F0C7FF01F0ADF9C08856
:1005300015A100EB400080B200F0BEFF01F0A4F96D
:10054000C08817A104EA8000BDE8104000F0B4BFE5
:1005500060000020202053746F7261676520546131
:10056000736B2044656D6F0000FFFF0020204B453A
:1005700059313A20577269746520454550524F4DA4
:100580002B466C617368000020204B4559323A209D
:1005900052656164202620446973706C61790000A3
:1005A00020204B4559312B4B4559323A2052657327
:1005B0006574204D656D6F7279000000FEE710B51F
:1005C0000121CC05204601F071FB2046BDE810401A
:1005D000002101F06BBB0000034A01460020526875
:1005E0000A4200D00120704700B0024030B52A4BCB
:1005F00000241968294A11401960196802681143DA
:100600001960596B21F007015963596B4268114316
:100610005963416841B301292DD0022930D0032903
:10062000C16832D00A01016944690902240385685E
:10063000214315430D43996B0D439D638169D96334
:10064000196C6FF30D011964196CC26911431964B7
:10065000818C5A6C02F040425A645A6C006A024320
:1006600042EA01425A6430BDC168047D0A02018A2F
:1006700009042406DBE7C1680A02018A0904D6E7F7
:10068000C1684A010169C902D1E74A0101694469A7
:100690008902E403CBE7000000B00240FCE0FCFF6D
:1006A0000248016841F001010160704700B002405A
:1006B00070470000F0B5012187B0084601F0EAFA62
:1006C0000121102001F016FB012500248DF80640C1
:1006D0008DF8075002266802254F8DF805600090BE
:1006E0008DF804606946384600F017FBA8020090B8
:1006F0008DF804606946384600F00FFB07220A2196
:10070000384600F046FB07220921384600F041FB3D
:100710004FF4E130ADF80C400290ADF80E40ADF86A
:100720001040ADF814400C20124CADF8120002A994
:10073000204602F019FA4FF4A06001F091FA25204A
:100740008DF818008DF819508DF81A508DF81B503F
:1007500006A801F053FA012240F22551204602F08A
:10076000EAF90121204602F0D5F907B0F0BD0000FA
:100770000000024000100140F0B59DB00A220021A7
:1007800019A800F045FB6FF07F44FF21204601F0DF
:1007900013F901F079F8002000F062FE01F074F81E
:1007A0001EA1002000F088FE0021204601F004F97F
:1007B00001F06AF8C08800F053FE00252C466F4611
:1007C00019AEC5F16401335D781917A202F028FB58
:1007D000641CE4B205440A2CF3D301F055F8C08838
:1007E000694600F069FE01F04FF8C0884FF6FF71CE
:1007F00001EA400000F034FE0DA002F001FB0024ED
:1008000009A0315D02F0FCFA641CE4B20A2CF7D3B3
:1008100009A002F0F5FA1DB0F0BD000020454550DA
:10082000524F4D3A000000003078253032582000F9
:10083000454550524F4D20000D0A00002DE9F04172
:10084000384CB2B06569052D00D905256FF07F4899
:10085000FF21404601F0B0F801F016F8C08800EB27
:10086000400080B200F0FCFD01F00EF8C0882EA11F
:1008700000EB400080B200F01FFE66691EB1052E3D
:1008800006D9761F05E000F061F832B0BDE8F081CE
:10089000002627A002F0B4FA00242FE06421684665
:1008A000FFF717FD301900EBC00101EB00106421C8
:1008B00001EB80016422684601F056FE201DC7B29C
:1008C0000021404601F078F800F0DEFFC088784350
:1008D00080B200F0C5FD6B4617A2642119A802F092
:1008E0009FFA00F0D1FFC08819A9784380B200F0C8
:1008F000E3FD694612A002F083FA641CAC42CDD33A
:1009000011A002F07DFA2D1D08E000F0BDFFC088A7
:10091000E9B2484380B200F0A3FD6D1C0A2DF4D368
:10092000B3E7000024000020204C6F67733A0000FA
:100930004C6F67733A2000002025732E00000000E2
:1009400025732E20000000000D0A000010B50021C4
:100950000E4801F031F800F097FFC0884FF6FF71A4
:1009600001EA80000AA100F0A7FD052400F08CFF39
:10097000C088604380B200F073FD641CE4B20A2CAE
:10098000F4D3BDE8104005A002F03ABA00FFFF0022
:10099000204E6F204C6F6773000000004C6F677330
:1009A0003A204E6F204C6F67730D0A0008B5012086
:1009B00000F05AF800281BD0012000F04FF80D4835
:1009C000016821F001010160002000900A486B4697
:1009D00001220168094804F035FC0098002807D07E
:1009E00007494FF080500860BFF34F8FBFF36F8F00
:1009F00008BD0000003C01403C000020053D00080F
:100A000004ED00E038B54FF40054204600F02CF817
:100A100000281AD0204600F021F80C48016821F483
:100A2000005101600020009009486B4602220168D5
:100A3000084804F007FC0098002806D00649E003A7
:100A40000860BFF34F8FBFF36F8F38BD003C01408C
:100A50003C000020053D000804ED00E0014908606D
:100A600070470000143C0140034A01460020126810
:100A70000A4200D001207047143C014030B51A4AA8
:100A80008379016853B313688B431360111D0B689E
:100A90000468A3430B60017911440B680468234385
:100AA0000B60114B083319680468A14319601C1DC1
:100AB00021680568A94321604179102905D01144B6
:100AC0000A68006802430A6030BD19680268114371
:100AD0001960216800680143216030BD007910442D
:100AE00002688A43026030BD003C0140F0B585B029
:100AF0000121052001F0CEF80121880301F0FAF868
:100B000006208DF8100005208DF8110000248DF8C6
:100B1000124001258DF8135004A801F06FF8282029
:100B20008DF8100004A801F069F88DF80C400295CA
:100B30008DF80F4002A9144800F0EFF80021084694
:100B400001F030FF8DF804400C278DF805700095FA
:100B50008DF806506846FFF791FF6E0302A90B4817
:100B6000029600F0DAF80D21022001F01BFF8DF84B
:100B700004408DF8057000968DF806506846FFF722
:100B80007DFF05B0F0BD00000000024000080240FB
:100B900000224FF0204310280AD0B0F5807F09D002
:100BA000B0F5805F09D0D3F85801814309D107E03F
:100BB000586EFAE7D3F88400F7E7D3F8A400F4E717
:100BC000012210467047D0E90012114382686FF08D
:100BD0001F03C06803EB421242EA402001434FF07A
:100BE0002040C0F850117047F0B50668B100A1F17F
:100BF000C041D1F84011CD0BD0E901121143D0E929
:100C000003231A4311434269046A11438269436A08
:100C10001143C269ED0311432143194329434FF0A6
:100C20002045EEB3D5F8406122436FF30E063343FF
:100C30001A43C5F8402102689200A2F1C042C2F8EE
:100C400040116FF00F02130114030168160441B341
:100C50008900A1F1C041D1F8481101F0704C816ABE
:100C6000D1E9007E02EB0E127F1E17438A6803EB68
:100C7000022217430A8A04EB02421743D5F848219F
:100C800047EA0C0702F07043CA68898A120306EB30
:100C90000151A2F580520A431A43C5F8482101E0E8
:100CA00007E009E000688000A0F1C040C0F848718A
:100CB000F0BDC5F84011C4E7D5F84811806A01F0CD
:100CC0007047D0E9001C02EB0C12491E11438268E8
:100CD00003EB022211430B4BC26803EB02321143B8
:100CE000028A04EB02421143828A007E06EB025222
:100CF00011431A0302EB006001433943C5F8481160
:100D0000F0BD000000F0FFFF4FF02041D1F854216A
:100D100042EA4000C1F854017047F0B500220127B3
:100D20004FF0030C0B6807FA02F52B40AB422CD1B5
:100D3000066853000CFA03F4A64306600E79D0F857
:100D400000E09E4046EA0E0606600E79012E01D0B4
:100D5000022E12D18668A64386604E79D0F808E04C
:100D60009E4046EA0E0686604668AE434660456889
:100D70008E799640B6B235434560C568A543C560D7
:100D8000CC799C40C3681C43C460521C102AC9D350
:100D9000F0BD4B07DB0E9A40C90810B500EB81008F
:100DA000016A0F249C40A1430162016A1143016260
:100DB00010BD0246002012690A4200D0012070478F
:100DC0004183704701837047FEE70029018802D004
:100DD00041F4806101E021F48061018070470346A5
:100DE00000209A8A1B8B42EA034222F07F42914301
:100DF00000D101207047C9438182704700290188D2
:100E000002D041F0010101E021F0010101807047B1
:100E10002DE9F74F5E4E4FF4204A14460546C6F8BA
:100E200004A04FF400385B4F05E07068411E71600C
:100E300001D2092092E04146384600F025FA002808
:100E4000F3D10121B946384600F00AFA4FF4805830
:100E5000C6F80480504F05E07068411E716001D2F1
:100E60000A207BE039464846FFF7B9FF0028F3D057
:100E700031780022484600F081FAC6F80480DFF895
:100E80001CB105E07068411E716001D20B2065E065
:100E900059464846FFF7A3FF0028F3D001214846F2
:100EA000FFF7ACFF4846019900F070FAC6F80480DD
:100EB000DFF8E8B00BF1020B05E07068411E7160CD
:100EC00001D20C204AE059464846FFF788FF002827
:100ED000F3D00121484600F0C3F9C6F80480BB46B0
:100EE0004F4605E07068411E716001D20D2035E06B
:100EF00059463846FFF773FF0028F3D031780122B6
:100F0000384600F03BFAC6F80480DFF88C8008F120
:100F1000010805E07068411E716001D20E201DE0DD
:100F200041463846FFF75BFF0028F3D0DFF86880C2
:100F3000D14608F13F081CB3012C07D100213846E7
:100F4000FFF743FF0121384600F094F9C6F80490FA
:100F500008E07068401E706004D20320BDE8FE4FB8
:100F600000F016BA41463846FFF739FF0028F0D0A6
:100F7000384600F000FA641E05F8010BA4B2DAE767
:100F800001213846FFF721FF0120BDE8FE8F000058
:100F900044000020005400400100030082000700CC
:100FA0002DE9F041054611F007000C4602F007015B
:100FB000C0F10807C2F3C706884611D08EB1D01B16
:100FC000C0F3C70600F0070887B33A462146284613
:100FD00000F088F800F018F9E019C4B23D4425E0AB
:100FE0005EB90A4610E008222146284600F07AF849
:100FF00000F00AF90834E4B20835761EF6B2F2D2EF
:10100000B8F1000016D002462146284600F06AF8E2
:10101000BDE8F04100F0F8B808222146284600F06B
:1010200061F800F0F1F80834E4B20835761EF6B243
:10103000F2D2E5E7BDE8F0817FB50121480500F077
:101040004DFE0121022000F025FE224D0422062142
:101050002846FFF79EFE042207212846FFF799FE47
:10106000022140208DF8041000908DF80510012019
:101070008DF8060000248DF8074069462846FFF7E2
:101080004CFE8020009069462846FFF746FEADF8EA
:1010900004404BF6FF70ADF806000A20ADF80800DA
:1010A0002815ADF80A000001ADF80C000A480B4CF9
:1010B00000906946204600F0FDF801212046FFF728
:1010C0009DFE01212046FFF780FE0549A0200880F3
:1010D0007FBD000000040240801A0600005400405A
:1010E000440000202DE9F05F434E05464FF42040B8
:1010F00014468A4670604FF40038404F05E070682F
:10110000411E716001D2042063E04146384600F080
:10111000BBF80028F3D10121B846384600F0A0F80A
:101120004FF480577760DFF8D89005E07068411E73
:10113000716001D205204CE049464046FFF74FFE62
:101140000028F3D031780022404600F017F977608C
:10115000DFF8B09005E07068411E716001D2062092
:1011600037E049464046FFF73AFE0028F3D05146A3
:10117000C246404600F00AF9B9467760214FB046B2
:101180005646BF1C07E0D8F80400421EC8F80420E9
:1011900001D207201DE039463046FFF720FE002827
:1011A000F1D0CB46C146B046BA46641EE4B21BD36A
:1011B00029784746404600F0E9F84E46C9F804B0A1
:1011C000B84657466D1C08E07068411E716004D235
:1011D0000820BDE8F05F00F0DBB839464046FFF775
:1011E000FEFD0028E1D1EFE70121404600F042F882
:1011F0000120BDE8F09F00004400002000540040A2
:10120000010003008200070038B50020ADF800009F
:10121000104C114D0121204600F022F814212046E7
:1012200000F0A4F8ADF8000029780022204600F074
:10123000A5F81421204600F099F88007EAD507495F
:101240002046FFF7D8FD2046BDE83840012100F0D8
:1012500011B80000005400404400002000040010B9
:101260000029018802D041F4807101E021F48071ED
:10127000018070470029018802D041F4007101E02B
:1012800021F40071018070470CB5024600200092E5
:101290000A0F21F07F41019202D0009A143202E03D
:1012A000009A090C1832009212680A4200D00120FC
:1012B0000CBD00007FB5044680880D4620F03F0637
:1012C000684600F023FD27490298B0FBF1F189B28E
:1012D0000E43A680228822F001022280224B2A6837
:1012E0009A421BD85200B0FBF2F080B2042800D220
:1012F0000420491C2184A083208840F00100208024
:1013000020884FF6F5310840A9886A8911430143C6
:101310002180A8892989084320817FBDEB88A3F516
:101320003F46FF3E0BD002EBC20303EB0212B0FBC1
:10133000F2F080B240F48040020506D007E002EBF4
:101340004202B0FBF2F080B2F6E740F001004FF449
:10135000967251434FF47A72B1FBF2F140F40040BF
:10136000C7E7000040420F00A086010008B508440E
:101370000090008808BD008AC0B2704712B141F0E9
:10138000010101E001F0FE01018270470182704716
:1013900010B5014602A001F033FD002010BD000091
:1013A0003C3C2D454550524F4D2D4552524F522DEC
:1013B0003E3E2049324320B5C8B4FDB3ACCAB1218A
:1013C0006572726F72436F6465203D2025640A0068
:1013D0001CB50121052000F05DFC012000900020DB
:1013E0008DF80400074C8DF8070069462046FFF78A
:1013F00094FC4FF40051009169462046FFF78DFCA4
:101400001CBD00000008024070B58AB0C0F307455B
:10141000C0F30724C6B2FFF7D2F84FF44030009073
:1014200001200394CDE901060F20CDE904500B48BB
:1014300080680690002007904FF4F07008904FF4F9
:10144000487009906846FFF7D1F8FFF729F90220A4
:10145000FFF7C2F80028FAD00AB070BD4C00002097
:10146000F0B5074600240B4D4FF448760AE02022E1
:101470002146384600F010F828698088204484B25C
:10148000B44205D228698088011989B28142EED21E
:10149000F0BD00004C000020203AD3B2054A10B441
:1014A00012691468D2885A4304EB420210BC00F05F
:1014B00025B800004C0000202DE9F0410D46804683
:1014C00000240D4E4FF448770AE021464046FFF7CE
:1014D000E3FF30696D1C8088204484B2BC4208D28E
:1014E0002A78002A05D030698088011989B28142A2
:1014F000EBD2BDE8F08100004C0000202DE9F04364
:10150000DFF884C0914600234FF416625043DCF8A4
:101510000860DCF8105031E0002227E00C27B4FB13
:10152000F7F7FF004FF0800808FA07F839F8137052
:1015300048FA02F818EA070F01D10C2C08D94FF02D
:10154000010808FA02F817EA080F04D10C2C02D996
:10155000DCF8047001E0DCF8007001EB4104344475
:10156000275204443F0CA770491C521CAC8894427B
:10157000D4D8A2B2C2F5487211445B1CEA889A42E0
:10158000CAD8BDE8F08300004C0000202DE9FC5FC4
:10159000012140F2FF1000F07DFB02208DF80500D4
:1015A0008DF8040000208DF806004FF004088DF837
:1015B0000700CDF800806946AA48FFF7AEFB0E226F
:1015C0000221A848FFF7E5FB4FF0080A6946A54845
:1015D000CDF800A0FFF7A1FB0E220321A148FFF7E1
:1015E000D8FB4FF48070009069469E48FFF795FB4A
:1015F0000E2208219B48FFF7CCFB012469469A483C
:101600000094FFF78AFB092200219748FFF7C1FBEE
:101610004FF4006B69469548CDF800B0FFF77DFBAD
:101620000E220B219148FFF7B4FB4FF48059694615
:101630008E48CDF80090FFF770FB0E220C218B48EE
:10164000FFF7A7FB0220009069468748FFF765FB7C
:10165000092201218448FFF79CFB40256946844804
:101660000095FFF75AFB0E2206218148FFF791FBF8
:101670002020009069467F48FFF74FFB0E2205218E
:101680007C48FFF786FB69467A480095FFF745FBE3
:101690000E2206217748FFF77CFB60030090694625
:1016A0007048FFF73AFB0E220D216E48FFF771FBE1
:1016B000A60269466E480096FFF72FFB09220A2111
:1016C0006B48FFF766FBE003009069466548FFF74B
:1016D00024FB0E220F216348FFF75BFB6946664837
:1016E0000094FFF71AFB0E2200216348FFF751FB1D
:1016F0008027694661480097FFF70FFB0E220721FC
:101700005E48FFF746FB69465B48CDF80080FFF76F
:1017100004FB0E2202215848FFF73BFB4FF0100854
:1017200069465448CDF80080FFF7F7FA0E220421ED
:101730005048FFF72EFB69464D48CDF80090FFF763
:10174000ECFA0E220C214A48FFF723FBDFF8309118
:10175000694648460095FFF7E0FA0E220621484602
:10176000FFF717FB69464248CDF800B0FFF7D5FAFE
:101770000E220B213E48FFF70CFB69463E48CDF890
:101780000080FFF7CAFA0E2204213B48FFF701FB55
:1017900069463648CDF800A0FFF7BFFA0E220321B4
:1017A0003248FFF7F6FA2002009069462E48FFF70C
:1017B000B4FA0E2208212C48FFF7EBFA65026946BD
:1017C00029480095FFF7A9FA0E2209212648FFF7BC
:1017D000E0FA694626480097FFF79FFA0E22072194
:1017E0002348FFF7D6FA694623480096FFF795FA93
:1017F0000E220A212048FFF7CCFA69461E480095C0
:10180000FFF78BFA0E2209211B48FFF7C2FA1D4D84
:10181000694628460096FFF780FA0E220A212846DC
:10182000FFF7B7FA02208DF805008DF8044000207C
:101830008DF80600CDF800808DF8074069464846CF
:10184000FFF76BFA694648460097FFF766FA1021E2
:101850004846FFF7B7FA80214846FFF7B3FABDE8DC
:10186000FC9F0000001C02400004024000000240F7
:101870000018024000100240002002400008024010
:10188000000C02400014024001480069704700004B
:101890004C00002000B501218FB0880600F02AFA24
:1018A0000121C80500F0F6F9FFF770FE00F0CAFD4F
:1018B000062207214FF4D27000F09CFA4FF400305A
:1018C00000F088FA012000F08FFA3D2000F068FA5D
:1018D0000028FAD000200090029003900E90019012
:1018E0000C900D90049005902E20069017200790E4
:1018F00040F24E30089040F2F710099040F262300A
:101900000A9040F20D200B90684600F0C3F80120C9
:1019100000F0B2F80FB000BD30B591B02F200090AC
:1019200040F24E3001901820029040F2F7100390E0
:1019300001200490FF2005900690079008900990E0
:101940004FF480600724CDE90A0440F663100D903F
:10195000C01E0E904FF4F0700F904FF05040124D9B
:101960000C906946284600F0F5F810494FF4C06025
:101970000A90CDE90B410C4C69468034204600F0BA
:10198000E9F8012000F032F90121284600F0D8F8EA
:101990000121204600F0D4F8012000F027F9054984
:1019A0000348086111B030BD84680140009411D033
:1019B000600000204C000020014AC2E9000170478D
:1019C0004C00002001490861704700004C000020D5
:1019D000054920B1054888600120C86070474FF074
:1019E000504088600020F8E74C000020009411D09F
:1019F000084910B5C9680029014607D0064800F01B
:101A00009DF8BDE81040012000F0F0B80248803891
:101A1000F5E700004C000020046901402DE9FC417D
:101A20000121802000F036F901208DF8040000210A
:101A30008DF806108DF807000E4F4FF480648DF876
:101A40000510009469463846FFF767F96500694656
:101A500038460095FFF761F9A600694638460096BA
:101A6000FFF75BF903481830048005800680BDE865
:101A7000FC810000001C024005490028086802D0D3
:101A800040F0010001E020F0010008607047000014
:101A90001868014030B5264A136826490B40136088
:101AA000038A146845692C4344EA03441460121DF8
:101AB00013680B401360038B1468C5692C4344EA18
:101AC00003441460121D13680B401360038C1468E8
:101AD000456A2C4344EA03441460121D13680B400A
:101AE0001360018D1368C46A234343EA0143136002
:101AF000111D0A68104B1A400A60D0E900231A43EE
:101B0000D0E9023423431A430B681A430A60416B3D
:101B10000A02018E0B04064924310C6804F07F444C
:101B20000C600C68806B134304431C430C6030BD95
:101B30000868014000F800F08F88FE0F416170478F
:101B40000029016802D041F0010101E021F001010A
:101B50000160704770B58A88436803F4704343603E
:101B60000B6843EA024343608A89836803F4704345
:101B700083608B6843EA02438360026922F00702B4
:101B800002610A690261CA6991F8243014020A8C60
:101B900085691204002686618D6942EA0362254345
:101BA00015438561426922F0FF0242614A69426140
:101BB000C26940F207739A43C261D1E90A231A430A
:101BC000C261826A86620A6B82620A8FC36A03F00C
:101BD000E023C3624B6B43EA0243C362026B6FF3C1
:101BE0000A020263C96B016370BD0000014908600D
:101BF0007047000024680140FEE7704730B50F23AE
:101C0000C27801780125FAB1144A126801F1E02185
:101C100002F4E062C2F5E062C2F30722C2F10404FA
:101C2000D3404278A24084781C401443220181F8BA
:101C30000024007800F01F018D404009800000F171
:101C4000E020C0F8005130BD01F01F008540480978
:101C5000800000F1E020C0F8805130BD0CED00E0C4
:101C60000249084302490860704700000000FA0575
:101C70000CED00E00907090E002806DA00F00F005D
:101C800000F1E02080F8141D704700F1E02080F89A
:101C900000147047044A0029116801D0014300E094
:101CA000814311607047000030380240044A002927
:101CB000116801D0014300E08143116070470000CA
:101CC00010380240044A0029116801D0014300E0A5
:101CD000814311607047000038380240044A0029EF
:101CE000116801D0014300E081431160704700009A
:101CF00040380240044A0029116801D0014300E045
:101D000081431160704700004438024070B5204B99
:101D10001968204C11F00C0104D01F4E042903D087
:101D2000082903D004601BE0066019E0184A121F5E
:101D30001168C1F38055116801F03F0115B1B6FB80
:101D4000F1F101E0B4FBF1F114681268C4F38814F6
:101D50006143C2F30142521C5200B1FBF2F1016037
:101D600019680F2202EA11110C4A545C0168E14023
:101D700041601C68072505EA9424145D21FA04F4E7
:101D800084601B6805EA5333D25CD140C16070BDEA
:101D9000083802400024F40040787D01140000203F
:101DA00002460020510901290BD002290CD0084914
:101DB000096802F01F02012393400B4200D001206A
:101DC000704703497439F3E70149091FF0E7000040
:101DD00074380240034A116821F440310143116014
:101DE000704700008C3802400149086770470000C6
:101DF00000004742800140EA0160024940EA027067
:101E0000086070478838024008B51A4E1A4F1B4DBB
:101E1000DFF86C804FF0FF394FF40054CDF800909C
:101E2000002301220221B06902F08CFB8007F5D566
:101E30000121B06902F0E6FAFEF79EFCFEF7FEFC17
:101E4000386880F400603860322000E00A2002F038
:101E5000D3F821462846FEF7ACFF0028F6D0322002
:101E600002F0CAF8D8F8001041F40051C8F8001088
:101E7000D4E7000024000020141C024000080240A7
:101E8000003C01402DE9FF41002425460A2221465D
:101E900001A8FEF7BDFF002001AA115CFF2903D0B5
:101EA0000125A14200D30C46401CC0B20A28F4D33D
:101EB000174E002715B1641C346100E0376104221D
:101EC0000021684600F050FB9DF80000FF280BD170
:101ED0009DF80100FF2807D19DF80200FF2803D1DB
:101EE0009DF80300FF2811D09DF80210BDF80000F6
:101EF00061F31F409DF8031040EA01607061D6E96C
:101F0000041204A000F07CFFBDE8FF817761F6E7D2
:101F1000240000205265636F7665723A2070726506
:101F200073735F636E743D256C752C206C6F675FF7
:101F3000636E743D256C750D0A0000001FB510A07E
:101F40000021006803900F486A460161416108461C
:101F5000FF211154401CC0B20A28FAD30A220021E2
:101F60006846FFF71DF8002000F050FC0422002115
:101F700003A800F021FB04A000F042FF1FBD0000F9
:101F8000FFFFFFFF24000020454550524F4D2061C8
:101F90006E6420466C617368204C6F6720617265C7
:101FA0006120726573657420746F20307846460D29
:101FB0000A0000004FF40057DFF8D0807D1C344E3B
:101FC00001213046FEF7F5FE00285AD13946444635
:101FD0004046FEF7EEFE002853D11E2002F00CF81A
:101FE00001213046FEF7E5FE00284AD13946A046D9
:101FF0002046FEF7DEFE002843D1264803218069F3
:1020000002F000FA244C2068A8432060FFF796FFF6
:10201000FEF7B2FBFEF79AFCDFF880A04FF4806970
:1020200049465046FEF7CCFE4FF4006B59465046E9
:10203000FEF7C6FE4FF4FA7001F0DEFF4946504647
:10204000FEF7C0FE59465046FEF7BCFE14A000F055
:10205000D7FEB146464602E00A2001F0CDFF01213D
:102060004846FEF7A6FE0028F6D039463046FEF771
:10207000A0FE0028F0D0642001F0BEFF20682843B5
:1020800020601E2001F0B8FF99E700000008024020
:102090000000024024000020003C0140001C0240DF
:1020A0004D656D6F727920526573657420436F6D55
:1020B000706C657465210D0A000000002DE9FC5F5D
:1020C0000121FC20FFF7E6FD02208DF804008DF8C9
:1020D000050000208DF806008DF807000120009013
:1020E0006946D248FEF719FE0C220021CF48FEF7C0
:1020F00050FE022000906946CC48FEF70EFE0C22EE
:102100000121CA48FEF745FE042000906946C748F1
:10211000FEF703FE0C220221C448FEF73AFE082017
:1021200000906946C148FEF7F8FD0C220321BF4824
:10213000FEF72FFE4FF010086946BC48CDF800802E
:10214000FEF7EBFD0C220421B848FEF722FE20200A
:1021500000906946B548FEF7E0FD0C220521B34822
:10216000FEF717FE4FF480596946B048CDF800904D
:10217000FEF7D3FD0C221146AC48FEF70AFE4FF4E1
:10218000005000906946A948FEF7C7FD0C220D21BA
:10219000A648FEF7FEFD4FF480456946A34800952A
:1021A000FEF7BBFD0C220E21A048FEF7F2FD6C00ED
:1021B00069469E480094FEF7B0FD0C220F219B4813
:1021C000FEF7E7FD0120009069469948FEF7A5FD5E
:1021D0000C2200219648FEF7DCFD022000906946A3
:1021E0009348FEF79AFD0C2201219148FEF7D1FD9C
:1021F000694690480095FEF790FD0C220E218D480F
:10220000FEF7C7FD69468B480094FEF786FD0C2259
:102210000F218848FEF7BDFD0120009069468548E2
:10222000FEF77BFD0C2200218248FEF7B2FD022062
:10223000009069467F48FEF770FD0C2201217D4821
:10224000FEF7A7FD8020009069467B48FEF765FDFC
:102250000C2207217848FEF79CFDE6116946764876
:102260000096FEF75AFD0C2208217348FEF791FDF7
:10227000A711694670480097FEF74FFD0C2209210F
:102280006D48FEF786FD4FF4806A69466A48CDF8CE
:1022900000A0FEF742FD0C220A216748FEF779FDF7
:1022A0004FF4006B69466448CDF800B0FEF735FD89
:1022B0000C220B216048FEF76CFD69465E48CDF8A4
:1022C0000090FEF72AFD0C2211465B48FEF761FDE7
:1022D000A010009069465848FEF71FFD0C220D2102
:1022E0005548FEF756FD694653480095FEF715FD23
:1022F0000C220E215048FEF74CFD69464E480094D2
:10230000FEF70BFD0C220F214B48FEF742FD6946FC
:1023100048480096FEF701FD0C2208214548FEF7CB
:1023200038FD694643480097FEF7F7FC0C22092167
:102330004048FEF72EFD69463E48CDF800A0FEF766
:10234000ECFC0C220A213B48FEF723FD40203B4DCC
:10235000009069462846FEF7E0FC0C22062128463C
:10236000FEF717FD69463248CDF80080FEF7D5FC30
:102370000C2204212E48FEF70CFD20200090694617
:102380002B48FEF7CAFC0C2205212948FEF701FD67
:1023900001202B4F009069463846FEF7BEFC0C2208
:1023A00000213846FEF7F5FC69462048CDF800B01C
:1023B000FEF7B3FC0C220B211C48FEF7EAFC694631
:1023C0001B480094FEF7A9FC0C220F211848FEF7C9
:1023D000E0FC694616480096FEF79FFC0C22082197
:1023E0001348FEF7D6FC8020009069462846FEF789
:1023F00094FC0C2207212846FEF7CBFC022000901B
:1024000069460D48FEF789FC0C2201210A48FEF7B7
:10241000C0FC0120009069460748FEF77EFC0C22B4
:1024200000210548FEF7B5FCBDE8FC9F0014024002
:1024300000180240000C024000100240001C024044
:102440000008024000B593B0FFF738FE01210846AE
:10245000FFF738FC0421022007220D91CDE90B0281
:10246000CDE90E2010901190012000900020CDE9C0
:10247000010110210391402104914FF4C071CDE975
:1024800005104FF40061CDE90710880009900BA8F2
:102490000A906846FEF7A8FB00F002F813B000BDF2
:1024A000F0B585B0012408250026CDE90246CDE926
:1024B000004520210120FEF76BFB0028F9D168467A
:1024C000FEF781FB0A2022480490401E0490FCD1B4
:1024D0000220CDE90005CDE9024620210120FEF7CA
:1024E00057FB0028F9D16846FEF76DFB032004274F
:1024F00003968DE8A10020210120FEF749FB00286A
:10250000F9D16846FEF75FFB20210120FEF740FB72
:102510000028F9D16846FEF756FB40F23120CDE99C
:102520000240CDE9007520210120FEF731FB002893
:10253000F9D16846FEF747FB40F26A50FEF7E4FB2C
:1025400020210120FEF724FB0028F9D105B0F0BDC1
:1025500040420F000029018802D041F0400101E013
:1025600021F04001018070472DE9F04104461148F7
:10257000402715460E460780032000F06BF9300E09
:1025800000F068F9C6F3074000F064F9C6F30720CD
:1025900000F060F9F0B200F05DF904E0FF2000F017
:1025A00059F904F8010B6D1EF8D20248801E07800D
:1025B000BDE8F0811A1402402DE9F04706460D46A9
:1025C00011F0FF00C0F10001CFB2C2F3072402F006
:1025D000FF094FF4807A13D0E8B24042C0B205EB55
:1025E00000080CB3D01BC0F3072400F0FF093A46E3
:1025F0002946304600F0BEF83E44454657462DE099
:102600006CB15746641EE4B20CD33A4629463046B4
:1026100000F0B0F805F5807506F58076F2E72946FA
:1026200030460EE04A46FAE7B945F8D9A9EB07006B
:10263000C4B23A462946304600F09CF84146F019AB
:102640002246BDE8F04700F095B83A4629463046A4
:1026500000F090F805F5807506F58076641EE4B20A
:10266000F3D2B9F1000001D00246D8E7BDE8F08707
:102670002DE9F04387B001212020FFF70BFB01215A
:102680000805FFF737FBDFF8B89005220721484619
:10269000FEF77FFB052208214846FEF77AFB05225C
:1026A00009214846FEF775FB02258DF8055080206C
:1026B0008DF80450002400908DF806408DF80740F6
:1026C00069464846FEF729FBE801009069464846FE
:1026D000FEF723FB2E02694648460096FEF71DFBD7
:1026E00040274FF0010800978DF80480694648465E
:1026F000FEF713FB124818300780ADF808404FF47E
:102700008270ADF81440ADF80A00ADF80C40ADF899
:10271000164007200B4CADF81080ADF81800ADF84E
:102720000E50ADF8126002A9204600F0FEF801211B
:102730002046FFF70FFF00F007F807B0BDE8F08371
:10274000001402400050014070B5094D40242C8017
:10275000152000F07FF8FF2000F07CF8AE1E3480DA
:10276000C00704D12C80B72000F074F8348070BD0D
:102770001A1402402DE9F04114460F46054600F0B8
:10278000BBF8144840260680022000F063F8380E9B
:1027900000F060F8C7F3074000F05CF8C7F30720CB
:1027A00000F058F8F8B200F055F8B000844208D9AB
:1027B000044609A000F024FB03E0287800F04AF862
:1027C0006D1C641EF9D20348801E0680BDE8F041EE
:1027D00000F072B81A1402403C3C2D464C4153485C
:1027E0002D4552524F522D3E3E205350495F464C8C
:1027F0004153485F50616765577269746520746F13
:102800006F206C61726765210A00000070B5044694
:1028100000F072F800F050F80D48402505802020A7
:1028200000F018F8200E00F015F8C4F3074000F08F
:1028300011F8C4F3072000F00DF8E0B200F00AF838
:102840000348801E0580BDE8704000F035B80000E8
:102850001A1402402DE9F041154C4FF480550746FB
:102860002560144E03E02068411E216010D3022130
:10287000304600F04FF80028F5D03946304600F0D9
:1028800052F8256009E02168481E206005D2012029
:1028900000F068F8C0B2BDE8F0810121304600F0D8
:1028A00039F80028EFD0304600F03BF8F2E700009E
:1028B000400000200050014070B50D4840250580C3
:1028C0000520FFF7C7FF0B4CA8012060FF20FFF792
:1028D000C1FF21684A1E226004D2BDE87040042076
:1028E00000F040B8C007F1D10148801E058070BDDE
:1028F0001A1402404000002010B50548402404800E
:102900000620FFF7A7FF0248801E048010BD0000CC
:102910001A1402400246002012890A4200D0012007
:102920007047808970478181704730B502884C8834
:1029300002F441530A88CD8822438C882C432243D9
:102940000C8922434C8922438C892243CC8922431F
:102950001A430280828B22F400628283098A0182F8
:1029600030BD000010B5014602A000F049FA002079
:1029700010BD00003C3C2D464C4153482D45525261
:102980004F522D3E3E2053504920B5C8B4FDB3AC44
:10299000CAB1216572726F72436F6465203D202554
:1029A000640A000010B58A0721F003040849120FD9
:1029B00021440F23D1F8084893409C43C1F80848AC
:1029C000D1F8083890400343C1F8083810BD000022
:1029D000003001401CB500212E4A00910191106881
:1029E00040F4803010604FF4A043106800F40030D1
:1029F00001900098401C0090019810B900989842EE
:102A0000F3D11068800342D5012001902148403065
:102A1000016841F0805101601F49086840F440405E
:102A200008601C48083003680360036843F40043EF
:102A30000360036843F4A0530360041F174B236033
:102A4000136843F08073136013689B01FCD50A6818
:102A500042F480320A604A68D203FCD50A6842F424
:102A600000320A604A689203FCD50D4A40F20571B3
:102A70001160016821F003010160016841F0020169
:102A800001600168C1F381010229FAD11CBD0191E5
:102A90001CBD00000038024000700040195A400779
:102AA000003C024010B502F069F9012803D0BDE8EE
:102AB000104001F065BE10BD124810B5016841F428
:102AC000700101601048016841F0010101600E4A87
:102AD00000210832116002680C4B1A400260031D8D
:102AE0000B4A1A60026822F48022026006480C3009
:102AF0000160FFF76FFF03494FF000608039086005
:102B000010BD000088ED00E000380240FFFFF6FE37
:102B1000103000240029818902D041F4005101E0E5
:102B200021F40051818170470246002012880A4238
:102B300000D00120704710B5C1F3421301F01F040B
:102B40000121A140012B07D0022B07D01430002A0D
:102B5000026805D00A4304E00C30F8E71030F6E7CD
:102B60008A43026010BD00007FB50446008A0D460E
:102B7000C98820F4405001432182A08941F20C61B0
:102B80008843A9882A8911436A8902431143A18194
:102B9000A08A20F44071A8890843A0826846FFF704
:102BA000B5F81A48844202D01948844201D10398EA
:102BB00000E00298A189090400EBC00101EB0010BC
:102BC000296801D5490000E08900B0FBF1F06422DA
:102BD000B0FBF2F109010B096FF018056B4300EB34
:102BE0008300A3891D044FF0320306D503EBC00018
:102BF000B0FBF2F000F0070005E003EB0010B0FBC3
:102C0000F2F000F00F00084320817FBD001001406A
:102C100000140140C1F3080181807047FEE7000005
:102C20002DE9F0412C4D0A219AB02869401EB0FBD5
:102C3000F1F201FB1207C6B2642101A8FDF749FBBE
:102C4000334626A2642101A8009700F0E9F84FF46A
:102C50008058FF2241462E48FDF734FB68692C4E10
:102C600060F30704010A61F30F24010C61F31744B8
:102C7000000E60F31F643460002464270CE004EB52
:102C8000C40000EB041007EB800106EB8000642217
:102C90006430FFF769FC641C6869401E8442EED30F
:102CA0006869642200EBC00101EB001006EB8000B4
:102CB00001A9FDF7F5FA0020FFF7A8FD4246002123
:102CC0001348FFF779FC01AA12A0696900F098F88F
:102CD0001AB0BDE8F081000024000020546865208F
:102CE000757365722077726F7465206279746520E0
:102CF00030782530325820617420454550524F4D70
:102D00002061646472657373203078253032580016
:102D1000E0000020466C617368204C6F675B256C97
:102D2000755D3A2025730D0A000000001CB5254C86
:102D30004FF0FF360122009600231146A06901F0F2
:102D400001FCC007F6D00221A06901F05BFB2069FD
:102D50000A21B0FBF1F201FB12058DF804000122FB
:102D6000294601A8FEF71CF99DF80420294616A063
:102D700000F046F82069401C20616069401C6061D9
:102D8000272801D927206061FFF74AFF1948016809
:102D900081F480610160322001F02EF9164D02E0CD
:102DA0000A2001F029F901212846FEF702F800283F
:102DB000F6D0322001F020F91048016841F00101FD
:102DC0000160B7E724000020454550524F4D205781
:102DD000726974653A20416464723D3078253032FE
:102DE000582C20446174613D3078253032580D0AEA
:102DF00000000000141C024000000240003C0140A2
:102E00000FB4054B10B503A9044A029800F032F83C
:102E100010BC5DF814FB0000E1320008DC0000206B
:102E20000FB47CB50C0009AD01D0611E00E000219B
:102E3000CDE90001064B6A462946089800F01AF8C9
:102E4000002C02D0009A002111707CBC5DF814FBAC
:102E5000CB32000802E008C8121F08C1002AFAD1CC
:102E600070477047002001E001C1121F002AFBD10A
:102E7000704700002DE9FF4F8DB00F460546002634
:102E800006E025280BD0DDE90F1290476D1C761C5B
:102E900028780028F5D111B03046BDE8F08F002425
:102EA000A246A1460122E94900E0044315F8013F8A
:102EB000203B02FA03F00842F7D128782A2810D0E4
:102EC0006FF02F022878A0F13001092914D80AEBFD
:102ED0008A0102EB410144F0020400EB010A6D1C7F
:102EE000F0E701CF5FEA000A03D544F40054CAF1C9
:102EF000000A44F002046D1C28782E2817D115F81A
:102F0000010F44F004042A280ED06FF02F02287815
:102F1000A0F1300109290AD809EB890102EB41012E
:102F200000EB01096D1CF2E757F8049B6D1C287833
:102F30006C280FD006DC4C2817D068280DD06A28E2
:102F400014D104E0742810D07A280FD10DE044F495
:102F500000140AE044F4801401E044F44014697859
:102F6000814202D104F580146D1C6D1C28786E28F6
:102F70001ED00CDC632830D004DC00288BD058280D
:102F800011D19FE0642867D069280CD164E07328D0
:102F90002DD004DC6F2872D0702804D194E07528FD
:102FA0006ED078286DD0DDE90F129047761C4BE18A
:102FB000C4F30250022806D0032809D0042801CF08
:102FC00009D0066040E101CFF117C0E900613BE1A3
:102FD00001CF068038E1067036E117F8040B8DF852
:102FE000000000208DF80100EB46012003E057F8B7
:102FF00004BB4FF0FF3061074FF0000102D40DE039
:1030000008F10101884649450FDA8045F8DB1BF8D5
:1030100008100029F4D108E008F101018846814236
:10302000FADB1BF808100029F6D1DDE90F23AAEB23
:1030300008008146214600F031F9304400EB0806D3
:1030400004E0DDE90F121BF8010B9047B8F101080D
:10305000F7D221464846F2E00A21C4F302524FF06B
:10306000000B0891022A04D001CFC117032A09D00E
:103070000AE0FF1D27F00707F7E8020108E02CE04F
:103080001EE01FE000B2C117042A01D140B2C117EF
:10309000021E71F1000206DA0023D0EB030063EB9D
:1030A00001012D2202E0220504D52B228DF82420D7
:1030B000012203E0E20701D02022F7E7904653E027
:1030C0000A210BE0102109E010214FF0000B44F021
:1030D00004044FF00809089103E008214FF0000BA9
:1030E0000891C4F30252022A04D001CF0021032A1E
:1030F00006D006E0FF1D27F00707F7E8020103E00E
:1031000080B2042A00D1C0B24FF0000822072BD5AC
:103110002A78702A07D0DDF820C08CF0100C5CEA09
:103120000B0C05D00EE040228DF82420012208E08F
:1031300050EA010306D030238DF824308DF8252085
:1031400002229046089B83F0080353EA0B030BD13D
:1031500050EA010201D1620706D530228DF8242001
:103160004FF00108A9F101092A78582A04D038A2A1
:103170000B9208AA0A920BE03AA2F9E75B46089A7A
:10318000FDF7B2F80B9B9B5C0A9A521E0A921370D1
:1031900050EA0102F2D10A98ADEB000000F1200BD9
:1031A000600702D524F4803401E04FF00109D945CD
:1031B00002DDA9EB0B0000E0002000EB0B01414415
:1031C0000890AAEB010AE00306D4DDE90F232146AB
:1031D000504600F063F806444FF0000908E009A9E2
:1031E00011F80900DDE90F12904709F10109761C79
:1031F000C145F4DBE0030CD5DDE90F232146504641
:1032000000F04CF8064404E0DDE90F12302090474E
:10321000761C0899481E08900029F5DC08E00A98F9
:103220000A990078491C0A91DDE90F129047761C33
:10323000BBF10001ABF1010BF1DC21465046DDE9A9
:103240000F2300F019F806446D1C21E6092801003F
:10325000303132333435363738396162636465660C
:1032600000000000303132333435363738394142CE
:1032700043444546000000002DE9F0410446002586
:103280001E461746880404D405E039462020B0477E
:103290006D1C641EF9D52846BDE8F0812DE9F0418A
:1032A000044600251E469046C80301D5302700E09D
:1032B0002027880404D505E041463846B0476D1CF8
:1032C000641EF9D52846BDE8F0814A68002A06D078
:1032D0000A68531C0B6010704868401E48607047B5
:1032E00070B5074D0446C1B22846FFF793FC802114
:1032F0002846FFF719FC0028F9D0204670BD0000D1
:10330000001001401CB5FDF7CDF801F0B1F81749E8
:103310004FF0FF34886100B3FEF7B4FD4FF4407006
:10332000FEF79EFC05210620FEF7A4FC05212820BF
:10333000FEF7A0FC0EA0FFF763FD1548FFF760FD48
:103340000A490120CDE900014202002311A11548DC
:1033500001F0E8FC012805D002E013A0FFF750FDC2
:1033600020461CBD00F0B6FFFEE700002400002050
:103370004672656552544F532053746F726167658E
:10338000205461736B2044656D6F0D0A00000000CE
:103390003C6400084170705461736B4372656174E2
:1033A00065000000B10300084576656E7447726FD2
:1033B000757020637265617465206661696C65640F
:1033C000210D0A002DE9F041184E0F460446F5681C
:1033D0003068001D00F078FC38B9306890F82C1087
:1033E00001208840316981433161601C07D137B1C8
:1033F0003168BDE8F0410E48091D00F0ABBC3068F3
:103400002C44AC424460316805D2B06BBDE8F04159
:10341000091D00F087BC706B091D00F083FCB06AC9
:10342000844200D2B462BDE8F08100006800002050
:10343000001400202DE9F041054600F097FC2D4EC8
:10344000B068401CB06030682B4F10B1706930B369
:103450002BE03560B068012827D1002404EB8400FC
:1034600007EB800000F050FC641C202CF6D32348AE
:1034700000F04AFC2148143000F046FC1F48283078
:1034800000F042FC1D483C3000F03EFC1B48503030
:1034900000F03AFC194870631430B06305E03068FE
:1034A000E96AC06A884200D83560706A0121401C10
:1034B0007062E86A326981401143316100EB80003B
:1034C00007EB8000291D00F045FC00F08BFC7069C3
:1034D00000280CD03068E96AC06A884207D20849DF
:1034E0004FF080500860BFF34F8FBFF36F8FBDE880
:1034F000F08100006800002030110020B01300208F
:1035000004ED00E010B500F031FC0E4C2068A0B9CD
:103510000D4800F0F9FB0C48143000F0F5FB0A48A8
:10352000E06014302061002210210A2001F03EF9F1
:10353000206010B105A100F02BFDBDE8104000F0A7
:1035400051BC0000A400002014140020546D7251DE
:103550000000000070B5124E124D1CE000F008FF94
:10356000306820B1002401F035FDA4B901E0012448
:10357000F9E700F0FBFBF068C468201D00F0A4FB35
:10358000A868401EA8606868401E686000F02AFCB9
:10359000204600F049F868680028DFD170BD0000BF
:1035A000EC1300206800002030B4026C0B46002AA7
:1035B0000BD0C1681144C1604468A14201D30168C5
:1035C000C16030BC1846FCF76BBE30BC70472DE9BB
:1035D000F041856B164604460027026CFAB17EB1B5
:1035E000E068FCF75DFEE168206C091AE160226882
:1035F000914202D26168081AE060022E0DD00EE0FE
:10360000A068FCF74DFE216CA0680844A0606168CA
:10361000884204D32068A06001E005B16D1E6D1CD6
:10362000A5633846BDE8F08110B50446006B00F094
:103630000BFC2046BDE8104000F006BC10484FF4DB
:103640001041420706D0C01D0D4920F00700411A65
:10365000C1F510410B4A00230144C2E900030839B7
:10366000103A21F0070111604B600B600B1AC0E9A2
:10367000001393604FF000405360D060704700002B
:103680003C140020C8000020074E4FF08054074D26
:10369000FFF760FF30680128FAD92C60BFF34F8F25
:1036A000BFF36F8FF4E700003011002004ED00E05D
:1036B0002DE9F047DDE909840E4682466FF00301EB
:1036C000206B01EB82010844089D20F00707994612
:1036D000780705D040F22B3218A11FA0FFF790FB0E
:1036E00000202218315C82F83410315C11B1401C8A
:1036F0001028F6D3002684F84360202D00D31F2520
:10370000201DE56200F00BFB04F1180000F007FB40
:103710002461C5F120006462A061666484F8486099
:103720004A465146384600F0B9FA2060B8F1000F19
:1037300001D0C8F80040BDE8F08700002E2E5C2EB6
:103740002E5C4672656552544F535C7372635C74B1
:1037500061736B732E6300004572726F723A25734A
:103760002C25640D0A00000030B5114900E0114617
:103770000A688242FBD34B685C18844203D14068DC
:1037800018444860084643681C18944209D1084C04
:10379000103C2468A24209D052681A4442600A6868
:1037A00012680260814200D0086030BD0460F9E711
:1037B000C800002070B5002441600B4D00619142AB
:1037C00006D8D11A8269914206D2011D286907E004
:1037D0009A4203D2994201D3012403E0011DE86813
:1037E00000F0A0FA204670BDA400002010B50446E9
:1037F00000F0BCFAA06B20B1002400F0F3FA2046E0
:1038000010BD0124F9E70000F8B5054614480E463E
:10381000C068C068C468201D00F056FAE06901283D
:1038200017D1A0692B46411932462046FFF7C2FF47
:1038300078B100200346014600902A46204601F058
:10384000B7FC30B907494FF4027201F11C00FFF7D1
:10385000D7FA616A01B02046BDE8F0400847000091
:10386000A40000200C51000870B586B02F4E53E024
:103870000198002806DADDE90301029A90470198D1
:10388000002849DB039C606910B1201D00F01CFA80
:1038900005A800F0A9F8054601980A283CD2DFE8FF
:1038A00000F00505053B273805053B270298A1696F
:1038B000034601442A462046FFF77CFF00282BD010
:1038C000616A20468847E069012825D100200090E0
:1038D0000298A169002342181946204601F068FCAD
:1038E000D0B940F2213212A118A0FFF789FA13E0F3
:1038F0000298A06128B94FF44E720DA113A0FFF7F2
:103900007FFAA0692B4641191A462046FFF752FF5D
:1039100002E0204600F098FA00231A4601A9306818
:1039200000F07CFF0028A3D106B070BDA4000020E9
:103930002E2E5C2E2E5C4672656552544F535C737E
:1039400072635C74696D6572732E63004572726F89
:10395000723A25732C25640D0A000000F8B50D4657
:10396000064600F005FD684600F03EF80446009863
:1039700010B101F02FFBF8BD1148ADB10169096824
:10398000D9B10025311B2A46006800F013FB01F075
:1039900021FB0028EFD10B494FF080500860BFF3A6
:1039A0004F8FBFF36F8FF8BDA642EBD801F012FB2B
:1039B00021463046FFF728FFF8BD0125E2E7000069
:1039C000A400002004ED00E00648416B096829B11D
:1039D000416BC968C9684968816270474FF0FF311F
:1039E000FAE700006800002070B5054601F0D4F940
:1039F000064E0446B068844203D200F009F8012064
:103A000000E0002028602046B46070BDA4000020C3
:103A1000F8B5184E26E0C068C4680568201D00F09F
:103A200053F9616A20468847E06901281AD1A069E4
:103A30002844A84206D924616060211DF06800F086
:103A400071F90FE000200346014600902A46204607
:103A500001F0AEFB30B9084940F2923201F11C008E
:103A6000FFF7CEF9F06801680029D4D13169C6E9C1
:103A70000310F8BDA40000200C510008084840685D
:103A8000401C05D040F20F1206A111A0FFF7B8F9B3
:103A9000502080F31188BFF34F8FBFF36F8FFEE785
:103AA000D00000202E2E5C2E2E5C4672656552548E
:103AB0004F535C706F72745C525644535C41524D6C
:103AC0005F434D34465C706F72742E6300000000DB
:103AD0004572726F723A25732C25640D0A0000003E
:103AE0000346002012B1994302D070470B42FCD02C
:103AF00001207047084CE068016839B1002139B1F4
:103B00000020FFF72BFFFFF7AFFEF4E70121F6E7F8
:103B1000C0680068F5E70000A40000202DE9F0412E
:103B2000044600F023F994F9455004F1240609E015
:103B3000606A48B1304601F0ADF908B100F000FB11
:103B40006D1E6DB2002DF3DC4FF0FF3684F845603A
:103B500000F048F900F00AF994F9445004F1100714
:103B600009E0206948B1384601F094F908B100F045
:103B7000E7FA6D1E6DB2002DF3DC84F84460BDE8F9
:103B8000F04100F02FB900002DE9F0410546002674
:103B900000F0EEFB324F386808B9FFF74FFDF868C8
:103BA00005424FD1002D4DD0083568070BD005F0E8
:103BB0000700C0F108000544680704D0BF2229A10E
:103BC00032A0FFF71DF9002D3CD07868854239D826
:103BD000234910310846046801E021460446606824
:103BE000A84202D220680028F7D13868B84684423B
:103BF00028D00E682068086060680836401B1028CE
:103C00000ED96719780704D0EC2216A11FA0FFF780
:103C1000F7F86068401B786038466560FFF7A4FDE0
:103C20006168D8F804004246401AC8F80400D8F881
:103C30000830984200D29060D8F80C000143002070
:103C4000C4E9000101F0C6F9700705D04FF496727F
:103C500004A10EA0FFF7D4F83046BDE8F0810000C3
:103C6000B80000202E2E5C2E2E5C467265655254E4
:103C70004F535C706F72745C4D656D4D616E675C27
:103C8000686561705F342E63000000004572726FDA
:103C9000723A25732C25640D0A00000010B5031F2D
:103CA0004FF080741C601B1F21F001011960191F67
:103CB000044B0B6014390A60091F6FF0020244388C
:103CC0000A6010BD7D3A0008D0E9013201699A60AE
:103CD000D0E901235A604A68824201D182684A6071
:103CE000002202610868401E0860704704490868A5
:103CF0000A688069D26A0968C2F120028A61704745
:103D00006800002000F0C2BB00F108014FF0FF3254
:103D1000C0E90112C160016100210160704700210A
:103D20000161704730B50C68621C02D000F10802D6
:103D300002E0026904E01A4653681D68A542FAD9F8
:103D400053684B6099608A60516008610168491C42
:103D5000016030BD42684A6093688B609368596027
:103D6000916008610168491C01607047502080F330
:103D70001188BFF34F8FBFF36F8F09494868401C0C
:103D8000486001280AD10748006810F0FF0F05D0ED
:103D900040F2B91204A10FA0FFF732B8704700003B
:103DA000D000002004ED00E02E2E5C2E2E5C46722A
:103DB000656552544F535C706F72745C5256445335
:103DC0005C41524D5F434D34465C706F72742E639C
:103DD000000000004572726F723A25732C25640D45
:103DE0000A00000010B5084C606828B94FF4E07272
:103DF00006A111A0FFF704F86068401E606001D1C1
:103E000080F3118810BD0000D00000202E2E5C2E03
:103E10002E5C4672656552544F535C706F72745CD1
:103E2000525644535C41524D5F434D34465C706F73
:103E300072742E63000000004572726F723A25732F
:103E40002C25640D0A00000070B500282AD0164DFC
:103E5000A0F108046068E968084205D14FF4A07237
:103E600012A11CA0FEF7CCFF206828B140F241123D
:103E70000EA118A0FEF7C4FF6068E968084211D0DF
:103E80002268002A0ED18843606000F071FA6068F1
:103E90006968084468602046FFF766FCBDE870402A
:103EA00001F098B870BD0000B80000202E2E5C2EE6
:103EB0002E5C4672656552544F535C706F72745C31
:103EC0004D656D4D616E675C686561705F342E6332
:103ED000000000004572726F723A25732C25640D44
:103EE0000A00000006484FF47A710068B0FBF1F157
:103EF0004FF0E020491E4161072101617047000039
:103F00000000002010B5FCF7B5F9104C10280CD3B8
:103F100000F1E02090F8F0032178884205D24FF4B8
:103F200040720BA115A0FEF76BFF18480068A1684E
:103F300000F4E060884207D9BDE810404FF44472B5
:103F400003A10EA0FEF75CBF10BD0000D000002052
:103F50002E2E5C2E2E5C4672656552544F535C705B
:103F60006F72745C525644535C41524D5F434D3402
:103F7000465C706F72742E63000000004572726FB1
:103F8000723A25732C25640D0A0000000CED00E048
:103F900010B5074B002253F832401CB1521C0A2ABC
:103FA000F9D310BD43F8321003EBC201486010BDD5
:103FB000E010002070B515460E460446FFF7D6FE09
:103FC00094F944100020491C01D184F8440094F96C
:103FD0004510491C01D184F84500FFF703FFA06B91
:103FE00028B92A46314604F1240000F0DDF82046C5
:103FF000BDE87040FFF792BD10B5040012D00E4925
:10400000096B29B140F2CF420CA113A0FEF7F8FED4
:1040100000F0AEF900212046FFF7D4F900F0DAFFF6
:10402000002807D110494FF080500860BFF34F8F30
:10403000BFF36F8F10BD0000680000202E2E5C2E95
:104040002E5C4672656552544F535C7372635C74A8
:1040500061736B732E6300004572726F723A257341
:104060002C25640D0A00000004ED00E070B5044644
:10407000FFF77CFE234D04B92C68201DFFF724FEBA
:1040800058B9E06A204A00EB800152F8211021B9AA
:1040900001218140286988432861A06A18B104F190
:1040A0001800FFF711FE686A401C686228688442A5
:1040B00007D1211D1548FFF74DFE6868401C686058
:1040C00007E0A868401EA8602046FFF7ADFAFFF79A
:1040D0007BFCFFF787FE6869002812D028688442BD
:1040E0000FD1286B28B140F2654209A10FA0FEF75D
:1040F00087FE12494FF080500860BFF34F8FBFF327
:104100006F8F70BD6800002030110020EC1300207C
:104110002E2E5C2E2E5C4672656552544F535C7396
:1041200072635C7461736B732E6300004572726F0F
:10413000723A25732C25640D0A00000004ED00E09E
:1041400001490120C86170476800002070B50D4624
:10415000040005D140F6063207A10EA0FEF750FE7E
:104160001048016820461831FFF7DCFD2846BDE8FD
:1041700070400121FFF726B92E2E5C2E2E5C467270
:10418000656552544F535C7372635C7461736B73F7
:104190002E6300004572726F723A25732C25640DF0
:1041A0000A0000006800002070B514460E460500A5
:1041B00005D140F6313209A10FA0FEF721FE1248C9
:1041C000016828461831FFF7C5FD0CB14FF0FF36E6
:1041D00021463046BDE87040FFF7F4B82E2E5C2E25
:1041E0002E5C4672656552544F535C7372635C7407
:1041F00061736B732E6300004572726F723A2573A0
:104200002C25640D0A000000680000202DE9F04113
:1042100017460E46050005D140F617320DA114A031
:10422000FEF7EEFD164C206B28B940F61B3209A1B3
:104230000FA0FEF7E5FD216846F000408861216887
:1042400028461831FFF786FD3846BDE8F0410121C8
:10425000FFF7B8B82E2E5C2E2E5C46726565525460
:104260004F535C7372635C7461736B732E630000F5
:104270004572726F723A25732C25640D0A00000096
:104280006800002010B5040005D140F6C13205A138
:104290000BA0FEF7B5FD0E48016A2160C0686060A2
:1042A00010BD00002E2E5C2E2E5C467265655254A9
:1042B0004F535C7372635C7461736B732E630000A5
:1042C0004572726F723A25732C25640D0A00000046
:1042D000680000201CB517480024CDE900402346A3
:1042E000802215A1164800F01DFD012803D100F021
:1042F00023FF01280AD0401C1BD102B040F2847277
:10430000BDE810400FA116A0FEF77ABD502080F343
:104310001188BFF34F8FBFF36F8F06484FF0FF3107
:104320002C38816201214161C460BDE81C4000F06D
:104330009DB91CBD9400002049444C45000000007C
:10434000893600082E2E5C2E2E5C4672656552540E
:104350004F535C7372635C7461736B732E63000004
:104360004572726F723A25732C25640D0A000000A5
:104370000248016B491C016370470000680000207F
:1043800070B5134D286B10B10120E86170BD00209D
:10439000E86128690F4EB0FA80F0C0F11F0000EB11
:1043A000800456F8240028B940F6F6220AA111A08C
:1043B000FEF726FD06EB840000F10802416849681B
:1043C0004160914201D149684160C868286070BD70
:1043D00068000020301100202E2E5C2E2E5C4672CC
:1043E000656552544F535C7372635C7461736B7395
:1043F0002E6300004572726F723A25732C25640D8E
:104400000A00000070B50E46040005D140F2DF122C
:104410000AA113A0FEF7F4FC300E05D04FF4F072A1
:1044200006A10FA0FEF7ECFCFFF7A0FC256825EA2B
:1044300006002060FFF7D6FC284670BD2E2E5C2EAD
:104440002E5C4672656552544F535C7372635C65B3
:1044500076656E745F67726F7570732E630000000F
:104460004572726F723A25732C25640D0A000000A4
:1044700010B51820FFF788FB040004D0002020604E
:10448000201DFFF741FC204610BD00002DE9F04142
:1044900000258846040005D140F21D221CA125A05C
:1044A000FEF7AEFC5FEA186005D040F21E2218A1AC
:1044B00020A0FEF7A5FC261D04F10C07FFF758FF0E
:1044C0002168F06841EA0801216017E0D0E9001690
:1044D00001F07F425301236821F07F4102D40B4257
:1044E00003D10AE031EA030307D1D20100D50D431D
:1044F000216841F0007100F01DFD3046B842E5D161
:104500002068A843206000F065FD2068BDE8F081C8
:104510002E2E5C2E2E5C4672656552544F535C7392
:1045200072635C6576656E745F67726F7570732E0B
:10453000630000004572726F723A25732C25640D7A
:104540000A0000002DE9F047089F9A4691460D4663
:1045500004004FF0000605D140F24D1235A13EA0F7
:10456000FEF74EFC280E05D04FF4A77231A13AA0F9
:10457000FEF746FC2DB940F24F122EA136A0FEF7F1
:104580003FFC00F0FBFB30B92FB14FF4A97229A119
:1045900031A0FEF735FCFFF7EBFED4F80080524661
:1045A00029464046FFF79CFA40B100274646B9F13C
:1045B000000F15D02068A843206011E0AFB1B9F119
:1045C000000F01D04FF08076BAF1000F01D046F015
:1045D000806645EA06013A46201DFFF717FE0026D1
:1045E00000F0F8FC1FB310B109E04646F8E71E4999
:1045F0004FF080500860BFF34F8FBFF36F8FFFF70E
:1046000075FB0646800110D4FFF7B0FB26685246C2
:1046100029463046FFF764FA28B1B9F1000F02D0FD
:104620002068A8432060FFF7DDFB26F07F46304678
:10463000BDE8F0872E2E5C2E2E5C467265655254C6
:104640004F535C7372635C6576656E745F67726FFF
:104650007570732E630000004572726F723A257395
:104660002C25640D0A00000004ED00E01CB5304C60
:1046700020683049884205D140F259122EA139A054
:10468000FEF7BEFB20682B49491E884205D14FF436
:10469000AD7229A133A0FEF7B3FB364C2078019010
:1046A000FF20207020788DF800009DF800009DF814
:1046B000001000F0F000884205D040F273121EA1F5
:1046C00028A0FEF79DFB9DF800002B4A00F050004B
:1046D00010700720906007E09068401E90609DF881
:1046E000000040008DF800009DF800000006F3D4A3
:1046F000107A000200F4E0609060019820700C488D
:104700002030016841F470010160016841F070419E
:104710000160FFF7E7FB00205060FBF773FD1748CF
:10472000016841F040410160FBF75CFD00201CBDC9
:1047300000ED00E071C20F412E2E5C2E2E5C467201
:10474000656552544F535C706F72745C525644539B
:104750005C41524D5F434D34465C706F72742E6302
:10476000000000004572726F723A25732C25640DAB
:104770000A00000000E400E0D000002034EF00E078
:1047800010B5502080F31188BFF34F8FBFF36F8FA8
:1047900000F008FB18B104494FF080500860002079
:1047A00080F3118810BD000004ED00E070B50E46E6
:1047B000050005D14FF4C4720DA114A0FEF720FB33
:1047C00096B105FB06F04830FFF7DEF9040009D08A
:1047D00004F1480120464EB10160C0E90F560121A5
:1047E00000F0D4F8204670BD0020ECE70060F4E74C
:1047F0002E2E5C2E2E5C4672656552544F535C73B0
:1048000072635C71756575652E6300004572726F29
:10481000723A25732C25640D0A0000002DE9FF4F24
:1048200083B09B468A4604004FF0000605D140F253
:10483000DC424AA150A0FEF7E3FABAF1000F07D11B
:10484000206C28B140F2DD4244A14BA0FEF7D8FA1B
:1048500000F094FA38B9059828B14FF49C623FA152
:1048600045A0FEF7CDFA4FF000094FF08057DFF872
:104870001881FFF77BFAA56B1DB351462046E66809
:10488000FEF792FEBBF1000F13D0E660606A50B1F4
:1048900004F1240000F0FEFA28B1C8F80070BFF35C
:1048A0004F8FBFF36F8FFFF79DFA012007B0BDE870
:1048B000F08F6D1EA56320690028F4D004F110006C
:1048C000E8E7059808B11EB106E0FFF78BFA27E08C
:1048D0006846FFF7D7FC0126FFF784FAFFF748FD8B
:1048E000FFF744FA94F94400401C01D184F8449045
:1048F00094F94500401C01D184F84590FFF772FA05
:1049000005A9684600F0C6F9002820460AD0FFF73E
:1049100005F900F05FFB2046FEF768FF0028A8D0ED
:104920000020C3E7FEF762FF90B104F1240005996F
:10493000FFF70CFC2046FFF7F1F800F04BFB0028D6
:1049400097D1C8F80070BFF34F8FBFF36F8F90E718
:104950002046FFF7E3F800F03DFB8AE72E2E5C2EA1
:104960002E5C4672656552544F535C7372635C7182
:10497000756575652E6300004572726F723A257316
:104980002C25640D0A00000004ED00E070B50D4612
:10499000040005D140F21B121CA123A0FEF730FA3F
:1049A000FFF7E4F9D4E90F20216802FB00116160F0
:1049B0000021A1632168A1600A46D4E90F01401ECD
:1049C00000FB0121E16021464FF0FF3001F8440F68
:1049D000487004F110004DB1FFF796F904F124007E
:1049E000FFF792F9FFF7FEF9012070BD2169002958
:1049F000F8D000F04FFA0028F4D00F494FF0805063
:104A00000860BFF34F8FBFF36F8FEBE72E2E5C2E46
:104A10002E5C4672656552544F535C7372635C71D1
:104A2000756575652E6300004572726F723A257365
:104A30002C25640D0A00000004ED00E02DE9FF4F75
:104A400083B01F468B4604004FF0000605D140F2AC
:104A5000D9224DA153A0FEF7D3F9BBF1000F07D126
:104A6000206C28B140F2DA2247A14EA0FEF7C8F927
:104A7000022F08D1E06B012805D040F2DB2242A1D1
:104A800048A0FEF7BDF900F079F938B9059828B1CA
:104A900040F2DE223CA143A0FEF7B2F94FF0000A3B
:104AA0004FF08058DFF80C91FFF760F9A06BE16BD5
:104AB000884205D3022F03D00598C8B1DEB11EE0AD
:104AC0003A4659462046FEF782FD616A19B104F163
:104AD000240000F0DFF928B1C9F80080BFF34F8F40
:104AE000BFF36F8FFFF77EF9012007B0BDE8F08FAD
:104AF000FFF778F921E06846FFF7C4FB0126FFF7CE
:104B000071F9FFF735FCFFF731F994F94400401CC7
:104B100001D184F844A094F94500401C01D184F8E7
:104B200045A0FFF75FF905A9684600F0B3F830B17A
:104B30002046FEF7F3FF00F04DFA0020D5E7FFF71F
:104B400015F9A06BE16B884201D1012500E0002539
:104B5000FFF748F995B104F110000599FFF7F6FA4F
:104B60002046FEF7DBFF00F035FA00289CD1C9F89B
:104B70000080BFF34F8FBFF36F8F95E72046FEF79E
:104B8000CDFF00F027FA8FE72E2E5C2E2E5C4672AA
:104B9000656552544F535C7372635C7175657565DE
:104BA0002E6300004572726F723A25732C25640DD6
:104BB0000A00000004ED00E02DE9F0471F46904692
:104BC0008946040005D140F29F3227A12DA0FEF7AF
:104BD00017F9B9F1000F07D1206C28B14FF46872B2
:104BE00021A128A0FEF70CF9022F08D1E06B0128C3
:104BF00005D040F2A1321CA122A0FEF701F9FFF777
:104C000081F95020EFF3118680F31188BFF34F8FA5
:104C1000BFF36F8FA06BE16B884206D3022F04D0E5
:104C2000002086F31188BDE8F08794F945503A4694
:104C300049462046FEF7CBFC681C04D06D1C84F866
:104C400045500120EDE7606A0028FAD004F1240005
:104C500000F020F90028F4D0B8F1000FF1D00121C4
:104C6000C8F80010EDE700002E2E5C2E2E5C467278
:104C7000656552544F535C7372635C7175657565FD
:104C80002E6300004572726F723A25732C25640DF5
:104C90000A00000070B50D46040005D140F6CB3285
:104CA00014A11BA0FEF7ACF82DB940F6CC3211A12F
:104CB00017A0FEF7A5F8FFF759F8194AD068296838
:104CC0004B1C0FD02368126A934202D06268824262
:104CD0000AD96268801A884206D2081A28602046DB
:104CE000FFF7D0FA002400E00124FFF77BF820460C
:104CF00070BD00002E2E5C2E2E5C467265655254EF
:104D00004F535C7372635C7461736B732E6300004A
:104D10004572726F723A25732C25640D0A000000EB
:104D2000680000202DE9FF5F8346DDE90E87994684
:104D300016468A469000FEF727FF05001AD04C2041
:104D4000FEF722FF040012D025630021CDE90241C5
:104D5000CDE900874B46324651465846FEF7A8FC3F
:104D60002046FEF767FB012004B0BDE8F09F28460F
:104D7000FFF76AF84FF0FF30F6E700000548416999
:104D800019B1006B18B10020704701207047022054
:104D900070470000680000200148C06870470000AC
:104DA000680000202DE9F0412D4F0026386B40B1FE
:104DB000B869401CB861F86900B101263046BDE809
:104DC000F081FD686D1CFD6011D1786B006828B121
:104DD00040F6D91223A12AA0FEF712F8786BB96B1E
:104DE0007963B863386A401C3862FEF7EDFDB86A33
:104DF000DFF89C80854209D3786B006880B1786BBE
:104E0000C068C468606885420DD2B8623868C06AFC
:104E100000EB800158F821000128CCD90126CAE70F
:104E20004FF0FF30F1E7201DFEF74EFFA06A18B1EA
:104E300004F11800FEF748FFE06A01213A69814059
:104E40001143396100EB800108EB8100211DFEF761
:104E500081FFE06A3968C96A8842CDD30126CBE771
:104E6000680000202E2E5C2E2E5C46726565525422
:104E70004F535C7372635C7461736B732E630000D9
:104E80004572726F723A25732C25640D0A0000007A
:104E9000301100202DE9F041C068C4682CB940F6FB
:104EA000613216A11CA0FDF7ABFF04F11800074604
:104EB000FEF70AFF1C4D286B012660B139461B48DE
:104EC000FEF748FFE06A2968C96A884213D90120C1
:104ED000EE61BDE8F081201DFEF7F6FEE06A2A696A
:104EE00006FA00F111432961114900EB800001EB42
:104EF0008000211DE4E70020EBE700002E2E5C2E51
:104F00002E5C4672656552544F535C7372635C74D9
:104F100061736B732E6300004572726F723A257372
:104F20002C25640D0A00000068000020D813002022
:104F30003011002070B51A4D06460C46286B28B972
:104F400040F6993217A11EA0FDF75AFF44F0004029
:104F50003060F4682CB940F6A13212A118A0FDF718
:104F60004FFF3046FEF7B0FE201DFEF7ADFEE06AB3
:104F700001262A6906FA00F111432961144900EB60
:104F8000800001EB8000211DFEF7E4FEE06A296845
:104F9000C96A884202D90120EE6170BD002070BD4F
:104FA000680000202E2E5C2E2E5C467265655254E1
:104FB0004F535C7372635C7461736B732E63000098
:104FC0004572726F723A25732C25640D0A00000039
:104FD000301100202DE9F0472B4D00242746286B87
:104FE00028B94FF4FD6229A12FA0FDF709FFFEF7B4
:104FF000BDFE286B401E2863286BE8BBA8682E49BD
:105000000126C8B3A1F52A798846D8F80010E9B17D
:10501000D8F80C00C46804F11800FEF755FE201DF6
:10502000FEF752FEE06A2A6906FA00F1114329618F
:1050300000EB800109EB8100211DFEF78BFEE06A89
:105040002968C96A8842E0D3EE61DEE70CB1FEF759
:10505000BBFCAC693CB1FFF7A5FE00B1EE61641E7C
:10506000F9D10020A861E86930B114490127380757
:105070000860BFF34F8F00E001E0BFF36F8FFEF7D2
:10508000B1FE3846BDE8F087680000202E2E5C2E69
:105090002E5C4672656552544F535C7372635C7448
:1050A00061736B732E6300004572726F723A2573E1
:1050B0002C25640D0A000000D813002004ED00E048
:1050C0002DE9F0470746994616460D462820DDF89B
:1050D00020A0FEF759FD040014D0B8464F46D14633
:1050E0002DB94FF4C67209A10FA0FDF789FEFEF796
:1050F00009FA04F11801C4F8008081E8E002201DDB
:10510000FEF70DFE2046BDE8F08700002E2E5C2E37
:105110002E5C4672656552544F535C7372635C74C7
:10512000696D6572732E63004572726F723A2573F2
:105130002C25640D0A0000001CB50024FEF7E2F9DE
:105140000C48006868B10B491F20091DCDE900011A
:1051500000234FF4807208A10948FFF7E3FD040023
:1051600005D140F2331207A10DA0FDF749FE2046FC
:105170001CBD0000A4000020546D72205376630013
:10518000F53A00082E2E5C2E2E5C46726565525450
:105190004F535C7372635C74696D6572732E630048
:1051A0004572726F723A25732C25640D0A00000057
:1051B0002DE9FF47DDF830A0994690460D460600E0
:1051C0004FF0000705D14FF4D37212A118A0FDF7DC
:1051D00017FE1B4C206880B1CDE900580296062DC1
:1051E00011DAFFF7CBFD02284FF0000309D00022AF
:1051F00069462068FFF722FC074604B03846BDE840
:10520000F0875246F4E700234A466946FFF7D4FC8C
:10521000F2E700002E2E5C2E2E5C4672656552541D
:105220004F535C7372635C74696D6572732E6300B7
:105230004572726F723A25732C25640D0A000000C6
:10524000A40000207FB56FF0010401AE009486E851
:10525000070005481D4600232A4669460068FFF7F7
:10526000ABFC04B070BD0000A400002000000000F2
:10527000000000000000000000000000000000002E
:10528000000000000000000000000000000000001E
:10529000000000000000000000000000000080018D
:1052A00080018001800180018001800180018001F6
:1052B00080018001800180010000000080018001E8
:1052C00000000000000000000000000000000000DE
:1052D000CC00CC00CC00CC00CC00CC000000000006
:1052E00000000000000000000000000000000000BE
:1052F00000000000000000000000000000000000AE
:105300000000000000000000600C600C600C300623
:105310003006FE1FFE1F300638071803FE1FFE1F53
:10532000180318038C018C018C0100000000800020
:10533000E003F80F9C0E8C1C8C188C009800F80170
:10534000E007800E801C8C188C189C18B80CF00F8D
:10535000E00380008000000000000000000000006A
:1053600000000E181B0C110C11061106110311037D
:105370009B018E01C038C06C6044604430443044AE
:105380001844186C0C380000000000000000E00118
:10539000F0033807180618063003F001F000F80093
:1053A0009C310E33061E061C061C063FFC73F021C2
:1053B00000000000000000000000000000000000ED
:1053C0000C000C000C000C000C000C000000000095
:1053D00000000000000000000000000000000000CD
:1053E00000000000000000000000000000000002BB
:1053F00000038001C000C000600060003000300089
:1054000030003000300030003000300060006000BC
:10541000C000C00080010003000200000000200066
:105420006000C00080018001000300030006000648
:105430000006000600060006000600060003000342
:1054400080018001C000600020000000000000001A
:105450000000000000000000C000C000D806F807EF
:10546000E0013003380700000000000000000000E9
:10547000000000000000000000000000000000002C
:105480000000000000000000800180018001800118
:105490008001FC3FFC3F8001800180018001800190
:1054A00000000000000000000000000000000000FC
:1054B00000000000000000000000000000000000EC
:1054C000000000000000000000000000000080015B
:1054D00080010001000180000000000000000000C9
:1054E00000000000000000000000000000000000BC
:1054F00000000000E007E0070000000000000000DE
:10550000000000000000000000000000000000009B
:10551000000000000000000000000000000000008B
:105520000000000000000000000000000000C000BB
:10553000C000000000000000000000000000000C9F
:10554000000C0006000600060003000300038003B1
:10555000800180018001C000C000C00060006000C8
:105560000000000000000000000000000000E00358
:10557000F007380E180C0C180C180C180C180C1816
:105580000C180C180C180C18180C380EF007E00347
:10559000000000000000000000000000000000010A
:1055A0008001C001F0019801880180018001800123
:1055B00080018001800180018001800180018001E3
:1055C0000000000000000000000000000000E003F8
:1055D000F80F180C0C180C1800180018000C000616
:1055E00000038001C000600030001800FC1FFC1F99
:1055F0000000000000000000000000000000E001CA
:10560000F807180E0C0C0C0C000C0006C003C007A9
:10561000000C001800180C180C18180CF807E00300
:105620000000000000000000000000000000000C6E
:10563000000E000F000F800DC00C600C600C300CD1
:10564000180C0C0CFC3FFC3F000C000C000C000C78
:105650000000000000000000000000000000F80F43
:10566000F80F180018000C00EC03FC071C0E001CBF
:105670000018001800180C181C0C180EF807E0038E
:105680000000000000000000000000000000C00753
:10569000F00F381C181818000C00CC03EC0F3C0E4F
:1056A0001C1C0C180C180C18181C380EF007E00302
:1056B0000000000000000000000000000000FC1FCF
:1056C000FC1F000C00060006000380038001C001DF
:1056D000C000E0006000600070003000300030006A
:1056E0000000000000000000000000000000E003D7
:1056F000F007380E180C180C180C3806F007F007D5
:10570000180C0C180C180C180C18380CF80FE003B7
:105710000000000000000000000000000000E003A6
:10572000F007380E1C0C0C180C180C181C1C381E1A
:10573000F81BE0190018000C000C1C0EF807F00113
:105740000000000000000000000000000000000059
:105750000000000000000000800180010000000047
:105760000000000000000000000000008001800137
:105770000000000000000000000000000000000029
:105780000000000000000000800180010000000017
:105790000000000000000000000000008001800107
:1057A0000001000180000000000000000000000077
:1057B0000000000000000000000000000010001CBD
:1057C000800FE003F8001800F800E003800F001CD1
:1057D00000100000000000000000000000000000B9
:1057E000000000000000000000000000F81F0000A2
:1057F00000000000F81F0000000000000000000092
:105800000000000000000000000000000000000098
:105810000000000000000000000000000800380048
:10582000F001C007001F0018001FC007F00138007A
:105830000800000000000000000000000000E0037D
:10584000F80F180C0C180C180018000C00060003B8
:105850008001C000C000C00000000000C000C00007
:105860000000000000000000000000000000000038
:10587000E00718180420C229224A114409440944A7
:10588000094409221113E20C024004201818E00711
:105890000000000000000000000000000000800385
:1058A0008003C006C006C006600C600C30183018BB
:1058B0003018F83FF83F1C700C600C6006C006C042
:1058C0000000000000000000000000000000FC03D9
:1058D000FC0F0C0C0C180C180C180C0CFC07FC0F13
:1058E0000C180C300C300C300C300C18FC1FFC0762
:1058F0000000000000000000000000000000C007E1
:10590000F01F38381C300C700660060006000600D8
:1059100006000600060006600C701C30F01FE00751
:105920000000000000000000000000000000FE0376
:10593000FE0F060E06180618063006300630063032
:1059400006300630063006180618060EFE0FFE0357
:105950000000000000000000000000000000FC3F0C
:10596000FC3F0C000C000C000C000C00FC1FFC1F8A
:105970000C000C000C000C000C000C00FC3FFC3F69
:105980000000000000000000000000000000F83FE0
:10599000F83F18001800180018001800F81FF81F2A
:1059A0001800180018001800180018001800180037
:1059B0000000000000000000000000000000E00FF8
:1059C000F83F3C780E6006E007C00300030003FECA
:1059D00003FE03C007C006C00EC03CF0F83FE00F56
:1059E00000000000000000000000000000000C307B
:1059F0000C300C300C300C300C300C30FC3FFC3FC9
:105A00000C300C300C300C300C300C300C300C30B6
:105A10000000000000000000000000000000800105
:105A2000800180018001800180018001800180016E
:105A3000800180018001800180018001800180015E
:105A40000000000000000000000000000000000650
:105A50000006000600060006000600060006000616
:105A6000000600060006180618063807F003E001D5
:105A700000000000000000000000000000000630F0
:105A80000618060C060606038601C60066007600A8
:105A9000DE008E0106030606060C061806300660B8
:105AA00000000000000000000000000000001800DE
:105AB0001800180018001800180018001800180026
:105AC000180018001800180018001800F81FF81F18
:105AD00000000000000000000000000000000EE0D8
