:020000040800F2
:10000000889700207D020008390B0008A30500082E
:1000100079060008350400080510000800000000FB
:10002000000000000000000000000000C501000802
:100030003704000800000000190200088D0E0008B7
:10004000970200089702000897020008970200082C
:10005000970200089702000897020008970200081C
:10006000970200089702000897020008970200080C
:1000700097020008970200089702000897020008FC
:1000800097020008970200089702000897020008EC
:1000900097020008970200089702000897020008DC
:1000A00097020008970200089702000897020008CC
:1000B00097020008970200089702000897020008BC
:1000C00097020008970200089702000897020008AC
:1000D000970200089702000897020008970200089C
:1000E000970200089702000897020008970200088C
:1000F000970200089702000897020008970200087C
:10010000970200089702000897020008970200086B
:10011000970200089702000897020008970200085B
:10012000970200089702000897020008970200084B
:10013000970200089702000897020008970200083B
:10014000970200089702000897020008970200082B
:10015000970200089702000897020008970200081B
:10016000970200089702000897020008970200080B
:1001700097020008970200089702000897020008FB
:1001800097020008970200089702000897020008EB
:1001900097020008970200089702000897020008DB
:1001A000970200089702000897020008DFF810D0B5
:1001B00000F0A8F800480047C5140008AFF300801D
:1001C000889700202A4B19680868B0E8F04F80F340
:1001D0000988BFF36F8F4FF0000080F311887047DC
:1001E0000000000006480068006880F3088862B6D6
:1001F00061B6BFF34F8FBFF36F8F00DF00BF00BF4B
:1002000008ED00E0DFF80C00016841F470010160C6
:10021000704700BF88ED00E0EFF30980BFF36F8FF8
:10022000134B1A681EF0100F08BF20ED108A20E94A
:10023000F04F106008B44FF0500080F31188BFF306
:100240004F8FBFF36F8F01F069FE4FF0000080F316
:10025000118808BC19680868B0E8F04F1EF0100F4C
:1002600008BFB0EC108A80F30988BFF36F8F704726
:100270003C000020EFF305807047000006488047EF
:1002800006480047FEE7FEE7FEE7FEE7FEE7FEE77B
:10029000FEE7FEE7FEE7FEE7A10E0008AD0100085D
:1002A0002DE9F05F0546002092469B4688460646AB
:1002B000814640241BE0284641464746224600F03E
:1002C00042F853465A46C01A914110D31146184677
:1002D000224600F029F82D1A67EB01084F46224606
:1002E0000120002100F020F817EB00094E41201EEC
:1002F000A4F10104DFDC484631462A464346BDE806
:10030000F09F0000064C074D06E0E06840F0010356
:1003100094E8070098471034AC42F6D3FFF74AFF41
:1003200080230008A0230008202A04DB203A00FADA
:1003300002F1002070479140C2F1200320FA03F33C
:10034000194390407047202A04DB203A21FA02F03A
:100350000021704721FA02F3D040C2F120029140FF
:1003600008431946704700001CB501F015FC022037
:1003700014490402CDE900010023224612A11548C8
:1003800001F0B4FE012802D113A000F03DFE0D499A
:100390000320091DCDE900010023224613A11648C0
:1003A00001F0A4FE01280BD014A000F02DFE05489A
:1003B000001F006801F0F6FCBDE81C4001F028BCFD
:1003C00016A0F2E7280000204C45445F5461736B8F
:1003D000000000005D0600084C45445F5461736BEB
:1003E00020637265617465642E0D0A004D656D6F42
:1003F00072795F5461736B007D0600084D656D6F07
:1004000072795F5461736B206372656174696F6E9A
:10041000206661696C6564210D0A00004D656D6F91
:1004200072795F5461736B20637265617465642EC9
:100430000D0A0000FEE77047F0B5012187B00846BD
:1004400000F05AFC0121102000F062FC012500247C
:100450008DF806408DF8075002266802254F8DF86A
:10046000056000908DF804606946384600F046F853
:10047000A80200908DF804606946384600F03EF806
:1004800007220A21384600F075F80722092138466C
:1004900000F070F84FF4E130ADF80C400290ADF888
:1004A0000E40ADF81040ADF814400C20124CADF8E1
:1004B000120002A9204600F04BFD4FF4A06000F0AE
:1004C0006FFB25208DF818008DF819508DF81A5003
:1004D0008DF81B5006A800F031FB012240F2255197
:1004E000204600F01CFD0121204600F007FD07B06A
:1004F000F0BD00000000024000100140F0B50022F5
:1005000001274FF0030C0B6807FA02F52B40AB42B2
:100510002CD1066853000CFA03F4A64306600E794A
:10052000D0F800E09E4046EA0E0606600E79012EE5
:1005300001D0022E12D18668A64386604E79D0F88B
:1005400008E09E4046EA0E0686604668AE43466076
:1005500045688E799640B6B235434560C568A54377
:10056000C560CC799C40C3681C43C460521C102AEF
:10057000C9D3F0BD4B07DB0E9A40C90810B500EB9C
:100580008100016A0F249C40A1430162016A11436A
:10059000016210BD0246002012690A4200D001200B
:1005A0007047FEE71CB50121052000F0A5FB0120E6
:1005B000009000208DF80400074C8DF80700694674
:1005C0002046FFF79BFF4FF40051009169462046FB
:1005D000FFF794FF1CBD00000008024070B50C46F8
:1005E0000546FFF7D7FF012801D0002070BD214646
:1005F0002846FFF7CFFF0128F9D0012070BD000089
:100600002DE9FC410121802000F076FB01208DF8CE
:10061000040000218DF806108DF807000E4F4FF4EE
:1006200080648DF80510009469463846FFF766FF30
:100630006500694638460095FFF760FFA6006946E9
:1006400038460096FFF75AFF0348183004800580AB
:100650000680BDE8FC810000001C0240054C4FF400
:100660007A75206880F480612160284601F060FB83
:10067000F7E70000141C0240FEE700000024DFF84A
:100680005C81DFF85CA1574D4FF4005926460121EB
:100690004046FFF7A3FF012869D153A000F0B4FC46
:1006A0002CB1022C2DD0042C5AD05AA026E001F0F7
:1006B00077FC014662A000F0A7FC0C2169A000F0C5
:1006C000A3FC4FF44057384601F082F9E8600C2152
:1006D0006DA000F099FC384601F07AF92861E968CC
:1006E00059B150B171A000F08FFC002000F062FA07
:1006F00075A000F089FC012439E07DA000F084FCA5
:1007000035E001F04DFC014684A000F07DFC0F2196
:100710008FA000F079FC4FF4705001F059F9E860B7
:1007200078B102460F2194A000F06EFC022000F088
:1007300041FA9E4800F068FCE86801F09BFAEE6020
:1007400009E00F219AA000F05FFC022000F032FACD
:10075000A0A000F059FCAEA000F056FC032406E077
:10076000B8A000F051FCC2A000F04EFC00244946A5
:100770005046FFF733FF01282CD1C9A000F044FCFC
:10078000012C02D0032C13D021E02869F8B10C21F0
:10079000CDA000F039FC286901F06CFA01202E612F
:1007A00000F008FA0F21D2A000F02EFC022411E084
:1007B000E86810B101F05EFAEE60286910B101F04E
:1007C00059FA2E61032000F0F5F9042402E0D3A0C9
:1007D00000F01AFC142001F0ABFA58E700000240C8
:1007E00000080240240000200D0A3E3E3E204B45FA
:1007F000593120507265737365643A20416C6C6F97
:1008000063617465206D656D6F7279203C3C3C0DB1
:100810000A0000005B48696E745D20506C6561736E
:100820006520666F6C6C6F7720746865206F7065EB
:10083000726174696F6E206F726465722E0D0A00AA
:100840005B537461676520305D20496E697469612E
:100850006C20667265653A20256420627974657340
:100860000D0A00005B537461676520305D20416CA8
:100870006C6F6320546573745F50747231203D2037
:1008800025644B420D0A00005B537461676520309C
:100890005D20416C6C6F6320546573745F5074729B
:1008A00032203D2025644B420D0A00002020426F7B
:1008B000746820626C6F636B7320616C6C6F636132
:1008C0007465642E0D0A00002D2D2D205072657365
:1008D00073204B45593220746F2066726565205431
:1008E0006573745F50747232202D2D2D0D0A000037
:1008F0002020416C6C6F636174696F6E2066616962
:100900006C65642120506C656173652061646A7553
:1009100073742073697A65732E0D0A005B537461DA
:10092000676520325D204166746572206672656578
:10093000696E6720546573745F507472322C206640
:100940007265653A2025642062797465730D0A002A
:100950005B537461676520325D20547279696E67FC
:1009600020746F20616C6C6F636174652025644B2B
:10097000422E2E2E0D0A00005B53746167652032F3
:100980005D2025644B4220616C6C6F636174696FFC
:100990006E20737563636573732120616464723ABA
:1009A000203078253038580D0A0000003C2300081C
:1009B0005B537461676520325D2025644B42206182
:1009C0006C6C6F636174696F6E206661696C6564DD
:1009D000210D0A003E3E3E20436F6E636C757369C5
:1009E0006F6E3A204E6F206D65726765206F6620CE
:1009F0006672656520626C6F636B73202868656141
:100A00007032206265686176696F72290D0A000094
:100A10002D2D2D205072657373204B455932207453
:100A20006F2072656C656173652072656D61696EBA
:100A3000696E67206D656D6F7279202D2D2D0D0A01
:100A4000000000003D3D3D3D3D3D3D3D3D3D2045DF
:100A500078706572696D656E7420436F6D706C653A
:100A60007465203D3D3D3D3D3D3D3D3D3D0D0A0014
:100A7000537769746368206865617020736F75725D
:100A8000636520616E64207265636F6D70696C656B
:100A900020746F20636F6D706172652E0D0A000007
:100AA0000D0A3E3E3E204B4559322050726573730D
:100AB00065643A2046726565206D656D6F727920B8
:100AC0003C3C3C0D0A0000005B53746167652031BB
:100AD0005D2046726565696E6720546573745F506A
:100AE000747232202825644B42290D0A0000000050
:100AF0002D2D2D205072657373204B455931207474
:100B00006F2074727920616C6C6F636174696E67B9
:100B10002025644B42202D2D2D0D0A005B48696E67
:100B2000745D204E6F206D656D6F727920746F203B
:100B3000667265652E0D0A007047000030B50F2300
:100B4000C27801780125FAB1144A126801F1E02156
:100B500002F4E062C2F5E062C2F30722C2F10404CB
:100B6000D3404278A24084781C401443220181F88B
:100B70000024007800F01F018D404009800000F142
:100B8000E020C0F8005130BD01F01F008540480949
:100B9000800000F1E020C0F8805130BD0CED00E095
:100BA0000249084302490860704700000000FA0546
:100BB0000CED00E010B501461AA000F025FA244C17
:100BC000E06808B123A100E025A127A000F01CFAED
:100BD000E16811B129A000F017FA206908B11DA140
:100BE00000E01FA12AA000F00FFA216911B123A093
:100BF00000F00AFA606908B116A100E018A129A066
:100C000000F002FA616911B11CA000F0FDF901F0D9
:100C1000C7F9014628A000F0F7F9BDE810402CA064
:100C200000F0F2B95B53746167652025645D202D87
:100C30002D2D204D656D6F727920426C6F636B2096
:100C4000537461747573202D2D2D0D0A0000000062
:100C500024000020416C6C6F6361746564000000C7
:100C60004E554C4C000000002020546573745F50BA
:100C7000747231203D2025730D0A000020202020B1
:100C8000416464723A203078253038580D0A0000EB
:100C90002020546573745F50747232203D20257398
:100CA0000D0A00002020546573745F507472332065
:100CB0003D2025730D0A00002020467265652068DE
:100CC0006561703A2025642062797465730D0A00AD
:100CD0002D2D2D2D2D2D2D2D2D2D2D2D2D2D2D2D44
:100CE0002D2D2D2D2D2D2D2D2D2D2D2D2D2D2D2D34
:100CF0002D2D2D2D0D0A0000044A0029116801D068
:100D0000014300E081431160704700003038024029
:100D1000044A0029116801D0014300E081431160B9
:100D2000704700004438024070B5204B1968204CD1
:100D300011F00C0104D01F4E042903D0082903D060
:100D400004601BE0066019E0184A121F1168C1F325
:100D50008055116801F03F0115B1B6FBF1F101E0DA
:100D6000B4FBF1F114681268C4F388146143C2F350
:100D70000142521C5200B1FBF2F1016019680F22CE
:100D800002EA11110C4A545C0168E14041601C68A0
:100D9000072505EA9424145D21FA04F484601B6895
:100DA00005EA5333D25CD140C16070BD08380240BF
:100DB0000024F40040787D01140000201CB50021BF
:100DC0002E4A00910191106840F4803010604FF479
:100DD000A043106800F4003001900098401C00907F
:100DE000019810B900989842F3D11068800342D559
:100DF0000120019021484030016841F0805101609C
:100E00001F49086840F4404008601C4808300368E7
:100E10000360036843F400430360036843F4A05392
:100E20000360041F174B2360136843F08073136043
:100E300013689B01FCD50A6842F480320A604A6854
:100E4000D203FCD50A6842F400320A604A68920371
:100E5000FCD50D4A40F205711160016821F00301D3
:100E60000160016841F0020101600168C1F3810184
:100E70000229FAD11CBD01911CBD000000380240BE
:100E800000700040195A4007003C024010B501F0C4
:100E900059F9012803D0BDE8104001F011B910BD87
:100EA000124810B5016841F47001016010480168F2
:100EB00041F0010101600E4A002108321160026810
:100EC0000C4B1A400260031D0B4A1A60026822F4A0
:100ED0008022026006480C300160FFF76FFF034973
:100EE0004FF000608039086010BD000088ED00E020
:100EF00000380240FFFFF6FE1030002400298189EF
:100F000002D041F4005101E021F400518181704789
:100F10000246002012880A4200D00120704710B516
:100F2000C1F3421301F01F040121A140012B07D09E
:100F3000022B07D01430002A026805D00A4304E0CF
:100F40000C30F8E71030F6E78A43026010BD00006D
:100F50007FB50446008A0D46C98820F440500143FD
:100F60002182A08941F20C618843A9882A89114312
:100F70006A8902431143A181A08A20F44071A889A3
:100F80000843A0826846FFF7CFFE1A48844202D089
:100F90001948844201D1039800E00298A18909040C
:100FA00000EBC00101EB0010296801D5490000E009
:100FB0008900B0FBF1F06422B0FBF2F109010B09EA
:100FC0006FF018056B4300EB8300A3891D044FF0FD
:100FD000320306D503EBC000B0FBF2F000F00700CF
:100FE00005E003EB0010B0FBF2F000F00F00084347
:100FF00020817FBD0010014000140140C1F30801B1
:1010000081807047FEE700000FB4054B10B503A9BF
:10101000044A029800F018F810BC5DF814FB0000B8
:10102000A11400089C00002002E008C8121F08C19B
:10103000002AFAD170477047002001E001C1121F59
:10104000002AFBD1704700002DE9FF4F8DB00F46FD
:101050000546002606E025280BD0DDE90F12904753
:101060006D1C761C28780028F5D111B03046BDE8FB
:10107000F08F0024A246A1460122E94900E0044382
:1010800015F8013F203B02FA03F00842F7D1287817
:101090002A2810D06FF02F022878A0F130010929FA
:1010A00014D80AEB8A0102EB410144F0020400EB80
:1010B000010A6D1CF0E701CF5FEA000A03D544F492
:1010C0000054CAF1000A44F002046D1C28782E284E
:1010D00017D115F8010F44F004042A280ED06FF040
:1010E0002F022878A0F1300109290AD809EB8901DB
:1010F00002EB410100EB01096D1CF2E757F8049B7C
:101100006D1C28786C280FD006DC4C2817D0682876
:101110000DD06A2814D104E0742810D07A280FD199
:101120000DE044F400140AE044F4801401E044F4B7
:1011300040146978814202D104F580146D1C6D1C45
:1011400028786E281ED00CDC632830D004DC002800
:101150008BD0582811D19FE0642867D069280CD122
:1011600064E073282DD004DC6F2872D0702804D17D
:1011700094E075286ED078286DD0DDE90F12904785
:10118000761C4BE1C4F30250022806D0032809D094
:10119000042801CF09D0066040E101CFF117C0E972
:1011A00000613BE101CF068038E1067036E117F8B7
:1011B000040B8DF8000000208DF80100EB460120A3
:1011C00003E057F804BB4FF0FF3061074FF0000118
:1011D00002D40DE008F10101884649450FDA804547
:1011E000F8DB1BF808100029F4D108E008F1010130
:1011F00088468142FADB1BF808100029F6D1DDE9A8
:101200000F23AAEB08008146214600F031F9304453
:1012100000EB080604E0DDE90F121BF8010B904714
:10122000B8F10108F7D221464846F2E00A21C4F39A
:1012300002524FF0000B0891022A04D001CFC117CF
:10124000032A09D00AE0FF1D27F00707F7E802018B
:1012500008E02CE01EE01FE000B2C117042A01D113
:1012600040B2C117021E71F1000206DA0023D0EB72
:10127000030063EB01012D2202E0220504D52B229D
:101280008DF82420012203E0E20701D02022F7E7B5
:10129000904653E00A210BE0102109E010214FF0A5
:1012A000000B44F004044FF00809089103E0082102
:1012B0004FF0000B0891C4F30252022A04D001CF70
:1012C0000021032A06D006E0FF1D27F00707F7E8F4
:1012D000020103E080B2042A00D1C0B24FF000083E
:1012E00022072BD52A78702A07D0DDF820C08CF091
:1012F000100C5CEA0B0C05D00EE040228DF8242087
:10130000012208E050EA010306D030238DF8243092
:101310008DF8252002229046089B83F0080353EAAB
:101320000B030BD150EA010201D1620706D530222E
:101330008DF824204FF00108A9F101092A78582AD4
:1013400004D038A20B9208AA0A920BE03AA2F9E75D
:101350005B46089AFEF7A4FF0B9B9B5C0A9A521E01
:101360000A92137050EA0102F2D10A98ADEB000024
:1013700000F1200B600702D524F4803401E04FF027
:101380000109D94502DDA9EB0B0000E0002000EBCC
:101390000B0141440890AAEB010AE00306D4DDE901
:1013A0000F232146504600F063F806444FF0000931
:1013B00008E009A911F80900DDE90F12904709F1C9
:1013C0000109761CC145F4DBE0030CD5DDE90F23F0
:1013D0002146504600F04CF8064404E0DDE90F12C7
:1013E00030209047761C0899481E08900029F5DCAB
:1013F00008E00A980A990078491C0A91DDE90F1261
:101400009047761CBBF10001ABF1010BF1DC2146EA
:101410005046DDE90F2300F019F806446D1C21E663
:1014200009280100303132333435363738396162BA
:10143000636465660000000030313233343536377E
:101440003839414243444546000000002DE9F0414F
:10145000044600251E461746880404D405E0394694
:101460002020B0476D1C641EF9D52846BDE8F081E8
:101470002DE9F041044600251E469046C80301D5DB
:10148000302700E02027880404D505E0414638468F
:10149000B0476D1C641EF9D52846BDE8F0810000F8
:1014A00070B5074D0446C1B22846FFF7A7FD80215D
:1014B0002846FFF72DFD0028F9D0204670BD00001A
:1014C000001001401CB54FF44070FFF769FBFFF7B7
:1014D00097F8FEF7B1FFFFF765F810A0FFF794FD4E
:1014E0001BA0FFF791FD26A0FFF78EFD32A0FFF7AE
:1014F0008BFD3BA0FFF788FD46490120CDE90001A7
:101500004202002344A1484800F0F0FD012802D027
:101510004FF0FF301CBD00F0AFFCFEE73D3D3D3D10
:101520003D204672656552544F53204D656D6F7274
:1015300079204D616E6167656D656E7420457870C8
:101540006572696D656E74203D3D3D3D3D0D0A003F
:101550004D6F64653A20436F6D70617265206865F8
:10156000617032207673206865617034202866725D
:1015700061676D656E74206D65726765290D0A007F
:10158000202068656170323A206E6F206D65726749
:10159000652C2068656170343A2061646A61636516
:1015A0006E74206672656520626C6F636B73206D6C
:1015B000657267650D0A00004B6579733A204B45EB
:1015C0005931202D3E20416C6C6F632020204B450B
:1015D0005932202D3E20467265650D0A000000003C
:1015E0003D3D3D3D3D3D3D3D3D3D3D3D3D3D3D3D2B
:1015F0003D3D3D3D3D3D3D3D3D3D3D3D3D3D3D3D1B
:101600003D3D3D3D3D3D3D3D3D3D3D3D3D3D3D3D0A
:101610000D0A0000240000204170705461736B4378
:101620007265617465000000690300082DE9F041EE
:10163000184E0F460446F5683068001D00F068FA41
:1016400038B9306890F82C10012088403169814306
:101650003161601C07D137B13168BDE8F0410E48F7
:10166000091D00F08DBA30682C44AC4244603168EA
:1016700005D2B06BBDE8F041091D00F069BA706B8E
:10168000091D00F065FAB06A844200D2B462BDE878
:10169000F08100003C000020700300202DE9F041A3
:1016A000054600F079FA2D4EB068401CB0603068F5
:1016B0002B4F10B1706930B32BE03560B068012852
:1016C00027D1002404EB840007EB800000F032FAFD
:1016D000641C202CF6D3234800F02CFA2148143047
:1016E00000F028FA1F48283000F024FA1D483C304A
:1016F00000F020FA1B48503000F01CFA19487063C3
:101700001430B06305E03068E96AC06A884200D8E6
:101710003560706A0121401C7062E86A326981405C
:101720001143316100EB800007EB8000291D00F0C0
:1017300027FA00F06DFA706900280CD03068E96A69
:10174000C06A884207D208494FF080500860BFF352
:101750004F8FBFF36F8FBDE8F08100003C00002089
:10176000A00000202003002004ED00E070B5124E20
:10177000124D1CE000F0CAFB306820B1002400F0DC
:1017800067FDA4B901E00124F9E700F005FAF0686B
:10179000C468201D00F0BCF9A868401EA8606868F5
:1017A000401E686000F034FA204600F009F86868CE
:1017B0000028DFD170BD00005C0300203C00002049
:1017C00010B50446006B00F055FA2046BDE8104005
:1017D00000F050BA10484FF41041420706D0C01D27
:1017E0000D4920F00700411AC1F510410B4A0023B2
:1017F0000144C2E900030839103A21F007011160E1
:101800004B600B600B1AC0E9001393604FF000406F
:101810005360D060704700008403002094000020D3
:10182000074E4FF08054074DFFF7A0FF30680128A6
:10183000FAD92C60BFF34F8FBFF36F8FF4E700002E
:10184000A000002004ED00E02DE9F047DDE9098467
:101850000E4682466FF00301206B01EB82010844C3
:10186000089D20F007079946780705D040F22B32F3
:1018700018A11FA0FFF7C8FB00202218315C82F8D6
:101880003410315C11B1401C1028F6D3002684F8C6
:101890004360202D00D31F25201DE56200F055F97F
:1018A00004F1180000F051F92461C5F120006462D0
:1018B000A061666484F848604A465146384600F0A4
:1018C00011F92060B8F1000F01D0C8F80040BDE860
:1018D000F08700002E2E5C2E2E5C467265655254F9
:1018E0004F535C7372635C7461736B732E6300009F
:1018F0004572726F723A25732C25640D0A00000040
:1019000030B5114900E011460A688242FBD34B68AA
:101910005C18844203D14068184448600846436814
:101920001C18944209D1084C103C2468A24209D0EA
:1019300052681A4442600A6812680260814200D00C
:10194000086030BD0460F9E7940000200648416B50
:10195000096829B1416BC968C968496881627047E3
:101960004FF0FF31FAE700003C00002008484068D3
:10197000401C05D040F20F1206A111A0FFF744FB56
:10198000502080F31188BFF34F8FBFF36F8FFEE7B6
:10199000780000202E2E5C2E2E5C46726565525417
:1019A0004F535C706F72745C525644535C41524D9D
:1019B0005F434D34465C706F72742E63000000000C
:1019C0004572726F723A25732C25640D0A0000006F
:1019D0002DE9F0410546002600F098FA324F3868AC
:1019E00008B9FFF7F7FEF86805424FD1002D4DD03A
:1019F000083568070BD005F00700C0F10800054462
:101A0000680704D0BF2229A132A0FFF7FDFA002DFC
:101A10003CD07868854239D823491031084604689B
:101A200001E0214604466068A84202D220680028EE
:101A3000F7D13868B846844228D00E68206808601C
:101A400060680836401B10280ED96719780704D043
:101A5000EC2216A11FA0FFF7D7FA6068401B786040
:101A600038466560FFF74CFF6168D8F804004246CD
:101A7000401AC8F80400D8F80830984200D29060A4
:101A8000D8F80C0001430020C4E9000100F0E0FB9D
:101A9000700705D04FF4967204A10EA0FFF7B4FAB8
:101AA0003046BDE8F0810000840000202E2E5C2E20
:101AB0002E5C4672656552544F535C706F72745C55
:101AC0004D656D4D616E675C686561705F342E6356
:101AD000000000004572726F723A25732C25640D68
:101AE0000A00000010B5031F4FF080741C601B1F1C
:101AF00021F001011960191F044B0B6014390A60B1
:101B0000091F6FF0020244380A6010BD6D19000809
:101B1000D0E9013201699A60D0E901235A604A682C
:101B2000824201D182684A60002202610868401E38
:101B30000860704700F108014FF0FF32C0E9011260
:101B4000C16001610021016070470021016170479F
:101B500030B50C68621C02D000F1080202E0026994
:101B600004E01A4653681D68A542FAD953684B60D1
:101B700099608A60516008610168491C016030BD4C
:101B800042684A6093688B6093685960916008610D
:101B90000168491C01607047502080F31188BFF331
:101BA0004F8FBFF36F8F09494868401C4860012878
:101BB0000AD10748006810F0FF0F05D040F2B912B3
:101BC00004A10FA0FFF720BA7047000078000020A2
:101BD00004ED00E02E2E5C2E2E5C4672656552549C
:101BE0004F535C706F72745C525644535C41524D5B
:101BF0005F434D34465C706F72742E6300000000CA
:101C00004572726F723A25732C25640D0A0000002C
:101C100010B5084C606828B94FF4E07206A111A015
:101C2000FFF7F2F96068401E606001D180F311880F
:101C300010BD0000780000202E2E5C2E2E5C467217
:101C4000656552544F535C706F72745C52564453C6
:101C50005C41524D5F434D34465C706F72742E632D
:101C6000000000004572726F723A25732C25640DD6
:101C70000A00000070B500282AD0164DA0F1080413
:101C80006068E968084205D14FF4A07212A11CA057
:101C9000FFF7BAF9206828B140F241120EA118A04E
:101CA000FFF7B2F96068E968084211D02268002A9B
:101CB0000ED18843606000F029F9606869680844C3
:101CC00068602046FFF71CFEBDE8704000F0C0BA17
:101CD00070BD0000840000202E2E5C2E2E5C46720B
:101CE000656552544F535C706F72745C4D656D4DF9
:101CF000616E675C686561705F342E630000000090
:101D00004572726F723A25732C25640D0A0000002B
:101D100006484FF47A710068B0FBF1F14FF0E02013
:101D2000491E416107210161704700000000002049
:101D300010B5040012D00E49096B29B140F2CF4210
:101D40000CA113A0FFF760F900F0E0F80021204695
:101D5000FFF76CFC00F07CFA002807D110494FF027
:101D600080500860BFF34F8FBFF36F8F10BD00002E
:101D70003C0000202E2E5C2E2E5C4672656552546F
:101D80004F535C7372635C7461736B732E630000FA
:101D90004572726F723A25732C25640D0A0000009B
:101DA00004ED00E070B50446FFF7F6FE234D04B9DC
:101DB0002C68201DFFF7ACFE58B9E06A204A00EB02
:101DC000800152F8211021B90121814028698843FE
:101DD0002861A06A18B104F11800FFF799FE686A3B
:101DE000401C68622868844207D1211D1548FFF70E
:101DF000C7FE6868401C686007E0A868401EA860CD
:101E00002046FFF7DDFCFFF7A1FDFFF701FF686942
:101E1000002812D0286884420FD1286B28B140F2E4
:101E2000654209A10FA0FFF7EFF812494FF080506B
:101E30000860BFF34F8FBFF36F8F70BD3C00002071
:101E4000A00000205C0300202E2E5C2E2E5C46722B
:101E5000656552544F535C7372635C7461736B734A
:101E60002E6300004572726F723A25732C25640D43
:101E70000A00000004ED00E01CB515480024CDE97F
:101E800000402346802213A1144800F02FF90128B6
:101E90000AD0401C1BD102B040F28472BDE8104051
:101EA0000FA116A0FFF7B0B8502080F31188BFF340
:101EB0004F8FBFF36F8F06484FF0FF312C38816290
:101EC00001214161C460BDE81C4000F06FB81CBD39
:101ED0006800002049444C4500000000211800081B
:101EE0002E2E5C2E2E5C4672656552544F535C73E9
:101EF00072635C7461736B732E6300004572726F62
:101F0000723A25732C25640D0A0000000248016B0B
:101F1000491C0163704700003C00002070B5134D60
:101F2000286B10B10120E86170BD0020E8612869CC
:101F30000F4EB0FA80F0C0F11F0000EB800456F89D
:101F4000240028B940F6F6220AA111A0FFF75CF898
:101F500006EB840000F10802416849684160914243
:101F600001D149684160C868286070BD3C0000200C
:101F7000A00000202E2E5C2E2E5C46726565525409
:101F80004F535C7372635C7461736B732E630000F8
:101F90004572726F723A25732C25640D0A00000099
:101FA0000148406870470000840000201CB5304C98
:101FB00020683049884205D140F259122EA139A03B
:101FC000FFF722F820682B49491E884205D14FF4BB
:101FD000AD7229A133A0FFF717F8364C2078019095
:101FE000FF20207020788DF800009DF800009DF8FB
:101FF000001000F0F000884205D040F273121EA1DC
:1020000028A0FFF701F89DF800002B4A00F05000CF
:1020100010700720906007E09068401E90609DF867
:10202000000040008DF800009DF800000006F3D489
:10203000107A000200F4E0609060019820700C4873
:102040002030016841F470010160016841F0704185
:102050000160FFF75DFE00205060FEF7D3F81748DF
:10206000016841F040410160FEF7BCF800201CBD52
:1020700000ED00E071C20F412E2E5C2E2E5C4672E8
:10208000656552544F535C706F72745C5256445382
:102090005C41524D5F434D34465C706F72742E63E9
:1020A000000000004572726F723A25732C25640D92
:1020B0000A00000000E400E07800002034EF00E0B7
:1020C00010B5502080F31188BFF34F8FBFF36F8F8F
:1020D00000F046F818B104494FF080500860002025
:1020E00080F3118810BD000004ED00E02DE9FF5FD2
:1020F0008346DDE90E87994616468A469000FFF72B
:1021000067FC05001AD04C20FFF762FC040012D0D7
:1021100025630021CDE90241CDE900874B463246D7
:1021200051465846FFF790FB2046FFF7B7FA0120CB
:1021300004B0BDE8F09F2846FFF79CFD4FF0FF304C
:10214000F6E700000548416919B1006B18B100209D
:102150007047012070470220704700003C000020BB
:102160002DE9F0412D4F0026386B40B1B869401C75
:10217000B861F86900B101263046BDE8F081FD681C
:102180006D1CFD6011D1786B006828B140F6D91242
:1021900023A12AA0FEF738FF786BB96B7963B86387
:1021A000386A401C3862FFF7D1FBB86ADFF89C80C0
:1021B000854209D3786B006880B1786BC068C468C9
:1021C000606885420DD2B8623868C06A00EB800151
:1021D00058F821000128CCD90126CAE74FF0FF307A
:1021E000F1E7201DFFF794FCA06A18B104F1180074
:1021F000FFF78EFCE06A01213A69814011433961A1
:1022000000EB800108EB8100211DFFF7B9FCE06ABB
:102210003968C96A8842CDD30126CBE73C0000204B
:102220002E2E5C2E2E5C4672656552544F535C73A5
:1022300072635C7461736B732E6300004572726F1E
:10224000723A25732C25640D0A000000A0000020BE
:102250002DE9F0472B4D00242746286B28B94FF471
:10226000FD6229A12FA0FEF7CFFEFFF795FC286B9A
:10227000401E2863286BE8BBA8682E490126C8B316
:10228000A1F52A798846D8F80010E9B1D8F80C00F1
:10229000C46804F11800FFF73BFC201DFFF738FC71
:1022A000E06A2A6906FA00F11143296100EB800116
:1022B00009EB8100211DFFF763FCE06A2968C96A08
:1022C0008842E0D3EE61DEE70CB1FFF73FFBAC697B
:1022D0003CB1FFF745FF00B1EE61641EF9D100206B
:1022E000A861E86930B11449012738070860BFF3D5
:1022F0004F8F00E001E0BFF36F8FFFF789FC384696
:10230000BDE8F0873C0000202E2E5C2E2E5C46722D
:10231000656552544F535C7372635C7461736B7385
:102320002E6300004572726F723A25732C25640D7E
:102330000A0000004803002004ED00E03E3E3E207D
:10234000436F6E636C7573696F6E3A2041646A61A6
:1023500063656E74206672656520626C6F636B7373
:102360002077657265206D657267656420286865F1
:102370006170342066656174757265290D0A00000C
:10238000A023000800000020A00000002810000882
:1023900040240008A0000020E89600003810000843
:1023A0000095BA0A000000000000000001020304CA
:1023B00006070809000000000102030401020304EB
:1023C00006070809000000000000000000000000EF
:1023D00000000000000000000000000000000000FD
:1023E00000000000000000000000000000000000ED
:1023F00000000000000000000000000000000000DD
:1024000000000000000000000000000000000000CC
:10241000000000000000000000000000AAAAAAAA14
:1024200000000000000000000000000000000000AC
:10243000000000000000000000000000000000009C
:04000005080001AD41
:00000001FF
