:020000040800F2
:1000000080970020850200085B050008C1040008F5
:1000100059050008770300084109000800000000A6
:10002000000000000000000000000000C501000802
:10003000790300080000000021020008B107000851
:100040009F0200089F0200089F0200089F0200080C
:100050009F0200089F0200089F0200089F020008FC
:100060009F0200089F0200089F0200089F020008EC
:100070009F0200089F0200089F0200089F020008DC
:100080009F0200089F0200089F0200089F020008CC
:100090009F0200089F0200089F0200089F020008BC
:1000A0009F0200089F0200089F0200089F020008AC
:1000B0009F0200089F0200089F0200089F0200089C
:1000C0009F0200089F0200089F0200089F0200088C
:1000D0009F0200089F0200089F0200089F0200087C
:1000E0009F0200089F0200089F0200089F0200086C
:1000F0009F0200089F0200089F0200089F0200085C
:100100009F0200089F0200089F0200089F0200084B
:100110009F0200089F0200089F0200089F0200083B
:100120009F0200089F0200089F0200089F0200082B
:100130009F0200089F0200089F0200089F0200081B
:100140009F0200089F0200089F0200089F0200080B
:100150009F0200089F0200089F0200089F020008FB
:100160009F0200089F0200089F0200089F020008EB
:100170009F0200089F0200089F0200089F020008DB
:100180009F0200089F0200089F0200089F020008CB
:100190009F0200089F0200089F0200089F020008BB
:1001A0009F0200089F0200089F020008DFF810D09D
:1001B00000F0A2F800480047610B0008AFF3008090
:1001C000809700202C4B19680868B0E8F04F80F346
:1001D0000988BFF36F8F4FF0000080F311887047DC
:1001E0000000000008480068006880F308884FF0AD
:1001F000000080F3148862B661B6BFF34F8FBFF37F
:100200006F8F00DF00BF00BF08ED00E0DFF80C00DB
:10021000016841F470010160704700BF88ED00E0A3
:10022000EFF30980BFF36F8F134B1A681EF0100FA6
:1002300008BF20ED108A20E9F04F106009B44FF09C
:10024000500080F31188BFF34F8FBFF36F8F01F021
:1002500013FA4FF0000080F3118809BC1968086890
:10026000B0E8F04F1EF0100F08BFB0EC108A80F31A
:100270000988BFF36F8F70472C000020EFF30580D3
:10028000704700000648804706480047FEE7FEE743
:10029000FEE7FEE7FEE7FEE7FEE7FEE7FEE7FEE736
:1002A000C5070008AD010008D2B201E000F8012B3B
:1002B000491EFBD270470022F6E710B513460A46E6
:1002C00004461946FFF7F0FF204610BD30B50B4637
:1002D000014600202022012409E021FA02F59D4276
:1002E00005D303FA02F5491B04FA02F52844151E4A
:1002F000A2F10102F1DC30BD064C074D06E0E068DA
:1003000040F0010394E8070098471034AC42F6D35C
:10031000FFF750FF641B0008841B00081CB500F0A9
:10032000D7FF0A480221CDE900100A02002308A1E4
:100330000A4801F095FA012804D10448001F00681A
:1003400001F0E4F8BDE81C4000F0FEBF28000020EA
:100350004C45445F5461736B0000000021050008A8
:1003600010B54FF4407000F041F900F0ABF8BDE873
:10037000104000F003B8FEE77047000070B586B08B
:100380000121084600F03CF90121102000F046F957
:1003900000248DF8164001208DF8170002258DF8F5
:1003A00015508DF81450400204901C4E04A930469C
:1003B00000F038F88DF814506902049104A9304611
:1003C00000F030F807220A21304600F069F80722D1
:1003D0000921304600F064F84FF4E1300090ADF8A8
:1003E0000440ADF80640ADF80840ADF80C400C20D4
:1003F000ADF80A000A4C6946204600F03FFA00F0CA
:10040000ADF8012240F22551204600F01CFA0121EE
:10041000204600F005FA06B070BD00000000024062
:10042000001001402DE9F041002201274FF0030C9C
:1004300007FA02F50B682B40AB422CD1066853003B
:100440000CFA03F4A64306600E79D0F800809E40B3
:1004500046EA080606600E79012E01D0022E12D15E
:100460008668A64386604E79D0F808809E4046EAAA
:10047000080686604668AE43466045688E799640B9
:10048000B6B235434560C568A543C560CC799C408C
:10049000C3681C43C460521C102AC9D3BDE8F08154
:1004A00010B54B07DB0E9A40C90800EB8100016ACA
:1004B0000F249C40A1430162016A1143016210BDF7
:1004C000FEE700002DE9FC410121802000F098F8B2
:1004D0004FF48064009401208DF8040000218DF811
:1004E00006108DF807008DF805100C4F6946384648
:1004F000FFF798FF6600009669463846FFF792FFBF
:10050000A500009569463846FFF78CFF0348183070
:10051000048006800580BDE8FC810000001C0240CC
:100520000C4F4FF48065A7F102084FF47A7600244F
:100530003D80304600F0AEFFA8F80050304600F095
:10054000A9FF641CE4B2032CF2D3304600F0A2FFF2
:10055000EDE700001A1C0240FEE7704708B54FF4B3
:10056000A06000F043F825208DF8000001208DF8F0
:1005700001008DF802008DF80300684600F002F8D3
:1005800008BD000030B50F23C27801250178002A8C
:100590001FD0154A126802F4E062C2F5E062C2F3AD
:1005A0000722C2F10404D3404278A24084781C4060
:1005B0001443220101F1E02181F80024007800F0C9
:1005C0001F018D404009800000F1E020C0F800517B
:1005D00030BD01F01F0085404809800000F1E02097
:1005E000C0F8805130BD00000CED00E00249084326
:1005F00002490860704700000000FA050CED00E0B9
:10060000054A002903D01168014311607047116841
:10061000814311607047000030380240054A0029CC
:1006200003D0116801431160704711688143116064
:10063000704700004438024070B5244B196801F03F
:100640000C01234C00291ED0224E04291DD008295C
:100650001DD00460196801F0F00109091E4A545CBC
:100660000168E14041601C6804F4E054A40A145D90
:1006700021FA04F484601B6803F460435B0BD25CD2
:10068000D140C16070BD0460E4E70660E2E70F4A54
:10069000121F1168C1F38055116801F03F0135B197
:1006A000B6FBF1F11468C4F38814614305E0B4FBB0
:1006B000F1F11468C4F3881461431268C2F3014273
:1006C000521C5200B1FBF2F10160C3E7083802404E
:1006D0000024F40040787D01140000201CB50021A6
:1006E000019100912E4A106840F4803010604FF460
:1006F000A043106800F4003000900198401C019065
:10070000009810B901989842F3D11068800302D57F
:100710000120009000E00091009801283FD120487E
:100720004030016841F0805101601E49086840F482
:10073000404008601A48083003680360036843F4C7
:1007400000430360036843F4A0530360041F164B87
:100750002360136843F08073136013689B01FCD51A
:100760000A6842F480320A604A68D203FCD50A68FB
:1007700042F400320A604A689203FCD50B4A40F208
:1007800005711160016821F003010160016841F009
:10079000020101600168C1F381010229FAD11CBD87
:1007A0000038024000700040195A4007003C0240E7
:1007B00010B501F065F8012803D0BDE8104001F044
:1007C00039B810BD10B51248016841F470010160DC
:1007D0001048016841F0010101600E4A0021083211
:1007E000116002680C4B1A400260031D0B4A1A602C
:1007F000026822F48022026006480C300160FFF794
:100800006DFF03494FF000608039086010BD0000A3
:1008100088ED00E000380240FFFFF6FE10300024B3
:10082000002904D0818941F4005181817047818978
:1008300021F40051818170470246002012880A424B
:1008400000D00120704710B540F66A13C1F342137F
:1008500001F01F040121A140012B07D0022B07D07A
:1008600014303AB102680A43026010BD0C30F8E758
:100870001030F6E702688A43026010BD7FB5044677
:100880000D46208A20F44051E88808432082A08940
:1008900041F20C618843A9882A8911436A8902437D
:1008A0001143A181A08A20F44071A8890843A08245
:1008B0006846FFF7C1FE1E48844202D01D488442AC
:1008C00001D1039800E00298A189090408D500EB42
:1008D000C00101EB001029684900B0FBF1F007E00E
:1008E00000EBC00101EB001029688900B0FBF1F0BA
:1008F0006422B0FBF2F109010B096FF018056B439C
:1009000000EB8300A3891D044FF0320307D503EBEE
:10091000C000B0FBF2F000F00700084306E003EB74
:100920000010B0FBF2F000F00F00084320817FBD03
:100930000010014000140140C1F30801818070479C
:10094000FEE700000FB4054B10B503A9044A029856
:1009500000F018F810BC5DF814FB00003D0B000817
:100960009400002002E008C8121F08C1002AFAD132
:1009700070477047002001E001C1121F002AFBD11F
:10098000704700002DE9FF4F8BB09A460F46054691
:10099000002606E025280BD052460D9990476D1C85
:1009A000761C28780028F5D10FB03046BDE8F08FCE
:1009B0000024A0460122604900E0044315F8013FED
:1009C000203B02FA03F00842F7D128782E2817D1ED
:1009D00015F8010F44F004042A280ED06FF02F02FE
:1009E0002878A0F1300109290AD808EB880102EB28
:1009F000410100EB01086D1CF2E757F8048B6D1CF8
:100A0000287869283ED006DC0028CDD063280BD09A
:100A1000642804D136E0732810D075284BD0524694
:100A20000D999047761C85E017F8040B8DF80000AF
:100A300000208DF80100E946012003E057F8049BEF
:100A40004FF0FF3061074FF0000401D40AE0641C4E
:100A500044450DDA8442FADB19F804100029F6D176
:100A600006E0641C8442FCDB19F804100029F8D16C
:100A7000264404E019F8010B52460D999047641E74
:100A8000F8D257E001CF4FF00A0B002802DA4042BB
:100A90002D2102E0210504D52B218DF82410012100
:100AA00003E0E10705D02021F7E70DF120090891C7
:100AB0000CE00021F9E701CF4FF00A0BF9E75946A6
:100AC000FFF704FC01F1300209F8012D0028F6D1EE
:100AD000ADEB090000F1200B600701D44FF00108D5
:100AE000D84502DDA8EB0B0000E000208046002482
:100AF00006E009A85246005D0D999047641C761CDB
:100B000008988442F5DB04E0302052460D99904766
:100B1000761CB8F10001A8F10108F5DC05E019F830
:100B2000010B52460D999047761CBBF10001ABF1C9
:100B3000010BF4DC6D1C34E70928010070B5044694
:100B4000064DE1B22846FFF7F7FE80212846FFF761
:100B500073FE0028F9D0204670BD0000001001404F
:100B60001CB5FFF7FDFB09480121CDE900104A0241
:100B7000002307A10A4800F073FE012802D04FF0BD
:100B8000FF301CBD00F036FDFEE700002400002011
:100B90004170705461736B4372656174650000004D
:100BA0001D0300082DE9F04704468946204DEE68F4
:100BB0006F6BD5F838802868001D00F045FB38B908
:100BC000286890F82C100120884029698143296108
:100BD000601C17D1B9F1000F14D0164948682A6873
:100BE000906082682B68DA602A688368121D5A60F8
:100BF0002A68121D8260286841610868401C0860EC
:100C0000BDE8F087344428684460B44206D22968BD
:100C10004046BDE8F047091D00F036BB296838465C
:100C2000091D00F031FBA86A8442E9D2AC62E7E713
:100C30002C0000206803002070B5044600F048FB3B
:100C4000244DA868401CA860286810B1686938B1B4
:100C50000CE02C60A868012808D100F057F905E0E5
:100C60002868E16AC06A884200D82C60686A401C23
:100C70006862E06A01212A69814011432961164AAC
:100C800000EB800002EB80004068A0608168E160BA
:100C90008368211D59608160E06A00EB800002EBEF
:100CA0008001616152F82010491C42F8201000F0C8
:100CB0004BFB686900280CD02868E16AC06A88424A
:100CC00007D206494FF080500860BFF34F8FBFF343
:100CD0006F8F70BD2C0000209800002004ED00E014
:100CE00070B50C4D0C4E11E000F0F2FAF068C468DB
:100CF000201D00F0A9FAA868401EA8606868401E80
:100D0000686000F021FB204600F05EF8686800286B
:100D1000EAD170BD2C0000205403002070B586B0CD
:100D2000002002AA0DA1095C115411B1401C102829
:100D3000F8DB00240B4E00250B4806EB8401CDE9BF
:100D400000510023802202A900F08AFD002802D071
:100D5000641C012CF0DB06B070BD000049444C451A
:100D60000000000068000020250E00082DE9FF5F4C
:100D70008146DDE90E788A4616469B46B00000F0B3
:100D80008DF9054628000ED04C2000F087F9044666
:100D90002CB14C212046FFF78EFA256304E028464B
:100DA00000F006FB00E0002454B10020CDE9024031
:100DB000CDE900785B4632465146484600F046F899
:100DC00004B02046BDE8F09F10B50446206B00F04B
:100DD000EFFA2046BDE8104000F0EABA4FF41041A7
:100DE0000E48420706D0C01D20F007000B49411AEB
:100DF000C1F510410A4A10600023536001440839CC
:100E000021F00701143A11604B600B600B1A43602C
:100E10000160406890605060704700007C030020D3
:100E200080000020074E4FF08054074DFFF758FF19
:100E300030680128FAD92C60BFF34F8FBFF36F8F52
:100E4000F4E700009800002004ED00E02DE9F047F1
:100E5000DDE908580A9C81460E469A46206B521ED0
:100E600000EB820020F00707780705D040F22E72D1
:100E70001BA122A0FFF766FD66B100202218315C9D
:100E800082F83410315C11B1401C1028F6D30020D8
:100E900084F84300202D05D340F2647210A117A0FE
:100EA000FFF750FD202D00D31F25E562201D00F027
:100EB000E8F904F1180000F0E4F92461C5F120001C
:100EC000A061646252464946384600F0ABF92060A2
:100ED000B8F1000F01D0C8F80040BDE8F08700006D
:100EE0002E2E5C2E2E5C4672656552544F535C73F9
:100EF00072635C7461736B732E6300004572726F72
:100F0000723A25732C25640D0A00000070B5002488
:100F1000114D04EB840005EB800000F0A7F9641C80
:100F2000202CF6D30D4800F0A1F90C48143000F045
:100F30009DF90A48283000F099F908483C3000F043
:100F400095F90648503000F091F90548034941638E
:100F50001431816370BD0000980000201803002048
:100F60002C00002070B505461A4C00E004462068AD
:100F7000A842FBD3174884420BD01748844202D3BF
:100F80001648844205D94FF4FD7215A11EA0FFF743
:100F9000D9FC60680119A94203D1696808446060FE
:100FA0002546206869684A1982420DD1094A143AD7
:100FB0001268904206D04068084468602068006863
:100FC000286002E02A6000E02860AC4200D0256082
:100FD00070BD0000800000207C0300207B93002077
:100FE0002E2E5C2E2E5C4672656552544F535C70FB
:100FF0006F72745C4D656D4D616E675C68656170A4
:101000005F342E63000000004572726F723A2573E0
:101010002C25640D0A0000000648416B0968002970
:1010200004D0416BC9680968816270474FF0FF3195
:10103000816270472C00002008484068401C04D0A2
:10104000ED2207A111A0FFF77DFC502080F311884D
:10105000BFF34F8FBFF36F8FFEE7000088000020C3
:101060002E2E5C2E2E5C4672656552544F535C707A
:101070006F72745C525644535C41524D5F434D3421
:10108000465C706F72742E63000000004572726FD0
:10109000723A25732C25640D0A0000002DE9F047F3
:1010A00005460027002D11D015F1090F0DD8083580
:1010B00068070BD005F00700C0F10800C1438D425E
:1010C00001D8054402E0002500E0002500F0CCFA3C
:1010D000DFF80C91D9F8000008B9FFF77FFE002D6A
:1010E00070DDD9F8040085426CD83D4E1436304688
:1010F0000468DFF8F0A0DFF8F080544501D34445E0
:1011000010D9F52239A143A0FFF71CFC0AE02646BE
:101110000446544501D3444504D9FB2233A13DA0E4
:10112000FFF710FC6068A84202D220680028EED1C8
:10113000D9F80000844245D037680837574501D3B5
:10114000474505D940F2051228A132A0FFF7FAFB66
:10115000206830606068A84205D240F20D1223A1D9
:101160002CA0FFF7EFFB6068401B102814D904EB9C
:1011700005085FEA487005D04FF48B721BA125A0CB
:10118000FFF7E0FB6068401BC8F80400656030684A
:10119000C8F80000C6F800806168D9F80400401A59
:1011A000C9F80400D9F80820904201D2C9F8080013
:1011B00041F00040606000202060D9F80C00401C25
:1011C000C9F80C0000F018FC780705D040F257125F
:1011D00006A110A0FFF7B6FB3846BDE8F087000077
:1011E0006C0000207C0300207B9300202E2E5C2EC0
:1011F0002E5C4672656552544F535C706F72745C1E
:101200004D656D4D616E675C686561705F342E631E
:10121000000000004572726F723A25732C25640D30
:101220000A00000024384FF08073036221F00101AE
:10123000C1610449816142606FF0020140F82019E8
:1012400070470000391000080169D0E901329A6046
:10125000D0E901235A604A68824201D182684A601B
:10126000002202610868401E0860704700F1080112
:1012700041604FF0FF328260C16001610021016076
:10128000704700210161704730B50C68621C02D0C4
:1012900000F1080202E0026904E01A4653681D6882
:1012A000A542FAD953684B6099608A605160086121
:1012B0000168491C016030BD42684A6093688B60D8
:1012C00093685960916008610168491C016070472A
:1012D000502080F31188BFF34F8FBFF36F8F094900
:1012E0004868401C486001280AD10748006810F08F
:1012F000FF0F05D040F2CB1204A10FA0FFF722BBD5
:10130000704700008800002004ED00E02E2E5C2EC7
:101310002E5C4672656552544F535C706F72745CFC
:10132000525644535C41524D5F434D34465C706F9E
:1013300072742E63000000004572726F723A25735A
:101340002C25640D0A00000010B5094C60680028C7
:1013500005D14FF4E97207A111A0FFF7F3FA606815
:10136000401E6060002801D180F3118810BD00008C
:10137000880000202E2E5C2E2E5C4672656552542D
:101380004F535C706F72745C525644535C41524DC3
:101390005F434D34465C706F72742E630000000032
:1013A0004572726F723A25732C25640D0A00000095
:1013B00070B5002838D0083804461C48844202D34F
:1013C0001B48844205D94FF4B5721AA123A0FFF738
:1013D000B9FA6068002805DB40F26B1215A11FA066
:1013E000FFF7B0FA206828B14FF4B67211A11BA024
:1013F000FFF7A8FA6068002816DA2168002913D1DF
:1014000020F00040606000F02FF9184D60686968B6
:10141000084468602046FFF7A5FD2869401C286144
:10142000BDE8704000F0E8BA70BD00007C03002009
:101430007B9300202E2E5C2E2E5C467265655254E6
:101440004F535C706F72745C4D656D4D616E675C7F
:10145000686561705F342E63000000004572726F32
:10146000723A25732C25640D0A0000006C000020E0
:101470004FF0E02000210161816105494FF47A724B
:101480000968B1FBF2F1491E416107210161704712
:101490000000002010B504460020002C11D000F000
:1014A000E3F80D48006B012805D040F68E120BA121
:1014B00011A0FFF747FA00212046FFF773FB00F069
:1014C0009BFA002807D110494FF080500860BFF305
:1014D0004F8FBFF36F8F10BD2C0000202E2E5C2E7F
:1014E0002E5C4672656552544F535C7372635C7434
:1014F00061736B732E6300004572726F723A2573CD
:101500002C25640D0A00000004ED00E070B50446CF
:101510000025FFF7DDFE284E04B93468201DFFF7D3
:1015200093FE58B9E06A254A00EB800152F8211079
:1015300021B901218140306988433061A06A18B126
:1015400004F11800FFF780FE706A401C706230687A
:10155000844201D1012000E00020716949B140B10D
:10156000211D1748FFF7A8FE7068401C7060012518
:1015700004E0B068401EB060FFF74EFDFFF7E4FEE8
:10158000012D02D02046FFF71FFC7069002812D001
:10159000306884420FD1306B28B140F6141209A193
:1015A0000FA0FFF7CFF912494FF080500860BFF34A
:1015B0004F8FBFF36F8F70BD2C000020980000206C
:1015C000540300202E2E5C2E2E5C4672656552540C
:1015D0004F535C7372635C7461736B732E630000B2
:1015E0004572726F723A25732C25640D0A00000053
:1015F00004ED00E010B5FFF791FB0F4C012802D07D
:10160000401C11D016E0502080F31188BFF34F8F9B
:10161000BFF36F8F4FF0FF30A062012060610020A8
:10162000E06000F071F805E040F6A96203A10AA0AD
:10163000FFF788F9E06A10BD2C0000202E2E5C2EEA
:101640002E5C4672656552544F535C7372635C74D2
:1016500061736B732E6300004572726F723A25736B
:101660002C25640D0A0000000248016B491C01632F
:10167000704700002C00002070B5164D296B05F155
:101680001C00002902D00121016070BD0021016011
:101690002869B0FA80F0C0F11F000F4E00EB800403
:1016A00056F8240028B941F2FA320CA112A0FFF733
:1016B00049F906EB840041684968416000F108027D
:1016C000914201D1C16841604068C06828602868C3
:1016D00070BD00002C000020980000202E2E5C2EF3
:1016E0002E5C4672656552544F535C7372635C7432
:1016F00061736B732E6300004572726F723A2573CB
:101700002C25640D0A000000FEB5364C20683649D1
:10171000884205D140F2471234A13FA0FFF712F9E9
:1017200020683149491E884205D14FF4A4722FA187
:1017300039A0FFF707F9002501953B4E307802905C
:10174000FF203070307800909DF80000374C00F09A
:101750005000207028B940F2691224A12EA0FFF792
:10176000F1F89DF80010502088430DD040F26D1222
:101770001EA129A0FFF7E6F806E00198401C0190A1
:101780009DF80000400000909DF800000006F4D491
:101790000198082823D00198C0F10700A060207AA2
:1017A000000200F4E060A0609DF8080030700D4871
:1017B0002030016841F47F010160016841F07F4100
:1017C0000160FFF755FE6560FEF720FD18480168CF
:1017D00041F040410160FEF705FD0020FEBDA5601F
:1017E000DDE7000000ED00E071C20F412E2E5C2EFF
:1017F0002E5C4672656552544F535C706F72745C18
:10180000525644535C41524D5F434D34465C706FB9
:1018100072742E63000000004572726F723A257375
:101820002C25640D0A00000000E400E08800002080
:1018300034EF00E010B5502080F31188BFF34F8FD4
:10184000BFF36F8F00F02AF818B104494FF08050B1
:101850000860002080F3118810BD000004ED00E056
:101860007CB5DDE90654CDE90054FFF77FFA18B1E5
:10187000FFF7E2F901207CBD4FF0FF307CBD000096
:1018800005484169002903D0006B18B1002070475A
:1018900001207047022070472C0000202DE9F04104
:1018A0000025484E306B002805D0B069401CB0615F
:1018B0002846BDE8F081F468641CF4608CB9706B54
:1018C000006828B141F25F223FA146A0FFF73AF835
:1018D000706BB16B7163B063306A401C3062FFF7AC
:1018E0009BFBB06A434F84420FD34FF0000C706BE8
:1018F000006838B1706BC068C1684868844214D20F
:10190000B06202E04FF0FF30B0623068C06A00EBB6
:10191000800057F82000012800D9012529481C30F3
:1019200000680028C4D00125C2E74A69D1E9023025
:101930009860D1E90203586050680B1D984201D1AC
:10194000C8685060C1F814C01068401E10608A6AF0
:101950009AB1D1E90780C8F80800D1E90708C8F8AA
:101960000400506801F11808404501D1086A506030
:10197000C1F828C01068401E1060C86A0122D6F85D
:101980001080824042EA0802326100EB800007EBDF
:10199000800042688A609068C86090684360936085
:1019A000C86A00EB800007EB80024A6157F82020EC
:1019B000521C47F82020C86A3168C96A884296D903
:1019C000012594E72C0000202E2E5C2E2E5C467202
:1019D000656552544F535C7372635C7461736B73CF
:1019E0002E6300004572726F723A25732C25640DC8
:1019F0000A000000980000202DE9F0470024A246CC
:101A0000FFF766FC0025484F386B28B940F68B720B
:101A100046A14DA0FEF796FF386B401E3863386B29
:101A200000287BD1B868002878D03F4E4FF00009DD
:101A3000494A4FF001081C3650E0D068C468A16ADA
:101A4000D4E907309860D4E9070358604B6804F183
:101A50001800834201D1206A4860C4F828900868C1
:101A6000401E08606069D4E902319960D4E902132C
:101A700059604368211D8B4201D1E3684360C4F87B
:101A8000149003685B1E0360E06AD7F810C008FA80
:101A900000F343EA0C033B61304B00EB800003EBA7
:101AA00080004068A060D0F808C0C4F80CC0D0F82E
:101AB00008C0CCF804108160E06A00EB800003EB02
:101AC0008001616153F82010491C43F82010E06A3E
:101AD0003968C96A884201D946F82580106800280B
:101AE000ABD10CB1FFF798FABC694CB1FFF7D6FE49
:101AF00008B146F82580641E002CF7D1C7F818906D
:101B000056F8250050B14FF0010A386814494FF0DB
:101B100080500860BFF34F8FBFF36F8FFFF714FC47
:101B20005046BDE8F08700002C0000202E2E5C2ED1
:101B30002E5C4672656552544F535C7372635C74DD
:101B400061736B732E6300004572726F723A257376
:101B50002C25640D0A00000040030020980000209E
:101B600004ED00E0841B0008000000209800000045
:101B7000640900081C1C000898000020E89600007A
:101B8000740900080095BA0A000000000000000077
:101B90000102030406070809000000000102030413
:101BA000010203040607080900000000000000000D
:101BB0000000000000000000000000000000000025
:101BC0000000000000000000000000000000000015
:101BD0000000000000000000000000001F000000E6
:101BE00000000000000000000000000000000000F5
:101BF00000000000000000000000000000000000E5
:101C000000000000000000000000000000000000D4
:0C1C1000AAAAAAAA000000000000000020
:04000005080001AD41
:00000001FF
