:020000040800F2
:10000000809700207D02000887050008ED040008A5
:10001000850500088D030008210A00080000000083
:10002000000000000000000000000000C501000802
:100030008F0300080000000019020008A90800084A
:10004000970200089702000897020008970200082C
:10005000970200089702000897020008970200081C
:10006000970200089702000897020008970200080C
:1000700097020008970200089702000897020008FC
:1000800097020008970200089702000897020008EC
:1000900097020008970200089702000897020008DC
:1000A00097020008970200089702000897020008CC
:1000B00097020008970200089702000897020008BC
:1000C00097020008970200089702000897020008AC
:1000D000970200089702000897020008970200089C
:1000E000970200089702000897020008970200088C
:1000F000970200089702000897020008970200087C
:10010000970200089702000897020008970200086B
:10011000970200089702000897020008970200085B
:10012000970200089702000897020008970200084B
:10013000970200089702000897020008970200083B
:10014000970200089702000897020008970200082B
:10015000970200089702000897020008970200081B
:10016000970200089702000897020008970200080B
:1001700097020008970200089702000897020008FB
:1001800097020008970200089702000897020008EB
:1001900097020008970200089702000897020008DB
:1001A000970200089702000897020008DFF810D0B5
:1001B00000F09EF800480047410C0008AFF30080B3
:1001C000809700202A4B19680868B0E8F04F80F348
:1001D0000988BFF36F8F4FF0000080F311887047DC
:1001E0000000000006480068006880F3088862B6D6
:1001F00061B6BFF34F8FBFF36F8F00DF00BF00BF4B
:1002000008ED00E0DFF80C00016841F470010160C6
:10021000704700BF88ED00E0EFF30980BFF36F8FF8
:10022000134B1A681EF0100F08BF20ED108A20E94A
:10023000F04F106008B44FF0500080F31188BFF306
:100240004F8FBFF36F8F01F0E9FA4FF0000080F39A
:10025000118808BC19680868B0E8F04F1EF0100F4C
:1002600008BFB0EC108A80F30988BFF36F8F704726
:1002700034000020EFF305807047000006488047F7
:1002800006480047FEE7FEE7FEE7FEE7FEE7FEE77B
:10029000FEE7FEE7FEE7FEE7BD080008AD01000847
:1002A00040EA01039B0703D009E008C9121F08C0F8
:1002B000042AFAD203E011F8013B00F8013B521E78
:1002C000F9D2704730B50B460146002020220124A8
:1002D00009E021FA02F59D4205D303FA02F5491B14
:1002E00004FA02F52844151EA2F10102F1DC30BD2A
:1002F000064C074D06E0E06840F0010394E8070073
:1003000098471034AC42F6D3FFF754FF6C21000835
:100310008C2100087CB500F0F7FF002204210A20A0
:1003200001F05EFB0F4C0023211DE060022005025E
:10033000CDE900012A460CA10F4801F09FFD04F110
:1003400008010320CDE9000100232A460BA10E4835
:1003500001F094FD206801F0DDF8BDE87C4001F07B
:100360000FB8000024000020526563656976655F60
:100370005461736B00000000C506000853656E648D
:100380005F5461736B00000041070008FEE770478F
:10039000F0B5012187B0084600F032F901211020A4
:1003A00000F03AF9012500248DF806408DF8075039
:1003B00002266802254F8DF8056000908DF80460D4
:1003C0006946384600F046F8A80200908DF80460AF
:1003D0006946384600F03EF807220A21384600F008
:1003E00075F807220921384600F070F84FF4E13023
:1003F000ADF80C400290ADF80E40ADF81040ADF8ED
:1004000014400C20124CADF8120002A9204600F056
:10041000ADFA4FF4A06000F0E9F825208DF818003F
:100420008DF819508DF81A508DF81B5006A800F061
:10043000ABF8012240F22551204600F07EFA01215E
:10044000204600F069FA07B0F0BD0000000002404D
:1004500000100140F0B5002201274FF0030C0B689B
:1004600007FA02F52B40AB422CD1066853000CFA78
:1004700003F4A64306600E79D0F800E09E4046EAF9
:100480000E0606600E79012E01D0022E12D186686A
:10049000A64386604E79D0F808E09E4046EA0E06F4
:1004A00086604668AE43466045688E799640B6B22F
:1004B00035434560C568A543C560CC799C40C36899
:1004C0001C43C460521C102AC9D3F0BD4B07DB0E7D
:1004D0009A40C90810B500EB8100016A0F249C40C6
:1004E000A1430162016A1143016210BDFEE70000F1
:1004F0001CB50121052000F083F8012000900020A8
:100500008DF80400074C8DF8070069462046FFF778
:10051000A1FF4FF40051009169462046FFF79AFF72
:100520001CBD0000000802402DE9FC410121802093
:1005300000F066F801208DF8040000218DF8061007
:100540008DF807000E4F4FF480648DF8051000946D
:1005500069463846FFF77EFF6500694638460095D4
:10056000FFF778FFA600694638460096FFF772FF4E
:1005700003481830048005800680BDE8FC81000037
:10058000001C0240FEE7704730B50F23C2780178A7
:100590000125FAB1144A126801F1E02102F4E06287
:1005A000C2F5E062C2F30722C2F10404D3404278EC
:1005B000A24084781C401443220181F80024007872
:1005C00000F01F018D404009800000F1E020C0F8DC
:1005D000005130BD01F01F0085404809800000F146
:1005E000E020C0F8805130BD0CED00E00249084326
:1005F00002490860704700000000FA050CED00E0B9
:10060000044A0029116801D0014300E081431160D0
:100610007047000030380240044A0029116801D0B8
:10062000014300E0814311607047000044380240FC
:1006300070B5204B1968204C11F00C0104D01F4EEE
:10064000042903D0082903D004601BE0066019E0E8
:10065000184A121F1168C1F38055116801F03F015B
:1006600015B1B6FBF1F101E0B4FBF1F114681268C9
:10067000C4F388146143C2F30142521C5200B1FB1F
:10068000F2F1016019680F2202EA11110C4A545C60
:100690000168E14041601C68072505EA9424145D67
:1006A00021FA04F484601B6805EA5333D25CD1401C
:1006B000C16070BD083802400024F40040787D011C
:1006C0001400002008B500240E4D661E002332469B
:1006D0006946E86801F0BCF90128F7D1641CE4B26E
:1006E000214609A0009A00F09DF90A2CEED3A868D3
:1006F00001F020F807A000F095F9002000F00AFFB3
:10070000E4E700002400002052585B25645D3A2095
:1007100025730A00D2D1BDD3CAD53130B4CEA3AC33
:10072000B7A2CBCDC8CECEF1B9D2C6F0A3ACBDD363
:10073000CAD5C8CECEF1BCB4BDABC9BEB3FD0A00AC
:1007400008B513A0154E00244FF47A7500900023CD
:100750001A466946F06801F08BFA012803D010A010
:1007600000F060F90DE0611C12A0009A00F05AF947
:10077000641CE4B205E012A000F054F9002000F07F
:10078000D9FF284600F08CFE0A2CE0D3F3E70000E6
:100790003031323334353637383900002400002008
:1007A000B6D3C1D0C2FAA3ACB7A2CBCDCAA7B0DC36
:1007B0000A00000054585B25645D3A2025730A0046
:1007C000B7A2CBCDC8CECEF1D2D1CDEAB3C93130AC
:1007D000B4CEB7A2CBCD0A001CB500212E4A0091A1
:1007E0000191106840F4803010604FF4A04310680D
:1007F00000F4003001900098401C0090019810B95E
:1008000000989842F3D11068800342D501200190EE
:1008100021484030016841F0805101601F4908685B
:1008200040F4404008601C480830036803600368D7
:1008300043F400430360036843F4A0530360041FC0
:10084000174B2360136843F08073136013689B0198
:10085000FCD50A6842F480320A604A68D203FCD5AB
:100860000A6842F400320A604A689203FCD50D4AD5
:1008700040F205711160016821F003010160016817
:1008800041F0020101600168C1F381010229FAD13E
:100890001CBD01911CBD00000038024000700040EA
:1008A000195A4007003C024010B501F013FB012823
:1008B00003D0BDE8104001F07DB810BD124810B55E
:1008C000016841F4700101601048016841F00101C4
:1008D00001600E4A00210832116002680C4B1A4078
:1008E0000260031D0B4A1A60026822F48022026033
:1008F00006480C300160FFF76FFF03494FF00060BE
:100900008039086010BD000088ED00E0003802402A
:10091000FFFFF6FE103000240029818902D041F447
:10092000005101E021F4005181817047024600200E
:1009300012880A4200D00120704710B5C1F342135B
:1009400001F01F040121A140012B07D0022B07D089
:100950001430002A026805D00A4304E00C30F8E79E
:100960001030F6E78A43026010BD00007FB50446F0
:10097000008A0D46C98820F4405001432182A08995
:1009800041F20C618843A9882A8911436A8902438C
:100990001143A181A08A20F44071A8890843A08254
:1009A0006846FFF745FE1A48844202D0194884423F
:1009B00001D1039800E00298A189090400EBC0016D
:1009C00001EB0010296801D5490000E08900B0FB67
:1009D000F1F06422B0FBF2F109010B096FF0180588
:1009E0006B4300EB8300A3891D044FF0320306D54F
:1009F00003EBC000B0FBF2F000F0070005E003EBF2
:100A00000010B0FBF2F000F00F00084320817FBD22
:100A10000010014000140140C1F3080181807047BB
:100A2000FEE700000FB4054B10B503A9044A029875
:100A300000F018F810BC5DF814FB00001D0C000855
:100A40009400002002E008C8121F08C1002AFAD151
:100A500070477047002001E001C1121F002AFBD13E
:100A6000704700002DE9FF4F8BB09A460F460546B0
:100A7000002606E025280BD052460D9990476D1CA4
:100A8000761C28780028F5D10FB03046BDE8F08FED
:100A90000024A0460122604900E0044315F8013F0C
:100AA000203B02FA03F00842F7D128782E2817D10C
:100AB00015F8010F44F004042A280ED06FF02F021D
:100AC0002878A0F1300109290AD808EB880102EB47
:100AD000410100EB01086D1CF2E757F8048B6D1C17
:100AE000287869283ED006DC0028CDD063280BD0BA
:100AF000642804D136E0732810D075284BD05246B4
:100B00000D999047761C85E017F8040B8DF80000CE
:100B100000208DF80100E946012003E057F8049B0E
:100B20004FF0FF3061074FF0000401D40AE0641C6D
:100B300044450DDA8442FADB19F804100029F6D195
:100B400006E0641C8442FCDB19F804100029F8D18B
:100B5000264404E019F8010B52460D999047641E93
:100B6000F8D257E001CF4FF00A0B002802DA4042DA
:100B70002D2102E0210504D52B218DF8241001211F
:100B800003E0E10705D02021F7E70DF120090891E6
:100B90000CE00021F9E701CF4FF00A0BF9E75946C5
:100BA000FFF790FB01F1300209F8012D0028F6D182
:100BB000ADEB090000F1200B600701D44FF00108F4
:100BC000D84502DDA8EB0B0000E0002080460024A1
:100BD00006E009A85246005D0D999047641C761CFA
:100BE00008988442F5DB04E0302052460D99904786
:100BF000761CB8F10001A8F10108F5DC05E019F850
:100C0000010B52460D999047761CBBF10001ABF1E8
:100C1000010BF4DC6D1C34E70928010070B5074DA9
:100C20000446C1B22846FFF7F7FE80212846FFF7A9
:100C30007DFE0028F9D0204670BD00000010014064
:100C40001CB54FF44070FFF7D1FCFFF76DFCFFF7C8
:100C50009FFBFFF74DFC09490120CDE9000142024D
:100C6000002307A10A4801F009F9012802D04FF03A
:100C7000FF301CBD00F014FDFEE700002400002042
:100C80004170705461736B4372656174650000005C
:100C9000150300082DE9F041184E0F460446F5688B
:100CA0003068001D00F0ECFA38B9306890F82C106C
:100CB00001208840316981433161601C07D137B11F
:100CC0003168BDE8F0410E48091D00F011BB3068E5
:100CD0002C44AC424460316805D2B06BBDE8F041B1
:100CE000091D00F0EDBA706B091D00F0E9FAB06A59
:100CF000844200D2B462BDE8F081000034000020DC
:100D0000680300202DE9F041054600F0FDFA2D4E64
:100D1000B068401CB06030682B4F10B1706930B3C0
:100D20002BE03560B068012827D1002404EB840053
:100D300007EB800000F0B6FA641C202CF6D32348A1
:100D400000F0B0FA2148143000F0ACFA1F48283007
:100D500000F0A8FA1D483C3000F0A4FA1B485030BF
:100D600000F0A0FA194870631430B06305E03068F1
:100D7000E96AC06A884200D83560706A0121401C67
:100D80007062E86A326981401143316100EB800092
:100D900007EB8000291D00F0ABFA00F0F1FA706952
:100DA00000280CD03068E96AC06A884207D2084936
:100DB0004FF080500860BFF34F8FBFF36F8FBDE8D7
:100DC000F08100003400002098000020180300206B
:100DD00004ED00E070B5124E124D1CE000F016FD5F
:100DE000306820B1002401F04BF9A4B901E00124DE
:100DF000F9E700F089FAF068C468201D00F040FAB5
:100E0000A868401EA8606868401E686000F0B8FAD4
:100E1000204600F049F868680028DFD170BD000066
:100E2000540300203400002030B4026C0B46002A2A
:100E30000BD0C1681144C1604468A14201D301686C
:100E4000C16030BC1846FFF72BBA30BC70472DE9A3
:100E5000F041856B164604460027026CFAB17EB15C
:100E6000E068FFF71DFAE168206C091AE16022686A
:100E7000914202D26168081AE060022E0DD00EE0A5
:100E8000A068FFF70DFA216CA0680844A0606168B3
:100E9000884204D32068A06001E005B16D1E6D1C7E
:100EA000A5633846BDE8F08110B50446006B00F03C
:100EB00099FA2046BDE8104000F094BA10484FF46B
:100EC0001041420706D0C01D0D4920F00700411A0D
:100ED000C1F510410B4A00230144C2E9000308395F
:100EE000103A21F0070111604B600B600B1AC0E94A
:100EF000001393604FF000405360D06070470000D3
:100F00007C03002080000020074E4FF08054074DE6
:100F1000FFF760FF30680128FAD92C60BFF34F8FCC
:100F2000BFF36F8FF4E700009800002004ED00E0AD
:100F30002DE9F047DDE909840E4682466FF0030192
:100F4000206B01EB82010844089D20F007079946B9
:100F5000780705D040F22B3218A11FA0FFF762FDE1
:100F600000202218315C82F83410315C11B1401C31
:100F70001028F6D3002684F84360202D00D31F25C7
:100F8000201DE56200F099F904F1180000F095F9D0
:100F90002461C5F120006462A061666484F8486041
:100FA0004A465146384600F055F92060B8F1000F26
:100FB00001D0C8F80040BDE8F08700002E2E5C2E5E
:100FC0002E5C4672656552544F535C7372635C7459
:100FD00061736B732E6300004572726F723A2573F2
:100FE0002C25640D0A00000030B5114900E01146BF
:100FF0000A688242FBD34B685C18844203D1406884
:1010000018444860084643681C18944209D1084CAB
:10101000103C2468A24209D052681A4442600A680F
:1010200012680260814200D0086030BD0460F9E7B8
:101030008000002010B5044600F066F9A06B20B1D6
:10104000002400F09DF9204610BD0124F9E70000BE
:101050000648416B096829B1416BC968C96849688C
:10106000816270474FF0FF31FAE700003400002042
:1010700008484068401C05D040F20F1206A111A09C
:10108000FFF7D0FC502080F31188BFF34F8FBFF3E0
:101090006F8FFEE7880000202E2E5C2E2E5C46729D
:1010A000656552544F535C706F72745C5256445372
:1010B0005C41524D5F434D34465C706F72742E63D9
:1010C000000000004572726F723A25732C25640D82
:1010D0000A0000002DE9F041044600F015F994F9EA
:1010E000455004F1240609E0606A48B1304600F03A
:1010F00077FF08B100F078FA6D1E6DB2002DF3DCB9
:101100004FF0FF3684F8456000F03AF900F0FCF843
:1011100094F9445004F1100709E0206948B13846B9
:1011200000F05EFF08B100F05FFA6D1E6DB2002D99
:10113000F3DC84F84460BDE8F04100F021B9000020
:101140002DE9F0410546002600F060FB324F38687B
:1011500008B9FFF7B3FEF86805424FD1002D4DD016
:10116000083568070BD005F00700C0F108000544FA
:10117000680704D0BF2229A132A0FFF753FC002D3D
:101180003CD07868854239D8234910310846046834
:1011900001E0214604466068A84202D22068002887
:1011A000F7D13868B846844228D00E6820680860B5
:1011B00060680836401B10280ED96719780704D0DC
:1011C000EC2216A11FA0FFF72DFC6068401B786081
:1011D00038466560FFF708FF6168D8F804004246AA
:1011E000401AC8F80400D8F80830984200D290603D
:1011F000D8F80C0001430020C4E9000100F040FFD2
:10120000700705D04FF4967204A10EA0FFF70AFCF8
:101210003046BDE8F0810000700000202E2E5C2ECC
:101220002E5C4672656552544F535C706F72745CED
:101230004D656D4D616E675C686561705F342E63EE
:10124000000000004572726F723A25732C25640D00
:101250000A00000010B5031F4FF080741C601B1FB4
:1012600021F001011960191F044B0B6014390A6049
:10127000091F6FF0020244380A6010BD71100008A7
:10128000D0E9013201699A60D0E901235A604A68C5
:10129000824201D182684A60002202610868401ED1
:1012A0000860704700F108014FF0FF32C0E90112F9
:1012B000C160016100210160704700210161704738
:1012C00030B50C68621C02D000F1080202E002692D
:1012D00004E01A4653681D68A542FAD953684B606A
:1012E00099608A60516008610168491C016030BDE5
:1012F00042684A6093688B609368596091600861A6
:101300000168491C01607047502080F31188BFF3C9
:101310004F8FBFF36F8F09494868401C4860012810
:101320000AD10748006810F0FF0F05D040F2B9124B
:1013300004A10FA0FFF776BB7047000088000020D3
:1013400004ED00E02E2E5C2E2E5C46726565525434
:101350004F535C706F72745C525644535C41524DF3
:101360005F434D34465C706F72742E630000000062
:101370004572726F723A25732C25640D0A000000C5
:1013800010B5084C606828B94FF4E07206A111A0AE
:10139000FFF748FB6068401E606001D180F3118850
:1013A00010BD0000880000202E2E5C2E2E5C4672A0
:1013B000656552544F535C706F72745C525644535F
:1013C0005C41524D5F434D34465C706F72742E63C6
:1013D000000000004572726F723A25732C25640D6F
:1013E0000A00000070B500282AD0164DA0F10804AC
:1013F0006068E968084205D14FF4A07212A11CA0F0
:10140000FFF710FB206828B140F241120EA118A08E
:10141000FFF708FB6068E968084211D02268002ADB
:101420000ED18843606000F0F1F960686968084493
:1014300068602046FFF7D8FDBDE8704000F020BE90
:1014400070BD0000700000202E2E5C2E2E5C4672B7
:10145000656552544F535C706F72745C4D656D4D91
:10146000616E675C686561705F342E630000000028
:101470004572726F723A25732C25640D0A000000C4
:1014800006484FF47A710068B0FBF1F14FF0E020AC
:10149000491E4161072101617047000000000020E2
:1014A00010B5040012D00E49096B29B140F2CF42A9
:1014B0000CA113A0FFF7B6FA00F0A8F9002120460E
:1014C000FFF7E8FB00F0DCFD002807D110494FF0E2
:1014D00080500860BFF34F8FBFF36F8F10BD0000C7
:1014E000340000202E2E5C2E2E5C46726565525410
:1014F0004F535C7372635C7461736B732E63000093
:101500004572726F723A25732C25640D0A00000033
:1015100004ED00E070B50446FFF7F6FE234D04B974
:101520002C68201DFFF7ACFE58B9E06A204A00EB9A
:10153000800152F8211021B9012181402869884396
:101540002861A06A18B104F11800FFF799FE686AD3
:10155000401C68622868844207D1211D1548FFF7A6
:10156000C7FE6868401C686007E0A868401EA86065
:101570002046FFF799FCFFF76BFDFFF701FF686955
:10158000002812D0286884420FD1286B28B140F27D
:10159000654209A10FA0FFF745FA12494FF08050AC
:1015A0000860BFF34F8FBFF36F8F70BD3400002012
:1015B00098000020540300202E2E5C2E2E5C4672D4
:1015C000656552544F535C7372635C7461736B73E3
:1015D0002E6300004572726F723A25732C25640DDC
:1015E0000A00000004ED00E001490120C8617047D5
:1015F0003400002070B50D46040005D140F60632D7
:1016000007A10EA0FFF70EFA104801682046183116
:10161000FFF756FE2846BDE870400121FFF73ABBB0
:101620002E2E5C2E2E5C4672656552544F535C73B1
:1016300072635C7461736B732E6300004572726F2A
:10164000723A25732C25640D0A0000003400002036
:1016500010B5040005D140F6C13205A10BA0FFF77B
:10166000E1F90E48016A2160C068606010BD0000A9
:101670002E2E5C2E2E5C4672656552544F535C7361
:1016800072635C7461736B732E6300004572726FDA
:10169000723A25732C25640D0A00000034000020E6
:1016A0001CB515480024CDE900402346802213A133
:1016B000144800F0E3FB01280AD0401C1BD102B003
:1016C00040F28472BDE810400FA116A0FFF7AAB93E
:1016D000502080F31188BFF34F8FBFF36F8F064800
:1016E0004FF0FF312C38816201214161C460BDE8B7
:1016F0001C4000F0D5B81CBD6000002049444C459A
:1017000000000000090F00082E2E5C2E2E5C467291
:10171000656552544F535C7372635C7461736B7391
:101720002E6300004572726F723A25732C25640D8A
:101730000A00000070B50446FFF7E6FD244D04B929
:101740002C68201DFFF79CFD58B9E06A214A00EB88
:10175000800152F8211021B9012181402869884374
:101760002861A06A18B104F11800FFF789FD211D56
:101770001948FFF7BDFDFFF703FE686928B1FFF7C1
:10178000C3FDFFF765FCFFF7FBFD2868844211D11C
:10179000686980B1286B28B140F257620FA116A08A
:1017A000FFF740F918494FF080500860BFF34F8FA2
:1017B000BFF36F8F70BD0848A9680068884202D1E6
:1017C0000020286070BDBDE8704000F027B8000020
:1017D0003400002098000020680300202E2E5C2E8C
:1017E0002E5C4672656552544F535C7372635C7431
:1017F00061736B732E6300004572726F723A2573CA
:101800002C25640D0A00000004ED00E00248016B85
:10181000491C0163704700003400002070B5134D6F
:10182000286B10B10120E86170BD0020E8612869D3
:101830000F4EB0FA80F0C0F11F0000EB800456F8A4
:10184000240028B940F6F6220AA111A0FFF7EAF811
:1018500006EB840000F1080241684968416091424A
:1018600001D149684160C868286070BD340000201B
:10187000980000202E2E5C2E2E5C46726565525418
:101880004F535C7372635C7461736B732E630000FF
:101890004572726F723A25732C25640D0A000000A0
:1018A0001CB5304C20683049884205D140F25912AD
:1018B0002EA139A0FFF7B6F820682B49491E8842AF
:1018C00005D14FF4AD7229A133A0FFF7ABF8364C28
:1018D00020780190FF20207020788DF800009DF87E
:1018E00000009DF8001000F0F000884205D040F2A2
:1018F00073121EA128A0FFF795F89DF800002B4A4F
:1019000000F0500010700720906007E09068401EC3
:1019100090609DF8000040008DF800009DF80000E8
:101920000006F3D4107A000200F4E06090600198A1
:1019300020700C482030016841F47001016001689A
:1019400041F070410160FFF79BFD00205060FEF701
:1019500059FC1748016841F040410160FEF742FC24
:1019600000201CBD00ED00E071C20F412E2E5C2E48
:101970002E5C4672656552544F535C706F72745C96
:10198000525644535C41524D5F434D34465C706F38
:1019900072742E63000000004572726F723A2573F4
:1019A0002C25640D0A00000000E400E088000020FF
:1019B00034EF00E010B5502080F31188BFF34F8F53
:1019C000BFF36F8F00F094FA18B104494FF08050C4
:1019D0000860002080F3118810BD000004ED00E0D5
:1019E00070B50E46050005D14FF4C4720DA114A0C8
:1019F000FFF718F896B105FB06F04830FFF7A0FB9B
:101A0000040009D004F1480120464EB10160C0E94C
:101A10000F56012100F0D4F8204670BD0020ECE7FD
:101A20000060F4E72E2E5C2E2E5C467265655254E3
:101A30004F535C7372635C71756575652E6300004E
:101A40004572726F723A25732C25640D0A000000EE
:101A50002DE9FF4F83B09B468A4604004FF00006F5
:101A600005D140F2DC424AA150A0FEF7DBFFBAF1FB
:101A7000000F07D1206C28B140F2DD4244A14BA0F9
:101A8000FEF7D0FF00F026FA38B9059828B14FF4D8
:101A90009C623FA145A0FEF7C5FF4FF000094FF043
:101AA0008057DFF81881FFF72FFCA56B1DB3514657
:101AB0002046E668FFF7B8F9BBF1000F13D0E660E7
:101AC000606A50B104F1240000F08AFA28B1C8F825
:101AD0000070BFF34F8FBFF36F8FFFF751FC0120F2
:101AE00007B0BDE8F08F6D1EA56320690028F4D013
:101AF00004F11000E8E7059808B11EB106E0FFF711
:101B00003FFC27E06846FFF7A3FD0126FFF738FCFE
:101B1000FFF77CFEFFF7F8FB94F94400401C01D16D
:101B200084F8449094F94500401C01D184F8459014
:101B3000FFF726FC05A9684600F058F90028204662
:101B40000AD0FFF7C7FA00F09BFA2046FFF772FAB7
:101B50000028A8D00020C3E7FFF76CFA90B104F189
:101B600024000599FFF746FD2046FFF7B3FA00F081
:101B700087FA002897D1C8F80070BFF34F8FBFF3E2
:101B80006F8F90E72046FFF7A5FA00F079FA8AE711
:101B90002E2E5C2E2E5C4672656552544F535C733C
:101BA00072635C71756575652E6300004572726FB6
:101BB000723A25732C25640D0A00000004ED00E044
:101BC00070B50D46040005D140F21B121CA123A0E4
:101BD000FEF728FFFFF798FBD4E90F20216802FBEE
:101BE000001161600021A1632168A1600A46D4E967
:101BF0000F01401E00FB0121E16021464FF0FF3044
:101C000001F8440F487004F110004DB1FFF74AFB92
:101C100004F12400FFF746FBFFF7B2FB012070BD83
:101C200021690029F8D000F0DBF90028F4D00F4931
:101C30004FF080500860BFF34F8FBFF36F8FEBE71B
:101C40002E2E5C2E2E5C4672656552544F535C738B
:101C500072635C71756575652E6300004572726F05
:101C6000723A25732C25640D0A00000004ED00E093
:101C70002DE9FF4F83B01F468B4604004FF000064E
:101C800005D140F2D9224DA153A0FEF7CBFEBBF106
:101C9000000F07D1206C28B140F2DA2247A14EA0F4
:101CA000FEF7C0FE022F08D1E06B012805D040F2FC
:101CB000DB2242A148A0FEF7B5FE00F00BF938B9CF
:101CC000059828B140F2DE223CA143A0FEF7AAFE0F
:101CD0004FF0000A4FF08058DFF80C91FFF714FB2B
:101CE000A06BE16B884205D3022F03D00598C8B1E1
:101CF000DEB11EE03A4659462046FFF7A8F8616A71
:101D000019B104F1240000F06BF928B1C9F8008082
:101D1000BFF34F8FBFF36F8FFFF732FB012007B088
:101D2000BDE8F08FFFF72CFB21E06846FFF790FC41
:101D30000126FFF725FBFFF769FDFFF7E5FA94F9A8
:101D40004400401C01D184F844A094F94500401C93
:101D500001D184F845A0FFF713FB05A9684600F000
:101D600045F830B12046FFF7B5F900F089F90020B9
:101D7000D5E7FFF7C9FAA06BE16B884201D10125D5
:101D800000E00025FFF7FCFA95B104F11000059979
:101D9000FFF730FC2046FFF79DF900F071F90028AD
:101DA0009CD1C9F80080BFF34F8FBFF36F8F95E7C9
:101DB0002046FFF78FF900F063F98FE72E2E5C2E97
:101DC0002E5C4672656552544F535C7372635C714E
:101DD000756575652E6300004572726F723A2573E2
:101DE0002C25640D0A00000004ED00E070B50D46DE
:101DF000040005D140F6CB3214A11BA0FEF712FE61
:101E00002DB940F6CC3211A117A0FEF70BFEFFF75B
:101E10007BFA194AD06829684B1C0FD02368126AD4
:101E2000934202D0626882420AD96268801A88426C
:101E300006D2081A28602046FFF70AFC002400E0BA
:101E40000124FFF79DFA204670BD00002E2E5C2E67
:101E50002E5C4672656552544F535C7372635C74BA
:101E600061736B732E6300004572726F723A257353
:101E70002C25640D0A000000340000202DE9FF5FCE
:101E80008346DDE90E87994616468A469000FFF79D
:101E900057F905001AD04C20FFF752F9040012D070
:101EA00025630021CDE90241CDE900874B4632464A
:101EB00051465846FFF73CF82046FEF723FF012025
:101EC00004B0BDE8F09F2846FFF78CFA4FF0FF30D2
:101ED000F6E700000548416919B1006B18B1002010
:101EE0007047012070470220704700003400002036
:101EF0002DE9F0412D4F0026386B40B1B869401CE8
:101F0000B861F86900B101263046BDE8F081FD688E
:101F10006D1CFD6011D1786B006828B140F6D912B4
:101F200023A12AA0FEF77EFD786BB96B7963B863B5
:101F3000386A401C3862FFF78BF8B86ADFF89C807B
:101F4000854209D3786B006880B1786BC068C4683B
:101F5000606885420DD2B8623868C06A00EB8001C3
:101F600058F821000128CCD90126CAE74FF0FF30EC
:101F7000F1E7201DFFF784F9A06A18B104F11800F9
:101F8000FFF77EF9E06A01213A6981401143396126
:101F900000EB800108EB8100211DFFF7A9F9E06A41
:101FA0003968C96A8842CDD30126CBE734000020C6
:101FB0002E2E5C2E2E5C4672656552544F535C7318
:101FC00072635C7461736B732E6300004572726F91
:101FD000723A25732C25640D0A0000009800002039
:101FE0002DE9F041C068C4682CB940F6613216A1F1
:101FF0001CA0FEF717FD04F118000746FFF740F993
:102000001C4D286B012660B139461B48FFF770F95B
:10201000E06A2968C96A884213D90120EE61BDE8E7
:10202000F081201DFFF72CF9E06A2A6906FA00F119
:1020300011432961114900EB800001EB8000211D53
:10204000E4E70020EBE700002E2E5C2E2E5C4672AB
:10205000656552544F535C7372635C7461736B7348
:102060002E6300004572726F723A25732C25640D41
:102070000A000000340000204003002098000020E7
:102080002DE9F0472B4D00242746286B28B94FF443
:10209000FD6229A12FA0FEF7C5FCFFF735F9286BDB
:1020A000401E2863286BE8BBA8682E490126C8B3E8
:1020B000A1F52A798846D8F80010E9B1D8F80C00C3
:1020C000C46804F11800FFF7DBF8201DFFF7D8F80B
:1020D000E06A2A6906FA00F11143296100EB8001E8
:1020E00009EB8100211DFFF703F9E06A2968C96A3D
:1020F0008842E0D3EE61DEE70CB1FEF7A9FFAC69E0
:102100003CB1FFF7F5FE00B1EE61641EF9D100208D
:10211000A861E86930B11449012738070860BFF3A6
:102120004F8F00E001E0BFF36F8FFFF729F93846CA
:10213000BDE8F087340000202E2E5C2E2E5C467207
:10214000656552544F535C7372635C7461736B7357
:102150002E6300004572726F723A25732C25640D50
:102160000A0000004003002004ED00E08C2100087C
:102170000000002098000000440A00082422000803
:1021800098000020E8960000540A00080095BA0A5A
:102190000000000000000000010203040607080917
:1021A00000000000010203040102030406070809FD
:1021B000000000000000000000000000000000001F
:1021C000000000000000000000000000000000000F
:1021D00000000000000000000000000000000000FF
:1021E00000000000000000000000000000000000EF
:1021F00000000000000000000000000000000000DF
:1022000000000000000000000000000000000000CE
:102210000000000000000000AAAAAAAA0000000016
:0422200000000000BA
:04000005080001AD41
:00000001FF
