:020000040800F2
:10000000989700207D020008571900083B08000857
:100010005519000879040008CD22000800000000EE
:10002000000000000000000000000000C501000802
:100030007105000800000000190200082D210008C9
:10004000970200089702000897020008970200082C
:10005000970200089702000897020008970200081C
:10006000970200089702000897020008970200080C
:1000700097020008970200089702000897020008FC
:1000800097020008970200089702000897020008EC
:1000900097020008970200089702000897020008DC
:1000A00097020008970200089702000897020008CC
:1000B00097020008970200089702000897020008BC
:1000C00097020008970200089702000897020008AC
:1000D000970200089702000897020008970200089C
:1000E000970200089702000897020008970200088C
:1000F000970200089702000897020008970200087C
:10010000970200089702000897020008970200086B
:10011000970200089702000897020008970200085B
:10012000970200089702000897020008970200084B
:10013000970200089702000897020008970200083B
:10014000970200089702000897020008970200082B
:10015000970200089702000897020008970200081B
:10016000970200089702000897020008970200080B
:1001700097020008970200089702000897020008FB
:1001800097020008970200089702000897020008EB
:1001900097020008970200089702000897020008DB
:1001A000970200089702000897020008DFF810D0B5
:1001B00000F0A8F800480047BD270008AFF3008012
:1001C000989700202A4B19680868B0E8F04F80F330
:1001D0000988BFF36F8F4FF0000080F311887047DC
:1001E0000000000006480068006880F3088862B6D6
:1001F00061B6BFF34F8FBFF36F8F00DF00BF00BF4B
:1002000008ED00E0DFF80C00016841F470010160C6
:10021000704700BF88ED00E0EFF30980BFF36F8FF8
:10022000134B1A681EF0100F08BF20ED108A20E94A
:10023000F04F106008B44FF0500080F31188BFF306
:100240004F8FBFF36F8F03F081F84FF0000080F302
:10025000118808BC19680868B0E8F04F1EF0100F4C
:1002600008BFB0EC108A80F30988BFF36F8F704726
:100270004C000020EFF305807047000006488047DF
:1002800006480047FEE7FEE7FEE7FEE7FEE7FEE77B
:10029000FEE7FEE7FEE7FEE741210008AD010008AA
:1002A0002DE9F05F0546002092469B4688460646AB
:1002B000814640241BE0284641464746224600F03E
:1002C00042F853465A46C01A914110D31146184677
:1002D000224600F029F82D1A67EB01084F46224606
:1002E0000120002100F020F817EB00094E41201EEC
:1002F000A4F10104DFDC484631462A464346BDE806
:10030000F09F0000064C074D06E0E06840F0010356
:1003100094E8070098471034AC42F6D3FFF74AFF41
:100320004449000864490008202A04DB203A00FA06
:1003300002F1002070479140C2F1200320FA03F33C
:10034000194390407047202A04DB203A21FA02F03A
:100350000021704721FA02F3D040C2F120029140FF
:1003600008431946704700001CB502F067FD0221E2
:1003700013480C02CDE900100023224611A11448B5
:1003800003F0C6F8012802D112A001F0A1FF0C4829
:100390000321001DCDE900100023224614A11748B7
:1003A00003F0B6F8012802D115A001F091FF04482E
:1003B0000838406802F04CFEBDE81C4002F07ABDEF
:1003C0002C000020546573745F5461736B0000004F
:1003D0009D210008B4B4BDA8546573745F54617363
:1003E0006BC8CECEF1B3C9B9A6210D0A000000003A
:1003F0004B45595F5461736B000000003D080008D5
:10040000B4B4BDA84B45595F5461736BC8CECEF1EF
:10041000B3C9B9A6210D0A0010B54FF4407001F020
:10042000E3FA01F095F900F0A5F800F069FA00F0A0
:1004300069FE00F0A7FE012001F0B8F9002000F0ED
:1004400001FF4FF40044204600F08AFA012000F03A
:10045000F9FEFF2000F00EFF204600F081FA05486B
:1004600061110180C114018002498014891C088037
:1004700010BD0000181C0240FEE710B50121CC059C
:10048000204601F0E1FA2046BDE81040002101F0CD
:10049000DBBA000001460020024A52680A4200D03E
:1004A0000120704700B0024030B500242A4B196883
:1004B0002A4A114019601968026811431960596B82
:1004C00021F007015963596B426811435963416830
:1004D000002928D001292DD0022930D0032933D07A
:1004E000C1680A010169090244692403856821433E
:1004F00015430D43996B0D439D638169D963196C55
:100500006FF30D011964196CC26911431964818C70
:1005100009045A6C02F040425A645A6C006A024361
:100520000A435A6430BDC1680A02018A0904047D85
:100530002406DBE7C1680A02018A0904D6E7C1681C
:100540004A010169C902D1E7C1684A01016989020A
:100550004469E403CAE7000000B00240FCE0FCFF8D
:100560000248016841F001010160704700B002409B
:100570007047000070B586B00121084601F056FAB8
:100580000121102001F07CFA00248DF81640012092
:100590008DF8170002258DF815508DF81450400283
:1005A00004901C4E04A9304600F0F0F88DF8145069
:1005B0006902049104A9304600F0E8F807220A21F4
:1005C000304600F021F907220921304600F01CF9DD
:1005D0004FF4E1300090ADF80440ADF80640ADF8BE
:1005E0000840ADF80C400C20ADF80A000A4C6946F2
:1005F000204601F009FE01F0AFF9012240F2255139
:10060000204601F0E6FD0121204601F0CFFD06B0B5
:1006100070BD0000000002400010014000224FF0B9
:10062000204310280AD0B0F5807F09D0B0F5805F54
:1006300009D0D3F85801814309D107E0586EFAE791
:10064000D3F88400F7E7D3F8A400F4E701221046BA
:1006500070470000D0E9001211438268C068521E42
:10066000520142EA40200143014801607047000006
:10067000500100A070B50468A100A1F1C041D1F8FB
:100680004011CE0BF603D0E901121143D0E9032348
:100690001A4311434269C36911438269056A1143D0
:1006A0001943426A2943114331434FF02046002C3D
:1006B0003CD0D6F840416FF30E042B432243134342
:1006C000C6F8403102689200A2F1C042C2F840115F
:1006D000016871B38900A1F1C041D1F8481101F05E
:1006E0007043816A0A684C68521E641E42EA041410
:1006F0008A68521E44EA02240A8A521E44EA0242CE
:100700001A43D6F8483103F07043CC68898A641ED6
:100710002403491E44EA01511943C6F848110068F0
:100720008000A0F1C040C0F8482170BDC6F840115B
:10073000CEE7FFE7D6F8481101F07041806A026801
:100740004368521E5B1E42EA03138268521E43EA4C
:100750000223C268521E43EA0233028A521E43EA4F
:100760000243828A007E521E43EA0252401E42EA3F
:1007700000600843C6F8480170BD000002490A68DD
:1007800042EA400008607047540100A02DE9F041A2
:10079000002201274FF0030C07FA02F50B682B40EB
:1007A000AB422CD1066853000CFA03F4A643066052
:1007B0000E79D0F800809E4046EA080606600E7961
:1007C000012E01D0022E12D18668A64386604E7992
:1007D000D0F808809E4046EA080686604668AE4328
:1007E000466045688E799640B6B235434560C56827
:1007F000A543C560CC799C40C3681C43C460521CAF
:10080000102AC9D3BDE8F08110B54B07DB0E9A4022
:10081000C90800EB8100016A0F249C40A1430162DA
:10082000016A1143016210BD0246002012690A42AA
:1008300000D00120704701837047FEE7134C4FF44E
:100840000055134E134F1AE013A001F041FDA068AC
:1008500002F008FD16A001F03BFD2946304600F0ED
:100860006BF8012808D119A001F032FDA06802F050
:1008700059FC1CA001F02CFD142002F0ADFB01215D
:10088000384600F059F80128E7D1DDE724000020C0
:100890000008024000000240B9D2C6F054657374EB
:1008A0005F5461736BC8CECEF1A3A10A00000000B3
:1008B000B9D2C6F0546573745F5461736BC8CECE01
:1008C000F1B3C9B9A6A3A10A00000000BBD6B8B411
:1008D000546573745F5461736BC8CECEF1A3A10AE3
:1008E00000000000BBD6B8B4546573745F546173E4
:1008F0006BC8CECEF1B3C9B9A6A3A10A000000000F
:100900001CB50121052001F091F801200090002084
:100910008DF804008DF80700064C69462046FFF765
:1009200035FF4FF40051009169462046FFF72EFF36
:100930001CBD00000008024070B504460D46294663
:100940002046FFF771FF012801D0002070BD294625
:100950002046FFF769FF0128F9D0012070BD000093
:10096000F0B58BB00446E50A04F01F07C4F3451642
:10097000FFF783FD4FF4403001900220029004966F
:100980000397059520040012000E06900C4C606839
:100990000790002008904FF4F07009904FF44870D1
:1009A0000A9001A8FFF780FDFFF7DAFD0220FFF7AC
:1009B00071FD0028FAD0208800F056FC0BB0F0BD85
:1009C0003C000020F0B5074600240B4D4FF448765C
:1009D00008E020222146384600F010F8E8688088B8
:1009E000204484B2B44205D2E8688188081980B2F4
:1009F0008842EED2F0BD00003C00002010B4203A46
:100A0000D3B2054AD2681468D2885A4304EB420232
:100A100010BC00F025B800003C0000202DE9F0419A
:100A200080460D4600240D4E4FF4487708E02146DD
:100A30004046FFF7E3FFF0688088204484B26D1CD5
:100A4000BC4208D22A78002A05D0F06881880819AB
:100A500080B28842EBD2BDE8F08100003C0000206B
:100A60002DE9F04300254FF4C8635843DFF8789030
:100A7000D9F804C0D9F80C7030E0002326E00C2629
:100A8000B4FBF6F6F6004FF0800808FA06F832F8E4
:100A9000156048FA03F818EA060F01D10C2C08D9A2
:100AA0004FF0010808FA03F816EA080F07D10C2CDA
:100AB00005D90CEB4106B9F80240345204E00CEBC6
:100AC0004106B9F800403452491C5B1CBC889C426A
:100AD000D5D8BB88C3F5487319446D1CFB88AB425D
:100AE000CBD8BDE8F08300003C0000202DE9F043A6
:100AF00052420023022404EB42041B4D2F886E68EF
:100B0000CD1805EBC508A0EB020C08EB05150CEBA6
:100B1000451826F8187000EB020808EB451526F872
:100B20001570CD1A05EBC50909EB051508EB45183D
:100B300026F818700CEB451526F8157025469D42D1
:100B400008DC5B1C04EB4304641CDA4202D19542CE
:100B500000DC0025954203DD521C04EB4204641CBA
:100B6000002ACDDDBDE8F0833C0000202DE9F74FE1
:100B70000746884602980321A1EB40060024029D07
:100B80004FF6FF7935E09DB109EA4502A8EB050A69
:100B9000381B93461FFA8AF180B2012300F074F8E3
:100BA00038195A461FFA8AF180B2012300F06CF816
:100BB0009CB109EA4402A8EB040A781B93461FFA89
:100BC0008AF180B2012300F05FF878195A461FFAC3
:100BD0008AF180B2012300F057F8002E03DA06EB09
:100BE0008406B61D04E0601B06EB80060A366D1E07
:100BF000641CAC42C7D9029A03B041463846BDE8EE
:100C0000F04FFFF773BF00002DE9F0478AB015469B
:100C10009946DFF87080B8F80040E60A04F01F0734
:100C2000C4F3451401EBC10202EB011100EB4110CA
:100C3000D8F8041001EB400AFFF71FFC4FF44030D6
:100C40000090022001900394029704960F200590D3
:100C5000CDF818A0C5F548700790CDF820900995FB
:100C60006846FFF721FCFFF77BFC0220FFF712FC30
:100C70000028FAD0B8F8000000F0F6FA0AB0BDE893
:100C8000F08700003C0000202DE9F0438BB01446B3
:100C9000984601EBC10202EB011100EB411119482A
:100CA000426802EB41050088C60A00F01F07C0F346
:100CB0004519FFF7E2FB4FF440300190022002900B
:100CC000CDF81090039705960F2006900795012008
:100CD000B8F1000F11D040F21F31089109940A9029
:100CE00001A8FFF7E1FBFFF73BFC0220FFF7D2FB77
:100CF0000028FAD00BB0BDE8F083002108910990DC
:100D00000A94EDE73C0000202DE9F04106460D462F
:100D100017461C4600233A4629463046FFF7B4FFE3
:100D2000281981B200233A463046FFF7ADFF012370
:100D3000224629463046FFF7A7FFF01922462946EA
:100D4000BDE8F04180B20123FFF79EBF2DE9F84FC7
:100D500084460F460026A2EB0C00002801DCACEB19
:100D6000020000B2D91B002900DCF91A09B20FFAFF
:100D70008CF43DB24FF0FF3A624503D34FF00108C7
:100D8000C14601E0D046D146BB4203D34FF0010A31
:100D9000D34600E0D346884209DB4FF00008C34643
:100DA00000EBD072521013B20091074622E04FF0D0
:100DB0000009CA4601EBD172521013B200900F46DF
:100DC00018E02946204600F019FE0098184403B2A6
:100DD000BB4207DBD81B03B204EB080004B205EBEF
:100DE0000A0005B204EB090004B205EB0B0005B2E2
:100DF000761C36B2BE42E4DDBDE8F88F2DE9FC5F1B
:100E0000012140F2FF1000F011FE4FF00408CDF870
:100E1000008002208DF805008DF8040000208DF878
:100E200006008DF807006946AA48FFF7AFFC0E22BE
:100E30000221A848FFF7E8FC4FF00809CDF8009020
:100E40006946A448FFF7A2FC0E220321A148FFF740
:100E5000DBFC4FF4807ACDF800A069469D48FFF78F
:100E600095FC0E2208219B48FFF7CEFC012400943C
:100E700069469948FFF78AFC092200219648FFF746
:100E8000C3FC4FF4006BCDF800B069469348FFF700
:100E90007DFC0E220B219148FFF7B6FC2003009049
:100EA00069468E48FFF772FC0E220C218B48FFF733
:100EB000ABFC0220009069468748FFF767FC0922D7
:100EC00001218548FFF7A0FC40250095694684482C
:100ED000FFF75CFC0E2206218148FFF795FC2020DD
:100EE000009069467F48FFF751FC0E2205217D489E
:100EF000FFF78AFC009569467A48FFF747FC0E2207
:100F000006217848FFF780FC60030090694671482D
:100F1000FFF73CFC0E220D216E48FFF775FCA60280
:100F2000009669466E48FFF731FC09220A216C4899
:100F3000FFF76AFCE003009069466648FFF726FC6D
:100F40000E220F216348FFF75FFC00946946664854
:100F5000FFF71CFC0E2200216348FFF755FC802799
:100F6000009769466148FFF711FC0E2207215F4890
:100F7000FFF74AFCCDF8008069465B48FFF706FCA6
:100F80000E2202215848FFF73FFC4FF01008CDF821
:100F9000008069465348FFF7F9FB0E2204215148AF
:100FA000FFF732FC2003009069464D48FFF7EEFB47
:100FB0000E220C214A48FFF727FC00954C4D69464C
:100FC0002846FFF7E3FB0E2206212846FFF71CFC0C
:100FD000CDF800B069464248FFF7D8FB0E220B213E
:100FE0003F48FFF711FCCDF8008069463E48FFF707
:100FF000CDFB0E2204213C48FFF706FCCDF8009003
:1010000069463648FFF7C2FB0E2203213348FFF73B
:10101000FBFBCDF800A069462F48FFF7B7FB0E2277
:1010200008212D48FFF7F0FB4FF40079CDF8009030
:1010300069462948FFF7AAFB0E2209212648FFF737
:10104000E3FB009769462648FFF7A0FB0E22072125
:101050002348FFF7D9FB009669462348FFF796FB24
:101060000E220A212048FFF7CFFBCDF800906946F9
:101070001D48FFF78BFB0E2209211B48FFF7C4FB1D
:1010800000961C4E69463046FFF780FB0E220A216F
:101090003046FFF7B9FBCDF8008002208DF805003F
:1010A0008DF8044000208DF806008DF80740694651
:1010B0002846FFF76BFB009769462846FFF766FB5B
:1010C00010212846FFF7B7FB80212846FFF7B3FB26
:1010D000BDE8FC9F001C02400004024000000240EA
:1010E00000180240001002400020024000080240A8
:1010F000000C0240001402400148C0687047000024
:101100003C00002010B590B00121880600F0B8FC2A
:101110000121C80500F08AFCFFF770FE00F008FF0F
:10112000002401940294039404940D940E940F945B
:10113000042207214FF4C07000F02EFD4FF48030E0
:1011400000F01AFD012000F021FD3D2000F0F8FC28
:101150000028FAD0059406942E20079017200890B6
:1011600040F24E30099040F2F7100A9040F262309F
:101170000B9040F20D200C9001A800F037FB10B04E
:1011800010BD000030B591B02F20019040F24E30DC
:1011900002901820039040F2F71004900324059465
:1011A000FF20069000200790089009900A904FF4C5
:1011B00080600B9005200C9040F243600E90C01EA2
:1011C0000F904FF4F07010904FF050400D90144D70
:1011D00001A9284600F06CFB059412490D916102AB
:1011E0000B9107210C910E4C01A98034204600F090
:1011F0005FFB012000F0A8FB0121284600F04CFB1A
:101200000121204600F048FB012000F09DFB06482C
:1012100000F012F8012000F0D9FA11B030BD000042
:101220008468014000B80BD034000020014A1080CF
:10123000518070473C0000200149C86070470000A1
:101240003C0000200649002804D0064848600120E0
:10125000886070474FF050404860002088607047B9
:101260003C00002000B80BD0014908807047000006
:101270003C00002010B509498968002908D00146C2
:10128000074800F007FBBDE81040012000F05CBB00
:1012900001460348803800F0FDFAF4E73C000020E6
:1012A000046901402DE9F04F99B0D74D2878401CD2
:1012B00028700120FFF7C6FFFF20FFF7DBFF4FF488
:1012C00000463046FFF74CFB4FF6FF743146204690
:1012D000FFF7ACFFCD48FFF7AFFFFFF70DFFC0886A
:1012E000CBA1FFF79BFBFFF707FFC088CEA104EA65
:1012F0004000FFF793FBFFF7FFFEC088D1A100EB92
:10130000400080B2FFF78AFBFFF7F6FEC088D6A147
:1013100004EA8000FFF782FBFFF7EEFEC088DAA147
:1013200000EB800080B2FFF779FBFFF7E5FEC08895
:10133000E2A100EB400004EA4000FFF76FFB2A78CF
:10134000E7A1684600F0D4FFFFF7D6FEC088C0EBE7
:10135000C00080B2FFF736FBFFF7CEFEC0886946BB
:10136000C0EBC00080B2FFF759FB48F21F0A50469D
:10137000FFF77AFFFFF7C0FEC08804EAC000FFF75E
:1013800021FBFFF7B9FEC088DEA104EAC000FFF729
:1013900045FB4FF47C4731463846FFF747FFFA23B9
:1013A00040F2EE28424619463220FFF7CFFC4FF4B8
:1013B00096752B46424629463220FFF7C7FC48F275
:1013C000E03831464046FFF731FF4FF4C8794B46CD
:1013D0004A46FA212846FFF7B9FC68004B46024608
:1013E000FA21FFF7B3FC4FF47A7B584601F0F4FD85
:1013F00031463046FFF71AFF4FF48C734FF44872B2
:10140000C8210020FFF700FC5046FFF72DFFFFF733
:1014100073FEC08804EAC000FFF7D4FAFFF76CFE41
:10142000C088BBA104EAC000FFF7F8FA314638468D
:10143000FFF7FCFEC8226423FA211046FFF764FC84
:1014400031464046FFF7F2FE4FF4AF793223C8220F
:10145000FA214846FFF758FC31465046FFF7E6FEB2
:10146000C823322249461846FFF74EFC584601F081
:10147000B3FD31463046FFF7D9FE4FF48C734FF47D
:101480004872C8210020FFF7BFFB5046FFF7ECFE73
:10149000FFF732FEC08804EAC000FFF793FAFFF7B7
:1014A0002BFEC0889DA104EAC000FFF7B7FA3146C1
:1014B0003846FFF7BBFEC8226423FA211046FFF727
:1014C000A3FB31464046FFF7B1FE3223C822FA2182
:1014D0004846FFF799FB31465046FFF7A7FEC82361
:1014E000322249461846FFF78FFB584601F074FD3B
:1014F00031463046FFF79AFE4FF48C734FF4487232
:10150000C8210020FFF780FB5046FFF7ADFEFFF734
:10151000F3FDC08804EAC000FFF754FAFFF7ECFDC2
:10152000C08882A104EAC000FFF778FA394638463D
:10153000FFF77CFE32224946C820FFF7D7FA414622
:101540004046FFF773FE4B2249464846FFF7CEFA66
:10155000584601F041FD31463046FFF767FE4FF433
:101560008C734FF44872C8210020FFF74DFB5046A2
:10157000FFF77AFEFFF7C0FDC08804EAC000FFF75E
:1015800021FAFFF7B9FDC0886CA104EAC000FFF79B
:1015900045FA31463846FFF749FE32224946284689
:1015A000FFF7E4FA31464046FFF740FE4B2249463A
:1015B0004FF4E170FFF7DAFA584601F00DFD3146BD
:1015C0003046FFF733FE4FF48C734FF44872C82156
:1015D0000020FFF719FBFFF78FFDC08804EAC00069
:1015E000FFF7F0F9584601F0F7FC31463046FFF7B7
:1015F0001DFE4FF48C734FF44872C8210020FFF792
:1016000003FB19B0BDE8F08F240000203400002057
:10161000424820352E3020696E6368204C434420B8
:10162000706172613A000000496D61676520726502
:10163000736F6C7574696F6E3A3830307834383047
:1016400020707800546F756368207061643A3520AB
:10165000706F696E7420746F756368207375707035
:101660006F727465640000005573652053544D33E8
:10167000322D4C5444432064697265637465642060
:101680006472697665722C006E6F2065787465727D
:101690006E206C636420647269766572206E656585
:1016A0006465642C5247423838382C32346269748D
:1016B000732064617461206275730000546F7563F8
:1016C0006820706164207573652049494320746FF8
:1016D00020636F6D6D756E69636174650000000055
:1016E000446973706C61792076616C7565206465FE
:1016F0006D6F3A2074657374436F756E74203D206E
:101700002564200044726177206C696E653A0000A0
:101710004472617720526563743A000044726177C5
:101720002046756C6C20526563743A004472617790
:1017300020636972636C653A00000000447261774F
:101740002066756C6C20636972636C653A000000FA
:101750002DE9FC410121802000F068F94FF48064FC
:10176000009401208DF8040000218DF806108DF8FA
:1017700007008DF805100C4F69463846FFF706F84C
:101780006600009669463846FFF700F8A500009508
:1017900069463846FEF7FAFF034818300480068091
:1017A0000580BDE8FC810000001C024006490028BD
:1017B00004D0086840F0010008607047086820F015
:1017C00001000860704700001868014006490028C1
:1017D00004D0086840F4803008607047086820F43E
:1017E00080300860704700001868014030B5264A14
:1017F000136826490B401360038A1B04146845696B
:101800002C431C431460121D13680B401360038BA0
:101810001B041468C5692C431C431460121D136813
:101820000B401360038C1B041468456A2C431C4353
:101830001460121D13680B401360018D09041368B6
:10184000C46A23430B431360111D0A68104B1A40EE
:101850000A60D0E900231A43D0E9023423431A4333
:101860000B681A430A60416B0A02018E0B04064999
:1018700024310C6804F07F440C600C68806B1343C7
:1018800004431C430C6030BD0868014000F800F0C0
:101890008F88FE0F41617047002904D0016841F034
:1018A000010101607047016821F00101016070478A
:1018B00070B58A881204436803F4704343600B6870
:1018C000134343608A891204836803F4704383607E
:1018D0008B6813438360026922F0070202610A6980
:1018E0000261CA6913020A8C120491F8244024068A
:1018F0008569002585618E6922431E4316438661F2
:10190000426922F0FF0242614A694261C26940F2C3
:1019100007739A43C261D1E90A231A43C261826AFA
:1019200085620A6B82620A8F1204C36A03F0E023A5
:10193000C3624B6B1343C362026B6FF30A02026311
:10194000C96B016370BD0000014908607047000069
:1019500024680140FEE7704708B54FF4A06000F02E
:1019600043F825208DF8000001208DF801008DF846
:1019700002008DF80300684600F002F808BD000080
:1019800030B50F23C27801250178002A1FD0154AEF
:10199000126802F4E062C2F5E062C2F30722C2F10B
:1019A0000404D3404278A24084781C4014432201AE
:1019B00001F1E02181F80024007800F01F018D4042
:1019C0004009800000F1E020C0F8005130BD01F076
:1019D0001F0085404809800000F1E020C0F88051D8
:1019E00030BD00000CED00E00249084302490860E8
:1019F000704700000000FA050CED00E0B0F5487FEC
:101A000010D800290EDBB1F5F07F0BDC01EBC10231
:101A100002EB011100EB411003494A6802EB400060
:101A200009880180704700003C000020054A002919
:101A300003D0116801431160704711688143116040
:101A40007047000030380240054A002903D0116871
:101A500001431160704711688143116070470000B5
:101A600010380240054A002903D011680143116073
:101A70007047116881431160704700003838024098
:101A8000054A002903D011680143116070471168AD
:101A900081431160704700004438024070B5244B08
:101AA000196801F00C01234C00291ED0224E042994
:101AB0001DD008291DD00460196801F0F001090942
:101AC0001E4A545C0168E14041601C6804F4E05423
:101AD000A40A145D21FA04F484601B6803F46043D3
:101AE0005B0BD25CD140C16070BD0460E4E706606E
:101AF000E2E70F4A121F1168C1F38055116801F027
:101B00003F0135B1B6FBF1F11468C4F388146143A9
:101B100005E0B4FBF1F11468C4F388146143126862
:101B2000C2F30142521C5200B1FBF2F10160C3E763
:101B3000083802400024F40040787D0114000020A1
:101B400002460020510901290BD002290DD0094974
:101B5000096802F01F02012393400B4200D00120CC
:101B60007047044974390968F3E70249091F096895
:101B7000EFE7000074380240034A116821F4403155
:101B800001431160704700008C380240014908672A
:101B90007047000000004742800140EA01600249AE
:101BA00040EA027008607047883802402DE9FC5F07
:101BB0000121FC20FFF73AFF02208DF804008DF888
:101BC000050000208DF806008DF807000120009028
:101BD0006946D148FEF7DAFD0C220021CE48FEF717
:101BE00013FE022000906946CB48FEF7CFFD0C2281
:101BF0000121C948FEF708FE042000906946C64846
:101C0000FEF7C4FD0C220221C348FEF7FDFD0820AB
:101C100000906946C048FEF7B9FD0C220321BE487A
:101C2000FEF7F2FD102700976946BB48FEF7AEFDB0
:101C30000C220421B848FEF7E7FD4FF02008CDF84C
:101C400000806946B448FEF7A1FD0C220521B24888
:101C5000FEF7DAFD4FF48059CDF800906946AE48A2
:101C6000FEF794FD0C221146AB48FEF7CDFD4FF474
:101C7000005ACDF800A06946A748FEF787FD0C2260
:101C80000D21A548FEF7C0FDBD0200956946A2489A
:101C9000FEF77CFD0C220E219F48FEF7B5FD6C007F
:101CA000009469469C48FEF771FD0C220F219A486A
:101CB000FEF7AAFD0120009069469848FEF766FDF0
:101CC0000C2200219548FEF79FFD022000906946F6
:101CD0009248FEF75BFD0C2201219048FEF794FD2F
:101CE000009569468E48FEF751FD0C220E218C4866
:101CF000FEF78AFD009469468948FEF747FD0C22ED
:101D00000F218748FEF780FD012000906946844836
:101D1000FEF73CFD0C2200218148FEF775FD0220F4
:101D2000009069467E48FEF731FD0C2201217C4877
:101D3000FEF76AFD4FF0800BCDF800B06946794898
:101D4000FEF724FD0C2207217648FEF75DFDE61123
:101D5000009669467348FEF719FD0C220821714868
:101D6000FEF752FDA011009069466E48FEF70EFD89
:101D70000C2209216B48FEF747FD6011009069466F
:101D80006848FEF703FD0C220A216648FEF73CFD79
:101D90002011009069466348FEF7F8FC0C220B21E5
:101DA0006048FEF731FDCDF8009069465D48FEF7CA
:101DB000EDFC0C2211465B48FEF726FDCDF800A095
:101DC00069465848FEF7E2FC0C220D215548FEF703
:101DD0001BFD009569465348FEF7D8FC0C220E21E6
:101DE0005048FEF711FD009469464E48FEF7CEFCC0
:101DF0000C220F214B48FEF707FD00966946484824
:101E0000FEF7C4FC0C2208214548FEF7FDFCA0119A
:101E1000009069464248FEF7B9FC0C22092140486F
:101E2000FEF7F2FC6011009069463D48FEF7AEFCFB
:101E30000C220A213A48FEF7E7FC402000903A4D78
:101E400069462846FEF7A2FC0C2206212846FEF72A
:101E5000DBFC009769463148FEF798FC0C22042110
:101E60002E48FEF7D1FCCDF8008069462B48FEF7DE
:101E70008DFC0C2205212948FEF7C6FC01200090AC
:101E80002A4F69463846FEF781FC0C22002138466D
:101E9000FEF7BAFC2011009069461F48FEF776FC59
:101EA0000C220B211C48FEF7AFFC009469461B482E
:101EB000FEF76CFC0C220F211848FEF7A5FC0096DB
:101EC00069461648FEF762FC0C2208211348FEF70B
:101ED0009BFCCDF800B069462846FEF757FC0C2263
:101EE00007212846FEF790FC0220009069460D4825
:101EF000FEF74CFC0C2201210A48FEF785FC01206C
:101F0000009069460748FEF741FC0C220021054875
:101F1000FEF77AFCBDE8FC9F001402400018024066
:101F2000000C024000100240001C02400008024069
:101F300000B593B0FFF73AFE01210846FFF792FD86
:101F4000022001900722029204210391049205903D
:101F50000690079001200890002009900A91102116
:101F60000B9140210C914FF4C0710D910E904FF4E4
:101F700000610F9110908800119001A8129008A89C
:101F8000FEF778FB00F002F813B000BD2DE9FF4129
:101F9000012500950826019602950024039420212E
:101FA0000120FEF73BFB0028F9D16846FEF752FB03
:101FB0000A2000F041F80220009001960295039457
:101FC00020210120FEF72AFB0028F9D16846FEF700
:101FD00041FB0320009001960427029703942021DF
:101FE0000120FEF71BFB0028F9D16846FEF732FB03
:101FF00020210120FEF712FB0028F9D16846FEF7E8
:1020000029FB40F231200097019602950390202190
:102010000120FEF703FB0028F9D16846FEF71AFB02
:1020200040F26A50FEF7AAFB20210120FEF7F6FAE3
:102030000028F9D1BDE8FF8101B581B005490198BB
:102040004843009002E00098401E0090009800284D
:10205000F9D10CBDA08601001CB5002101910091B1
:102060002E4A106840F4803010604FF4A04310688E
:1020700000F4003000900198401C0190009810B9C5
:1020800001989842F3D11068800302D50120009096
:1020900000E00091009801283FD1204840300168BD
:1020A00041F0805101601E49086840F440400860DA
:1020B0001A48083003680360036843F40043036070
:1020C000036843F4A0530360041F164B2360136896
:1020D00043F08073136013689B01FCD50A6842F4D7
:1020E00080320A604A68D203FCD50A6842F40032A2
:1020F0000A604A689203FCD50B4A40F205711160F0
:10210000016821F003010160016841F002010160F2
:102110000168C1F381010229FAD11CBD00380240D7
:1021200000700040195A4007003C024010B501F011
:102130001FFA012803D0BDE8104001F0D3B910BD4B
:1021400010B51248016841F470010160104801683F
:1021500041F0010101600E4A00210832116002685D
:102160000C4B1A400260031D0B4A1A60026822F4ED
:102170008022026006480C300160FFF76DFF0349C2
:102180004FF000608039086010BD000088ED00E06D
:1021900000380240FFFFF6FE103000244FF47A743E
:1021A000FFF780F8204600F017FFF9E7002904D078
:1021B000818941F4005181817047818921F4005166
:1021C000818170470246002012880A4200D0012017
:1021D000704710B540F66A13C1F3421301F01F04B3
:1021E0000121A140012B07D0022B07D014303AB1B6
:1021F00002680A43026010BD0C30F8E71030F6E7C1
:1022000002688A43026010BD7FB504460D46208AED
:1022100020F44051E88808432082A08941F20C61F3
:102220008843A9882A8911436A8902431143A181FD
:10223000A08A20F44071A8890843A0826846FFF76D
:102240002DFC1E48844202D01D48844201D10398CF
:1022500000E00298A189090408D500EBC00101EB58
:10226000001029684900B0FBF1F007E000EBC00165
:1022700001EB001029688900B0FBF1F06422B0FB8B
:10228000F2F109010B096FF018056B4300EB8300B5
:10229000A3891D044FF0320307D503EBC000B0FB48
:1022A000F2F000F00700084306E003EB0010B0FB7B
:1022B000F2F000F00F00084320817FBD00100140C4
:1022C00000140140C1F3080181807047FEE700005F
:1022D0000FB4054B10B503A9044A029800F02CF87E
:1022E00010BC5DF814FB000099270008AC0000202A
:1022F0000FB4084B10B504A902AA039800F01CF80B
:10230000044602A9002000F042FA204610BC5DF805
:1023100014FB00008F27000802E008C8121F08C144
:10232000002AFAD170477047002001E001C1121F56
:10233000002AFBD1704700002DE9FF4F8DB00F46FA
:102340000546002606E025280BD0DDE90F12904750
:102350006D1C761C28780028F5D111B03046BDE8F8
:10236000F08F0024A246A1460122E94900E004437F
:1023700015F8013F203B02FA03F00842F7D1287814
:102380002A2810D06FF02F022878A0F130010929F7
:1023900014D80AEB8A0102EB410144F0020400EB7D
:1023A000010A6D1CF0E701CF5FEA000A03D544F48F
:1023B0000054CAF1000A44F002046D1C28782E284B
:1023C00017D115F8010F44F004042A280ED06FF03D
:1023D0002F022878A0F1300109290AD809EB8901D8
:1023E00002EB410100EB01096D1CF2E757F8049B79
:1023F0006D1C28786C280FD006DC4C2817D0682874
:102400000DD06A2814D104E0742810D07A280FD196
:102410000DE044F400140AE044F4801401E044F4B4
:1024200040146978814202D104F580146D1C6D1C42
:1024300028786E281ED00CDC632830D004DC0028FD
:102440008BD0582811D19FE0642867D069280CD11F
:1024500064E073282DD004DC6F2872D0702804D17A
:1024600094E075286ED078286DD0DDE90F12904782
:10247000761C4BE1C4F30250022806D0032809D091
:10248000042801CF09D0066040E101CFF117C0E96F
:1024900000613BE101CF068038E1067036E117F8B4
:1024A000040B8DF8000000208DF80100EB460120A0
:1024B00003E057F804BB4FF0FF3061074FF0000115
:1024C00002D40DE008F10101884649450FDA804544
:1024D000F8DB1BF808100029F4D108E008F101012D
:1024E00088468142FADB1BF808100029F6D1DDE9A5
:1024F0000F23AAEB08008146214600F031F9304451
:1025000000EB080604E0DDE90F121BF8010B904711
:10251000B8F10108F7D221464846F2E00A21C4F397
:1025200002524FF0000B0891022A04D001CFC117CC
:10253000032A09D00AE0FF1D27F00707F7E8020188
:1025400008E02CE01EE01FE000B2C117042A01D110
:1025500040B2C117021E71F1000206DA0023D0EB6F
:10256000030063EB01012D2202E0220504D52B229A
:102570008DF82420012203E0E20701D02022F7E7B2
:10258000904653E00A210BE0102109E010214FF0A2
:10259000000B44F004044FF00809089103E00821FF
:1025A0004FF0000B0891C4F30252022A04D001CF6D
:1025B0000021032A06D006E0FF1D27F00707F7E8F1
:1025C000020103E080B2042A00D1C0B24FF000083B
:1025D00022072BD52A78702A07D0DDF820C08CF08E
:1025E000100C5CEA0B0C05D00EE040228DF8242084
:1025F000012208E050EA010306D030238DF8243090
:102600008DF8252002229046089B83F0080353EAA8
:102610000B030BD150EA010201D1620706D530222B
:102620008DF824204FF00108A9F101092A78582AD1
:1026300004D038A20B9208AA0A920BE03AA2F9E75A
:102640005B46089AFDF72CFE0B9B9B5C0A9A521E78
:102650000A92137050EA0102F2D10A98ADEB000021
:1026600000F1200B600702D524F4803401E04FF024
:102670000109D94502DDA9EB0B0000E0002000EBC9
:102680000B0141440890AAEB010AE00306D4DDE9FE
:102690000F232146504600F063F806444FF000092E
:1026A00008E009A911F80900DDE90F12904709F1C6
:1026B0000109761CC145F4DBE0030CD5DDE90F23ED
:1026C0002146504600F04CF8064404E0DDE90F12C4
:1026D00030209047761C0899481E08900029F5DCA8
:1026E00008E00A980A990078491C0A91DDE90F125E
:1026F0009047761CBBF10001ABF1010BF1DC2146E8
:102700005046DDE90F2300F019F806446D1C21E660
:1027100009280100303132333435363738396162B7
:10272000636465660000000030313233343536377B
:102730003839414243444546000000002DE9F0414C
:10274000044600251E461746880404D405E0394691
:102750002020B0476D1C641EF9D52846BDE8F081E5
:102760002DE9F041044600251E469046C80301D5D8
:10277000302700E02027880404D505E0414638468C
:10278000B0476D1C641EF9D52846BDE8F0810A6883
:10279000531C0B601070704770B50446064DE1B2D3
:1027A0002846FFF78FFD80212846FFF70BFD002804
:1027B000F9D0204670BD0000001001401CB5FDF7A7
:1027C0002BFE0CA0FFF784FD18A0FFF781FD204829
:1027D0000121CDE900104A0200231EA1214800F08A
:1027E00097FE012802D04FF0FF301CBD00F0F0FC36
:1027F000FEE70000D5E2CAC7D2BBB8F65BD2B0BBD9
:10280000F05D2D53544D3332C8ABCFB5C1D0BFAA04
:10281000B7A2B0E52D4672656552544F53B9CCBC92
:10282000FEBFE2C0FDB3CCA3A10A0A00B0B4CFC280
:102830004B455931B9D2C6F0C8CECEF1A3ACB0B435
:10284000CFC24B455932BBD6B8B4C8CECEF10A0080
:10285000280000204170705461736B43726561748D
:1028600065000000690300082DE9F04104460F46A9
:10287000174EF5683068001D00F09CFA38B93068D2
:1028800090F82C1001208840316981433161601C2F
:1028900007D137B13168BDE8F041091D0D4800F09E
:1028A000C1BA2C4430684460AC4206D23168B06B87
:1028B000091DBDE8F04100F09DBA3168706B091D3B
:1028C00000F098FAB06A844200D2B462BDE8F081A8
:1028D0004C0000208003002070B5044600F0AEFAE2
:1028E0001C4DA868401CA860286810B1686938B100
:1028F0000CE02C60A868012808D100F0F9F805E088
:102900002868E16AC06A884200D82C60686A401C66
:102910006862E06A01212A698140114329610E49F8
:1029200000EB800001EB8000211D00F07BFA00F03D
:10293000C1FA686900280CD02868E16AC06A884238
:1029400007D206494FF080500860BFF34F8FBFF3A6
:102950006F8F70BD4C000020B000002004ED00E03F
:1029600070B5124E124D1CE000F0E8FC306820B14A
:10297000002400F085FEA4B901E00124F9E700F08D
:102980005DFAF068C468201D00F014FAA868401EC3
:10299000A8606868401E686000F08CFA204600F06D
:1029A00009F868680028DFD170BD00006C030020C2
:1029B0004C00002010B50446206B00F0AFFA204612
:1029C000BDE8104000F0AABA4FF410410F4842078A
:1029D00006D0C01D20F007000C49411AC1F5104176
:1029E0000B4A1060002353600144083921F00701AD
:1029F000103A11604B600B600B1A43600160406835
:102A0000906050604FF00040D06070479403002009
:102A100098000020074E4FF08054074DFFF7A0FFAD
:102A200030680128FAD92C60BFF34F8FBFF36F8F46
:102A3000F4E70000B000002004ED00E02DE9F047CD
:102A4000DDE908580A9C81460E469A46206B521EC4
:102A500000EB820020F00707780705D040F22B3208
:102A600018A11FA0FFF734FC00202218315C82F867
:102A70003410315C11B1401C1028F6D3002684F8C4
:102A80004360202D00D31F25E562201D00F0AFF923
:102A900004F1180000F0ABF92461C5F12000A06139
:102AA0006462666484F8486052464946384600F0DD
:102AB0006FF92060B8F1000F01D0C8F80040BDE800
:102AC000F08700002E2E5C2E2E5C467265655254F7
:102AD0004F535C7372635C7461736B732E6300009D
:102AE0004572726F723A25732C25640D0A0000003E
:102AF00070B50024114D04EB840005EB800000F05C
:102B00006BF9641C202CF6D30D4800F065F90C48D5
:102B1000143000F061F90A48283000F05DF90848E7
:102B20003C3000F059F90648503000F055F905489E
:102B3000034941631431816370BD0000B00000207F
:102B4000300300204C00002030B5134900E011464E
:102B50000A688242FBD34B685C18844203D1406808
:102B60001844486008460D6844682318AB420DD1EC
:102B7000094B103B1B689A4206D0526822444260BF
:102B80000A681268026002E0036000E002608142AD
:102B900000D0086030BD0000980000200748416B5D
:102BA0000968002905D0416BC968C9684968816214
:102BB00070474FF0FF318162704700004C000020E9
:102BC00008484068401C05D040F20F1206A111A031
:102BD000FFF77EFB502080F31188BFF34F8FBFF3C8
:102BE0006F8FFEE7A00000202E2E5C2E2E5C46721A
:102BF000656552544F535C706F72745C5256445307
:102C00005C41524D5F434D34465C706F72742E636D
:102C1000000000004572726F723A25732C25640D16
:102C20000A00000070B500250446002805D140F2D6
:102C3000816208A10EA0FFF74BFB11496069884231
:102C400005D1A06A2839884201D000B9012528465B
:102C500070BD00002E2E5C2E2E5C467265655254AF
:102C60004F535C7372635C7461736B732E6300000B
:102C70004572726F723A25732C25640D0A000000AC
:102C8000800300202DE9F0410546002600F056FBA8
:102C9000304F386808B9FFF797FEF86805424BD106
:102CA00075B1083568070BD005F00700C0F10800C2
:102CB0000544680704D0BF2227A131A0FFF708FB15
:102CC000002D39D07868854236D82249103108461F
:102CD000046801E0214604466068A84202D22068E8
:102CE0000028F7D13868844226D00E68083620685C
:102CF00008606068401B102811D904EB05085FEAE2
:102D0000487004D0EC2214A11DA0FFF7E1FA60681E
:102D1000401BC8F8040065604046FFF715FF616876
:102D20007868401A7860BA68904200D2B860F86853
:102D3000014361600020206000F0A2FC700705D014
:102D40004FF4967204A10EA0FFF7C2FA3046BDE818
:102D5000F0810000880000202E2E5C2E2E5C467232
:102D6000656552544F535C706F72745C4D656D4D68
:102D7000616E675C686561705F342E6300000000FF
:102D80004572726F723A25732C25640D0A0000009B
:102D900024384FF08073036221F00101C1610449BE
:102DA000816142606FF0020140F820197047000015
:102DB000C12B00080169D0E901329A60D0E90123F2
:102DC0005A604A68824201D182684A6000220261E8
:102DD0000868401E0860704700F1080141604FF02C
:102DE000FF328260C16001610021016070470021F3
:102DF0000161704730B50C68621C02D000F1080216
:102E000002E0026904E01A4653681D68A542FAD937
:102E100053684B6099608A60516008610168491C81
:102E2000016030BD42684A6093688B609368596066
:102E3000916008610168491C01607047502080F36F
:102E40001188BFF34F8FBFF36F8F09494868401C4B
:102E5000486001280AD10748006810F0FF0F05D02C
:102E600040F2B91204A10FA0FFF732BA7047000078
:102E7000A000002004ED00E02E2E5C2E2E5C467299
:102E8000656552544F535C706F72745C5256445374
:102E90005C41524D5F434D34465C706F72742E63DB
:102EA000000000004572726F723A25732C25640D84
:102EB0000A00000010B5094C6068002805D14FF4E5
:102EC000E07207A111A0FFF703FA6068401E60607E
:102ED000002801D180F3118810BD0000A00000205F
:102EE0002E2E5C2E2E5C4672656552544F535C70DC
:102EF0006F72745C525644535C41524D5F434D3483
:102F0000465C706F72742E63000000004572726F31
:102F1000723A25732C25640D0A00000070B5002854
:102F20002AD008380446154D6068E968084205D182
:102F30004FF4A07212A11CA0FFF7CAF9206828B1B3
:102F400040F241120EA118A0FFF7C2F96068E968CB
:102F5000084211D02268002A0ED18843606000F038
:102F6000EDF960686968084468602046FFF7ECFD89
:102F7000BDE8704000F084BB70BD000088000020F8
:102F80002E2E5C2E2E5C4672656552544F535C703B
:102F90006F72745C4D656D4D616E675C68656170E4
:102FA0005F342E63000000004572726F723A257321
:102FB0002C25640D0A00000006484FF47A71006861
:102FC000B0FBF1F14FF0E020491E416107210161A2
:102FD000704700000000002010B504460020002CBF
:102FE00010D00E48006B28B140F2CF420CA113A0C4
:102FF000FFF76EF900F0A2F900212046FFF734FC3C
:1030000000F03EFB002807D110494FF080500860C7
:10301000BFF34F8FBFF36F8F10BD00004C00002037
:103020002E2E5C2E2E5C4672656552544F535C7397
:1030300072635C7461736B732E6300004572726F10
:10304000723A25732C25640D0A00000004ED00E09F
:1030500070B50446FFF7F2FE234D04B92C68201D1D
:10306000FFF7A8FE58B9E06A204A00EB800152F849
:10307000211021B901218140286988432861A06A73
:1030800018B104F11800FFF795FE686A401C6862E9
:103090002868844207D1211D1548FFF7C3FE6868E0
:1030A000401C686007E0A868401EA8602046FFF743
:1030B00081FCFFF773FDFFF7FDFE6869002812D061
:1030C000286884420FD1286B28B140F2654209A1DB
:1030D0000FA0FFF7FDF812494FF080500860BFF3D2
:1030E0004F8FBFF36F8F70BD4C000020B0000020E9
:1030F0006C0300202E2E5C2E2E5C467265655254A9
:103100004F535C7372635C7461736B732E63000066
:103110004572726F723A25732C25640D0A00000007
:1031200004ED00E070B50446002805D140F2AB6222
:1031300019A120A0FFF7CCF8002C2BD0214D286836
:10314000844227D0FFF77AFE2046FFF76BFDE8B1F7
:10315000201DFFF72FFEE06A01212A6981401143FB
:103160002961194900EB800001EB8000211DFFF768
:1031700059FEE06A2968C96A884207D313494FF0AB
:1031800080500860BFF34F8FBFF36F8FBDE8704072
:10319000FFF790BE70BD00002E2E5C2E2E5C467296
:1031A000656552544F535C7372635C7461736B73E7
:1031B0002E6300004572726F723A25732C25640DE0
:1031C0000A0000004C000020B000002004ED00E0E8
:1031D0001CB515480024CDE900402346802213A1E8
:1031E000144800F095F901280AD0401C1BD102B008
:1031F00040F28472BDE810400FA116A0FFF768B836
:10320000502080F31188BFF34F8FBFF36F8F0648B4
:103210004FF0FF312C38816201214161C460BDE86B
:103220001C4000F0D7B81CBD7800002049444C4534
:1032300000000000152A00082E2E5C2E2E5C46721F
:10324000656552544F535C7372635C7461736B7346
:103250002E6300004572726F723A25732C25640D3F
:103260000A00000070B50446FFF7E8FD244D04B9DC
:103270002C68201DFFF79EFD58B9E06A214A00EB3B
:10328000800152F8211021B9012181402869884329
:103290002861A06A18B104F11800FFF78BFD211D09
:1032A0001948FFF7BFFDFFF705FE686928B1FFF772
:1032B000C5FDFFF773FCFFF7FDFD2868844211D1BF
:1032C000686980B1286B28B140F257620FA116A03F
:1032D000FEF7FEFF18494FF080500860BFF34F8F94
:1032E000BFF36F8F70BD0848A9680068884202D19B
:1032F0000020286070BDBDE8704000F027B80000D5
:103300004C000020B0000020800300202E2E5C2EF8
:103310002E5C4672656552544F535C7372635C74E5
:1033200061736B732E6300004572726F723A25737E
:103330002C25640D0A00000004ED00E00248016B3A
:10334000491C0163704700004C00002070B5144D0B
:10335000286B002802D00120E86170BD0020E861E0
:103360002869B0FA80F0C0F11F000E4E00EB800417
:1033700056F8240028B940F6F6220BA111A0FEF75A
:10338000A7FF06EB840041684968416000F108022C
:10339000914201D1496841604068C068286070BDB1
:1033A0004C000020B00000202E2E5C2E2E5C4672B9
:1033B000656552544F535C7372635C7461736B73D5
:1033C0002E6300004572726F723A25732C25640DCE
:1033D0000A0000001CB52F4C20682F49884205D1F7
:1033E00040F259122DA138A0FEF772FF20682A4939
:1033F000491E884205D14FF4AD7228A132A0FEF7D4
:1034000067FF354C20780190FF20207020780090D5
:103410009DF800009DF8001000F0F000884205D0F3
:1034200040F273121DA128A0FEF752FF9DF8000084
:103430002A4A00F0500010700720906006E0906863
:10344000401E90609DF80000400000909DF8000034
:103450000006F4D4107A000200F4E0609060019855
:1034600020700C482030016841F47001016001684F
:1034700041F070410160FFF79FFD00205060FCF7B4
:10348000C1FE1748016841F040410160FCF7AAFE07
:1034900000201CBD00ED00E071C20F412E2E5C2EFD
:1034A0002E5C4672656552544F535C706F72745C4B
:1034B000525644535C41524D5F434D34465C706FED
:1034C00072742E63000000004572726F723A2573A9
:1034D0002C25640D0A00000000E400E0A00000209C
:1034E00034EF00E010B5502080F31188BFF34F8F08
:1034F000BFF36F8F00F04AF818B104494FF08050C5
:103500000860002080F3118810BD000004ED00E089
:103510002DE9FF5F8146DDE90E788A4616469B4617
:10352000B000FFF7AFFB054628000AD04C20FFF79C
:10353000A9FB04460CB1256304E02846FFF7EEFC26
:1035400000E000248CB10020CDE90240CDE90078F4
:103550005B46324651464846FFF770FA2046FFF771
:10356000BBF9012004B0BDE8F09F4FF0FF30F9E750
:1035700005484169002903D0006B18B1002070474D
:1035800001207047022070474C0000202DE9F041D7
:1035900000262E4F386B002808D0B869401CB8614F
:1035A000F86900B101263046BDE8F081FD686D1C68
:1035B000FD608DB9786B006828B140F6D91224A15E
:1035C0002AA0FEF785FE786BB96B7963B863386A19
:1035D000401C3862FFF7E2FAB86ADFF8A080854243
:1035E0000DD3786B006838B1786BC068C4686068C8
:1035F00085420ED2B86202E04FF0FF30B862386800
:10360000C06A00EB800058F820000128C8D90126C4
:10361000C6E7201DFFF7CEFBA06A18B104F1180021
:10362000FFF7C8FBE06A01213A6981401143396123
:1036300000EB800008EB8000211DFFF7F3FBE06A40
:103640003968C96A8842CCD30126CAE74C000020F9
:103650002E2E5C2E2E5C4672656552544F535C7361
:1036600072635C7461736B732E6300004572726FDA
:10367000723A25732C25640D0A000000B00000206A
:103680002DE9F041002400272B4D286B002805D19F
:103690004FF4FD6229A130A0FEF71AFEFFF7CEFB22
:1036A000286B401E2863286BF0BBA868E0B3DFF8E6
:1036B000B88001261DE0D8F80C00C46804F1180099
:1036C000FFF778FB201DFFF775FBE06A2A6906FA11
:1036D00000F111432961254900EB800001EB8000D6
:1036E000211DFFF79FFBE06A2968C96A884200D361
:1036F000EE61D8F800000028DDD10CB1FFF74EFADA
:10370000AC6944B1FFF742FF00B1EE61641E002CCA
:10371000F8D10020A861E86930B1012714493807C1
:103720000860BFF34F8F00E001E0BFF36F8FFFF73A
:10373000C1FB3846BDE8F0814C0000202E2E5C2EE7
:103740002E5C4672656552544F535C7372635C74B1
:1037500061736B732E6300004572726F723A25734A
:103760002C25640D0A00000058030020B000002042
:1037700004ED00E000000000000000000000000078
:103780000000000000000000000000000000000039
:103790000000000000000000000000000000000029
:1037A0000000000000008001800180018001800194
:1037B0008001800180018001800180018001800101
:1037C00000000000800180010000000000000000F7
:1037D0000000000000000000CC00CC00CC00CC00B9
:1037E000CC00CC0000000000000000000000000041
:1037F00000000000000000000000000000000000C9
:1038000000000000000000000000000000000000B8
:10381000600C600C600C30063006FE1FFE1F300688
:1038200038071803FE1FFE1F180318038C018C01B4
:103830008C01000000008000E003F80F9C0E8C1C3F
:103840008C188C009800F801E007800E801C8C1802
:103850008C189C18B80CF00FE0038000800000006A
:10386000000000000000000000000E181B0C110CEE
:1038700011061106110311039B018E01C038C06CA3
:1038800060446044304430441844186C0C380000E4
:10389000000000000000E001F003380718061806D9
:1038A0003003F001F000F8009C310E33061E061CB8
:1038B000061C063FFC73F021000000000000000021
:1038C00000000000000000000C000C000C000C00C8
:1038D0000C000C00000000000000000000000000D0
:1038E00000000000000000000000000000000000D8
:1038F000000000000000000200038001C000C000C2
:1039000060006000300030003000300030003000D7
:103910003000300060006000C000C0008001000383
:1039200000020000000020006000C0008001800153
:10393000000300030006000600060006000600065D
:10394000000600060003000380018001C000600043
:103950002000000000000000000000000000000047
:10396000C000C000D806F807E001300338070000A7
:103970000000000000000000000000000000000047
:103980000000000000000000000000000000000037
:1039900080018001800180018001FC3FFC3F8001AB
:1039A0008001800180018001000000000000000013
:1039B0000000000000000000000000000000000007
:1039C00000000000000000000000000000000000F7
:1039D0000000000000008001800100010001800063
:1039E00000000000000000000000000000000000D7
:1039F000000000000000000000000000E007E007F9
:103A000000000000000000000000000000000000B6
:103A100000000000000000000000000000000000A6
:103A20000000000000000000000000000000000096
:103A3000000000000000C000C00000000000000006
:103A4000000000000000000C000C0006000600064C
:103A50000003000300038003800180018001C00097
:103A6000C000C00060006000000000000000000016
:103A7000000000000000E003F007380E180C0C18DE
:103A80000C180C180C180C180C180C180C180C1816
:103A9000180C380EF007E0030000000000000000E2
:103AA00000000000000000018001C001F001980149
:103AB00088018001800180018001800180018001F6
:103AC00080018001800180010000000000000000F2
:103AD000000000000000E003F80F180C0C180C1890
:103AE00000180018000C000600038001C0006000F0
:103AF00030001800FC1FFC1F000000000000000048
:103B0000000000000000E001F807180E0C0C0C0C7F
:103B1000000C0006C003C007000C001800180C18A9
:103B20000C18180CF807E00300000000000000006B
:103B3000000000000000000C000E000F000F800DC0
:103B4000C00C600C600C300C180C0C0CFC3FFC3FE3
:103B5000000C000C000C000C000000000000000035
:103B6000000000000000F80FF80F180018000C000B
:103B7000EC03FC071C0E001C0018001800180C18A1
:103B80001C0C180EF807E003000000000000000005
:103B9000000000000000C007F00F381C18181800C3
:103BA0000C00CC03EC0F3C0E1C1C0C180C180C1851
:103BB000181C380EF007E0030000000000000000B1
:103BC000000000000000FC1FFC1F000C00060006A7
:103BD000000380038001C001C000E00060006000BD
:103BE00070003000300030000000000000000000D5
:103BF000000000000000E003F007380E180C180C5D
:103C0000180C3806F007F007180C0C180C180C18D4
:103C10000C18380CF80FE003000000000000000052
:103C2000000000000000E003F007380E1C0C0C1828
:103C30000C180C181C1C381EF81BE0190018000C7E
:103C4000000C1C0EF807F00100000000000000004E
:103C50000000000000000000000000000000000064
:103C60008001800100000000000000000000000052
:103C70000000000080018001000000000000000042
:103C80000000000000000000000000000000000034
:103C90008001800100000000000000000000000022
:103CA0000000000080018001000100018000000090
:103CB0000000000000000000000000000000000004
:103CC000000000000010001C800FE003F800180046
:103CD000F800E003800F001C00100000000000004E
:103CE00000000000000000000000000000000000D4
:103CF00000000000F81F000000000000F81F000096
:103D000000000000000000000000000000000000B3
:103D100000000000000000000000000000000000A3
:103D20000000000008003800F001C007001F001864
:103D3000001FC007F001380008000000000000006C
:103D4000000000000000E003F80F180C0C180C181D
:103D50000018000C000600038001C000C000C00075
:103D600000000000C000C0000000000000000000D3
:103D70000000000000000000E00718180420C2291D
:103D8000224A114409440944094409221113E20C4E
:103D9000024004201818E0070000000000000000A6
:103DA00000000000000080038003C006C006C006BB
:103DB000600C600C301830183018F83FF83F1C7059
:103DC0000C600C6006C006C000000000000000008F
:103DD000000000000000FC03FC0F0C0C0C180C1879
:103DE0000C180C0CFC07FC0F0C180C300C300C30B1
:103DF0000C300C18FC1FFC07000000000000000045
:103E0000000000000000C007F01F38381C300C70A4
:103E100006600600060006000600060006000660B2
:103E20000C701C30F01FE0070000000000000000D4
:103E3000000000000000FE03FE0F060E0618061824
:103E400006300630063006300630063006300618DA
:103E50000618060EFE0FFE03000000000000000022
:103E6000000000000000FC3FFC3F0C000C000C00B8
:103E70000C000C00FC1FFC1F0C000C000C000C00C4
:103E80000C000C00FC3FFC3F0000000000000000A4
:103E9000000000000000F83FF83F1800180018006C
:103EA00018001800F81FF81F180018001800180054
:103EB00018001800180018000000000000000000A2
:103EC000000000000000E00FF83F3C780E6006E0C4
:103ED00007C00300030003FE03FE03C007C006C0C3
:103EE0000EC03CF0F83FE00F0000000000000000B2
:103EF0000000000000000C300C300C300C300C3096
:103F00000C300C30FC3FFC3F0C300C300C300C30D3
:103F10000C300C300C300C300000000000000000B1
:103F2000000000000000800180018001800180010C
:103F30008001800180018001800180018001800179
:103F4000800180018001800100000000000000006D
:103F50000000000000000006000600060006000643
:103F60000006000600060006000600060006180609
:103F700018063807F003E001000000000000000010
:103F800000000000000006300618060C06060603B6
:103F90008601C60066007600DE008E010603060676
:103FA000060C061806300660000000000000000045
:103FB0000000000000001800180018001800180089
:103FC0001800180018001800180018001800180031
:103FD00018001800F81FF81F000000000000000083
:103FE0000000000000000EE01EF01EF01EF036D8AB
:103FF00036D836D836D866CC66CC66CCC6C6C6C6E9
:10400000C6C6C6C686C386C3000000000000000006
:104010000000000000000C301C303C303C306C30A4
:104020006C30CC30CC308C310C330C330C360C363D
:104030000C3C0C3C0C380C30000000000000000070
:10404000000000000000E007F81F1C380E7006603A
:1040500003C003C003C003C003C003C003C00660A5
:104060000E701C38F81FE007000000000000000080
:10407000000000000000FC0FFC1F0C380C300C305E
:104080000C300C300C18FC1FFC070C000C000C0052
:104090000C000C000C000C000000000000000000F0
:1040A000000000000000E007F81F1C380E700660DA
:1040B00003E003C003C003C003C003C007E00663FE
:1040C0000E3F1C3CF83FE0F700C00000000000007D
:1040D000000000000000FE0FFE1F0638063006300C
:1040E00006300638FE1FFE0706030606060C0618F5
:1040F00006180630063006600000000000000000D0
:10410000000000000000E003F80F1C0C0C180C1855
:104110000C001C00F803E00F001E003806300630CB
:104120000E301C1CF80FE00700000000000000002B
:10413000000000000000FE7FFE7F80018001800102
:104140008001800180018001800180018001800167
:10415000800180018001800100000000000000005B
:104160000000000000000C300C300C300C300C3023
:104170000C300C300C300C300C300C300C300C305F
:104180000C301818F81FE0070000000000000000C5
:1041900000000000000003600630063006300C18F6
:1041A0000C180C18180C180C380E30063006700756
:1041B00060036003C001C0010000000000000000B7
:1041C0000000000000000360C361C361C361663387
:1041D000663366336633663366336C1B6C1B6C1B4D
:1041E0002C1A3C1E380E380E0000000000000000A3
:1041F0000000000000000FE00C7018303018700C48
:10420000600EC00780038003C003E006700C301C02
:1042100018180C300E6007E00000000000000000DD
:1042200000000000000003C006600C301C38381885
:10423000300C6006E007C00380018001800180012E
:10424000800180018001800100000000000000006A
:10425000000000000000FC7FFC7F006000300018C0
:10426000000C000600038001C00060003000180050
:104270000C000600FE7FFE7F000000000000000032
:10428000000000000000E003E00360006000600048
:10429000600060006000600060006000600060001E
:1042A0006000600060006000600060006000E0038B
:1042B000E00300000000300030006000600060009B
:1042C000C000C000C000C001800180018001000367
:1042D00000030003000600060000000000000000CC
:1042E000000000000000E003E003000300030003FF
:1042F00000030003000300030003000300030003A6
:104300000003000300030003000300030003E003B5
:10431000E003000000000000C001C0016003600372
:10432000600330063006180C180C00000000000076
:10433000000000000000000000000000000000007D
:10434000000000000000000000000000000000006D
:10435000000000000000000000000000000000005D
:10436000000000000000FFFFFFFF00000000000051
:104370000000000000000C000C000C000C000C0001
:104380000C00000000000000000000000000000021
:10439000000000000000000000000000000000001D
:1043A000000000000000000000000000000000000D
:1043B000F003F8071C0C0C0C000FF00FF80C0C0CA1
:1043C0000C0C1C0FF80FF01800000000000000009B
:1043D0000000000000001800180018001800180065
:1043E000D803F80F380C18181818181818181818B7
:1043F0001818380CF80FD803000000000000000067
:1044000000000000000000000000000000000000AC
:10441000C003F007300E180C180018001800180020
:10442000180C300EF007C003000000000000000070
:104430000000000000000018001800180018001804
:10444000C01BF01F301C1818181818181818181846
:104450001818301CF01FC01B0000000000000000F6
:10446000000000000000000000000000000000004C
:10447000C003F00F300C1818F81FF81F18001800B0
:104480003818301CF00FC0070000000000000000CA
:10449000000000000000800FC00FC000C000C0007E
:1044A000F007F007C000C000C000C000C000C0009E
:1044B000C000C000C000C0000000000000000000FC
:1044C00000000000000000000000000000000000EC
:1044D000E00DF80F180E0C0C0C0C0C0C0C0C0C0C4A
:1044E0000C0C180EF80FE00D000C0C0C1C06F80755
:1044F000F001000000001800180018001800180053
:10450000D807F80F381C1818181818181818181881
:1045100018181818181818180000000000000000DB
:10452000000000000000C000C0000000000000000B
:10453000C000C000C000C000C000C000C000C0007B
:10454000C000C000C000C00000000000000000006B
:10455000000000000000C000C000000000000000DB
:10456000C000C000C000C000C000C000C000C0004B
:10457000C000C000C000C000C000C000C000F80003
:104580007800000000000C000C000C000C000C0077
:104590000C0C0C060C038C01CC006C00FC009C0184
:1045A0008C030C030C060C0C000000000000000043
:1045B000000000000000C000C000C000C000C0003B
:1045C000C000C000C000C000C000C000C000C000EB
:1045D000C000C000C000C0000000000000000000DB
:1045E00000000000000000000000000000000000CB
:1045F0007C3CFF7EC7E383C183C183C183C183C188
:1046000083C183C183C183C100000000000000009A
:10461000000000000000000000000000000000009A
:104620009807F80F381C18181818181818181818A0
:1046300018181818181818180000000000000000BA
:10464000000000000000000000000000000000006A
:10465000C003F00F300C181818181818181818186C
:104660001818300CF00FC00300000000000000001C
:10467000000000000000000000000000000000003A
:10468000D803F80F380C1818181818181818181814
:104690001818380CF80FD803180018001800180064
:1046A00018000000000000000000000000000000F2
:1046B000C01BF01F301C18181818181818181818D4
:1046C0001818301CF01FC01B001800180018001824
:1046D00000180000000000000000000000000000C2
:1046E000B007F003700030003000300030003000C0
:1046F00030003000300030000000000000000000FA
:1047000000000000000000000000000000000000A9
:10471000E003F003380E180C3800F003C007000C5B
:10472000180C380EF007E003000000000000000045
:1047300000000000000000008000C000C000C000B9
:10474000F007F007C000C000C000C000C000C000FB
:10475000C000C000C007800700000000000000008B
:104760000000000000000000000000000000000049
:1047700018181818181818181818181818181818B9
:104780001818381CF01FE01900000000000000009D
:104790000000000000000000000000000000000019
:1047A0000C18180C180C180C300630063006600374
:1047B00060036003C001C0010000000000000000B1
:1047C00000000000000000000000000000000000E9
:1047D000C141C141C3616363636363633636363687
:1047E00036361C1C1C1C1C1C0000000000000000B5
:1047F00000000000000000000000000000000000B9
:104800001C38381C300C60066003600360036003D2
:104810006006300C381C1C3800000000000000004E
:104820000000000000000000000000000000000088
:104830001830301830187018600C600CE00CC0068E
:10484000C00680038003800380018001C001F00066
:1048500070000000000000000000000000000000E8
:10486000FC1FFC1F000C000600038001C00060005C
:1048700030001800FC1FFC1F0000000000000000BA
:1048800000000000000000038001C000C000C00064
:10489000C000C000C0006000600030006000400048
:1048A000C000C000C000C000C000C0008001000304
:1048B0000000000000008001800180018001800173
:1048C00080018001800180018001800180018001E0
:1048D00080018001800180018001800180018001D0
:1048E0008001000000006000C000C0018001800164
:1048F0008001800180010003000300060003000125
:10490000800180018001800180018001C000600081
:104910000000000000000000000000000000000097
:1049200000000000F010F81F080F00000000000059
:104930000000000000000000000000000000000077
:10494000000000006449000800000020B0000000E2
:1049500018230008144A0008B0000020E896000060
:10496000282300080095BA0A00000000000000009B
:104970000102030406070809000000000102030405
:1049800001020304060708090000000000000000FF
:10499000000000000000000074370008100018003C
:1049A0000000FFFF000000D0000000000000000039
:1049B00000000000000000000000000000000000F7
:1049C00000000000000000000000000000000000E7
:1049D00000000000000000000000000000000000D7
:1049E00000000000000000000000000000000000C7
:1049F00000000000000000000000000000000000B7
:104A00000000000000000000AAAAAAAA00000000FE
:044A100000000000A2
:04000005080001AD41
:00000001FF
