:020000040800F2
:10000000909700207D020008890B00087306000805
:100010004D0B000805050008110F00080000000046
:10002000000000000000000000000000C501000802
:10003000070500080000000019020008990D0008DB
:10004000970200089702000897020008970200082C
:10005000970200089702000897020008970200081C
:10006000970200089702000897020008970200080C
:1000700097020008970200089702000897020008FC
:1000800097020008970200089702000897020008EC
:1000900097020008970200089702000897020008DC
:1000A00097020008970200089702000897020008CC
:1000B00097020008970200089702000897020008BC
:1000C00097020008970200089702000897020008AC
:1000D000970200089702000897020008970200089C
:1000E000970200089702000897020008970200088C
:1000F000970200089702000897020008970200087C
:10010000970200089702000897020008970200086B
:10011000970200089702000897020008970200085B
:10012000970200089702000897020008970200084B
:10013000970200089702000897020008970200083B
:10014000970200089702000897020008970200082B
:10015000970200089702000897020008970200081B
:10016000970200089702000897020008970200080B
:1001700097020008970200089702000897020008FB
:1001800097020008970200089702000897020008EB
:1001900097020008970200089702000897020008DB
:1001A000970200089702000897020008DFF810D0B5
:1001B00000F09EF80048004731110008AFF30080BE
:1001C000909700202A4B19680868B0E8F04F80F338
:1001D0000988BFF36F8F4FF0000080F311887047DC
:1001E0000000000006480068006880F3088862B6D6
:1001F00061B6BFF34F8FBFF36F8F00DF00BF00BF4B
:1002000008ED00E0DFF80C00016841F470010160C6
:10021000704700BF88ED00E0EFF30980BFF36F8FF8
:10022000134B1A681EF0100F08BF20ED108A20E94A
:10023000F04F106008B44FF0500080F31188BFF306
:100240004F8FBFF36F8F01F097FD4FF0000080F3E9
:10025000118808BC19680868B0E8F04F1EF0100F4C
:1002600008BFB0EC108A80F30988BFF36F8F704726
:1002700048000020EFF305807047000006488047E3
:1002800006480047FEE7FEE7FEE7FEE7FEE7FEE77B
:10029000FEE7FEE7FEE7FEE7AD0D0008AD01000852
:1002A00040EA01039B0703D009E008C9121F08C0F8
:1002B000042AFAD203E011F8013B00F8013B521E78
:1002C000F9D2704730B50B460146002020220124A8
:1002D00009E021FA02F59D4205D303FA02F5491B14
:1002E00004FA02F52844151EA2F10102F1DC30BD2A
:1002F000064C074D06E0E06840F0010394E8070073
:1003000098471034AC42F6D3FFF754FF1C2800087E
:100310003C2800087CB501F0CFFA012001F00EFE68
:100320002E4CA06110B12EA000F0F4FD032200219C
:10033000012001F015FEE06110B130A000F0EAFDEF
:1003400000231A461946E06901F060FF00231A46AF
:100350001946A06901F05AFF204905200831CDE96E
:1003600000014FF4007500232A462CA12E4802F00C
:1003700053F82EA000F0CEFD184902200C31CDE933
:10038000000100232A4632A1364802F045F836A083
:1003900000F0C0FD114903201031CDE90001002318
:1003A0002A463AA13E4802F037F83EA000F0B2FDDE
:1003B0000A4904201431CDE9000100232A4642A154
:1003C000464802F029F846A000F0A4FD606801F05C
:1003D00079FBBDE87C4001F0ABBA000024000020AE
:1003E000E4BA92E696A5E9878FE5889BE5BBBAE675
:1003F0008890E58A9F210D0A00000000E4BA8CE590
:1004000080BCE4BFA1E58FB7E9878FE5889BE5BB9A
:10041000BAE68890E58A9F210D0A00004B65795F56
:100420005461736B0000000029080008E68C89E91C
:1004300094AEE689ABE68F8FE4BBBBE58AA1E58885
:100440009BE5BBBAE68890E58A9F210D0A00000073
:100450004C6F775072696F726974795F5461736B16
:1004600000000000BD090008E4BD8EE4BC98E585ED
:1004700088E7BAA7E4BBBBE58AA1E5889BE5BBBAE0
:10048000E68890E58A9F210D0A0000004D696450BE
:1004900072696F726974795F5461736B0000000058
:1004A000510B0008E4B8ADE4BC98E58588E7BAA72D
:1004B000E4BBBBE58AA1E5889BE5BBBAE68890E58D
:1004C0008A9F210D0A000000486967685072696FB1
:1004D000726974795F5461736B00000075060008DF
:1004E000E9AB98E4BC98E58588E7BAA7E4BBBBE52F
:1004F0008AA1E5889BE5BBBAE68890E58A9F210D35
:100500000A0D0A00FEE77047F0B5012187B00846E2
:1005100000F078FB0121102000F080FB0125002471
:100520008DF806408DF8075002266802254F8DF899
:10053000056000908DF804606946384600F046F882
:10054000A80200908DF804606946384600F03EF835
:1005500007220A21384600F075F80722092138469B
:1005600000F070F84FF4E130ADF80C400290ADF8B7
:100570000E40ADF81040ADF814400C20124CADF810
:10058000120002A9204600F069FC4FF4A06000F0C0
:100590002FFB25208DF818008DF819508DF81A5072
:1005A0008DF81B5006A800F0F1FA012240F2255107
:1005B000204600F03AFC0121204600F025FC07B05F
:1005C000F0BD00000000024000100140F0B5002224
:1005D00001274FF0030C0B6807FA02F52B40AB42E2
:1005E0002CD1066853000CFA03F4A64306600E797A
:1005F000D0F800E09E4046EA0E0606600E79012E15
:1006000001D0022E12D18668A64386604E79D0F8BA
:1006100008E09E4046EA0E0686604668AE434660A5
:1006200045688E799640B6B235434560C568A543A6
:10063000C560CC799C40C3681C43C460521C102A1E
:10064000C9D3F0BD4B07DB0E9A40C90810B500EBCB
:100650008100016A0F249C40A1430162016A114399
:10066000016210BD0246002012690A4200D001203A
:100670007047FEE7224C234D4FF0FF364FF47A7758
:100680002078012802D002281AD034E01EA000F001
:1006900041FC002332461946E06901F099FC01282B
:1006A00029D124A000F036FC286880F480602860FE
:1006B00027A000F02FFC00231A461946E06918E035
:1006C0002EA000F027FC002332461946A06901F055
:1006D0007FFC01280FD117A000F01CFC286880F4D3
:1006E000806028602FA000F015FC00231A461946F0
:1006F000A06901F08BFD384601F0AAF9C0E70000BF
:1007000024000020141C0240486967685072696F19
:10071000726974795F5461736B20E88EB7E58F96C8
:10072000E4BA8CE580BCE4BFA1E58FB7E9878F0D03
:100730000A000000486967685072696F72697479CD
:100740005F5461736B2052756E6E696E670D0A009F
:10075000486967685072696F726974795F54617330
:100760006B20E9878AE694BEE4BA8CE580BCE4BFDE
:10077000A1E58FB7E9878F210D0A000048696768F6
:100780005072696F726974795F5461736B20E88E7F
:10079000B7E58F96E4BA92E696A5E9878F5C720A70
:1007A00000000000486967685072696F7269747967
:1007B0005F5461736B20E9878AE694BEE4BA92E6DF
:1007C00096A5E9878F210D0A000000001CB50121C4
:1007D000052000F017FA0120009000208DF8040099
:1007E000074C8DF8070069462046FFF7EFFE4FF4EF
:1007F0000051009169462046FFF7E8FE1CBD00004D
:100800000008024070B50C460546FFF72BFF012893
:1008100001D0002070BD21462846FFF723FF0128A4
:10082000F9D0012070BD00001B4F0125DFF86C904E
:100830001B4C4FF40058022601213846FFF7E2FF17
:1008400001280FD117A000F065FB22A000F062FB89
:100850002DA000F05FFB002325701A461946E069C1
:1008600001F0D4FC41464846FFF7CCFF01280FD1E8
:100870000CA000F04FFB2FA000F04CFB22A000F0DA
:1008800049FB002326701A461946A06901F0BEFCF8
:10089000142001F0DDF8CFE700000240000802401C
:1008A000240000200D0A3D3D3D3D3D3D3D3D3D3D8B
:1008B0003D3D3D3D3D3D3D3D3D3D3D3D3D3D3D3D68
:1008C0003D3D3D3D3D3D3D3D3D3D3D3D3D3D0D0ABB
:1008D00000000000E68C89E994AE31E68C89E4B82A
:1008E0008BEFBC8CE58887E68DA2E588B0E4BA8CF6
:1008F000E580BCE4BFA1E58FB7E9878FE6A8A1E555
:10090000BC8F0D0A000000003D3D3D3D3D3D3D3D9D
:100910003D3D3D3D3D3D3D3D3D3D3D3D3D3D3D3D07
:100920003D3D3D3D3D3D3D3D3D3D3D3D3D3D3D3DF7
:100930000D0A0000E68C89E994AE32E68C89E4B8B1
:100940008BEFBC8CE58887E68DA2E588B0E4BA928F
:10095000E696A5E9878FE6A8A1E5BC8F5C720A0040
:100960002DE9FC410121802000F04CF901208DF897
:10097000040000218DF806108DF807000E4F4FF48B
:1009800080648DF80510009469463846FFF71EFE16
:100990006500694638460095FFF718FEA6006946CF
:1009A00038460096FFF712FE034818300480058091
:1009B0000680BDE8FC810000001C0240304FDFF8DB
:1009C000C480314C314D4FF0FF3A4FF000094FF0E9
:1009D00080562078012802D0022823D04AE02CA09B
:1009E00000F098FA002352461946E06901F0F0FA47
:1009F00001283BD131A000F08DFA4146C4F8209087
:100A00003E60BFF34F8FBFF36F8F206A401C2062A0
:100A10008842F5D330A000F07DFA00231A4619462B
:100A2000E06921E037A000F075FA0023524619462C
:100A3000A06901F0CDFA012818D120A000F06AFACF
:100A40004146C4F820903E60BFF34F8FBFF36F8FD5
:100A5000206A401C20628842F5D333A000F05AFA85
:100A600000231A461946A06901F0D0FB286880F4DB
:100A7000806028604FF47A7000F0EAFFA9E7000078
:100A800004ED00E000093D0024000020141C024099
:100A90004C6F775072696F726974795F5461736BD0
:100AA00020E88EB7E58F96E4BA8CE580BCE4BFA160
:100AB000E58FB7E9878F0D0A000000004C6F775073
:100AC00072696F726974795F5461736B2052756ECD
:100AD0006E696E670D0A00004C6F775072696F7215
:100AE0006974795F5461736B20E9878AE694BEE488
:100AF000BA8CE580BCE4BFA1E58FB7E9878F210DF3
:100B00000A0000004C6F775072696F726974795FE8
:100B10005461736B20E88EB7E58F96E4BA92E6963F
:100B2000A5E9878F5C720A004C6F775072696F720B
:100B30006974795F5461736B20E9878AE694BEE437
:100B4000BA92E696A5E9878F210D0A00FEE700001C
:100B5000054C4FF47A75217811B104A000F0DAF950
:100B6000284600F075FFF6E7240000204D69645028
:100B700072696F726974795F5461736B2052756E1C
:100B80006E696E670D0A00007047000030B50F23D4
:100B9000C27801780125FAB1144A126801F1E02106
:100BA00002F4E062C2F5E062C2F30722C2F104047B
:100BB000D3404278A24084781C401443220181F83B
:100BC0000024007800F01F018D404009800000F1F2
:100BD000E020C0F8005130BD01F01F0085404809F9
:100BE000800000F1E020C0F8805130BD0CED00E045
:100BF0000249084302490860704700000000FA05F6
:100C00000CED00E0044A0029116801D0014300E026
:100C1000814311607047000030380240044A0029C7
:100C2000116801D0014300E081431160704700006A
:100C30004438024070B5204B1968204C11F00C016B
:100C400004D01F4E042903D0082903D004601BE000
:100C5000066019E0184A121F1168C1F38055116827
:100C600001F03F0115B1B6FBF1F101E0B4FBF1F188
:100C700014681268C4F388146143C2F30142521C21
:100C80005200B1FBF2F1016019680F2202EA111162
:100C90000C4A545C0168E14041601C68072505EA84
:100CA0009424145D21FA04F484601B6805EA53332C
:100CB000D25CD140C16070BD083802400024F4000D
:100CC00040787D01140000201CB500212E4A0091BF
:100CD0000191106840F4803010604FF4A043106818
:100CE00000F4003001900098401C0090019810B969
:100CF00000989842F3D11068800342D501200190FA
:100D000021484030016841F0805101601F49086866
:100D100040F4404008601C480830036803600368E2
:100D200043F400430360036843F4A0530360041FCB
:100D3000174B2360136843F08073136013689B01A3
:100D4000FCD50A6842F480320A604A68D203FCD5B6
:100D50000A6842F400320A604A689203FCD50D4AE0
:100D600040F205711160016821F003010160016822
:100D700041F0020101600168C1F381010229FAD149
:100D80001CBD01911CBD00000038024000700040F5
:100D9000195A4007003C024010B501F069FB0128D8
:100DA00003D0BDE8104001F0B3B810BD124810B533
:100DB000016841F4700101601048016841F00101CF
:100DC00001600E4A00210832116002680C4B1A4083
:100DD0000260031D0B4A1A60026822F4802202603E
:100DE00006480C300160FFF76FFF03494FF00060C9
:100DF0008039086010BD000088ED00E00038024036
:100E0000FFFFF6FE103000240029818902D041F452
:100E1000005101E021F40051818170470246002019
:100E200012880A4200D00120704710B5C1F3421366
:100E300001F01F040121A140012B07D0022B07D094
:100E40001430002A026805D00A4304E00C30F8E7A9
:100E50001030F6E78A43026010BD00007FB50446FB
:100E6000008A0D46C98820F4405001432182A089A0
:100E700041F20C618843A9882A8911436A89024397
:100E80001143A181A08A20F44071A8890843A0825F
:100E90006846FFF7CFFE1A48844202D019488442C0
:100EA00001D1039800E00298A189090400EBC00178
:100EB00001EB0010296801D5490000E08900B0FB72
:100EC000F1F06422B0FBF2F109010B096FF0180593
:100ED0006B4300EB8300A3891D044FF0320306D55A
:100EE00003EBC000B0FBF2F000F0070005E003EBFD
:100EF0000010B0FBF2F000F00F00084320817FBD2E
:100F00000010014000140140C1F3080181807047C6
:100F1000FEE700000FB4054B10B503A9044A029880
:100F200000F018F810BC5DF814FB00000D1100086B
:100F3000A800002002E008C8121F08C1002AFAD148
:100F400070477047002001E001C1121F002AFBD149
:100F5000704700002DE9FF4F8BB09A460F460546BB
:100F6000002606E025280BD052460D9990476D1CAF
:100F7000761C28780028F5D10FB03046BDE8F08FF8
:100F80000024A0460122604900E0044315F8013F17
:100F9000203B02FA03F00842F7D128782E2817D117
:100FA00015F8010F44F004042A280ED06FF02F0228
:100FB0002878A0F1300109290AD808EB880102EB52
:100FC000410100EB01086D1CF2E757F8048B6D1C22
:100FD000287869283ED006DC0028CDD063280BD0C5
:100FE000642804D136E0732810D075284BD05246BF
:100FF0000D999047761C85E017F8040B8DF80000DA
:1010000000208DF80100E946012003E057F8049B19
:101010004FF0FF3061074FF0000401D40AE0641C78
:1010200044450DDA8442FADB19F804100029F6D1A0
:1010300006E0641C8442FCDB19F804100029F8D196
:10104000264404E019F8010B52460D999047641E9E
:10105000F8D257E001CF4FF00A0B002802DA4042E5
:101060002D2102E0210504D52B218DF8241001212A
:1010700003E0E10705D02021F7E70DF120090891F1
:101080000CE00021F9E701CF4FF00A0BF9E75946D0
:10109000FFF718F901F1300209F8012D0028F6D107
:1010A000ADEB090000F1200B600701D44FF00108FF
:1010B000D84502DDA8EB0B0000E0002080460024AC
:1010C00006E009A85246005D0D999047641C761C05
:1010D00008988442F5DB04E0302052460D99904791
:1010E000761CB8F10001A8F10108F5DC05E019F85B
:1010F000010B52460D999047761CBBF10001ABF1F4
:10110000010BF4DC6D1C34E70928010070B5074DB4
:101110000446C1B22846FFF7F7FE80212846FFF7B4
:101120007DFE0028F9D0204670BD0000001001406F
:101130001CB54FF44070FFF75BFDFFF711FCFFF7A4
:10114000E3F9FFF743FB0D48FFF7E4FE0CA0FFF7C0
:10115000E1FE1BA0FFF7DEFE28490120CDE90001DA
:101160004202002326A12A4801F056F9012802D0A4
:101170004FF0FF301CBD00F0ADFDFEE7C4270008B6
:10118000E68C89E994AE31EFBC9AE4BA8CE580BC78
:10119000E4BFA1E58FB7E9878FE6A8A1E5BC8FEF93
:1011A000BC88E8A782E5AF9FE4BC98E58588E7BAEC
:1011B000A7E7BFBBE8BDACEFBC895C720A000000CA
:1011C000E68C89E994AE32EFBC9AE4BA92E696A531
:1011D000E9878FE6A8A1E5BC8FEFBC88E8A7A3E567
:1011E00086B3E4BC98E58588E7BAA7E7BFBBE8BD4E
:1011F000ACEFBC895C720A0D0A00000028000020D8
:101200004170705461736B437265617465000000D6
:10121000150300082DE9F041184E0F460446F56805
:101220003068001D00F004FB38B9306890F82C10CD
:1012300001208840316981433161601C07D137B199
:101240003168BDE8F0410E48091D00F029BB306847
:101250002C44AC424460316805D2B06BBDE8F0412B
:10126000091D00F005BB706B091D00F001FBB06AA1
:10127000844200D2B462BDE8F08100004800002042
:101280007C0300202DE9F041054600F015FB2D4EB2
:10129000B068401CB06030682B4F10B1706930B33B
:1012A0002BE03560B068012827D1002404EB8400CE
:1012B00007EB800000F0CEFA641C202CF6D3234804
:1012C00000F0C8FA2148143000F0C4FA1F48283052
:1012D00000F0C0FA1D483C3000F0BCFA1B4850300A
:1012E00000F0B8FA194870631430B06305E0306854
:1012F000E96AC06A884200D83560706A0121401CE2
:101300007062E86A326981401143316100EB80000C
:1013100007EB8000291D00F0C3FA00F009FB70699B
:1013200000280CD03068E96AC06A884207D20849B0
:101330004FF080500860BFF34F8FBFF36F8FBDE851
:10134000F081000048000020AC0000202C030020A9
:1013500004ED00E070B5124E124D1CE000F004FDEB
:10136000306820B1002401F0B7F9A4B901E00124EC
:10137000F9E700F0A1FAF068C468201D00F058FAFF
:10138000A868401EA8606868401E686000F0D0FA37
:10139000204600F052F868680028DFD170BD0000D8
:1013A000680300204800002030B4026C0B46002A7D
:1013B0000BD0C1681144C1604468A14201D30168E7
:1013C000C16030BC1846FEF76BBF30BC70472DE9DA
:1013D000F041856B174604460026026C82B1C7B106
:1013E000E068FEF75DFFE168206C091AE1602268A1
:1013F000914202D26168081AE060022F16D017E00D
:101400002068A8B9606801F0B9F80646002060605D
:101410000EE0A068FEF744FF216CA0680844A060BD
:101420006168884204D32068A06001E005B16D1EA8
:101430006D1CA5633046BDE8F08110B50446006B15
:1014400000F0A8FA2046BDE8104000F0A3BA000062
:1014500010484FF41041420706D0C01D0D4920F03E
:101460000700411AC1F510410B4A00230144C2E9AB
:1014700000030839103A21F0070111604B600B603E
:101480000B1AC0E9001393604FF000405360D06026
:10149000704700009003002094000020074E4FF09A
:1014A0008054074DFFF756FF30680128FAD92C60A9
:1014B000BFF34F8FBFF36F8FF4E70000AC00002045
:1014C00004ED00E02DE9F047DDE909840E4682468F
:1014D0006FF00301206B01EB82010844089D20F0AE
:1014E00007079946780705D040F22B3219A120A0B2
:1014F000FFF710FD00202218315C82F83410315CB7
:1015000011B1401C1028F6D3002684F84360202D2A
:1015100000D31F25E562C4E91156201D00F0A5F98E
:1015200004F1180000F0A1F92461C5F12000646203
:10153000A061E66484F850604A465146384600F09F
:1015400061F92060B8F1000F01D0C8F80040BDE893
:10155000F08700002E2E5C2E2E5C4672656552547C
:101560004F535C7372635C7461736B732E63000022
:101570004572726F723A25732C25640D0A000000C3
:1015800030B5114900E011460A688242FBD34B682E
:101590005C18844203D14068184448600846436898
:1015A0001C18944209D1084C103C2468A24209D06E
:1015B00052681A4442600A6812680260814200D090
:1015C000086030BD0460F9E79400002010B50446BF
:1015D00000F072F9A06B20B1002400F0A9F92046B8
:1015E00010BD0124F9E700000648416B096829B1E4
:1015F000416BC968C9684968816270474FF0FF3123
:10160000FAE700004800002008484068401C05D068
:1016100040F20F1206A111A0FFF77CFC502080F3CE
:101620001188BFF34F8FBFF36F8FFEE79C00002040
:101630002E2E5C2E2E5C4672656552544F535C70A4
:101640006F72745C525644535C41524D5F434D344B
:10165000465C706F72742E63000000004572726FFA
:10166000723A25732C25640D0A0000002DE9F04123
:10167000044600F021F994F9455004F1240609E0EC
:10168000606A48B1304600F0D7FF08B100F084FA34
:101690006D1E6DB2002DF3DC4FF0FF3684F845600F
:1016A00000F046F900F008F994F9445004F11007ED
:1016B00009E0206948B1384600F0BEFF08B100F0EB
:1016C0006BFA6D1E6DB2002DF3DC84F84460BDE84A
:1016D000F04100F02DB900002DE9F041054600264B
:1016E00000F042FB324F386808B9FFF7B1FEF868E6
:1016F00005424FD1002D4DD0083568070BD005F0BD
:101700000700C0F108000544680704D0BF2229A1E2
:1017100032A0FFF7FFFB002D3CD07868854239D816
:10172000234910310846046801E0214604466068F8
:10173000A84202D220680028F7D13868B84684420F
:1017400028D00E682068086060680836401B1028A2
:101750000ED96719780704D0EC2216A11FA0FFF755
:10176000D9FB6068401B786038466560FFF708FF6A
:101770006168D8F804004246401AC8F80400D8F856
:101780000830984200D29060D8F80C000143002045
:10179000C4E9000100F0A0FF700705D04FF4967275
:1017A00004A10EA0FFF7B6FB3046BDE8F0810000B3
:1017B000840000202E2E5C2E2E5C467265655254ED
:1017C0004F535C706F72745C4D656D4D616E675CFC
:1017D000686561705F342E63000000004572726FAF
:1017E000723A25732C25640D0A000000044908682C
:1017F00018B10868826C521C826408687047000047
:101800004800002010B5031F4FF080741C601B1FA0
:1018100021F001011960191F044B0B6014390A6093
:10182000091F6FF0020244380A6010BD0916000853
:10183000D0E9013201699A60D0E901235A604A680F
:10184000824201D182684A60002202610868401E1B
:101850000860704700F108014FF0FF32C0E9011243
:10186000C160016100210160704700210161704782
:1018700030B50C68621C02D000F1080202E0026977
:1018800004E01A4653681D68A542FAD953684B60B4
:1018900099608A60516008610168491C016030BD2F
:1018A00042684A6093688B609368596091600861F0
:1018B0000168491C01607047502080F31188BFF314
:1018C0004F8FBFF36F8F09494868401C486001285B
:1018D0000AD10748006810F0FF0F05D040F2B91296
:1018E00004A10FA0FFF716BB704700009C0000206A
:1018F00004ED00E02E2E5C2E2E5C4672656552547F
:101900004F535C706F72745C525644535C41524D3D
:101910005F434D34465C706F72742E6300000000AC
:101920004572726F723A25732C25640D0A0000000F
:1019300010B5084C606828B94FF4E07206A111A0F8
:10194000FFF7E8FA6068401E606001D180F31188FB
:1019500010BD00009C0000202E2E5C2E2E5C4672D6
:10196000656552544F535C706F72745C52564453A9
:101970005C41524D5F434D34465C706F72742E6310
:10198000000000004572726F723A25732C25640DB9
:101990000A00000070B500282AD0164DA0F10804F6
:1019A0006068E968084205D14FF4A07212A11CA03A
:1019B000FFF7B0FA206828B140F241120EA118A03A
:1019C000FFF7A8FA6068E968084211D02268002A87
:1019D0000ED18843606000F0C7F960686968084408
:1019E00068602046FFF7CCFDBDE8704000F074BE93
:1019F00070BD0000840000202E2E5C2E2E5C4672EE
:101A0000656552544F535C706F72745C4D656D4DDB
:101A1000616E675C686561705F342E630000000072
:101A20004572726F723A25732C25640D0A0000000E
:101A300006484FF47A710068B0FBF1F14FF0E020F6
:101A4000491E41610721016170470000000000202C
:101A500010B5040012D00E49096B29B140F2CF42F3
:101A60000CA113A0FFF756FA00F07EF900212046E2
:101A7000FFF7D0FB00F030FE002807D110494FF0EF
:101A800080500860BFF34F8FBFF36F8F10BD000011
:101A9000480000202E2E5C2E2E5C46726565525446
:101AA0004F535C7372635C7461736B732E630000DD
:101AB0004572726F723A25732C25640D0A0000007E
:101AC00004ED00E070B50446FFF7F6FE234D04B9BF
:101AD0002C68201DFFF7ACFE58B9E06A204A00EBE5
:101AE000800152F8211021B90121814028698843E1
:101AF0002861A06A18B104F11800FFF799FE686A1E
:101B0000401C68622868844207D1211D1548FFF7F0
:101B1000C7FE6868401C686007E0A868401EA860AF
:101B20002046FFF78AFCFFF75FFDFFF701FF6869BA
:101B3000002812D0286884420FD1286B28B140F2C7
:101B4000654209A10FA0FFF7E5F912494FF0805057
:101B50000860BFF34F8FBFF36F8F70BD4800002048
:101B6000AC000020680300202E2E5C2E2E5C4672F6
:101B7000656552544F535C7372635C7461736B732D
:101B80002E6300004572726F723A25732C25640D26
:101B90000A00000004ED00E001490120C86170471F
:101BA0004800002070B50D46040005D140F606320D
:101BB00007A10EA0FFF7AEF91048016820461831C2
:101BC000FFF756FE2846BDE870400121FFF722BB13
:101BD0002E2E5C2E2E5C4672656552544F535C73FC
:101BE00072635C7461736B732E6300004572726F75
:101BF000723A25732C25640D0A000000480000206D
:101C000070B5040039D01D4DE06A2968C96A884260
:101C100033D2A069002804DB2868C06AC0F1200024
:101C2000A061E06A164E00EB8000616906EB80005F
:101C300081421FD1201DFFF7FBFD012150B9E06A51
:101C400000EB800256F8222022B92A6901FA00F03E
:101C500082432A612868C06AE0622A698140114390
:101C6000296100EB800006EB8000211DBDE870407B
:101C7000FFF716BE2868C06AE06270BD4800002009
:101C8000AC00002010B5040005D140F6C13205A11A
:101C90000BA0FFF73FF90E48016A2160C068606041
:101CA00010BD00002E2E5C2E2E5C467265655254CF
:101CB0004F535C7372635C7461736B732E630000CB
:101CC0004572726F723A25732C25640D0A0000006C
:101CD000480000201CB515480024CDE900402346EB
:101CE000802213A1144800F097FB01280AD0401C61
:101CF0001BD102B040F28472BDE810400FA116A0C3
:101D0000FFF708B9502080F31188BFF34F8FBFF35E
:101D10006F8F06484FF0FF312C38816201214161FD
:101D2000C460BDE81C4000F069B81CBD7400002010
:101D300049444C45000000009D1400082E2E5C2EE6
:101D40002E5C4672656552544F535C7372635C74CB
:101D500061736B732E6300004572726F723A257364
:101D60002C25640D0A0000000248016B491C016328
:101D7000704700004800002070B5134D286B10B16B
:101D80000120E86170BD0020E86128690F4EB0FABB
:101D900080F0C0F11F0000EB800456F8240028B941
:101DA00040F6F6220AA111A0FFF7B4F806EB840072
:101DB00000F10802416849684160914201D14968D7
:101DC0004160C868286070BD48000020AC00002059
:101DD0002E2E5C2E2E5C4672656552544F535C73FA
:101DE00072635C7461736B732E6300004572726F73
:101DF000723A25732C25640D0A0000001CB5304C86
:101E000020683049884205D140F259122EA139A0EC
:101E1000FFF780F820682B49491E884205D14FF40E
:101E2000AD7229A133A0FFF775F8364C20780190E8
:101E3000FF20207020788DF800009DF800009DF8AC
:101E4000001000F0F000884205D040F273121EA18D
:101E500028A0FFF75FF89DF800002B4A00F0500023
:101E600010700720906007E09068401E90609DF819
:101E7000000040008DF800009DF800000006F3D43B
:101E8000107A000200F4E0609060019820700C4825
:101E90002030016841F470010160016841F0704137
:101EA0000160FFF7C5FD00205060FEF7ABF9174851
:101EB000016841F040410160FEF794F900201CBD2B
:101EC00000ED00E071C20F412E2E5C2E2E5C46729A
:101ED000656552544F535C706F72745C5256445334
:101EE0005C41524D5F434D34465C706F72742E639B
:101EF000000000004572726F723A25732C25640D44
:101F00000A00000000E400E09C00002034EF00E044
:101F100010B5502080F31188BFF34F8FBFF36F8F40
:101F200000F0B4FA18B104494FF080500860002066
:101F300080F3118810BD000004ED00E010B50246EA
:101F40000021012000F00CF8041E07D000214160A0
:101F500001600B460A46C16000F058F9204610BDEA
:101F600070B50E46050005D14FF4C4720DA114A042
:101F7000FEF7D0FF96B105FB06F04830FFF7ACFB4B
:101F8000040009D004F1480120464EB10160C0E9C7
:101F90000F56012100F0E2F8204670BD0020ECE76A
:101FA0000060F4E72E2E5C2E2E5C4672656552545E
:101FB0004F535C7372635C71756575652E630000C9
:101FC0004572726F723A25732C25640D0A00000069
:101FD0002DE9FF4F83B09B468A4604004FF0000670
:101FE00005D140F2DC4251A157A0FEF793FFBAF1B0
:101FF000000F07D1206C28B140F2DD424BA152A066
:10200000FEF788FF00F034FA38B9059828B14FF48C
:102010009C6246A14CA0FEF77DFF4FF000094FF0F7
:102020008057DFF83481FFF747FCA56B45B3514675
:102030002046E668FFF7B8F9BBF1000F13D0E66061
:10204000606A50B104F1240000F0F6FA28B1C8F833
:102050000070BFF34F8FBFF36F8FFFF769FC012054
:1020600007B0BDE8F08F6D1EA563206810B9FFF7BB
:10207000BDFB606020690028EFD004F11000E3E7A9
:10208000059808B11EB106E0FFF752FC27E068464C
:10209000FFF7F8FD0126FFF74BFCFFF765FEFFF7A2
:1020A0000BFC94F94400401C01D184F8449094F94D
:1020B0004500401C01D184F84590FFF739FC05A983
:1020C000684600F061F9002820460AD0FFF7CEFAF2
:1020D00000F002FB2046FFF779FA0028A3D0002089
:1020E000BEE7FFF773FAD8B1206830B9FFF7E4FB19
:1020F0006068FFF785FDFFF71BFC04F124000599DC
:10210000FFF750FD2046FFF7B1FA00F0E5FA00288E
:1021100089D1C8F80070BFF34F8FBFF36F8F82E78C
:102120002046FFF7A3FA00F0D7FA7CE72E2E5C2EAC
:102130002E5C4672656552544F535C7372635C71DA
:10214000756575652E6300004572726F723A25736E
:102150002C25640D0A00000004ED00E070B50D466A
:10216000040005D140F21B121CA123A0FEF7D2FEF1
:10217000FFF7A2FBD4E90F20216802FB0011616088
:102180000021A1632168A1600A46D4E90F01401E25
:1021900000FB0121E16021464FF0FF3001F8440FC0
:1021A000487004F110004DB1FFF754FB04F1240016
:1021B000FFF750FBFFF7BCFB012070BD2169002930
:1021C000F8D000F039FA0028F4D00F494FF08050D1
:1021D0000860BFF34F8FBFF36F8FEBE72E2E5C2E9F
:1021E0002E5C4672656552544F535C7372635C712A
:1021F000756575652E6300004572726F723A2573BE
:102200002C25640D0A00000004ED00E02DE9FF4FCD
:1022100083B01F468B4604004FF0000605D140F204
:10222000D9224DA153A0FEF775FEBBF1000F07D1D7
:10223000206C28B140F2DA2247A14EA0FEF76AFED8
:10224000022F08D1E06B012805D040F2DB2242A129
:1022500048A0FEF75FFE00F00BF938B9059828B1E9
:1022600040F2DE223CA143A0FEF754FE4FF0000AEC
:102270004FF08058DFF80C91FFF71EFBA06BE16B6D
:10228000884205D3022F03D00598C8B1DEB11EE005
:102290003A4659462046FFF79AF8616A19B104F1A7
:1022A000240000F0C9F928B1C9F80080BFF34F8FAE
:1022B000BFF36F8FFFF73CFB012007B0BDE8F08F45
:1022C000FFF736FB21E06846FFF7DCFC0126FFF74D
:1022D0002FFBFFF749FDFFF7EFFA94F94400401C8C
:1022E00001D184F844A094F94500401C01D184F840
:1022F00045A0FFF71DFB05A9684600F045F830B181
:102300002046FFF7B3F900F0E7F90020D5E7FFF723
:10231000D3FAA06BE16B884201D1012500E00025D2
:10232000FFF706FB95B104F110000599FFF73AFCA1
:102330002046FFF79BF900F0CFF900289CD1C9F89F
:102340000080BFF34F8FBFF36F8F95E72046FFF7F5
:102350008DF900F0C1F98FE72E2E5C2E2E5C4672AF
:10236000656552544F535C7372635C717565756536
:102370002E6300004572726F723A25732C25640D2E
:102380000A00000004ED00E070B50D46040005D120
:1023900040F6CB3214A11BA0FEF7BCFD2DB940F6D0
:1023A000CC3211A117A0FEF7B5FDFFF785FA194A47
:1023B000D06829684B1C0FD02368126A934202D060
:1023C000626882420AD96268801A884206D2081A74
:1023D00028602046FFF756FC002400E00124FFF7A8
:1023E000A7FA204670BD00002E2E5C2E2E5C467291
:1023F000656552544F535C7372635C7461736B73A5
:102400002E6300004572726F723A25732C25640D9D
:102410000A000000480000202DE9FF5F8346DDE947
:102420000E87994616468A469000FFF755F9050033
:102430001AD05420FFF750F9040012D02563002170
:10244000CDE90241CDE900874B4632465146584618
:10245000FFF738F82046FEF715FF012004B0BDE86D
:10246000F09F2846FFF796FA4FF0FF30F6E700009E
:102470000548416919B1006B18B10020704701206F
:102480007047022070470000480000202DE9F0410D
:102490002D4F0026386B40B1B869401CB861F8690F
:1024A00000B101263046BDE8F081FD686D1CFD607D
:1024B00011D1786B006828B140F6D91223A12AA067
:1024C000FEF728FD786BB96B7963B863386A401CF6
:1024D0003862FFF789F8B86ADFF89C80854209D333
:1024E000786B006880B1786BC068C46860688542AA
:1024F0000DD2B8623868C06A00EB800158F821003C
:102500000128CCD90126CAE74FF0FF30F1E7201DA2
:10251000FFF78EF9A06A18B104F11800FFF788F9E7
:10252000E06A01213A6981401143396100EB800181
:1025300008EB8100211DFFF7B3F9E06A3968C96A29
:102540008842CDD30126CBE7480000202E2E5C2EFA
:102550002E5C4672656552544F535C7372635C74B3
:1025600061736B732E6300004572726F723A25734C
:102570002C25640D0A000000AC00002070B504009A
:102580004FF000063CD01F4D2868844205D040F62D
:10259000C7621DA123A0FEF7BDFCA06C28B940F6C0
:1025A000C96219A11FA0FEF7B5FCA06C401EA06473
:1025B000626CE16A914223D010BB201DFFF738F90D
:1025C0001C49012250B9E06A00EB800351F8233026
:1025D00023B92B6902FA00F083432B61606CE0623F
:1025E000C0F12000A061E06A2B6982401A432A6191
:1025F00000EB800001EB8000211DFFF751F901265F
:10260000304670BD480000202E2E5C2E2E5C467297
:10261000656552544F535C7372635C7461736B7382
:102620002E6300004572726F723A25732C25640D7B
:102630000A000000AC0000202DE9F041C068C46829
:102640002CB940F6613216A11CA0FEF763FC04F120
:1026500018000746FFF7ECF81C4D286B012660B107
:1026600039461B48FFF71CF9E06A2968C96A8842A5
:1026700013D90120EE61BDE8F081201DFFF7D8F8E5
:10268000E06A2A6906FA00F111432961114900EB59
:10269000800001EB8000211DE4E70020EBE7000053
:1026A0002E2E5C2E2E5C4672656552544F535C7321
:1026B00072635C7461736B732E6300004572726F9A
:1026C000723A25732C25640D0A0000004800002092
:1026D00054030020AC0000202DE9F0472B4D0024CE
:1026E0002746286B28B94FF4FD6229A12FA0FEF7D9
:1026F00011FCFFF7E1F8286B401E2863286BE8BB4C
:10270000A8682E490126C8B3A1F52A798846D8F8C9
:102710000010E9B1D8F80C00C46804F11800FFF704
:1027200087F8201DFFF784F8E06A2A6906FA00F1AD
:102730001143296100EB800109EB8100211DFFF7A6
:10274000AFF8E06A2968C96A8842E0D3EE61DEE743
:102750000CB1FEF749FFAC693CB1FFF797FE00B141
:10276000EE61641EF9D10020A861E86930B1144916
:10277000012738070860BFF34F8F00E001E0BFF387
:102780006F8FFFF7D5F83846BDE8F0874800002086
:102790002E2E5C2E2E5C4672656552544F535C7330
:1027A00072635C7461736B732E6300004572726FA9
:1027B000723A25732C25640D0A0000005403002092
:1027C00004ED00E0E8BF99E698AFE4B880E4B8AA69
:1027D0005BE9878EE781AB5D2D53544D3332E58540
:1027E000A8E7B3BBE58897E5BC80E58F91E69DBF80
:1027F0002D4672656552544F53E4BFA1E58FB7E98A
:10280000878FE4B88EE4BA92E696A5E9878FE5AEA5
:102810009EE9AA8CEFBC810D0A0000003C2800084C
:1028200000000020AC000000340F0008E828000879
:10283000AC000020E4960000440F00080095BA0A9E
:102840000000000000000000010203040607080960
:102850000000000001020304010203040607080946
:102860000000000000000000000000000000000068
:102870000000000000000000000000000000000058
:102880000000000000000000000000000000000048
:102890000000000000000000000000000000000038
:1028A0000000000000000000000000000000000028
:1028B0000000000000000000000000000000000018
:1028C0000000000000000000000000000000000008
:1028D000000000000000000000000000AAAAAAAA50
:0828E0000000000000000000F0
:04000005080001AD41
:00000001FF
