:020000040800F2
:10000000609A00207D020008F31E0008F511000828
:10001000F11E0008FF0400081D2B0008000000006E
:10002000000000000000000000000000C501000802
:10003000F505000800000000190200081D2900084D
:10004000970200089702000897020008970200082C
:10005000970200089702000897020008970200081C
:10006000970200089702000897020008970200080C
:1000700097020008970200089702000897020008FC
:1000800097020008970200089702000897020008EC
:1000900097020008970200089702000897020008DC
:1000A00097020008970200089702000897020008CC
:1000B00097020008970200089702000897020008BC
:1000C00097020008970200089702000897020008AC
:1000D000970200089702000897020008970200089C
:1000E0004D080008970200089702000897020008D0
:1000F000970200089702000897020008970200087C
:10010000970200089702000897020008970200086B
:10011000970200089702000897020008970200085B
:10012000970200089702000897020008970200084B
:10013000970200089702000897020008970200083B
:10014000970200089702000897020008970200082B
:10015000970200089702000897020008970200081B
:10016000970200089702000897020008970200080B
:1001700097020008970200089702000897020008FB
:1001800097020008970200089702000897020008EB
:1001900097020008970200089702000897020008DB
:1001A000970200089702000897020008DFF810D0B5
:1001B00000F0CCF8004800478D310008AFF3008014
:1001C000609A00202A4B19680868B0E8F04F80F365
:1001D0000988BFF36F8F4FF0000080F311887047DC
:1001E0000000000006480068006880F3088862B6D6
:1001F00061B6BFF34F8FBFF36F8F00DF00BF00BF4B
:1002000008ED00E0DFF80C00016841F470010160C6
:10021000704700BF88ED00E0EFF30980BFF36F8FF8
:10022000134B1A681EF0100F08BF20ED108A20E94A
:10023000F04F106008B44FF0500080F31188BFF306
:100240004F8FBFF36F8F03F0F3FC4FF0000080F38C
:10025000118808BC19680868B0E8F04F1EF0100F4C
:1002600008BFB0EC108A80F30988BFF36F8F704726
:1002700068010020EFF305807047000006488047C2
:1002800006480047FEE7FEE7FEE7FEE7FEE7FEE77B
:10029000FEE7FEE7FEE7FEE731290008AD010008B2
:1002A00040EA01039B0703D009E008C9121F08C0F8
:1002B000042AFAD203E011F8013B00F8013B521E78
:1002C000F9D27047D2B201E000F8012B491EFBD2EF
:1002D00070470022F6E710B513460A460446194651
:1002E000FFF7F0FF204610BD2DE9F05F0546002026
:1002F00092469B4688460646814640241BE0284697
:1003000041464746224600F042F853465A46C01A34
:10031000914110D311461846224600F029F82D1AB3
:1003200067EB01084F4622460120002100F020F82B
:1003300017EB00094E41201EA4F10104DFDC484602
:1003400031462A464346BDE8F09F0000064C074D63
:1003500006E0E06840F0010394E807009847103495
:10036000AC42F6D3FFF726FF0857000828570008CD
:10037000202A04DB203A00FA02F100207047914065
:10038000C2F1200320FA03F3194390407047202A5A
:1003900004DB203A21FA02F00021704721FA02F32F
:1003A000D040C2F12002914008431946704770B511
:1003B0008C1810F8015B15F0070301D110F8013B10
:1003C0002A1106D110F8012B03E010F8016B01F897
:1003D000016B5B1EF9D12B0705D40023521E0DD4EF
:1003E00001F8013BFAE710F8013BCB1A921C03E03D
:1003F00013F8015B01F8015B521EF9D5A142D8D375
:10040000002070BD1CB503F00FFA022113480C0246
:10041000CDE900100023224611A1154803F0F2FD9A
:10042000012802D113A002F07BFB0C480321001D20
:10043000CDE900100023224614A1174803F0E2FD85
:10044000012802D115A002F06BFB0448083840686F
:1004500003F0F4FABDE81C4003F022BA2C0000209F
:10046000446973706C61795F5461736B00000000C4
:1004700085070008446973706C61795F5461736B20
:10048000B4B4BDA8B3C9B9A6210D0A004B45595F44
:100490005461736B00000000811400084B45595FE4
:1004A0005461736BB4B4BDA8B3C9B9A6210D0A00D9
:1004B00010B54FF4407001F065FD01F017FC00F03D
:1004C0009BF801F001F800F029FC01F041FB01F07C
:1004D0007DFB012001F038FC002001F0D7FB4FF438
:1004E0000044204601F020F8012001F0CFFBFF205E
:1004F00001F0E4FB2046BDE8104001F015B8FEE72E
:1005000010B50121CC05204601F054FD2046BDE880
:100510001040002101F04EBD01460020024A526801
:100520000A4200D00120704700B0024030B50024DC
:100530002A4B19682A4A1140196019680268114348
:100540001960596B21F007015963596B42681143D7
:1005500059634168002928D001292DD0022930D0C3
:10056000032933D0C1680A010169090244692403DF
:100570008568214315430D43996B0D439D63816944
:10058000D963196C6FF30D011964196CC2691143B9
:100590001964818C09045A6C02F040425A645A6C06
:1005A000006A02430A435A6430BDC1680A02018AE4
:1005B0000904047D2406DBE7C1680A02018A0904F4
:1005C000D6E7C1684A010169C902D1E7C1684A0199
:1005D000016989024469E403CAE7000000B00240EF
:1005E000FCE0FCFF0248016841F001010160704736
:1005F00000B002407047000070B586B00121084687
:1006000001F0CAFC0121102001F0FEFC00248DF84D
:10061000164001208DF8170002258DF815508DF831
:100620001450400204901C4E04A9304600F030FAE9
:100630008DF814506902049104A9304600F028FA9C
:1006400007220A21304600F061FA072209213046CC
:1006500000F05CFA4FF4E1300090ADF80440ADF8E2
:100660000640ADF80840ADF80C400C20ADF80A008B
:100670000A4C6946204602F0EFF901F03BFC0122EA
:1006800040F22551204602F0CCF90121204602F02B
:10069000B5F906B070BD0000000002400010014036
:1006A00001B502E00098401E009000980028F9D1A2
:1006B00008BD01B502E00098401E00900098002897
:1006C000F9D108BD10B54FF4004000F02DFFBDE892
:1006D000104000F001B800002DE9F0414DF6FB6438
:1006E000204601F0E5FA4FF4CC754FF49876482394
:1006F000C0222946304601F00BF84FF6FF77384606
:1007000001F0D6FA4823C0222946304601F080F88D
:10071000074801F0B5FA384601F0CAFA204601F060
:10072000A9FABDE8F04103A14FF4D87000F07ABFF8
:100730003C000020436C65617200000070B5064605
:100740000E4C2078112803D3FFF7BCFF0020207047
:10075000207800EB4000C500094801F091FA4FF6FF
:10076000FF7001F0A5FA002001F084FA3146284616
:1007700000F058FF2078401C207070BD240000203D
:100780003C00002008B5012001F080FAFF2001F0B4
:1007900095FAFFF797FF184D642700970023012271
:1007A0000321286903F0FCFA0446687858B1002652
:1007B0006E7012A002F0B4F903F036F8FFF782FF72
:1007C0002E7003F06DF8E00709D010A002F0A8F930
:1007D00003F02AF810A0FFF7B1FF03F061F8A007BB
:1007E000DBD512A002F09CF903F01EF812A0FFF76F
:1007F000A5FF03F055F8D0E724000020436C6561A5
:10080000722120C7E5C6C10A000000004B455931DE
:1008100020B0B4CFC20A00004B4559312069732083
:10082000707265737365642E000000004B45593289
:1008300020B0B4CFC20A00004B4559322069732062
:10084000707265737365642E0000000070B55020EF
:10085000EFF3118480F31188BFF34F8FBFF36F8FD5
:100860004FF40055284600F017F848B106480168D3
:1008700081F40061016000F061FB284600F006F899
:1008800084F3118870BD0000141C02400149086007
:1008900070470000143C014001460020024A1268E3
:1008A0000A4200D001207047143C014030B51B4A79
:1008B00083790168002B2AD013688B431360111DC4
:1008C0000B680468A3430B60017911440B6804684A
:1008D00023430B60114C083421680368994321605D
:1008E000231D19680568A94319604179102905D0AD
:1008F00011440A68006802430A6030BD216802683A
:1009000011432160196800680143196030BD007906
:10091000104402688A43026030BD0000003C014080
:1009200000224FF0204310280AD0B0F5807F09D074
:10093000B0F5805F09D0D3F85801814309D107E0B1
:10094000586EFAE7D3F88400F7E7D3F8A400F4E789
:100950000122104670470000D0E90012114382685E
:10096000C068521E520142EA402001430148016022
:1009700070470000500100A070B50468A100A1F10B
:10098000C041D1F84011CE0BF603D0E9011211435A
:10099000D0E903231A4311434269C36911438269B1
:1009A000056A11431943426A2943114331434FF009
:1009B0002046002C3CD0D6F840416FF30E042B4368
:1009C00022431343C6F8403102689200A2F1C042AC
:1009D000C2F84011016871B38900A1F1C041D1F89A
:1009E000481101F07043816A0A684C68521E641E07
:1009F00042EA04148A68521E44EA02240A8A521EF9
:100A000044EA02421A43D6F8483103F07043CC68F6
:100A1000898A641E2403491E44EA01511943C6F819
:100A2000481100688000A0F1C040C0F8482170BDA6
:100A3000C6F84011CEE7FFE7D6F8481101F0704143
:100A4000806A02684368521E5B1E42EA0313826892
:100A5000521E43EA0223C268521E43EA0233028A4C
:100A6000521E43EA0243828A007E521E43EA025229
:100A7000401E42EA00600843C6F8480170BD00000D
:100A800002490A6842EA400008607047540100A029
:100A90002DE9F041002201274FF0030C07FA02F57F
:100AA0000B682B40AB422CD1066853000CFA03F4C0
:100AB000A64306600E79D0F800809E4046EA0806FC
:100AC00006600E79012E01D0022E12D18668A6434F
:100AD00086604E79D0F808809E4046EA0806866017
:100AE0004668AE43466045688E799640B6B2354357
:100AF0004560C568A543C560CC799C40C3681C436C
:100B0000C460521C102AC9D3BDE8F08110B54B0750
:100B1000DB0E9A40C90800EB8100016A0F249C405B
:100B2000A1430162016A1143016210BD0246002027
:100B300012690A4200D00120704741837047018347
:100B4000704700007CB500200090019080258DF852
:100B5000005048208DF8010006226946BA2000F0B6
:100B600049F8002801DA00207CBD9DF802009DF8BC
:100B7000031000EB012086B29DF804009DF80510DB
:100B800000EB012084B28DF800504D208DF801005B
:100B900003226946BA2000F02DF8002801DA00206F
:100BA0007CBD9DF8020000F003032246314602A0FE
:100BB00001F0B6FF01207CBD3C3C2D4754502D492F
:100BC0004E464F2D3E3E20585F4D4158203D20253A
:100BD000642C20595F4D4158203D2025642C205421
:100BE000524947474552203D203078253032780A17
:100BF00000000000F0B587B00E4617464FF0FF35F5
:100C000000240021ADF806108DF804000221ADF893
:100C1000081003960121ADF812108DF81000B81ECF
:100C2000ADF81400B01C069007E0022101A800F006
:100C3000CAFB0546022D02D0641C052CF5DB052CF1
:100C400008DB707831782B4640EA0121BA1E034850
:100C500001F066FF07B02846F0BD000064560008AA
:100C600038B50D48006800900024651E0DE0032291
:100C70006946BA20FFF7BEFF45B2002D01DD2846C8
:100C800038BD214605A001F04BFF2046641CE4B2AC
:100C90000528ECD3284638BDDC5400083C3C2D47E1
:100CA00054502D4552524F522D3E3E204754502015
:100CB0006932632074657374206661696C656420B1
:100CC00074696D652025642E0A000000FEB50E468D
:100CD00017464FF0FF3500240021ADF802108DF8C3
:100CE0000000ADF80470029607E00121684600F0AC
:100CF0006AFB0546012D02D0641C052CF5DB052C92
:100D000008DB707831782B4640EA0121BA1E024890
:100D100001F006FF2846FEBDB45600082DE9F0415B
:100D20000024B82500F046FBFFF79AFF0646002E88
:100D300005DA21A001F0F4FE3046BDE8F08100F0B4
:100D400057F82848007880B1DFF89C80BA27254EF4
:100D5000F0210936B01CFFF7BCFA3A464146B01CF8
:100D6000FFF79EFA0221AA1C09E0DFF87C80A8F1B7
:100D7000BA08BA27EBE7705C2044C4B2491C914220
:100D8000F9DBE143491C701981700121C170002415
:100D900014492A1D0931BA20FFF798FF002802DC08
:100DA000641C052CF4DB1148FFF783FC00F06EFA9D
:100DB000FFF7C8FE0020C0E73C3C2D4754502D45AE
:100DC00052524F522D3E3E2049324320636F6D6D8B
:100DD000756E69636174696F6E204552524F52217E
:100DE0000A00000058000020AA550008FFFF0F006D
:100DF00030B585B02C480169C068CDE903010822EF
:100E000003A9BA20FFF7F6FE0446200005D527A067
:100E100001F086FE204605B030BD9DF811002E4D34
:100E2000A0B19DF812109DF81320CDE9012100908A
:100E30009DF810309DF80F209DF80E1027A001F0AE
:100E40006FFE9DF80E0039281ED02BE09DF8120091
:100E50009DF81310CDE900109DF810309DF80F207B
:100E60009DF80E1029A001F05BFE9DF80E003928B8
:100E700018D19DF80F00312814D19DF810003128A9
:100E800010D1012028700DE09DF80F00312809D104
:100E90009DF81000352805D19DF81100372801D1A3
:100EA000002028702046B6E7DC5400083C3C2D4763
:100EB00054502D4552524F522D3E3E204754502003
:100EC000726561642076657273696F6E2066616910
:100ED0006C65640A00000000580000203C3C2D476F
:100EE00054502D494E464F2D3E3E20494332205608
:100EF000657273696F6E3A202563256325632563E8
:100F00005F25303278253032780A00003C3C2D478E
:100F100054502D494E464F2D3E3E204943312056D8
:100F2000657273696F6E3A202563256325635F25BB
:100F3000303278253032780A0000000000F08AB89C
:100F40007CB506460D461446CDE900432B46324695
:100F50004FF4937107A001F0E3FDA1B2A8B2012202
:100F600001F03EFD0F4820F816500A3020F81640D8
:100F70007CBD00003C3C2D4754502D444542554714
:100F80002D3E3E205B25645D49443A25642C205863
:100F90003A25642C20593A25642C20573A25640AB6
:100FA000000000005401002070B504460B4EA6F16D
:100FB0000A0536F8141035F8140001F0E7FC4FF07C
:100FC000FF3025F8140026F814002246BDE87040D2
:100FD0004FF4AA7102A001F0A3BD00005E01002041
:100FE0003C3C2D4754502D44454255472D3E3E2014
:100FF0005B25645D546F7563682069645B253264AA
:101000005D2072656C65617365210A0070B50546E7
:101010000C460F480078002801D101F013FB220A8A
:10102000E1B2A13AC2EB021000EB421001EB400129
:10103000A13901EBC1008101C81701EB5070C1104B
:10104000482201F5AA01284601F0D6FA002070BD19
:10105000440000202DE9F04F97B04CA00068169096
:1010600028210DF12C090CA8FFF733F9484C6068D2
:101070000B904FF0BA0B00260C220BA95846FFF735
:10108000B9FD0146002905DA42A001F049FD17B07B
:10109000BDE8F08F9DF82E000028F8D0010669D534
:1010A00000F00F05052D65D8012D14D9242101AFBD
:1010B000381DFFF70EF9A0680190681E022101EBB0
:1010C000C002044601A95846FFF794FDE200B91C8E
:1010D0000EA8FFF7E5F8DFF8ECA00AF10408BAF86B
:1010E0000200A84215D818E000246F1E0EE009EB9C
:1010F000C400C07800F00F0118F80600884207D03D
:10110000BC4201DBFFF750FF641CE4B2AC42EED3FB
:10111000761CBAF802008642E6DBDDB1002416E058
:1011200009EBC400C17801F00F0608F804600179EA
:10113000427941EA02218279C37942EA0322037AA1
:10114000407A43EA00233046FFF7FAFE641CAC42C3
:10115000E6DB0DE0BAF8020050B1002404E018F814
:101160000400FFF721FF641CBAF802008442F6DB9A
:10117000AAF80250032216A95846FFF7A7FD002837
:1011800085DA11A001F0CCFC81E70000814E00005F
:10119000DC5400083C3C2D4754502D4552524F52D0
:1011A0002D3E3E20493243207472616E7366657233
:1011B000206572726F722E206572726E6F3A2564AE
:1011C0000A200A00580000203C3C2D4754502D496D
:1011D0004E464F2D3E3E204932432077726974655A
:1011E00020656E645F636D64206572726F72210AA0
:1011F00000000000FEE700002DE9FC410121880508
:1012000000F0F4FE0121882000F0C6FE01218803D1
:1012100000F0FAFE1020009001258DF80450022401
:101220008DF805408DF8065000268DF80760154FA3
:1012300069463846FFF72CFC202100916946384664
:10124000FFF726FCA00200908DF804508DF80540B1
:101250008DF806608DF807400B4F69463846FFF75A
:1012600017FC200300908DF804508DF805408DF890
:1012700006608DF8074069463846FFF709FCBDE86F
:10128000FC810000001C0240000C024030B585B01B
:101290004FF40055009500248DF8044002208DF88D
:1012A00005008DF8074069461248FFF7F1FB0D2154
:1012B000032001F0B3FA03958DF8104008208DF853
:1012C000110001258DF8125003A8FFF7EFFA4FF433
:1012D000407000F057FE28208DF8080006208DF899
:1012E00009008DF80A408DF80B5002A800F016FE98
:1012F00005B030BD000C024070B506460D461446E0
:1013000001F0F4FE46F0010001F0C4FE01F01EFF02
:1013100088B101F007FF012070BD012C03D101F05D
:101320007FFE01F0FFFE01F093FE05F8010B641E45
:10133000A4B201F053FE002CEFD101F0F3FE002027
:1013400070BD00002DE9FC474FF4005600960120C7
:101350008DF8040002248DF8054000258DF8065014
:101360008DF80740114F69463846FFF791FB4FF45F
:10137000006841463846FFF7E0FBDFF83490484606
:10138000FFF78EF941463846FFF7D9FB4846FFF78D
:1013900087F900968DF804508DF805408DF80750B8
:1013A00069463846FFF774FBBDE8FC87000C024035
:1013B000FFFF0F0010B5FFF71FFFFFF7C3FFBDE8EA
:1013C0001040FFF763BF70B505460E4600240020AD
:1013D00014E004EB440005EB80039978C90706D0BC
:1013E0009A8815F820009968FFF786FF05E01A79BA
:1013F00015F82000996800F008F8641C08B9B44298
:10140000E7D1002800D1204670BD2DE9F04180468B
:101410000E46154601F086FE00244FF47A7701F05F
:1014200065FE404601F036FE01F090FE18B1641CE6
:10143000A4B2BC42F3D3BC4206D00BE0307801F03A
:1014400029FE01F083FE20B101F06CFE0120BDE811
:10145000F081761C6D1EEDB2F0D201F063FE00202B
:10146000F5E7A0F59870C02807D8B1F5CC7F04D374
:10147000B1F5F07F01D801207047002070470000CF
:101480000E4C4FF400550E4E0E4F10E00121206916
:1014900002F020FC2946304600F032F8012803D142
:1014A0000221206902F016FC142002F08BFA0121BF
:1014B000384600F025F80128ECD1E7E724000020A9
:1014C00000080240000002401CB50121052000F088
:1014D00063FD0120009000208DF804008DF80700C6
:1014E000064C69462046FFF7D3FA4FF400510091AD
:1014F00069462046FFF7CCFA1CBD000000080240F8
:1015000070B504460D4629462046FFF70FFB01281B
:1015100001D0002070BD29462046FFF707FB0128B7
:10152000F9D0012070BD000070B58AB0C40A00F087
:101530001F05C0F34516FEF7E3FF4FF4403000905F
:10154000022001900396029504940F2005900D4C03
:1015500060680690002007904FF4F07008904FF4F8
:10156000487009906846FEF7E1FFFFF73BF802205C
:10157000FEF7D2FF0028FAD0208800F099FB0AB0CD
:1015800070BD0000480000202DE9F04393B04FF4F7
:10159000C86300FB03F50C46114601A8FFF736FDB2
:1015A0000023174F0DF1040C786803EB43011CF87E
:1015B0000120120261444E78164336028A78324383
:1015C00000213E88B7F802805FEA022904D500EBCB
:1015D000440929F8056003E000EB440929F8058077
:1015E000641C5200491CC9B21829EDD304F5427499
:1015F0005B1CDBB2182BD8D313B0BDE8F08300001E
:101600004800002010B4203AD3B2054AD2681468CA
:10161000D2885A4304EB420210BC00F033B80000F9
:10162000480000202DE9F04180460D460024144E6C
:101630004FF4487717E07E2A09D821464046FFF745
:10164000E1FFF0688088204484B26D1C0BE029889B
:10165000080200EB112082B221464046FFF794FFBA
:101660001834A4B2AD1CBC4208D22A78002A05D096
:10167000F0688188081980B28842DCD2BDE8F08128
:10168000480000202DE9F04300254FF4C86358437B
:10169000DFF87890D9F804C0D9F80C7030E0002356
:1016A00026E00C26B4FBF6F6F6004FF0800808FAA8
:1016B00006F832F8156048FA03F818EA060F01D167
:1016C0000C2C08D94FF0010808FA03F816EA080FA5
:1016D00007D10C2C05D90CEB4106B9F80240345265
:1016E00004E00CEB4106B9F800403452491C5B1C85
:1016F000BC889C42D5D8BB88C3F5487319446D1C7F
:10170000FB88AB42CBD8BDE8F08300004800002046
:101710002DE9F0478AB015469946DFF87080B8F891
:101720000040E60A04F01F07C4F3451401EBC102B0
:1017300002EB011100EB4110D8F8041001EB400A54
:10174000FEF7DEFE4FF4403000900220019003943B
:10175000029704960F200590CDF818A0C5F54870A3
:101760000790CDF8209009956846FEF7DFFEFEF75A
:1017700039FF0220FEF7D0FE0028FAD0B8F80000AA
:1017800000F096FA0AB0BDE8F0870000480000209B
:101790002DE9F0438BB01446984601EBC10202EBF1
:1017A000011100EB41111948426802EB4105008824
:1017B000C60A00F01F07C0F34519FEF7A1FE4FF45B
:1017C0004030019002200290CDF8109003970596CA
:1017D0000F20069007950120B8F1000F11D040F2BC
:1017E0001F31089109940A9001A8FEF79FFEFEF7A9
:1017F000F9FE0220FEF790FE0028FAD00BB0BDE8FB
:10180000F0830021089109900A94EDE74800002038
:101810002DE9F04106460D4617461C4600233A4680
:1018200029463046FFF7B4FF281981B200233A4613
:101830003046FFF7ADFF0123224629463046FFF729
:10184000A7FFF01922462946BDE8F04180B20123E6
:10185000FFF79EBF2DE9FC5F012140F2FF1000F071
:101860009BFB4FF00408CDF8008002208DF80500A6
:101870008DF8040000208DF806008DF807006946F9
:10188000AA48FFF705F90E220221A848FFF73EF902
:101890004FF00809CDF800906946A448FFF7F8F822
:1018A0000E220321A148FFF731F94FF4807ACDF8D9
:1018B00000A069469D48FFF7EBF80E2208219B48DF
:1018C000FFF724F90124009469469948FFF7E0F8EE
:1018D000092200219648FFF719F94FF4006BCDF863
:1018E00000B069469348FFF7D3F80E220B219148C8
:1018F000FFF70CF92003009069468E48FFF7C8F8FF
:101900000E220C218B48FFF701F902200090694656
:101910008748FFF7BDF8092201218548FFF7F6F84F
:101920004025009569468448FFF7B2F80E2206214B
:101930008148FFF7EBF82020009069467F48FFF7C9
:10194000A7F80E2205217D48FFF7E0F800956946CB
:101950007A48FFF79DF80E2206217848FFF7D6F85F
:101960006003009069467148FFF792F80E220D213E
:101970006E48FFF7CBF8A602009669466E48FFF75F
:1019800087F809220A216C48FFF7C0F8E0030090AD
:1019900069466648FFF77CF80E220F216348FFF77F
:1019A000B5F8009469466648FFF772F80E220021E8
:1019B0006348FFF7ABF88027009769466148FFF757
:1019C00067F80E2207215F48FFF7A0F8CDF80080E6
:1019D00069465B48FFF75CF80E2202215848FFF782
:1019E00095F84FF01008CDF8008069465348FFF78E
:1019F0004FF80E2204215148FFF788F82003009089
:101A000069464D48FFF744F80E220C214A48FFF77B
:101A10007DF800954C4D69462846FFF739F80E22AF
:101A200006212846FFF772F8CDF800B06946424813
:101A3000FFF72EF80E220B213F48FFF767F8CDF88D
:101A4000008069463E48FFF723F80E2204213C48F7
:101A5000FFF75CF8CDF8009069463648FFF718F8B4
:101A60000E2203213348FFF751F8CDF800A0694654
:101A70002F48FFF70DF80E2208212D48FFF746F8F2
:101A80004FF40079CDF8009069462948FFF700F837
:101A90000E2209212648FFF739F8009769462648A3
:101AA000FEF7F6FF0E2207212348FFF72FF80096D6
:101AB00069462348FEF7ECFF0E220A212048FFF773
:101AC00025F8CDF8009069461D48FEF7E1FF0E228B
:101AD00009211B48FFF71AF800961C4E694630464C
:101AE000FEF7D6FF0E220A213046FFF70FF8CDF899
:101AF000008002208DF805008DF8044000208DF84C
:101B000006008DF8074069462846FEF7C1FF00979A
:101B100069462846FEF7BCFF10212846FFF70FF85C
:101B200080212846FFF70BF8BDE8FC9F001C02400F
:101B30000004024000000240001802400010024071
:101B40000020024000080240000C02400014024045
:101B500010B590B00121880600F056FA0121C805A1
:101B600000F01AFAFFF776FE00F0A6FC00240194BC
:101B70000294039404940D940E940F94052207216B
:101B8000FA2000F0CDFA002000F0BAFA012000F0AF
:101B9000C1FA3D2000F098FA0028FAD00594069486
:101BA0002E2007901720089040F24E30099040F206
:101BB000F7100A904FF459700B9040F20D200C90E2
:101BC00001A800F0E1F810B010BD000030B591B0F0
:101BD0002F20019040F24E3002901820039040F2E6
:101BE000F710049002240594FF200690002007902F
:101BF000089009900A9060020B9005200C9040F22A
:101C000043600E90C01E0F904FF4F07010904FF094
:101C100050400D90144D01A9284600F017F9059485
:101C200012490D914FF4C0610B9107210C910E4C9C
:101C300001A98034204600F009F9012000F052F992
:101C40000121284600F0F6F80121204600F0F2F8C4
:101C5000012000F047F9064800F012F8012000F0DA
:101C600083F811B030BD00008468014000B80BD08B
:101C70003C000020014948807047000048000020D7
:101C80000149C8607047000048000020064900284C
:101C900004D0064848600120886070474FF05040EB
:101CA00048600020886070474800002000B80BD0D2
:101CB00001490880704700004800002010B509491C
:101CC0008968002908D00146074800F0B1F8BDE84E
:101CD0001040012000F006B901460348803800F0AA
:101CE000A7F8F4E748000020046901402DE9FC4111
:101CF0000121802000F050F94FF48064009401200D
:101D00008DF8040000218DF806108DF807008DF87D
:101D100005100C4F69463846FEF7BAFE660000967D
:101D200069463846FEF7B4FEA50000956946384678
:101D3000FEF7AEFE03481830048006800580BDE83B
:101D4000FC810000001C02400649002804D00868FD
:101D500040F0010008607047086820F0010008604A
:101D600070470000186801400649002804D0086840
:101D700040F4803008607047086820F480300860C4
:101D8000704700001868014030B5264A136826499C
:101D90000B401360038A1B04146845692C431C43E1
:101DA0001460121D13680B401360038B1B0414682E
:101DB000C5692C431C431460121D13680B4013604B
:101DC000038C1B041468456A2C431C431460121DC9
:101DD00013680B401360018D09041368C46A234320
:101DE0000B431360111D0A68104B1A400A60D0E9BA
:101DF00000231A43D0E9023423431A430B681A43E1
:101E00000A60416B0A02018E0B04064924310C68FA
:101E100004F07F440C600C68806B134304431C4344
:101E20000C6030BD0868014000F800F08F88FE0F9C
:101E300041617047002904D0016841F0010101604F
:101E40007047016821F001010160704770B58A8810
:101E50001204436803F4704343600B681343436008
:101E60008A891204836803F4704383608B68134388
:101E70008360026922F0070202610A690261CA698D
:101E800013020A8C120491F8244024068569002567
:101E900085618E6922431E4316438661426922F0A2
:101EA000FF0242614A694261C26940F207739A4384
:101EB000C261D1E90A231A43C261826A85620A6B50
:101EC00082620A8F1204C36A03F0E023C3624B6B81
:101ED0001343C362026B6FF30A020263C96B0163AF
:101EE00070BD00000149086070470000246801408F
:101EF000FEE7704708B54FF4A06000F043F82520D6
:101F00008DF8000001208DF801008DF802008DF899
:101F10000300684600F002F808BD000030B50F234A
:101F2000C27801250178002A1FD0154A126802F4F0
:101F3000E062C2F5E062C2F30722C2F10404D340BA
:101F40004278A24084781C401443220101F1E02130
:101F500081F80024007800F01F018D4040098000C6
:101F600000F1E020C0F8005130BD01F01F008540B5
:101F70004809800000F1E020C0F8805130BD000029
:101F80000CED00E002490843024908607047000078
:101F90000000FA050CED00E0054A002903D01168A5
:101FA0000143116070471168814311607047000060
:101FB00030380240054A002903D0116801431160FE
:101FC000704711688143116070470000103802406B
:101FD000054A002903D01168014311607047116858
:101FE000814311607047000038380240054A0029DB
:101FF00003D011680143116070471168814311607B
:102000007047000040380240054A002903D011689B
:1020100001431160704711688143116070470000EF
:102020004438024070B5244B196801F00C01234C70
:1020300000291ED0224E04291DD008291DD004607D
:10204000196801F0F00109091E4A545C0168E14079
:1020500041601C6804F4E054A40A145D21FA04F4FD
:1020600084601B6803F460435B0BD25CD140C160A9
:1020700070BD0460E4E70660E2E70F4A121F1168D2
:10208000C1F38055116801F03F0135B1B6FBF1F1A4
:102090001468C4F38814614305E0B4FBF1F11468DB
:1020A000C4F3881461431268C2F30142521C520007
:1020B000B1FBF2F10160C3E7083802400024F400EC
:1020C00040787D01140000200246002051090129BA
:1020D0000BD002290DD00949096802F01F02012323
:1020E00093400B4200D001207047044974390968BD
:1020F000F3E70249091F0968EFE70000743802405E
:10210000034A116821F44031014311607047000017
:102110008C380240014908677047000000004742C0
:10212000800140EA0160024940EA0270086070479D
:10213000883802402DE9FC5F0121FC20FFF72CFFCD
:1021400002208DF804008DF8050000208DF80600AF
:102150008DF80700012000906946D148FEF798FCF1
:102160000C220021CE48FEF7D1FC022000906946E7
:10217000CB48FEF78DFC0C220121C948FEF7C6FCB6
:10218000042000906946C648FEF782FC0C2202211A
:10219000C348FEF7BBFC082000906946C048FEF724
:1021A00077FC0C220321BE48FEF7B0FC10270097F5
:1021B0006946BB48FEF76CFC0C220421B848FEF7C8
:1021C000A5FC4FF02008CDF800806946B448FEF722
:1021D0005FFC0C220521B248FEF798FC4FF48059B1
:1021E000CDF800906946AE48FEF752FC0C2211462D
:1021F000AB48FEF78BFC4FF4005ACDF800A06946BF
:10220000A748FEF745FC0C220D21A548FEF77EFCF1
:10221000BD0200956946A248FEF73AFC0C220E2149
:102220009F48FEF773FC6C00009469469C48FEF7DB
:102230002FFC0C220F219A48FEF768FC0120009029
:1022400069469848FEF724FC0C2200219548FEF7C9
:102250005DFC0220009069469248FEF719FC0C22B2
:1022600001219048FEF752FC009569468E48FEF722
:102270000FFC0C220E218C48FEF748FC00946946A6
:102280008948FEF705FC0C220F218748FEF73EFC2B
:102290000120009069468448FEF7FAFB0C220021D9
:1022A0008148FEF733FC0220009069467E48FEF725
:1022B000EFFB0C2201217C48FEF728FC4FF0800B3D
:1022C000CDF800B069467948FEF7E2FB0C22072101
:1022D0007648FEF71BFCE611009669467348FEF748
:1022E000D7FB0C2208217148FEF710FCA0110090CA
:1022F00069466E48FEF7CCFB0C2209216B48FEF7BD
:1023000005FC6011009069466848FEF7C1FB0C228D
:102310000A216648FEF7FAFB2011009069466348DF
:10232000FEF7B6FB0C220B216048FEF7EFFBCDF861
:10233000009069465D48FEF7ABFB0C2211465B48F6
:10234000FEF7E4FBCDF800A069465848FEF7A0FB75
:102350000C220D215548FEF7D9FB009569465348DC
:10236000FEF796FB0C220E215048FEF7CFFB00949F
:1023700069464E48FEF78CFB0C220F214B48FEF7B6
:10238000C5FB009669464848FEF782FB0C220821EF
:102390004548FEF7BBFBA011009069464248FEF796
:1023A00077FB0C2209214048FEF7B0FB601100903A
:1023B00069463D48FEF76CFB0C220A213A48FEF7BD
:1023C000A5FB402000903A4D69462846FEF760FB89
:1023D0000C2206212846FEF799FB009769463148F2
:1023E000FEF756FB0C2204212E48FEF78FFBCDF89A
:1023F000008069462B48FEF74BFB0C22052129483B
:10240000FEF784FB012000902A4F69463846FEF70C
:102410003FFB0C2200213846FEF778FB201100908C
:1024200069461F48FEF734FB0C220B211C48FEF7BF
:102430006DFB009469461B48FEF72AFB0C220F2116
:102440001848FEF763FB009669461648FEF720FB26
:102450000C2208211348FEF759FBCDF800B069465D
:102460002846FEF715FB0C2207212846FEF74EFBF7
:102470000220009069460D48FEF70AFB0C2201215C
:102480000A48FEF743FB0120009069460748FEF723
:10249000FFFA0C2200210548FEF738FBBDE8FC9F3F
:1024A0000014024000180240000C024000100240DC
:1024B000001C02400008024000B593B0FFF73AFE4E
:1024C00001210846FFF784FD0220019007220292B5
:1024D0000421039104920590069007900120089032
:1024E000002009900A9110210B9140210C914FF48A
:1024F000C0710D910E904FF400610F911090880003
:10250000119001A8129008A8FEF736FA00F002F820
:1025100013B000BD2DE9FF41012500950826019665
:1025200002950024039420210120FEF7F9F90028E8
:10253000F9D16846FEF710FA0A2000F041F80220AF
:10254000009001960295039420210120FEF7E8F9FE
:102550000028F9D16846FEF7FFF9032000900196A4
:1025600004270297039420210120FEF7D9F90028BF
:10257000F9D16846FEF7F0F920210120FEF7D0F9E5
:102580000028F9D16846FEF7E7F940F231200097BC
:1025900001960295039020210120FEF7C1F9002841
:1025A000F9D16846FEF7D8F940F26A50FEF768FAAA
:1025B00020210120FEF7B4F90028F9D1BDE8FF8100
:1025C00001B581B0054901984843009002E00098A8
:1025D000401E009000980028F9D10CBDA086010093
:1025E000002904D0018841F0400101807047018832
:1025F00021F04001018070472DE9F04104460F466B
:1026000015460F4840260680032000F087F8C7F3E0
:10261000074000F083F8C7F3072000F07FF8F8B216
:1026200000F07CF804E0FF2000F078F804F8010BDB
:102630006D1EADB2F7D20248801E0680BDE8F08163
:102640001A1402402DE9F04387B001212020FFF742
:10265000A3FC01210805FFF7D7FCDFF8B89005229D
:1026600007214846FEF752FA052208214846FEF7A0
:102670004DFA052209214846FEF748FA80200090CD
:1026800002258DF805508DF8045000248DF8064081
:102690008DF8074069464846FEF7FAF9E8010090D0
:1026A00069464846FEF7F4F94FF40078CDF800800B
:1026B00069464846FEF7ECF94027009701268DF859
:1026C000046069464846FEF7E3F91248183007806F
:1026D000ADF808404FF48270ADF80A00ADF80C4038
:1026E000ADF80E50ADF81060ADF81280ADF81440A2
:1026F000ADF816400720ADF81800074C02A9204697
:1027000000F04FF801212046FFF76AFF07B0BDE84F
:10271000F083000000140240005001402DE9F04118
:102720000746184C4FF480552560174E09E0206885
:10273000411E216005D2002000F050F8C0B2BDE873
:10274000F0810221304600F021F80028EFD0394610
:10275000304600F024F8256008E021684A1E226017
:1027600004D2012000F03AF8C0B2E8E70121304677
:1027700000F00CF80028F0D0304600F00EF8C0B29F
:10278000DDE7000038000020005001400246002034
:1027900012890A4200D001207047808970478181E8
:1027A000704730B5028802F441530A884C88CD88BE
:1027B00022438C882C4322430C8922434C89224398
:1027C0008C892243CC8922431A430280828B22F4D3
:1027D00000628283098A018230BD000010B5014683
:1027E00002A000F09DF9002010BD00003C3C2D46E9
:1027F0004C4153482D4552524F522D3E3E2053508E
:102800004920B5C8B4FDB3ACCAB1216572726F720C
:10281000436F6465203D2025640A000010B58A07D7
:10282000120F0F23934021F003040649214401F6BF
:1028300008010C689C430C600B68904003430B60DC
:1028400010BD0000003001401CB500210191009135
:102850002E4A106840F4803010604FF4A043106896
:1028600000F4003000900198401C0190009810B9CD
:1028700001989842F3D11068800302D5012000909E
:1028800000E00091009801283FD1204840300168C5
:1028900041F0805101601E49086840F440400860E2
:1028A0001A48083003680360036843F40043036078
:1028B000036843F4A0530360041F164B236013689E
:1028C00043F08073136013689B01FCD50A6842F4DF
:1028D00080320A604A68D203FCD50A6842F40032AA
:1028E0000A604A689203FCD50B4A40F205711160F8
:1028F000016821F003010160016841F002010160FB
:102900000168C1F381010229FAD11CBD00380240DF
:1029100000700040195A4007003C024010B501F019
:10292000A1FB012803D0BDE8104001F055BB10BD4C
:1029300010B51248016841F4700101601048016847
:1029400041F0010101600E4A002108321160026865
:102950000C4B1A400260031D0B4A1A60026822F4F5
:102960008022026006480C300160FFF76DFF0349CA
:102970004FF000608039086010BD000088ED00E075
:1029800000380240FFFFF6FE1030002470B5034609
:102990000020124D00EB400205EBC204A6889E42C7
:1029A00017D935F832209A4213D2E2888A4210D9D8
:1029B00062888A420DD200EB400005EBC000002186
:1029C000017321692046884720466169BDE870404F
:1029D0000847401CC0B21228DCD370BDCC010020D7
:1029E00010B5002A06D0FEF73CFD002802D00249AF
:1029F0000120487010BD000024000020002904D0F0
:102A0000818941F4005181817047818921F400510D
:102A1000818170470246002012880A4200D00120BE
:102A2000704710B540F66A13C1F3421301F01F045A
:102A30000121A140012B07D0022B07D014303AB15D
:102A400002680A43026010BD0C30F8E71030F6E768
:102A500002688A43026010BD7FB504460D46208A95
:102A600020F44051E88808432082A08941F20C619B
:102A70008843A9882A8911436A8902431143A181A5
:102A8000A08A20F44071A8890843A0826846FFF715
:102A9000C9FA1E48844202D01D48844201D10398DD
:102AA00000E00298A189090408D500EBC00101EB00
:102AB000001029684900B0FBF1F007E000EBC0010D
:102AC00001EB001029688900B0FBF1F06422B0FB33
:102AD000F2F109010B096FF018056B4300EB83005D
:102AE000A3891D044FF0320307D503EBC000B0FBF0
:102AF000F2F000F00700084306E003EB0010B0FB23
:102B0000F2F000F00F00084320817FBD001001406B
:102B100000140140C1F3080181807047FEE7000006
:102B20000FB4054B10B503A9044A029800F018F839
:102B300010BC5DF814FB0000B92F0008C80100208C
:102B400002E008C8121F08C1002AFAD17047704776
:102B5000002001E001C1121F002AFBD170470000D4
:102B60002DE9FF4F8DB00F460546002606E02528CB
:102B70000BD0DDE90F1290476D1C761C28780028D9
:102B8000F5D111B03046BDE8F08F0024A246A14631
:102B90000122E94900E0044315F8013F203B02FA15
:102BA00003F00842F7D128782A2810D06FF02F02BE
:102BB0002878A0F13001092914D80AEB8A0102EB28
:102BC000410144F0020400EB010A6D1CF0E701CF63
:102BD0005FEA000A03D544F40054CAF1000A44F045
:102BE00002046D1C28782E2817D115F8010F44F027
:102BF00004042A280ED06FF02F022878A0F13001AB
:102C000009290AD809EB890102EB410100EB01090E
:102C10006D1CF2E757F8049B6D1C28786C280FD0C8
:102C200006DC4C2817D068280DD06A2814D104E09F
:102C3000742810D07A280FD10DE044F400140AE073
:102C400044F4801401E044F440146978814202D1D4
:102C500004F580146D1C6D1C28786E281ED00CDCC9
:102C6000632830D004DC00288BD0582811D19FE095
:102C7000642867D069280CD164E073282DD004DC67
:102C80006F2872D0702804D194E075286ED078280F
:102C90006DD0DDE90F129047761C4BE1C4F3025072
:102CA000022806D0032809D0042801CF09D00660E5
:102CB00040E101CFF117C0E900613BE101CF06809F
:102CC00038E1067036E117F8040B8DF8000000209B
:102CD0008DF80100EB46012003E057F804BB4FF0EC
:102CE000FF3061074FF0000102D40DE008F101014F
:102CF000884649450FDA8045F8DB1BF808100029A3
:102D0000F4D108E008F1010188468142FADB1BF8A2
:102D100008100029F6D1DDE90F23AAEB080081464F
:102D2000214600F031F9304400EB080604E0DDE90B
:102D30000F121BF8010B9047B8F10108F7D221469A
:102D40004846F2E00A21C4F302524FF0000B08910A
:102D5000022A04D001CFC117032A09D00AE0FF1DBF
:102D600027F00707F7E8020108E02CE01EE01FE06B
:102D700000B2C117042A01D140B2C117021E71F17D
:102D8000000206DA0023D0EB030063EB01012D22E1
:102D900002E0220504D52B228DF82420012203E035
:102DA000E20701D02022F7E7904653E00A210BE02A
:102DB000102109E010214FF0000B44F004044FF003
:102DC0000809089103E008214FF0000B0891C4F3B3
:102DD0000252022A04D001CF0021032A06D006E0C5
:102DE000FF1D27F00707F7E8020103E080B2042A7D
:102DF00000D1C0B24FF0000822072BD52A78702AE4
:102E000007D0DDF820C08CF0100C5CEA0B0C05D06C
:102E10000EE040228DF82420012208E050EA010350
:102E200006D030238DF824308DF8252002229046DC
:102E3000089B83F0080353EA0B030BD150EA01020D
:102E400001D1620706D530228DF824204FF0010809
:102E5000A9F101092A78582A04D038A20B9208AAAD
:102E60000A920BE03AA2F9E75B46089AFDF73CFAB2
:102E70000B9B9B5C0A9A521E0A92137050EA010245
:102E8000F2D10A98ADEB000000F1200B600702D5EB
:102E900024F4803401E04FF00109D94502DDA9EBAB
:102EA0000B0000E0002000EB0B0141440890AAEB6E
:102EB000010AE00306D4DDE90F232146504600F065
:102EC00063F806444FF0000908E009A911F8090069
:102ED000DDE90F12904709F10109761CC145F4DBC9
:102EE000E0030CD5DDE90F232146504600F04CF8F5
:102EF000064404E0DDE90F1230209047761C089963
:102F0000481E08900029F5DC08E00A980A99007824
:102F1000491C0A91DDE90F129047761CBBF10001B4
:102F2000ABF1010BF1DC21465046DDE90F2300F047
:102F300019F806446D1C21E60928010030313233AE
:102F400034353637383961626364656600000000E5
:102F500030313233343536373839414243444546CF
:102F6000000000002DE9F041044600251E461746EA
:102F7000880404D405E039462020B0476D1C641E47
:102F8000F9D52846BDE8F0812DE9F0410446002539
:102F90001E469046C80301D5302700E0202788044C
:102FA00004D505E041463846B0476D1C641EF9D58E
:102FB0002846BDE8F081000070B50446064DE1B238
:102FC0002846FFF7A7FD80212846FFF723FD0028AC
:102FD000F9D0204670BD00000010014010B50C4C27
:102FE00020212046FDF7A9FD00F014F8102120460D
:102FF000FDF7A5FD00F00EF810212046FDF79DFD20
:1030000000F008F82046BDE810402021FDF797BDEC
:10301000001C02400020401CC0B23228FBD3704785
:1030200010B50A4C20212046FDF789FDFFF7F2FF7D
:1030300010212046FDF783FDFFF7ECFF102120460D
:10304000FDF77BFDBDE81040FFF7E4BF001C024028
:1030500070B5002400250E4E6006040E1021304687
:10306000FDF76DFDFFF7D6FF20213046FDF75EFD31
:1030700008B1641CE4B210213046FDF75EFDFFF795
:10308000C9FF6D1CEDB2082DE6D3204670BD0000CF
:10309000001C024070B505460024134E280604D5D6
:1030A00020213046FDF74BFD03E020213046FDF79F
:1030B00044FDFFF7AFFF10213046FDF740FDFFF75D
:1030C000A9FF10213046FDF738FD072C03D1202140
:1030D0003046FDF734FD6806050EFFF79BFF641CC4
:1030E000E4B2082CDAD370BD001C024010B50C4CC1
:1030F00020212046FDF723FD10212046FDF71FFD6E
:10310000FFF788FF20212046FDF717FDFFF782FF1C
:1031100010212046FDF711FDBDE81040FFF77ABFF2
:10312000001C024010B5084C20212046FDF705FD8B
:1031300010212046FDF703FDFFF76CFF2046BDE898
:1031400010402021FDF7FBBC001C024070B50E4D65
:1031500020212846FDF7F3FCFFF75CFF10212846ED
:10316000FDF7EDFCFFF756FF20212846FDF7DEFCBA
:1031700008B1012400E0002410212846FDF7DDFC01
:10318000FFF748FF204670BD001C02401CB5FDF74C
:103190008FF914A0FFF7C4FC18A0FFF7C1FC1FA013
:1031A000FFF7BEFC25A0FFF7BBFC00F085FD2A4918
:1031B00008614FF0FF3468B1081D0121CDE900100E
:1031C0004A02002325A1294800F01CFF012806D04F
:1031D00020461CBD26A0FFF7A3FC20461CBD00F026
:1031E000D5FCFEE70A3D3D3D20B0B4BCFCCFD4CABF
:1031F000BEC0FDB3CC203D3D3D0A00004B455931DA
:103200003A20CFD4CABE20274B45593120697320BC
:10321000707265737365642E270A00004B4559323E
:103220003A20CFD4CABE20274B455932206973209B
:10323000707265737365642E270A0000B4A5C3FE1F
:10324000B5D7B2BF436C656172B0B4C5A53A20C7AB
:10325000E5C6C10A0A000000240000204170705435
:1032600061736B43726561746500000005040008BA
:10327000CAC2BCFED7E9B4B4BDA8CAA7B0DCA3A13A
:103280000A0000002DE9F04104460F46174EF5688C
:103290003068001D00F078FA38B9306890F82C10CA
:1032A00001208840316981433161601C07D137B109
:1032B0003168BDE8F041091D0D4800F0A9BA2C4461
:1032C00030684460AC4206D23168B06B091DBDE87D
:1032D000F04100F085BA3168706B091D00F080FA8A
:1032E000B06A844200D2B462BDE8F0816801002077
:1032F0004C06002070B5044600F096FA1C4DA868F4
:10330000401CA860286810B1686938B10CE02C60D6
:10331000A868012808D100F0F9F805E02868E16AFA
:10332000C06A884200D82C60686A401C6862E06A03
:1033300001212A698140114329610E4900EB800077
:1033400001EB8000211D00F063FA00F0A9FA686922
:1033500000280CD02868E16AC06A884207D2064972
:103360004FF080500860BFF34F8FBFF36F8F70BD79
:10337000680100207C03002004ED00E070B5124ECF
:10338000124D1CE000F04CFC306820B1002400F02D
:1033900043FFA4B901E00124F9E700F045FAF06821
:1033A000C468201D00F0F0F9A868401EA860686895
:1033B000401E686000F074FA204600F009F8686862
:1033C0000028DFD170BD0000380600206801002011
:1033D00010B50446206B00F097FA2046BDE8104077
:1033E00000F092BA4FF410410F48420706D0C01DBA
:1033F00020F007000C49411AC1F510410B4A10603A
:10340000002353600144083921F00701103A11608C
:103410004B600B600B1A4360016040689060506025
:103420004FF00040D060704760060020B4010020DB
:10343000074E4FF08054074DFFF7A0FF306801287A
:10344000FAD92C60BFF34F8FBFF36F8FF4E7000002
:103450007C03002004ED00E02DE9F047DDE9085889
:103460000A9C81460E469A46206B521E00EB820053
:1034700020F00707780705D040F22B3218A11FA0D3
:10348000FFF74EFB00202218315C82F83410315CCB
:1034900011B1401C1028F6D3002684F84360202D7B
:1034A00000D31F25E562201D00F097F904F11800F4
:1034B00000F093F92461C5F12000A06164626664A4
:1034C00084F8486052464946384600F04BF920607F
:1034D000B8F1000F01D0C8F80040BDE8F087000047
:1034E0002E2E5C2E2E5C4672656552544F535C73D3
:1034F00072635C7461736B732E6300004572726F4C
:10350000723A25732C25640D0A00000070B5002462
:10351000114D04EB840005EB800000F053F9641CAE
:10352000202CF6D30D4800F04DF90C48143000F073
:1035300049F90A48283000F045F908483C3000F0C5
:1035400041F90648503000F03DF905480349416310
:103550001431816370BD00007C030020FC05002055
:103560006801002030B5134900E011460A68824224
:10357000FBD34B685C18844203D140681844486010
:1035800008460D6844682318AB420DD1094B103B27
:103590001B689A4206D05268224442600A68126848
:1035A000026002E0036000E00260814200D0086037
:1035B00030BD0000B40100200748416B09680029B4
:1035C00005D0416BC968C9684968816270474FF08E
:1035D000FF318162704700006801002008484068A0
:1035E000401C05D040F20F1206A111A0FFF798FA77
:1035F000502080F31188BFF34F8FBFF36F8FFEE72A
:10360000BC0100202E2E5C2E2E5C46726565525445
:103610004F535C706F72745C525644535C41524D10
:103620005F434D34465C706F72742E63000000007F
:103630004572726F723A25732C25640D0A000000E2
:1036400003460020002A03D0994300D1012070478F
:103650000B42FCD0012070472DE9F04105460026C1
:1036600000F0DEFA304F386808B9FFF7BBFEF868A3
:1036700005424BD175B1083568070BD005F007003E
:10368000C0F108000544680704D0BF2227A131A07B
:10369000FFF746FA002D39D07868854236D822499E
:1036A00010310846046801E0214604466068A842DB
:1036B00002D220680028F7D13868844226D00E68EC
:1036C0000836206808606068401B102811D904EB98
:1036D00005085FEA487004D0EC2214A11DA0FFF792
:1036E0001FFA6068401BC8F8040065604046FFF799
:1036F00039FF61687868401A7860BA68904200D2F1
:10370000B860F868014361600020206000F084FD2B
:10371000700705D04FF4967204A10EA0FFF700FACF
:103720003046BDE8F0810000A40100202E2E5C2E62
:103730002E5C4672656552544F535C706F72745CB8
:103740004D656D4D616E675C686561705F342E63B9
:10375000000000004572726F723A25732C25640DCB
:103760000A00000024384FF08073036221F0010149
:10377000C1610449816142606FF0020140F8201983
:1037800070470000DD3500080169D0E901329A6018
:10379000D0E901235A604A68824201D182684A60B6
:1037A000002202610868401E0860704704490868EA
:1037B00080690A680968D26AC2F120028A6170478A
:1037C0006801002000F1080141604FF0FF32826083
:1037D000C1600161002101607047002101617047F3
:1037E00030B50C68621C02D000F1080202E00269E8
:1037F00004E01A4653681D68A542FAD953684B6025
:1038000099608A60516008610168491C016030BD9F
:1038100042684A6093688B60936859609160086160
:103820000168491C01607047502080F31188BFF384
:103830004F8FBFF36F8F09494868401C48600128CB
:103840000AD10748006810F0FF0F05D040F2B91206
:1038500004A10FA0FFF764B970470000BC0100206D
:1038600004ED00E02E2E5C2E2E5C467265655254EF
:103870004F535C706F72745C525644535C41524DAE
:103880005F434D34465C706F72742E63000000001D
:103890004572726F723A25732C25640D0A00000080
:1038A00010B5094C6068002805D14FF4E07207A1FB
:1038B00011A0FFF735F96068401E6060002801D153
:1038C00080F3118810BD0000BC0100202E2E5C2E5C
:1038D0002E5C4672656552544F535C706F72745C17
:1038E000525644535C41524D5F434D34465C706FB9
:1038F00072742E63000000004572726F723A257375
:103900002C25640D0A00000070B500282AD0083864
:103910000446154D6068E968084205D14FF4A0726D
:1039200012A11CA0FFF7FCF8206828B140F2411258
:103930000EA118A0FFF7F4F86068E968084211D0FA
:103940002268002A0ED18843606000F069F960683F
:103950006968084468602046FFF704FEBDE87040CF
:1039600000F05ABC70BD0000A40100202E2E5C2E79
:103970002E5C4672656552544F535C706F72745C76
:103980004D656D4D616E675C686561705F342E6377
:10399000000000004572726F723A25732C25640D89
:1039A0000A00000006484FF47A710068B0FBF1F19C
:1039B0004FF0E020491E416107210161704700007E
:1039C0000000002010B504460020002C10D00E4846
:1039D000006B28B140F2CF420CA113A0FFF7A0F872
:1039E00000F01EF900212046FFF74CFC00F014FC0B
:1039F000002807D110494FF080500860BFF34F8F67
:103A0000BFF36F8F10BD0000680100202E2E5C2ECA
:103A10002E5C4672656552544F535C7372635C74DE
:103A200061736B732E6300004572726F723A257377
:103A30002C25640D0A00000004ED00E070B504467A
:103A4000FFF7F2FE234D04B92C68201DFFF79CFE02
:103A500058B9E06A204A00EB800152F8211021B9E0
:103A600001218140286988432861A06A18B104F1C6
:103A70001800FFF789FE686A401C68622868844263
:103A800007D1211D1548FFF7C3FE6868401C686018
:103A900007E0A868401EA8602046FFF799FCFFF7E2
:103AA0008BFDFFF7FDFE6869002812D0286884426C
:103AB0000FD1286B28B140F2654209A10FA0FFF792
:103AC0002FF812494FF080500860BFF34F8FBFF3BB
:103AD0006F8F70BD680100207C0300203806002035
:103AE0002E2E5C2E2E5C4672656552544F535C73CD
:103AF00072635C7461736B732E6300004572726F46
:103B0000723A25732C25640D0A00000004ED00E0D4
:103B10002DE9F04105460E461746002D05D140F629
:103B200017320EA114A0FEF7FBFF174C206B28B92B
:103B300040F61B3209A110A0FEF7F2FF216846F003
:103B400000408861216828461831FFF761FE384639
:103B5000BDE8F0410121FFF795BB00002E2E5C2E41
:103B60002E5C4672656552544F535C7372635C748D
:103B700061736B732E6300004572726F723A257326
:103B80002C25640D0A000000680100201CB51548B2
:103B90000024CDE900402346802213A1144800F000
:103BA00031FA01280AD0401C1BD102B040F28472C5
:103BB000BDE810400FA116A0FEF7B2BF502080F361
:103BC0001188BFF34F8FBFF36F8F06484FF0FF315F
:103BD0002C38816201214161C460BDE81C4000F0C5
:103BE00073B91CBD9401002049444C4500000000FD
:103BF000313400082E2E5C2E2E5C467265655254C0
:103C00004F535C7372635C7461736B732E6300005B
:103C10004572726F723A25732C25640D0A000000FC
:103C20000248016B491C01637047000068010020D5
:103C300070B5144D286B002802D00120E86170BDDA
:103C40000020E8612869B0FA80F0C0F11F000E4E34
:103C500000EB800456F8240028B940F6F6220BA1A8
:103C600011A0FEF75DFF06EB8400416849684160E2
:103C700000F10802914201D1496841604068C06882
:103C8000286070BD680100207C0300202E2E5C2E71
:103C90002E5C4672656552544F535C7372635C745C
:103CA00061736B732E6300004572726F723A2573F5
:103CB0002C25640D0A00000010B51820FFF7CCFC7D
:103CC000044624B100202060201DFFF77BFD204624
:103CD00010BD00002DE9F04188460025044600286B
:103CE00005D140F21D2221A129A0FEF719FF5FEAAC
:103CF000186005D040F21E221CA125A0FEF710FF7F
:103D0000261D06F10807FFF78BFFF068216841EADE
:103D10000801216020E046680168002201F07F432D
:103D200021F07F415FEA431C06D4D4F800C01CEAAE
:103D3000010F07D0012205E0D4F800C031EA0C0CD5
:103D400000D101223AB1DA0100D50D43216841F0DA
:103D5000007100F00FFA3046B842DCD12068A84369
:103D6000206000F059FA2068BDE8F0812E2E5C2E0C
:103D70002E5C4672656552544F535C7372635C658A
:103D800076656E745F67726F7570732E63000000E6
:103D90004572726F723A25732C25640D0A0000007B
:103DA0002DE9F047089F0D469046994604460026A7
:103DB000002805D140F24D1235A13EA0FEF7B0FE1D
:103DC000280E05D04FF4A77231A13AA0FEF7A8FE45
:103DD0002DB940F24F122EA136A0FEF7A1FE00F041
:103DE00041F930B92FB14FF4A97229A131A0FEF7E2
:103DF00097FEFFF715FFD4F800A04A462946504623
:103E0000FFF71EFC40B156460027B8F1000F15D051
:103E10002068A843206011E0AFB1B8F1000F01D0D5
:103E20004FF08076B9F1000F01D046F0806645EA88
:103E300006013A46201DFFF76BFE002600F0ECF964
:103E40001FB310B109E05646F8E71E494FF0805005
:103E50000860BFF34F8FBFF36F8FFFF7A7FC0646D5
:103E6000B00110D4FFF7E0FC26684A4629463046E8
:103E7000FFF7E6FB28B1B8F1000F02D02068A84395
:103E80002060FFF70DFD26F07F463046BDE8F08745
:103E90002E2E5C2E2E5C4672656552544F535C7319
:103EA00072635C6576656E745F67726F7570732E92
:103EB000630000004572726F723A25732C25640D01
:103EC0000A00000004ED00E01CB52F4C20682F49CB
:103ED000884205D140F259122DA138A0FEF720FEEC
:103EE00020682A49491E884205D14FF4AD7228A1A5
:103EF00032A0FEF715FE354C20780190FF2020708F
:103F0000207800909DF800009DF8001000F0F0006F
:103F1000884205D040F273121DA128A0FEF700FED2
:103F20009DF800002A4A00F05000107007209060B1
:103F300006E09068401E90609DF8000040000090F0
:103F40009DF800000006F4D4107A000200F4E0604E
:103F50009060019820700C482030016841F4700195
:103F60000160016841F070410160FFF71BFD002016
:103F70005060FCF747F91748016841F04041016083
:103F8000FCF730F900201CBD00ED00E071C20F41CC
:103F90002E2E5C2E2E5C4672656552544F535C701B
:103FA0006F72745C525644535C41524D5F434D34C2
:103FB000465C706F72742E63000000004572726F71
:103FC000723A25732C25640D0A00000000E400E01D
:103FD000BC01002034EF00E010B5502080F31188C0
:103FE000BFF34F8FBFF36F8F00F04AF818B1044949
:103FF0004FF080500860002080F3118810BD000051
:1040000004ED00E02DE9FF5F8146DDE90E788A4688
:1040100016469B46B000FFF71FFB054628000AD056
:104020004C20FFF719FB04460CB1256304E0284639
:10403000FFF76AFC00E000248CB10020CDE90240CB
:10404000CDE900785B46324651464846FFF704FA10
:104050002046FFF74FF9012004B0BDE8F09F4FF074
:10406000FF30F9E705484169002903D0006B18B11A
:10407000002070470120704702207047680100202F
:104080002DE9F04100262E4F386B002808D0B86982
:10409000401CB861F86900B101263046BDE8F081E6
:1040A000FD686D1CFD608DB9786B006828B140F625
:1040B000D91224A12AA0FEF733FD786BB96B79637E
:1040C000B863386A401C3862FFF776FAB86ADFF8DE
:1040D000A08085420DD3786B006838B1786BC068DA
:1040E000C468606885420ED2B86202E04FF0FF30CB
:1040F000B8623868C06A00EB800058F820000128D8
:10410000C8D90126C6E7201DFFF73EFBA06A18B1FB
:1041100004F11800FFF738FBE06A01213A69814099
:104120001143396100EB800008EB8000211DFFF78F
:104130006FFBE06A3968C96A8842CCD30126CAE7B6
:10414000680100202E2E5C2E2E5C4672656552544E
:104150004F535C7372635C7461736B732E63000006
:104160004572726F723A25732C25640D0A000000A7
:104170007C03002070B506460C461A4D286B0028BB
:1041800005D140F6993218A11EA0FEF7C9FC44F0F3
:1041900000403060F4682CB940F6A13212A119A099
:1041A000FEF7BEFC3046FFF7EFFA201DFFF7ECFAF2
:1041B000E06A01262A6906FA00F1114329611549CE
:1041C00000EB800001EB8000211DFFF721FBE06A7E
:1041D0002968C96A884202D90120EE6170BD0020B9
:1041E00070BD0000680100202E2E5C2E2E5C4672F1
:1041F000656552544F535C7372635C7461736B7387
:104200002E6300004572726F723A25732C25640D7F
:104210000A0000007C0300202DE9F0410024002763
:104220002B4D286B002805D14FF4FD6229A130A049
:10423000FEF776FCFFF7F8FA286B401E2863286B20
:10424000F0BBA868E0B3DFF8B88001261DE0D8F81D
:104250000C00C46804F11800FFF796FA201DFFF760
:1042600093FAE06A2A6906FA00F1114329612549A7
:1042700000EB800001EB8000211DFFF7C9FAE06A26
:104280002968C96A884200D3EE61D8F80000002886
:10429000DDD10CB1FFF790F9AC6944B1FFF7F0FE46
:1042A00000B1EE61641E002CF8D10020A861E8691D
:1042B00030B10127144938070860BFF34F8F00E081
:1042C00001E0BFF36F8FFFF7EBFA3846BDE8F081EE
:1042D000680100202E2E5C2E2E5C467265655254BD
:1042E0004F535C7372635C7461736B732E63000075
:1042F0004572726F723A25732C25640D0A00000016
:10430000240600207C03002004ED00E000000000F3
:10431000000000000000000000000000000000009D
:10432000000000000000000000000000000000008D
:1043300000000000000000000000000000008001FC
:104340008001800180018001800180018001800165
:104350008001800180018001000000008001800157
:10436000000000000000000000000000000000004D
:10437000CC00CC00CC00CC00CC00CC000000000075
:10438000000000000000000000000000000000002D
:10439000000000000000000000000000000000001D
:1043A0000000000000000000600C600C600C300693
:1043B0003006FE1FFE1F300638071803FE1FFE1FC3
:1043C000180318038C018C018C0100000000800090
:1043D000E003F80F9C0E8C1C8C188C009800F801E0
:1043E000E007800E801C8C188C189C18B80CF00FFD
:1043F000E0038000800000000000000000000000DA
:1044000000000E181B0C110C1106110611031103EC
:104410009B018E01C038C06C60446044304430441D
:104420001844186C0C380000000000000000E00187
:10443000F0033807180618063003F001F000F80002
:104440009C310E33061E061C061C063FFC73F02131
:10445000000000000000000000000000000000005C
:104460000C000C000C000C000C000C000000000004
:10447000000000000000000000000000000000003C
:10448000000000000000000000000000000000022A
:1044900000038001C000C0006000600030003000F8
:1044A000300030003000300030003000600060002C
:1044B000C000C000800100030002000000002000D6
:1044C0006000C000800180010003000300060006B8
:1044D00000060006000600060006000600030003B2
:1044E00080018001C000600020000000000000008A
:1044F0000000000000000000C000C000D806F8075F
:10450000E001300338070000000000000000000058
:10451000000000000000000000000000000000009B
:104520000000000000000000800180018001800187
:104530008001FC3FFC3F80018001800180018001FF
:10454000000000000000000000000000000000006B
:10455000000000000000000000000000000000005B
:1045600000000000000000000000000000008001CA
:104570008001000100018000000000000000000038
:10458000000000000000000000000000000000002B
:1045900000000000E007E00700000000000000004D
:1045A000000000000000000000000000000000000B
:1045B00000000000000000000000000000000000FB
:1045C0000000000000000000000000000000C0002B
:1045D000C000000000000000000000000000000C0F
:1045E000000C000600060006000300030003800321
:1045F000800180018001C000C000C0006000600038
:104600000000000000000000000000000000E003C7
:10461000F007380E180C0C180C180C180C180C1885
:104620000C180C180C180C18180C380EF007E003B6
:104630000000000000000000000000000000000179
:104640008001C001F0019801880180018001800192
:104650008001800180018001800180018001800152
:104660000000000000000000000000000000E00367
:10467000F80F180C0C180C1800180018000C000685
:1046800000038001C000600030001800FC1FFC1F08
:104690000000000000000000000000000000E00139
:1046A000F807180E0C0C0C0C000C0006C003C00719
:1046B000000C001800180C180C18180CF807E00370
:1046C0000000000000000000000000000000000CDE
:1046D000000E000F000F800DC00C600C600C300C41
:1046E000180C0C0CFC3FFC3F000C000C000C000CE8
:1046F0000000000000000000000000000000F80FB3
:10470000F80F180018000C00EC03FC071C0E001C2E
:104710000018001800180C181C0C180EF807E003FD
:104720000000000000000000000000000000C007C2
:10473000F00F381C181818000C00CC03EC0F3C0EBE
:104740001C1C0C180C180C18181C380EF007E00371
:104750000000000000000000000000000000FC1F3E
:10476000FC1F000C00060006000380038001C0014E
:10477000C000E000600060007000300030003000D9
:104780000000000000000000000000000000E00346
:10479000F007380E180C180C180C3806F007F00744
:1047A000180C0C180C180C180C18380CF80FE00327
:1047B0000000000000000000000000000000E00316
:1047C000F007380E1C0C0C180C180C181C1C381E8A
:1047D000F81BE0190018000C000C1C0EF807F00183
:1047E00000000000000000000000000000000000C9
:1047F00000000000000000008001800100000000B7
:1048000000000000000000000000000080018001A6
:104810000000000000000000000000000000000098
:104820000000000000000000800180010000000086
:104830000000000000000000000000008001800176
:1048400000010001800000000000000000000000E6
:104850000000000000000000000000000010001C2C
:10486000800FE003F8001800F800E003800F001C40
:104870000010000000000000000000000000000028
:10488000000000000000000000000000F81F000011
:1048900000000000F81F0000000000000000000001
:1048A0000000000000000000000000000000000008
:1048B00000000000000000000000000008003800B8
:1048C000F001C007001F0018001FC007F0013800EA
:1048D0000800000000000000000000000000E003ED
:1048E000F80F180C0C180C180018000C0006000328
:1048F0008001C000C000C00000000000C000C00077
:1049000000000000000000000000000000000000A7
:10491000E00718180420C229224A11440944094416
:10492000094409221113E20C024004201818E00780
:1049300000000000000000000000000000008003F4
:104940008003C006C006C006600C600C301830182A
:104950003018F83FF83F1C700C600C6006C006C0B1
:104960000000000000000000000000000000FC0348
:10497000FC0F0C0C0C180C180C180C0CFC07FC0F82
:104980000C180C300C300C300C300C18FC1FFC07D1
:104990000000000000000000000000000000C00750
:1049A000F01F38381C300C70066006000600060048
:1049B00006000600060006600C701C30F01FE007C1
:1049C0000000000000000000000000000000FE03E6
:1049D000FE0F060E061806180630063006300630A2
:1049E00006300630063006180618060EFE0FFE03C7
:1049F0000000000000000000000000000000FC3F7C
:104A0000FC3F0C000C000C000C000C00FC1FFC1FF9
:104A10000C000C000C000C000C000C00FC3FFC3FD8
:104A20000000000000000000000000000000F83F4F
:104A3000F83F18001800180018001800F81FF81F99
:104A400018001800180018001800180018001800A6
:104A50000000000000000000000000000000E00F67
:104A6000F83F3C780E6006E007C00300030003FE39
:104A700003FE03C007C006C00EC03CF0F83FE00FC5
:104A800000000000000000000000000000000C30EA
:104A90000C300C300C300C300C300C30FC3FFC3F38
:104AA0000C300C300C300C300C300C300C300C3026
:104AB0000000000000000000000000000000800175
:104AC00080018001800180018001800180018001DE
:104AD00080018001800180018001800180018001CE
:104AE00000000000000000000000000000000006C0
:104AF0000006000600060006000600060006000686
:104B0000000600060006180618063807F003E00144
:104B1000000000000000000000000000000006305F
:104B20000618060C060606038601C6006600760017
:104B3000DE008E0106030606060C06180630066027
:104B4000000000000000000000000000000018004D
:104B50001800180018001800180018001800180095
:104B6000180018001800180018001800F81FF81F87
:104B700000000000000000000000000000000EE047
:104B80001EF01EF01EF036D836D836D836D866CC91
:104B900066CC66CCC6C6C6C6C6C6C6C686C386C3EF
:104BA00000000000000000000000000000000C30C9
:104BB0001C303C303C306C306C30CC30CC308C31E4
:104BC0000C330C330C360C360C3C0C3C0C380C30D3
:104BD0000000000000000000000000000000E007EE
:104BE000F81F1C380E70066003C003C003C003C06A
:104BF00003C003C003C006600E701C38F81FE00736
:104C00000000000000000000000000000000FC0F99
:104C1000FC1F0C380C300C300C300C300C18FC1F06
:104C2000FC070C000C000C000C000C000C000C002D
:104C30000000000000000000000000000000E0078D
:104C4000F81F1C380E70066003E003C003C003C0E9
:104C500003C003C007E006630E3F1C3CF83FE0F7CB
:104C600000C0000000000000000000000000FE0F77
:104C7000FE1F06380630063006300638FE1FFE07D7
:104C800006030606060C06180618063006300660EF
:104C90000000000000000000000000000000E00331
:104CA000F80F1C0C0C180C180C001C00F803E00F7B
:104CB000001E0038063006300E301C1CF80FE007CE
:104CC0000000000000000000000000000000FE7F67
:104CD000FE7F8001800180018001800180018001D0
:104CE00080018001800180018001800180018001BC
:104CF00000000000000000000000000000000C3078
:104D00000C300C300C300C300C300C300C300C30C3
:104D10000C300C300C300C300C301818F81FE00739
:104D20000000000000000000000000000000036020
:104D30000630063006300C180C180C18180C180C1D
:104D4000380E30063006700760036003C001C001F2
:104D500000000000000000000000000000000360F0
:104D6000C361C361C36166336633663366336633DA
:104D700066336C1B6C1B6C1B2C1A3C1E380E380ED9
:104D800000000000000000000000000000000FE034
:104D90000C7018303018700C600EC0078003800350
:104DA000C003E006700C301C18180C300E6007E0D1
:104DB000000000000000000000000000000003C030
:104DC00006600C301C383818300C6006E007C00351
:104DD00080018001800180018001800180018001CB
:104DE0000000000000000000000000000000FC7F48
:104DF000FC7F006000300018000C000600038001FA
:104E0000C0006000300018000C000600FE7FFE7F2E
:104E10000000000000000000000000000000E003AF
:104E2000E0036000600060006000600060006000FF
:104E30006000600060006000600060006000600072
:104E4000600060006000E003E0030000000030004C
:104E50003000600060006000C000C000C000C00101
:104E600080018001800100030003000300060006AA
:104E70000000000000000000000000000000E0034F
:104E8000E00300030003000300030003000300032A
:104E900000030003000300030003000300030003FA
:104EA000000300030003E003E00300000000000033
:104EB000C001C00160036003600330063006180CB7
:104EC000180C0000000000000000000000000000BE
:104ED00000000000000000000000000000000000D2
:104EE00000000000000000000000000000000000C2
:104EF0000000000000000000000000000000FFFFB4
:104F0000FFFF0000000000000000000000000C0097
:104F10000C000C000C000C000C0000000000000055
:104F20000000000000000000000000000000000081
:104F30000000000000000000000000000000000071
:104F40000000000000000000F003F8071C0C0C0C2F
:104F5000000FF00FF80C0C0C0C0C1C0FF80FF018D5
:104F60000000000000000000000000000000180029
:104F70001800180018001800D803F80F380C18187B
:104F800018181818181818181818380CF80FD8030B
:104F90000000000000000000000000000000000011
:104FA0000000000000000000C003F007300E180CE5
:104FB0001800180018001800180C300EF007C00375
:104FC00000000000000000000000000000000018C9
:104FD0000018001800180018C01BF01F301C18180B
:104FE00018181818181818181818301CF01FC01B9B
:104FF00000000000000000000000000000000000B1
:105000000000000000000000C003F00F300C181872
:10501000F81FF81F180018003818301CF00FC007D0
:105020000000000000000000000000000000800FF1
:10503000C00FC000C000C000F007F007C000C000F3
:10504000C000C000C000C000C000C000C000C00060
:105050000000000000000000000000000000000050
:105060000000000000000000E00DF80F180E0C0C0E
:105070000C0C0C0C0C0C0C0C0C0C180EF80FE00D9E
:10508000000C0C0C1C06F807F001000000001800D2
:105090001800180018001800D807F80F381C181846
:1050A0001818181818181818181818181818181880
:1050B0000000000000000000000000000000C00030
:1050C000C000000000000000C000C000C000C00020
:1050D000C000C000C000C000C000C000C000C000D0
:1050E0000000000000000000000000000000C00000
:1050F000C000000000000000C000C000C000C000F0
:10510000C000C000C000C000C000C000C000C0009F
:10511000C000C000C000F8007800000000000C00D3
:105120000C000C000C000C000C0C0C060C038C0189
:10513000CC006C00FC009C018C030C030C060C0CD6
:105140000000000000000000000000000000C0009F
:10515000C000C000C000C000C000C000C000C0004F
:10516000C000C000C000C000C000C000C000C0003F
:10517000000000000000000000000000000000002F
:1051800000000000000000007C3CFF7EC7E383C1FC
:1051900083C183C183C183C183C183C183C183C1EF
:1051A00000000000000000000000000000000000FF
:1051B00000000000000000009807F80F381C1818C5
:1051C000181818181818181818181818181818185F
:1051D00000000000000000000000000000000000CF
:1051E0000000000000000000C003F00F300C181891
:1051F00018181818181818181818300CF00FC003C1
:10520000000000000000000000000000000000009E
:105210000000000000000000D803F80F380C181838
:1052200018181818181818181818380CF80FD80368
:1052300018001800180018001800000000000000F6
:105240000000000000000000C01BF01F301C1818F8
:1052500018181818181818181818301CF01FC01B28
:1052600000180018001800180018000000000000C6
:105270000000000000000000B007F00370003000E4
:10528000300030003000300030003000300030009E
:10529000000000000000000000000000000000000E
:1052A0000000000000000000E003F003380E180CBE
:1052B0003800F003C007000C180C380EF007E003AC
:1052C00000000000000000000000000000000000DE
:1052D0008000C000C000C000F007F007C000C000A0
:1052E000C000C000C000C000C000C000C0078007F0
:1052F00000000000000000000000000000000000AE
:1053000000000000000000001818181818181818DD
:1053100018181818181818181818381CF01FE01941
:10532000000000000000000000000000000000007D
:1053300000000000000000000C18180C180C180CDD
:10534000300630063006600360036003C001C00110
:10535000000000000000000000000000000000004D
:105360000000000000000000C141C141C36163634F
:10537000636363633636363636361C1C1C1C1C1CB5
:10538000000000000000000000000000000000001D
:1053900000000000000000001C38381C300C6006C3
:1053A00060036003600360036006300C381C1C3827
:1053B00000000000000000000000000000000000ED
:1053C000000000000000000018303018301870187D
:1053D000600C600CE00CC006C006800380038003F4
:1053E00080018001C001F00070000000000000009A
:1053F0000000000000000000FC1FFC1F000C000665
:1054000000038001C000600030001800FC1FFC1F7A
:105410000000000000000000000000000000000389
:105420008001C000C000C000C000C000C00060001B
:105430006000300060004000C000C000C000C0003C
:10544000C000C000800100030000000000008001D7
:105450008001800180018001800180018001800144
:105460008001800180018001800180018001800134
:105470008001800180018001800100000000600047
:10548000C000C00180018001800180018001000313
:1054900000030006000300018001800180018001FB
:1054A00080018001C00060000000000000000000DA
:1054B000000000000000000000000000F010F81FD5
:1054C000080F0000000000000000000000000000C5
:1054D0000000000000000000000000008047000005
:1054E000814E000081580000814000000000000053
:1054F000002003E001053C000108280C50320305A0
:105500000000000000000017191E148B2B0D33350E
:105510000C080000009A0311000100000000003296
:10552000000000205894C50200000004B02300933E
:105530002B007B35006941005B4F005B00000000E1
:10554000000000000000000000000000000000005B
:10555000000000000000000000000000000000004B
:10556000020406080A0C0E10121416181AFF000086
:105570000000000000000000000000000000000229
:105580000406080A0C0F10121316181C1D1E1F20EB
:1055900021222426FFFFFFFF000000FFFFFFFFFF87
:1055A000FFFFFFFFFFFFFFFF4801002003E00105B1
:1055B0000D000108280F5032030500000000000014
:1055C00000000000008A2A0C45470C080000000279
:1055D000022D0000000000036432000000286494E3
:1055E000C502070000049C2C008F3400843F007C1F
:1055F0004C00775B00770000000000000000000016
:10560000000000000000000000000000000000009A
:105610000000000000000000000018161412100E18
:105620000C0A08060402FFFF000000000000000052
:10563000000000000000000016181C1D1E1F202185
:1056400022241312100F0A0806040200FFFFFFFFB6
:10565000FFFF00000000000000000000000000004C
:10566000000024013C3C2D4754502D4552524F52CE
:105670002D3E3E2049324320526561643A20307805
:10568000253034582C202564206279746573206697
:1056900061696C65642C20657272636F64653A2081
:1056A0002564212050726F63657373207265736582
:1056B000742E0A003C3C2D4754502D4552524F52F7
:1056C0002D3E3E204932432057726974653A20309E
:1056D00078253034582C2025642062797465732035
:1056E0006661696C65642C20657272636F64653AEB
:1056F000202564212050726F636573732072657377
:1057000065742E0A000000002857000800000020E1
:10571000CC010000AE0300085C570008CC0100205B
:1057200094980000502B0008118495BA0A6809016A
:10573000020304060708090CA910011122A0130C8A
:1057400043130810721833FFFF0211D003F1804792
:0C5750000A11FF0101581AAA0181000093
:04000005080001AD41
:00000001FF
